:10635C00706172616D657465727320617265206322
:10636C006F7272656374202100706172616D657467
:10637C00657273206572726F72202100726573747E
:10638C006F726520706172616D65746572732E2E0B
:10639C002E00FFFFFFFF08080208010100000102A8
:1063AC0000F116007375636365737366756C6C79B5
:0363BC002021009D
:10214400541CE8000000FFFFFFFF0808020801011B
:072154000000010200F1167A
:106F4E00A3F07B017A1C7980227BFF901C8B74014D
:0E6F5E00F07D1F227B017A1C79EB7411F0226A
:0B70FA00125950125F99125DB080F82F
:105950001261557A0079021259C47A007902124113
:10596000CE7A0679C41259C47A0679C41241CE7A25
:105970000D79861259D27A0D79861241CE7A147930
:10598000481259D27A1479481241CE1260EB125E55
:105990002C126DC2901D09E054FEF0126ECC126FF5
:1059A0002F126FA8126FC6C2A7126F10D2AF12715A
:1059B00017901CF5E0700C1269FA901CF57401F058
:1059C0001269C2227B01125F227E067FC27D007BAC
:1059D00001227B01125F227E067FC27D007B0122B5
:10615500E4901C80F07405126F4EE4FF124BDD9045
:106165001C807403F0740A126F4EE4FF1261B1FFD4
:106175001261A3A37432126F4F7F01124BDD901C85
:10618500807401F0A3747C126F4F7F021261B17F9E
:0E619500031261A3A314126F4F7F03024BDDB0
:1061A3007A1C7980124BDD901C807403F022124B11
:0B61B300DDE4901C80F0A304F0FB2250
:106C0600E4FFFE901C85126F62E4126D437B017AED
:106C16001C79EB74FF901C87F0A3F07D0F12578C44
:0F6C2600901CFAE0B50607A3E0B50702D322C31E
:016C3500223C
:105E2C00126C067BFF50127A63795C126F597F0EED
:105E3C001255717FE87E03805E7A637975126F5913
:105E4C007F131255717FF47E01126FE47A637988A7
:105E5C00126F577F13125571E4FFFE126E3678EBFA
:105E6C007C1C7D017BFF7A63799E7E007F11123E44
:105E7C00B2901C88126F62E4FFFE126CBF7FE87E4A
:105E8C0003126FE4126E5C7A6379B0126F577F3134
:0B5E9C001255717FF47E01126FE422AA
:1050360020323430302000203438303020002039FF
:1050460036303020003134343030200031393230BF
:1050560030200033383430302000353630303020C0
:1050660000353736303020003131353230300039B6
:10507600323136303000B4F2BFAA00B9D8B1D5000B
:10508600D6F7BBFA00B4D3BBFA0045746865726EF6
:10509600657400574946492F344700525334383512
:1050A600004F74686572005050495F7000C7EBCAC4
:1050B600E4C8EBC3DCC2EB00C7EBCAE4C8EBD0C262
:1050C600C3DCC2EB00C7EBC8B7C8CFD0C2C3DCC2D3
:1050D600EB0053544F500052554E00B9D8B1D5CEBF
:1050E600DECFDFC4A3BFE900B4F2BFAACEDECFDFB6
:1050F600C4A3BFE900D2D4CCABCDF800CEDECFDF5F
:10510600CDF800C0A9D5B9CDF800C4DAB2BFCDF844
:1051160000CAC7B7F1BBD6B8B4B3F6B3A7C9E8D6C9
:10512600C300CAC700B7F100C8C8B5E300415020A4
:10513600494400504C4331365F415000C4A3CABDB8
:10514600004D61737465722D4F626A65637400C0A9
:0A515600A9D5B9CDF8D0ADD2E9001B
:10215B00603C1C1400F504FF503601FA82FF503D21
:10216B0002FD41FF504403FE2CFF504B04FEA1FF28
:10217B00505205FF51FF505906FF88FF506007FF73
:10218B008BFF506708FFC6FF506E09FFF9FF5075B4
:10219B00411C500A4C1C74FF507CFF704FFF508148
:1021AB00FF7068411BEB024C1C51FF5086FF70D235
:1021BB00FF508BFF710E411C7202491C69FF50903E
:1021CB00FF5099FF50A1411BD6034C1C5DFF50A73C
:0D21DB00FF7132FF50ADFF7139411C7302DE
:1056E400901C927408F07A0B79C07BFFA312415D81
:1056F4007B0522E075F006A42417F582E4341CF53A
:105704008312413D901C8B7401F0227BFFE4901CBA
:105714008BF0227BFFE4901C8BF022E075F006A452
:105724002415F582E4341CF583E0FEA3E022901CEA
:10573400927408F07BFF7A0B79BB227BFFE4901C08
:105744008BF0227BFFE4901C8BF0227BFFE4901C07
:105754008BF022F58312413DE4901C8BF07D0A22EC
:10576400901C8312413DE92403F9E43AFA22740CB3
:10577400901C92F07BFF227BFFE4901C8BF0229024
:085784001C8312413D023ED8D6
:106F1000E4901CEAF0126C65127105120003901CDB
:0F6F2000F7E0901BFBF0901CF9E0901BFDF022B6
:08000300901CF4E0FF0270EE16
:09710500901CF3E024FF928722A4
:106C6500901CEF12571FF58BEEF58D901CF0125707
:106C75001FF5D7EEF5D6901CF112571FF5D5EEF599
:0D6C8500D4901CF212571FF5D3EEF5D22269
:1061BE00901C8312415D125764C003C002C00112CD
:1061CE0057837C00D001D002D00329F9EC3AFA12A1
:1061DE003ED8F47003123F40EF6401700304800C4C
:1061EE00123ED87005740A123F4074FF123F1E1201
:1061FE003ED875F00A84E5F0123F40125764C00392
:10620E00C002C0011257837E00D001D002D00329F4
:09621E00F9EE3AFA123ED8FF2213
:106E82007B017A1C799A901CAE12415D901CB1E490
:106E9200F0A37404F07A1C7986125D29EF70037FE7
:056EA20001227F002227
:10002600901C8312415D7E007F047DFF12576A1289
:0C00360041CE901C8312413DE4023F408B
:107081007401123F1E123ED8FF64047005901CE982
:0870910004F0EF5403023F403C
:10709900126E5C74401257747A1B7944A312415DD5
:0870A9007BC0E4FDFF024A3246
:106D6E00126E5C901C927432F07BFF7A0C79CDA37C
:106D7E0012415D7B517D08E4FF124A327A5079B39D
:0A6D8E0012570F7D0F7F640255714C
:105CA200126E5C901CEAE06062E4901C83F0901C2F
:105CB20083E0FFC3940474809480503B74EF2FF50B
:105CC20082E4341BF583E0FF7E007B017A1C798439
:105CD200901C8BE4F0A3740AF0124D76901C83E0C2
:105CE20075F014A42464FF1257087D1212557190A6
:105CF2001C83E004F080B71257727A0B799BA312CF
:105D0200415D7B107D107FAF124A327A5079BE120C
:105D1200570F7D0F7F0F1255717A5079CB1257179B
:075D22007D237F0F02557184
:1066EE00126E5C7BFF7A5079D81257087D187F0F97
:1066FE001255717BFF7A5079DD1257087D187F96FF
:10670E00125571901CF3E0901C92700B7438F07B54
:10671E00FF7A0F790480097438F07BFF7A1279249E
:0E672E00A312415D7B64E4FD7F2D124A3222EE
:10691000126E5C901CF4E075F01EA4240BFD12575F
:10692000727A0B797BA312415D7B107F0A124A3287
:106930007A5079E11257177D0A7F1E1255717A50ED
:0C69400079EE12573F7D287F1E02557132
:10694C00126E5C7A5079FB12573F7D1D7F0A1255EF
:10695C0071901CEF1256F77D1F7F691255711256FC
:10696C00E47D1F7F95124A32901C927408F07A0BCA
:0C697C0079BB1256EE7D1F7F61024A328B
:106A9D00126E5C7A5179021257477D1D7F0A12558D
:106AAD0071901CF01256F77D1F7F691255711256A9
:106ABD00E47D1F7F95124A321257321256F07D1F18
:056ACD007F61024A3266
:106AD200126E5C7A5179091257477D1D7F0A125551
:106AE20071901CF11256F77D1F7F69125571125673
:106AF200E47D1F7F95124A321257321256F07D1FE3
:056B02007F61024A3230
:106B0700126E5C7A51791012574F7D1D7F0A12550C
:106B170071901CF21256F77D1F7F6912557112563C
:106B2700E47D1F7F95124A321257321256F07D1FAD
:056B37007F61024A32FB
:106C9200126E5C7A51791712574F7D147F3012555C
:106CA200717A51792812577B7D307F0A1255717A99
:0D6CB20051792B12577B7D307FAC0255715C
:1064DF00126E5C7BFF7A51792E12575C7F0A125530
:1064EF0071901CF6E075F006A42474F582E4341C58
:1064FF001257577F731255711256E47D0D7F951207
:10650F004A321257321256F07D0D7F61124A327B9A
:10651F00FF7A5179331257087D2B7F0A1255717B01
:0F652F00FF7A5179391257087D2B7F6102557120
:10629000126E5C7BFF7A51794212575C7F0A12556D
:1062A00071901BFBE075F006A42451F582E4341CC8
:1062B0001257577F731255711256E47D0D7F951258
:1062C0004A321257321256F07D0D7F61124A327BEC
:1062D000FF7A5179471257087D737F0512557190E7
:1062E0001CF8E075F003A42469F582E4341C12570D
:0862F000037D737F78025571F4
:10004600126E5C7BFF7A517955E4901C8BF07D1D16
:100056007F05125571901BFDE075F006A4245DF531
:1000660082E4341C1257037D1F7F691255711256A4
:10007600E47D1F7F95124A321257321256F07D1FC9
:050086007F61024A3217
:09710E00D29C439A1043AC1022FC
:0F70D200901CF87402F0C29C539AEF53ACEF225B
:0771320053AC7F53847F2260
:0771390043AC804384802277
:1069C2007B017A1C79EB74FF901C87F0A3F07D0F9A
:1069D20012578C901CFAEEF0A3EFF0C2AFE4FFFE68
:1069E200126E367B017A1C79EB901C887411F0E4EC
:0869F200FFFE126CBFD2AF22C0
:106F6C000305FF46AB0105FF46AB0405FF46AB0529
:0E6F7C0003FF46AB0501FF46AB0504FF46AB25
:1021E8007B08000200000000000000000000000062
:1021F80000000000000000000000000000000000D7
:1022080000000000000000000000000000000000C6
:1022180000000000000000000000000000000000B6
:1022280000000000000000000000000000000000A6
:103CE800000000000000000000000000410000008B
:043CF8004100010086
:105AFE00901C8212413D9006C1123EF175F048A4F1
:105B0E0029F9EA35F0FA22900001E075F048A4FF79
:105B1E00901C8512413DE92FF9EA22E92404F9E4AB
:105B2E003AFA22901C8212413D9006C12290004406
:105B3E00E4F5F01240C27E007F402275F048A4F5D5
:105B4E008285F0832212413DE94A4B22900002E405
:105B5E00023F5212416689828A830241CC900044F0
:105B6E0012403D901C94F022123EF1FF901C80E0FA
:0C5B7E006F22123EF1FF901C81E06F22AC
:065F2200901C8012415D9D
:105F2800E4901C83F0F0901C83E0C39418E4940080
:105F3800504E901C8012413D901C83E0FF125B493B
:105F4800E4123F52EF125B0A900001E4123F521232
:105F58005B5A900003E4123F52900044E4F5F012BB
:105F680040C2900046E475F001125B41C007125B25
:105F7800297D00D0071241CE901C83E004F080A652
:105F8800901C80125B34E4123F529006C0E4023F3A
:015F980052B6
:105DB000901CF7E06401704D900000F0900000E04E
:105DC000FEC39403E494005062E0FD75F005A42442
:105DD0006CF582E4346FF583E493FFED75F005A470
:105DE000246DF582E4346FF583E493FDEE75F005E0
:105DF000A4246EF582E4346FF583125B6190000099
:105E0000E004F080B7901CF8E014600C14600E24DD
:105E1000027018906F7B8008906F808003906F8570
:0B5E2000E493FFA3E493FDA3125B6179
:015E2B002254
:106B3C007B007A007900EE702AEF24FD601114605E
:106B4C00151460192404701B7B017A007902227BD6
:106B5C00017A0679C4227B017A0D7986227B017A2F
:036B6C0014794851
:016B6F002203
:106B70007B007A007900EE702AEF24FD601114602A
:106B8000151460192404701B7B017A1C79BC227BCC
:106B9000017A1C79C7227B017A1C79D2227B017A87
:036BA0001C79DD80
:016BA30022CF
:0A46AB00901C81EDF0901C80EFF0F0
:1046B5007E00126B3C901C8212415D901C81E0FFD4
:1046C500126B3C901C8512415D901C80E0FF126BC3
:1046D50070901C8812415D901C81E0FF126B7090F8
:1046E5001C8B12415D901C82125B5370030248863D
:1046F500901C85125B537003024886901C88125BE0
:10470500537003024886901C8B125B53700302485A
:1047150086901CF7E07010901C81E0FDA3125B01F0
:10472500900001ED123F52901C8212413DC003C022
:1047350002C001125B31123EF1125B49D001D00279
:10474500D003125B7660030247E1125AFE90000126
:10475500125B8060030247E1A3125B019000021225
:104765003EF16078125AFE125B5A901C81E0640497
:104775007010D2A7A3125B01900044E475F00112FA
:104785004075125AFE125B29901C9112415D125A16
:10479500FE125B6B901C8B12413D12607F125AFE1C
:1047A500125B3BC006C0077D00125AFE125B29D082
:1047B50007D0061241CE901C81E064047002C2A7A6
:1047C500125B31123EF12401FFE433FE7C007D18BB
:1047D500123F86AF05125B31ED123F52E4900001A6
:1047E500F0900001E0FFC39418E4940040030248F0
:1047F50086901C8512413D75F048EF125B4C125BAB
:10480500807075125B1535F0FA900001125B7670B9
:1048150067900002123EF1605F125B5A901C80E0C7
:104825006404700BD2A790004475F0011240759096
:104835000001E075F048A4FFAEF0125B1E3EFA12CF
:104845005B29901C9112415D125B1E3EFA125B6B57
:10485500901C8812413D12607F125B1535F0FA12EB
:104865005B3BC007125B297D00D0071241CE901C2F
:1048750080E064047002C2A7900001E004F00247E2
:01488500E64C
:01488600220F
:0B578C00901C8312415D901C86EDF024
:10579700E4901C89F0FDFC901C87E0FFA3E0901CBF
:1057A7008ACFF0A3EFF0E4901C89F0901C86E0FF0D
:1057B700901C89E0C39F505C901C83E475F0011234
:1057C7004146123ED8FF901C8AE0F0A3E06FF0E458
:1057D700FCFD901C8AE0FEA3E0FF30E019EEC31346
:1057E700FEEF13FFEE64A0FEEF6401FF901C8AEE4C
:1057F700F0A3EFF0800B901C8AE0C313F0A3E01333
:10580700F00DBD00010CED64084C70C6901C89E0DA
:0C58170004F08097901C8AE0FEA3E0FFE4
:015823002262
:10539D00C6F4CDA3BFAAB9D800CDA8D0C5B7BDCA94
:1053AD00BD00B9A4D7F7C4A3CABD00CDA8D0C5D040
:1053BD00ADD2E900C3DCC2EBD0DEB8C400B2A8CCDC
:1053CD00D8C2CAC9E8D6C300B1BEBBFAC8C8B5E3D6
:1053DD0000BBD6B8B4B3F6B3A7C9E8D6C300D2D4D0
:1053ED00CCABCDF800CEDECFDFCDF800C0A9D5B95E
:1053FD00CDF800C4DAB2BFCDF800FFFFFFFF007794
:10540D00726F6E672070617373776F726420210005
:10541D00496E76616C69642070617373776F726425
:10542D00210043757272656E7420636F756E7473AF
:10543D0020697320312E0043757272656E7420637E
:10544D006F756E747320697320322E00D0DEB8C470
:10545D00B3C9B9A600D0DEB8C4CAA7B0DC00506C81
:10546D006561736520776169742061206D6F6D656D
:10547D006E7400FFFFFFFF08080208010100000124
:10548D000200F11600000000000000000000000006
:01549D00000E
:103CFC00421B0A010960381B0CFF539D01FF66EE45
:103D0C00FF53A603FF6910FF53AF04FF6290FF53EC
:103D1C00B805FF0046FF53C107FF5CA2FF53CA0260
:103D2C00FF7120FF53D50EFF64DFFF53DE08FF6CDD
:103D3C00925C1BBAFF53EB0AFF694CFF53F20BFF6B
:103D4C006A9DFF53F90CFF6AD2FF54000DFF6B07FD
:103D5C00521B44000000000102011B0C000000007B
:103D6C000102011BBA60641B561E01FF69881B010E
:103D7C00FF68D31701FF5EA71D01FF70000F01FF45
:103D8C006DEA1E00FF65991B00FF65F01700FF6FC1
:103D9C008A1D00FF70C20F00FF00421E02FF5287F7
:103DAC001B02FF4F071702FF420C1D02FF684F0F4B
:103DBC0002FF701B1E03FF63BF1B03FF641F17036F
:0D3DCC00FF62F81D03FF70B10F03FF0091AF
:1044A40078817C1C7D017BFF7E007F02123EB290EE
:1044B4001C807A1C7981E0FF7E007B01901C8BE4D8
:1044C400F0A3740AF022901BECE075F014A42464A9
:1044D400FF901C8B7401F022901CF6EFF0901C747A
:1044E40075F00612413102413D78977C1C7D017BB9
:1044F400017E007F14023EB2901CEFE0FD901C5040
:10450400E0FB7A002278817C1C7D017BFF7E007FAA
:1045140002023EB2E024FE901B47F0901B45E014DB
:10452400901B48F0901B45E022E024FE901B50F0C5
:10453400901B4EE014901B51F0901B4EE022E0754E
:10454400F006901C15124131E0FEA3E022E075F064
:1045540014A42406FD901C92740CF07A0B797B7BD6
:10456400FFA312415D7B102212413D900003123ED5
:10457400F1901B0BF09000040241727B017A1B79CD
:10458400D722E4901B0AF07BFF22901B45E075F0D4
:1045940007A4240CF9741B35F0FA7B01901B4A2202
:1045A400901B4EE075F007A424BAF9741B35F0FA99
:1045B4007B01901B5322E4901C8BF07D0A7F7322B5
:1045C400F58312413DEF75F014A42405FDE4901C1D
:1045D4008BF07F4622E014901B47F0901B45E0903F
:1045E4001B48F00422E014901B50F0901B4EE09006
:1045F4001B51F00422901C80E0FF7E007B0122907E
:104604001B0BE0640622901B0A7401F0A37409F0EA
:104614007BFF227B017A1B79EC22901BFDE0FD904D
:104624001C73E0FB7A002278EB7C1C7D017E000287
:104634003EB2901BFBEFF075F006901C5122901BCC
:10464400FDEFF075F006901C5D22901BD7E075F02D
:1046540014A4246122901D0A7417F0A37470F0222C
:10466400901B45E0FD7B087A0022901B45E0901BDF
:1046740047F004227B017A1C790022901CEAE07B3B
:104684000122901CF4E06401F07BFF22901B4EE0B9
:10469400FD7B047A0022901B4EE0901B50F0042214
:0746A400901B0BE024F5223E
:105F9900125A70901C81EFF0126BA4901C81E0647E
:105FA9001F6061E4901C80F0901C80E0FFC3941492
:105FB90074809480504EEF75F005A42456F582E460
:105FC900341BF583E0FF901C81E0B5072F901C80FE
:105FD900E0FF75F005A42457F582E4341BF583E04E
:105FE900FE901B0AE0B50614EF75F005A42458F5D8
:105FF90082E4341BF58312413D0241C8901C80E0C4
:0460090004F080A47B
:01600D002270
:097117007BFF7A70799902008E69
:03008E000241C864
:105EA700124603707578837C1C7D0112457FFE7F47
:105EB70014123EB27A1C79E81244ED126E82EF702A
:105EC700217BFF7A547907901CAE12415D901CB17B
:105ED700E4F0A37404F07B017A1C79EB125D29EFDF
:105EE700700F7BFF7A67798312008EE4901B0AF0AC
:105EF7002212457F120026126E5C7BFF7A54790CC2
:105F07001244D57D1F7F311255717FE87E03126FD2
:0B5F1700E47BFF7A6D796E12008E2291
:0569880012460370340B
:10698D0012457F7F011261BE901C80EFF078817CF3
:10699D001C7D017BFF7A547992124511901C807AEF
:1069AD001C79811244BA124D7612464E1244D47D92
:0469BD0026125571D8
:0169C10022B3
:106DEA00901B0BE024FA601724FD7019901B0B749A
:106DFA0006F07BFF7A6D796E12008E1246592212C6
:066E0A00457F1270812299
:1070000012460370157BFF7A70799912008E901BDF
:0B7010000B7409F012457F12002622CD
:0568D3001246037037BE
:1068D80012457F7F021261BE901C80EFF078817CA8
:1068E8001C7D017BFF7A547994124511901C80120B
:1068F80045FC7A1C79811244C0124D7612464E121C
:0769080044D47D26125571F5
:01690F002265
:106F8A00901B4A12413D124579E94A4B600F901B0A
:0E6F9A000A7402F0901B4A12456C12008E22FF
:10659900901B46E0FF14F0EF7001F01246647F0192
:1065A900127036901B45EFF064077004A37402F073
:1065B900901B46E0FD7C00700A12466E12452424A9
:1065C900028011ED64014C901B4570051245D9807C
:1065D90003124518901B49F07BFF7A6779831200F3
:0765E9008E12458E02415D98
:01004200229B
:1070C20012460A7A70799912008E12457F020026C2
:1065F000901B46E0FF04F0EF640270037402F01297
:106600004664E4FF127036901B45EFF07002A3F071
:10661000901B46E0FD7C00700A12466E1245242451
:10662000028011ED64014C901B4570051245D98024
:1066300003124518901B49F07BFF7A67798312009B
:076640008E12458E02415D40
:10622700901CE9E07055126E5C901CEAE07BFF7AE7
:1062370054791D901C8B7017041262857A54792F3C
:106247001244D57D207F05125571124617801674AA
:10625700011262857A5479441244D57D207F051254
:1062670055711246781200267FE87E03126FE47B91
:10627700FF7A5C79A212008E7F00227F0122F07DD7
:09628700147F051255717BFF2202
:10420C00901B0BE01241A2430101434702431803E8
:10421C0043910443C505422F0743F80843670E003A
:10422C00004438126227EF7003024438901CEAE015
:02423C007059B7
:10423E00901C80F0901C80E0FFC3940474809480E6
:10424E00502A74EF2FF582E4341BF5831245FC7A65
:10425E001C79811244C0124D76901C801244CD7D83
:10426E0012125571901C80E004F080C8901C92745C
:10427E000CF07A0B799B1245637D107FAF124A3298
:06428E00901CEA7401F02F
:104294000242FB78837C1C7D011246171244F57A96
:1042A4001C79001244ED126E82EF602A7B017A1CA5
:1042B40079037F0412462B1269C212461712002694
:1042C400124678120026E4901B0AF012447A7BFF0F
:1042D4007A6779838019126E5C7BFF7A547962E481
:1042E400901C8BF07F461244977BFF7A5C79A21274
:1042F400008EE4901CEAF0E4901CE9F022901CF398
:10430400E06401F024FF92871269C27BFF7A667928
:10431400EE024435901CF4E07006FF1270EE801635
:104324007F011270EE126E5C7BFF7A54796B12443B
:10433400D57F1E12449712445A1245867A677983B0
:10434400024435901B5312413D124579E94A4B70A2
:1043540003024438901B0A7403F0901B5312456CFB
:10436400024435901CF6E0FF901C771244E4E94ABD
:104374004B600D75F006EF901C771244E71241C8AC
:1043840012445A1245867A677983024435901BFB9E
:10439400E0FF75F006901C541244E7E94A4B600DA7
:1043A40075F006EF901C541244E71241C8901BFBB1
:1043B400E0901CF71244391245867A6779830244E7
:1043C40035901BFDE0FF75F006901C601244E7E990
:1043D4004A4B600D75F006EF901C601244E71241E1
:1043E400C8901BFDE0901CF91244391245867A6787
:1043F4007983803DC2AFE4FFFE126E367BFF7A54B0
:1044040079807F1312462B7B017A1C79EB901C88F0
:104414007413F0E4FFFE126CBFD2AF126C6512711C
:10442400051200031269FA12447A1245867A6779F2
:104434008312008E22F01269C2126E5C7BFF7A54E2
:104444007959E4901C8BF07D167F461255717FF4E8
:104454007E01126FE4221269C2126E5C7BFF7A54F1
:104464007959E4901C8BF07D167F461255717FF4C8
:104474007E01126FE422126E5C7BFF7A547959E458
:10448400901C8BF07D167F461255717FF47E0112CD
:104494006FE4227D161255717FF47E01126FE422BF
:10701B00901B0BE024F9701212467F70067A1B79D5
:0B702B00EC80047A1C790012708122B6
:10684F00901B0BE024FC601E14602524FE7029129F
:10685F004617120026124678120026E4901CEAF022
:10686F00901CE9F08012901CF7E0901BFBF0800861
:10687F00901CF9E0901BFDF01245867A6779830230
:02688F00008E79
:10528700901B0BE024FE60611460541470030253FA
:105297005914700302536E24F7700302534724070F
:0A52A700600302538612467F70195F
:1052B1007A1B79EC1253927A5479961244A4124DC6
:0652C100761244CA7D12C2
:0352C7000253830C
:1052CA007A1C79001253927A5479981244A4124D96
:0952DA0076901C001244CD7D26E3
:1052E3000253831246867A69791002008E901B4F0F
:1052F300E0FF14F0EF7001F01246907F0112703658
:10530300901B4EEFF064037004A37402F0901B4FE4
:10531300E0FD7C00700A12469A124539240280117E
:10532300ED64014C901B4E70051245E98003124554
:105333002D901B52F07BFF7A6779C812008E1245BD
:10534300A402415D901CF6E0901BEB1253871244BC
:10535300DC1245BA802A901BFBE0901C7212538723
:105363001246361244E71245BA801512461EE4FF70
:105373001270361246421244E71244D57D1F7F69EC
:1053830012557122FDE0FB7A00E4FF127036227F92
:0A539300011261BE901C80EFF022B1
:104F0700901B0BE024FE6075146068147003024F59
:104F1700F214700302500724F77003024FE02407CE
:0A4F2700600302501F12467F702342
:104F31007A1B79EC12502B7A54799A124509124551
:104F4100F97A1C79811244C0124D761244CA7D123D
:034F510002501CEF
:104F54007A1C790012502B7A54799C124509124517
:104F6400F97A1C79811244C0124D76901C001244C7
:034F7400CD7D26CA
:104F770002501C1246867A69791002008E901B4FE8
:104F8700E0FF04F0C3EF940274809480400374023E
:104F9700F0124690E4FF127036901B4EEFF070024D
:104FA700A3F0901B4FE0FD7C00700A12469A124551
:104FB7003924028011ED64014C901B4E7005124597
:104FC700E9800312452D901B52F07BFF7A6779C861
:104FD70012008E1245A402415D901CF6E0901BEB77
:104FE7001250201244DC1245BA802A901BFBE09035
:104FF7001C721250201246361244E71245BA801529
:1050070012461E7F011270361246421244E71244BE
:10501700D57D1F7F6912557122FDE0FB7A007F0164
:0F502700127036227F021261BE901C80EFF022C1
:1063BF001246A46017146024146031240370501225
:1063CF0044FCE4FF127036901CEF802E901CF012EC
:1063DF0044FFE4FF127036901CF0801E901CF112E7
:1063EF0044FFE4FF127036901CF1800E901CF212E5
:1063FF0044FFE4FF127036901CF2EFF075F0069038
:10640F001C171244E71244D57D1F7F691255712264
:10641F001246A460171460241460312403705012C4
:10642F0044FC7F01127036901CEF802E901CF012EE
:10643F0044FF7F01127036901CF0801E901CF112E9
:10644F0044FF7F01127036901CF1800E901CF212E7
:10645F0044FF7F01127036901CF2EFF075F006903A
:10646F001C171244E71244D57D1F7F691255712204
:1062F8001246A4601714602114602B240370549074
:106308001CEF124542F58BEEF58D8025901CF0129E
:106318004542F5D7EEF5D68018901CF1124542F5A6
:10632800D5EEF5D4800B901CF2124542F5D3EEF56C
:10633800D21269C2126E5C7BFF7A547959E4901CC0
:106348008BF07D167F461255717FF47E01126FE443
:046358001270B122EC
:1070B100901B0A7402F0A3F07BFF7A6779C8020083
:0170C1008E40
:01009100224C
:10678300E4901C83F0126E5C901C83E0C39403744A
:106793008094805025E0FF2447F582E4341BF58381
:1067A300E075F007A4240CF582E4341B1245C412EF
:1067B3005571901C83E004F080CE901B4612455126
:0567C3007F32024A32A2
:1067C800E4901C83F0126E5C901C83E0C39403E495
:1067D80094005025E0FF2450F582E4341BF583E053
:1067E80075F007A424BAF582E4341B1245C4125587
:1067F80071901C83E004F080CF901B4F1245517FAD
:0468080032024A32DC
:097120007BFF7A6779C802008E3A
:106BA400901B0AE064017006A3E064096022EF64AC
:106BB4001F701A901D09E030E01654FEF012460AC8
:106BC4007A70799912008E12457F02002612465976
:016BD400229E
:106EA7003031323334353637383941424344454639
:106EB7004748494A4B4C4D4E4F50515253545556E3
:056EC7005758595A0064
:106D9800901C8812413D901CB5E475F00112402703
:106DA80085F082F58322901CB6E024FFFF901CB585
:0A6DB800E034FF22901C8802413DE8
:0C4D7600901C86EEF0A3EFF0A312415D4C
:104D8200788D7C1C7D017BFF7A6E79A77E007F2562
:104D9200123EB2E4901CB5F0A3F0901C8BE07004BC
:104DA200A3E0640A7027901C86E0FEA3E0FFC3EE36
:104DB200648094805017C3E49FFFE49E901CB2F07D
:104DC200A3EFF0126D98742D123F52800F901C8643
:104DD200E0FFA3E0901CB2CFF0A3EFF0901C8BE0B9
:104DE200FEA3E0FDAC06901CB2E0FEA3E0FF123F82
:104DF20086748D2DF582741C3CF583E0FF126D984C
:104E0200EF123F52901CB2E0FEA3E0FF901C8BE039
:104E1200FCA3E0FD123F86901CB2EEF0A3EFF04E31
:104E220070BA126DBC901CB5E0FEA3E0F5828E83D1
:104E3200E4123F52123ED8B42D0A901CB9E4F0A3FA
:104E420004F08007E4901CB9F0A3F0901CB9E0FFD5
:104E5200A3E0901CB7CFF0A3EFF0126DAEFE7C0082
:104E62007D02123FDBD3901CB8E09FEE6480F89085
:104E72001CB7E06480984003024F01126DBC901C85
:104E8200B7E0FEA3E0F5828E83123EF1901CB4F0EF
:104E9200126DAEFE901CBAE02FFF901CB9E03EFEF0
:104EA200901CB7E0FCA3E0FDC3EF9DFFEE9C8F8258
:104EB200F583123EF18D828C83123F52901CB4E036
:104EC200FF901CB6E024FFFD126DB5FC901CBAE009
:104ED2002DFD901CB9E03CFC901CB7E0FAA3E0FB6E
:104EE200C3ED9BFDEC9AFC126DBC8D828C83EF129C
:104EF2003F52901CB7E475F001124011024E5C90D3
:054F02001C8802413D86
:10703600A905EF7003098006E97002A90319AF03D9
:09704600E98FF084A9F0AF0122EA
:043DD900411CBB00CE
:10549E009006C2E090004675F048024131900D84AE
:1054AE00E090070875F048024131901446E0900DE7
:1054BE00CA75F048024131901B08E090148C75F0CB
:1054CE004802413175F04802413175F048024131D0
:1054DE0075F04802413175F04802413175F04802CD
:1054EE004131901C91E475F001124146023ED8758F
:1054FE00F048024131E0FEA3E0C39440EE94002256
:10550E00E475F001124027AFF0FE22E5822FF582FE
:10551E00E5833EF5832275F048024131F0901B0879
:10552E00E075F04822A3F0E4A3F0A374FFF0A37497
:10553E00C6F0A3E04401F0A37401F0A3229000038F
:10554E0012403DAEF022900001023EF1A3F0A37492
:10555E00FDF0A37441F022900002023EF19000068D
:03556E00023EF109
:106ECC00901CBC7401F074501255337440F054FE95
:106EDC00F0901CC574EFF0A3F07B017A1C79BC0216
:026EEC00563618
:030023000259E09F
:1059E000C0E0C0F0C083C082C0D075D0103099092B
:1059F000C299901CC4E054FEF0309869C298900699
:105A0000C2E09000051254A57401F09006C2E09027
:105A100000041254B2E070479006C2E090004812B1
:105A200054BFE4F0A304F012549E125503503012F8
:105A3000549E12550E9006C2E09000061254CC12ED
:105A40005519E599F09006C2E09000021254D27404
:105A500001F09006C2E09000031254D27405F09059
:105A60001CBB7401F0D0D0D082D083D0F0D0E03213
:106F2F00901CC77402F074101255337414F0901C37
:0F6F3F00D074FEF0A3F07B017A1C79C70256369E
:030043000258243C
:10582400C0E0C0F0C083C082C0D075D010E59A300B
:10583400E10A539AFD901CCFE054FEF0E59A30E063
:105844006A539AFE900D84E09006C71254D87401EE
:10585400F0900D84E09006C61254D8E07047900D85
:1058640084E090070A1254DEE4F0A304F01254AB6F
:1058740012550350301254AB12550E900D84E09023
:1058840006C81254DE125519E59BF0900D84E09081
:1058940006C41254E47403F0900D84E09006C5121B
:1058A40054E47405F0901CBB7403F0D0D0D082D0C3
:0658B40083D0F0D0E032C9
:106FA800901CD27403F0A37450F0740A12555A90CE
:0E6FB8001CD87408F07B017A1C79D202563680
:03008B000258BA5E
:1058BA00C0E0C0F0C083C082C0D075D010E5AC3063
:1058CA00E10A53ACFD901CDAE054FEF0E5AC30E09E
:1058DA006A53ACFE901446E0900D891254EA7401A2
:1058EA00F0901446E0900D881254EAE07047901444
:1058FA0046E0900DCC1254FDE4F0A304F01254B823
:10590A0012550350301254B812550E901446E090B6
:10591A000D8A1254FD125519E5ADF0901446E09027
:10592A000D861255247404F0901446E0900D8712E7
:10593A0055247405F0901CBB7404F0D0D0D082D0EA
:06594A0083D0F0D0E03232
:106FC600901CDD7404F0A37450F074A012555A900E
:0E6FD6001CE37410F07B017A1C79DD02563644
:03009300025B8A83
:105B8A00C0E0C0F0C083C082C0D075D010E58430B8
:105B9A00E10A5384FD901CE5E054FEF0E58430E010
:105BAA00605384FE12552B90144B1241317401122A
:105BBA00552A90144A124131E0704612552B90141E
:105BCA008E124131E4F0A304F01254C51255035069
:105BDA00301254C512550E12552B90144C124131E5
:105BEA00125519E58512552A901448124131740547
:105BFA00F0901CBBE0FF12552B901449124131EF73
:0C5C0A00F0D0D0D082D083D0F0D0E032B7
:10563600123ED8FD6401703B125554F5981255651B
:10564600428912554BF58BEEF58D900005123EF111
:1056560013928E900007123EF1428E900009123E80
:10566600F152B890000A123EF152B712556B24FF60
:1056760092AC227C00ED6402702B125554F59A12FE
:10568600554BF5D7EEF5D6900007123EF1428E1235
:10569600556B42AF900009123EF152B590000A12C6
:1056A6003EF152B622ED64034C7014125554F5AC1B
:1056B600125565F5D112554BF5D5EEF5D480191274
:1056C6003ED864047017125554F58412556542D1BC
:0E56D60012554BF5D3EEF5D212556B42AF22B2
:106EEE00900008123EF130E00AED1DAE0470011C58
:106EFE004E70EDE92408F9E43AFA123ED844010244
:026F0E003F4002
:06607F00901C8E12415D31
:10608500A2D0E433901C95F0E033333354F8F0900C
:106095001C94E0FF14F0EF604C901C8E12413D7D86
:1060A500887C13126EEE901C8E12413D123ED82450
:1060B500FE601114601514601F240370D21254F091
:1060C500F59980CB1254F0F59B80C4901C95E04265
:1060D500AC1254F0F5AD80B7901C95E04284125493
:0560E500F0F58580AA22
:0160EA002293
:10664700E090000575F048024131E09006C775F00B
:1066570048024131E02401FFE433FE7C007D18123B
:106667003F86AF0DEDF022E090070A75F048024132
:1066770031E0900D8975F048024131E0900DCC75FD
:10668700F04802413174FFF5F0024011E090144BDD
:0666970075F048024131DC
:106DC200E4901CFCF0A3F0A3F0A374A8F0A3741C3D
:106DD200F0A3E04401F04402F0A37420F0A3F07B9E
:086DE200017A1C79FC02680C27
:10680C00123ED8703D900001123EF1F58E900002C0
:10681C00123EF1F58990000312403DAEF0F58AEE80
:10682C00F58C900005123EF1FF13928CEFC31313FD
:10683C0092A9900006123EF142B8900007123EF168
:03684C0042B7222E
:03000B000251603F
:10516000C0E0C0F0C083C082C0D075D008901D0AD6
:10517000E07002A3E06017901D0A12668C901D0A71
:10518000E07002A3E07007901D09E04401F0900672
:10519000C2126647E060359006C2E0900048126691
:1051A0004BE0FEA3E04E9006C2600CE09000481277
:1051B000665512668C8015E09000041266727401C8
:1051C000F09006C212665B126647E4F0900D8412FE
:1051D0006651E0602D900D8412666EE0FEA3E04EF5
:1051E000900D84600812666E12668C8015E0900641
:1051F000C612667C7401F0900D8412665B126651D3
:10520000E4F0901446126678E0602D901446126621
:1052100082E0FEA3E04E9014466008126682126699
:105220008C8015E0900D881266867401F09014460B
:1052300012665B126678E4F0901B08126693E060D9
:105240003B901B08E090148E126697E0FEA3E04EA0
:10525000901B08600FE075F04890148E12413112D7
:10526000668C8018E075F04890144A124131740140
:10527000F0901B0812665B126693E4F0D0D0D082E7
:07528000D083D0F0D0E03232
:106FE400901C89EEF0A3EFF0901C8974FFF5F01269
:0B6FF400402745F0600512712980ED78
:016FFF00226F
:087129007F0B7EBEDEFEDFFCE1
:01713100223B
:104887002B2B2B0061002B4F6B0041542B574D4FA7
:1048970044453D41505354410D0A002B4F4B0041B5
:1048A700542B5741503D504C4331365F41502C4EAD
:1048B7004F4E450D0A0041542B484541525444542C
:1048C7003D3737373737373245373936453730365B
:1048D70031373832453633364636440D0A004154AF
:1048E7002B575354413D756E696F6E2C2A21796E93
:1048F7007A666B6A3230303931323135212A0D0A06
:104907000041542B524547454E413D434C4F55447A
:104917002C46495253540D0A0041542B534F434BD5
:10492700413D544350432C636C6F75642E7573720D
:104937002E636E2C31353030300D0A0041542B5325
:1049470045415243483D31353030302C636C6F75EB
:10495700642E7573722E636E0D0A0041542B5245F7
:1049670047434C4F55443D30303031393633393079
:1049770030303030303030303035362C536B644780
:10498700417A796C0D0A0041542B57414E4E3D44F4
:104997004843500D0A0041542B5A0D0A0041542B2D
:1049A700454E544D0D0A00FF4887FF488B03E8002A
:1049B7000000FF488BFF488D00C8000000FF4891AA
:1049C700FF48A200C8000000FF48A6FF48A200C891
:1049D700000000FF48BDFF48A200C8000000FF48D4
:1049E700E5FF48A200C8000000FF4908FF48A200F1
:1049F700C8000000FF4920FF48A200C8000000FFD0
:104A07004943FF48A200C8000000FF4962FF48A2CF
:104A170000C8000000FF498EFF48A200C800000040
:0B4A2700FF499DFF48A200C8000000EE
:106891007A4879917BFF7DC87C002275F00BA42496
:1068A100B4F582E43449F583E493FC740193FD2249
:1068B10075F00BA424AEF582E43449F583024166F8
:1068C1007A49799D7BFF7DC87C0022F0901C84026F
:0268D100413D47
:0C70EE00EF6006147005D29422C29422B8
:1069FA00E4901C83F0D294D2957FF47E01126FE466
:106A0A00E4901C83F0901C83E0C3940C74809480FF
:106A1A005014E0FF1268B1EF12689C12673C901C98
:066A2A0083E004F080DFB0
:016A30002243
:10673C00901C8412415D901C87ECF0A3ED1268CC88
:10674C00E94A4B6031901C87E07002A3E06027128D
:10675C0068CD12000E901C94EF1268CC901C911214
:10676C00415D7B017A1C79C712607F901C87E0FE2B
:07677C00A3E0FF126FE4220D
:106BD500E4901C80F0F0901C80E0FFC39402E494E4
:106BE50000501DEF1268B1E94A600D901C80E0125B
:106BF500689C4C600312673C901C80E004F080D6D2
:016C0500226C
:10704F00126BD512689112673C7A4979A412689530
:09705F0012673C1268C102673C93
:10706800126BD512689112673C7A4979A41268C5E7
:0970780012673C1268C102673C7A
:10009600B1EAB6A8BFAAB9D8B2CECA00C5E4D6C3DB
:1000A600CAB1BCE4D0D0C4A3C4E2C7EBCAE4C8EB6F
:1000B600C3DCC2EBD0C2C8B7C8CFD0DEB8C4B3C9A0
:1000C600B9A6CAA7B0DCD6F7BDE7C3E6B1BEB5D8B8
:1000D600C1ACBDD3D4B6B3CCCDA8D0C5B7BDCABD0F
:1000E600C6F4CDA3B2A8CCD8C2CAC9E8B4AEBFDAAA
:1000F600BBD6B8B4B3F6B3A7CAC7B7F1B5C8C4DAA6
:10010600B2BFCFB5CDB3D2BBB6FEC800CBC4B3F534
:10011600CABCBBAFD2D4CCABCDF8CEDECFDFC0A944
:10012600D5B9B4F2BFAAB9D8B1D5C4A3BFE9B1BE97
:10013600BBFAC8C8B5E3B9A4D7F7C4A3B4D3D0AD46
:10014600D2E98868FF48109212F21292100000005D
:100156000F000201080F000003002C24A42425E64A
:10016600242424242C0008040304080F090909097F
:100176000800404242FE424242FE4242400000081F
:1001860006010000000F000000004048494A48F8F8
:10019600484A4948400008080402010001020408D0
:1001A60008009054B6955C54349436549000000A76
:1001B6000A0A0A09050404020000482A987F284A08
:1001C60010EF08F80800090B05050B0008050205E5
:1001D6000800FA4A3E0A3E4AFA00E2223E000F05AD
:1001E600050505050F0007080E001017D555577DA4
:1001F6005755D517100008080F08080E08080F08ED
:100206000800FE2222FE0008488808FF08000702B0
:10021600020700000009080F000000F902F849492A
:100226004949F901FF00000F0003020202020B0810
:100236000F004824F20910121212F21210000000E8
:100246000F00000008080F0000008868FF4802FA47
:10025600AFAAAFFA020000000F000A0A0603060A58
:100266000A0088FF4800FE00820CE01F0000080F0D
:1002760000000309040300030C0011F20022EAAA9D
:10028600BFAAAAEA2200000F04000F0202020A0F08
:100296000000342CF7A4E8A4EA09CA04E800010126
:1002A6000F000F020F0003080F0000000181720CFF
:1002B6007080000000000804020100000001020432
:1002C6000800463282B2466B524A62126600000E3F
:1002D6000808080F0808080E000042F22EE2013D49
:1002E6002121213FE0000007020701010101090861
:1002F600070020AAB2E3B2AA00FE12F2110004021D
:10030600080F000A0403000F000042F22EE200F478
:1003160053F25A56F00000070207080701070109C1
:100326000F001011F2000000C03FC00000000000E6
:100336000702090601000106080010FC03F81094E4
:100346008B4A2A961000000F0003080A0A090504C2
:100356000200E222223E2010EF08887808000F04EF
:100366000201080402010204080000FC2424E4043B
:10037600FF0485660400080700020B04020102045C
:100386000F000404FC040408FF080808F800020231
:1003960001090503000008080700A0908E8888FF61
:1003A6008888888080000808040201000102040889
:1003B6000800FE02FA02FE10EC0B08F80800090419
:1003C600030409080502050808000088888889FAD8
:1003D60088888888000008080808080F08080808A0
:1003E6000800809F9555553F5555959F80000008FC
:1003F60004030000000F0000000002F21212FA5679
:1004060052F21212F200000F040407050507040455
:100416000F000404846414FF1464840404000201BD
:100426000202020F0202020102001010FF1020FC5D
:1004360010FF0884FC0004040302000708090808EA
:100446000E0021E20004342C27F4242404000807BB
:1004560008090909090F090909008888FF48A4AC99
:10046600B5E6B4ACA40000080F00080A0B04040BA0
:10047600080021E2001012F21212F2121000080710
:10048600080A09080808090A0B0012D2FE51802F33
:1004960029E9292F000001000F000809090F0909A1
:1004A600080011F200F9A9ABFDADABF80000080792
:1004B600080B08080B080A0B080010FC0304545428
:1004C600555654540400000F00000F050505050F8E
:1004D6000000040404FC2526242424E40400080463
:1004E60003000000080808070000084848C84848F4
:1004F60008FF08090A0008080807040404000304A2
:100506000E000000FCA4A4A5A6A4A4A4BC00080692
:10051600010F0404040404040F002010FC0382BA33
:10052600AAABAABA820000000F0001020A0E02025C
:100536000100224400FC24E4243F24E40C000402CD
:10054600080708080502050808009C88FF4810549B
:10055600545FF454500000000F0000010A080F0019
:100566000000028A529AD6B3D28A528A0200020246
:100576000202020F0202020202001011F20050CF24
:1005860041414FD010000000070208080502050887
:100596000800C05E525252FF5252525EC00007021D
:1005A6000202020F02020202070000FE020202021B
:1005B600020202FE00000007020202020202020715
:1005C60000007800FF08C43FC404F444240000007F
:1005D6000F04030804020106080004027DD55555E0
:1005E6005555557D0100000A090B050505050B0942
:1005F6000800801E101010FF1010101E8000070447
:1006060004040407040404040F0000FE02020202AC
:1006160002020202020008070000000000000000BB
:10062600000040405F5555D555555F4040000804D1
:100636000304080F0909090908001191898985BF72
:10064600818585891100000F040404040404040F45
:10065600000044535256527C53D256524200010176
:1006660003050109090F0101010000FC0484641F50
:1006760024C404FC0000000F000000000008080F5E
:10068600000020AAB2A3B2AA20FE0232CE00000FBA
:100696000404040F000F02020100008292DAD6B2AF
:1006A600B19189C1800008040200080F000002040D
:1006B600090098D4B3880064D44DC654E4000404F9
:1006C60002020804030007080C0040404040404076
:1006D60040404040400000000000000000000000D4
:1006E60000000004040404040404040400000404D8
:1006F60004040404040404040400000242424242C6
:1007060042424202000008080808080808080808CB
:10071600080000FE02827E02027E8282FE00000F38
:1007260005040404040404040F008445F64CA002E6
:10073600FE020202FE0000000F0008060100080883
:10074600070088780FF800D8545350D830000805B1
:10075600020D000F0404040F00002010FC030080AB
:10076600FF201008040000000F0001000708080819
:100776000E0000FE0080420C00807F000000000397
:100786000908040402010204080008080888681F12
:10079600E808080808000804020102040003040827
:1007A6000800FF099161910991619109FF000F010C
:1007B60000000001000008090F0020222222E23E6C
:1007C600E22222222000080402010000070808088D
:1007D6000E0098D4B388004848FF24A526000404D8
:1007E60002020808040305080E008888FF4800FC7A
:1007F60004050604040000080F00080700000000B6
:10080600000000FF45D57D55D5557D5547000807A5
:10081600000F08040102040A09008888FF484802FC
:100826000202FE02020000080F00000008080F0086
:100836000000404242FE424242FE42424000000860
:1008460006010000000F000000004048494A48F831
:10085600484A494840000808040201000102040809
:10086600080000F9022020A2FA222202FE00000F50
:1008760000020104070008080F008868FF4802FA12
:10088600AFAAAFFA020000000F000A0A0603060A22
:100896000A0008FF08404444FF44447C4000020329
:1008A600010804030003040808000404846414FF18
:1008B60014648404040002010202020F020202010F
:1008C60002008868FF2840FE0202FE0000000000C9
:1008D6000F080403000007080E002424FF1400D4A8
:1008E6003F447C80E0000805010409000408000478
:1008F600090000F01010101F121212F20200080573
:10090600010509010509010508000002020202FEAF
:1009160002020202000008080808080F0808080872
:1009260008002010FC030807FC242424040000000F
:100936000F0000000F01010101008868FF4802FA5C
:10094600AFAAAFFA020000000F000A0A0603060A61
:100956000A000000E01FE000C03FC00000000806DB
:100966000100090601000106080010FF108848FF73
:100976000808F8408000000F000806010808070074
:1009860001001011F2001860810680601C00000052
:10099600070209040201020408000000000000002A
:1009A600004F00000007000700147F147F14242A5C
:1009B6007F2A122313086462364955225000050720
:1009C6000000001C2241000041221C0014083E08C1
:1009D6001408083E080800503000000808080808F7
:1009E600006060000020100804023E5149453E00A8
:1009F600427F400042615149462141454B3118141E
:100A0600127F1027454545393C4A4949300171094D
:100A160005033649494936064949291E0036360036
:100A26000000563600000814224100141414141451
:100A360000412214080201510906324979413E7EDD
:100A46001111117E7F494949363E414141227F417C
:100A560041221C7F494949417F090909013E414913
:100A6600497A7F0808087F00417F41002040413FC6
:100A7600017F081422417F404040407F020C027FE4
:100A86007F0408107F3E4141413E7F090909063E29
:100A96004151215E7F0919294646494949310101DB
:100AA6007F01013F4040403F1F2040201F3F40380C
:100AB600403F6314081463070870080761514945ED
:100AC60043007F41410002040810200041417F009D
:100AD600040201020440404040400102040000209C
:100AE600545454787F484848303844444444304845
:100AF60048487F385454545800087E0902485454D4
:100B0600543C7F0808087000007A00002040403DF1
:100B1600007F2028440000417F40007C0438047C8C
:100B26007C0804047838444444387C1414140808B7
:100B36001414147C7C0804040848545454240404F3
:100B46003F44243C4040403C1C2040201C3C40305C
:100B5600403C442810284404483008044464544C5B
:100B66004408364141000000770000004141360844
:100B76000402020201F8F81010080404024AC94DE2
:100B86004A484868300303010101010101010000E0
:100B9600000000000000000000F0F8FCFCFCFCF87F
:100BA600F000000000000000000001030303030141
:100BB6000000000000081C3E7F00007F3E1C08006D
:100BC600000000000000000000000000000000001F
:100BD600000000000000000000000000000000000F
:100BE60000000000000000000000000000000000FF
:100BF60000000000000000000000000000000000EF
:100C060000000000000000000000000000000000DE
:100C160000000000000000000000000000000000CE
:100C260000000000000000000000000000000000BE
:100C360000000000000000000000000000000000AE
:100C4600000000FFFFFFFFFFFFFFFFFFFFFFFFFFAB
:100C5600FFFFFFFFFFFFFFFFFFFFFFFFFFFFFFFF9E
:100C6600FFFFFFFFFFFFFFFFFFFFFFFFFFFFFFFF8E
:100C7600FFFFFFFFFFFFFFFFFFFFFFFFFFFFFFFF7E
:100C8600FFFFFFFFFFFFFFFFFFFFFFFFFFFFFFFF6E
:100C9600FFFFFFFFFFFFFFFFFFFFFFFFFFFFFFFF5E
:100CA600FFFFFFFFFFFFFFFFFFFFFFFFFFFFFFFF4E
:100CB600FFFFFFFFFFFFFFFFFFFFFFFFFFFFFFFF3E
:100CC600FFFFFFFFFFFFFF00000000000000000025
:100CD600000000000000000000000000000000000E
:100CE600008080C0C0E0E0E0F0F0F0F8F8F8F8FC32
:100CF600FCFCFCFCFCFCFEFEFEFCFCFCFCFCF8F830
:100D0600F8F0E0C000000000000000000000000055
:100D160000000000000000000000000000000000CD
:100D26000000008080C0E0E0F0F0F8FCFCFCFEFE75
:100D3600FFFF7F7F7F7F7F7F3F3F3F3F3F3F3F3FBD
:100D46003F3F3F1F1F3F3F3F3F3F3F3F3F7F7F7F2D
:100D5600FFFFFFFFFFFF3C00000000000000000057
:100D66000000000000000000000080402020301835
:100D7600180C0E0F0F0707070303030101010100FB
:100D860000000080C0E0E0F0F0F0F8F8F8F8FCFCB5
:100D9600FCFCFCFCFCFCFCFCF8F8F8F0F0E00000C5
:100DA60000000001071F0300000000000000000013
:100DB600000000000000000000000000000000002D
:100DC6000000000000000000000000000080E0C0FD
:100DD6000000043F3F3F7F7FFFFFFFFFFFFFFFFF56
:100DE600FFFFFFFF7F7F7F7F3F3F3F1F0F07030010
:100DF600000000000000000080808080C0C0C0C0ED
:100E0600E0E0703030180C00000000000000000028
:100E16000000000000000000000000000000FFFFCE
:100E2600FFFFFEFEFCFCFCF8F8F8F8F8F8F8F8F816
:100E3600F8F8F8F8F8F8F8F8F8F8F8FCFCFCFCFC18
:100E4600FCFEFEFEFEFFFF7F3F3F1F1F0F0707034F
:100E5600010100000000000000000000000000008A
:100E6600000000000000000000000000000000017B
:100E7600070F1F3F3F3F7F7F7F7F7F7F7F7F7F7F84
:100E86007F7F7F7F7F3F3F3F3F1F1F1F0F0F07075C
:100E9600070303010100000000000000000000003D
:100EA600000000000000000000000000000000003C
:100EB600000000000000000000000000000000002C
:100EC600000000000000000000000000000000001C
:100ED600000000000000000000000000000000000C
:100EE60000000000000000000000000000000000FC
:100EF60000000000000000000000000000000000EC
:100F060000C0C0C0C0C0C0C0C0C0C0C0C0C0C0C09B
:100F1600C0C0C0C0C0C0C0C0C0C0C0C0C0C0C0C0CB
:100F2600C0C0C0C0C0C0C0C0C0C0C0C0C0C0C0C0BB
:100F3600C0C0C0C0C0C0C0C0C0C0C0C0C0C0C0C0AB
:100F4600C0C0C0C0C0C0C0C0C0C0C0C0C0C0C0C09B
:100F5600C0C0C0C0C0C0C0C0C0C0C0C0C0C0C0004B
:100F66000000000000FFFF00000000808080C0C07D
:100F7600E0E0E0E0202060606060606060606060EB
:100F8600606060606060606060C0C0C0C0C0C0C0BB
:100F9600C0C0C0C0C0C0C0C0C0C0C0C0C0C0C0C04B
:100FA600C0C0C0C0C0C0C0C0C0C0C0C0C0C0C0C03B
:100FB600C0C0C0C0C0C0C0C0C0C0C0C0C0C00000AB
:100FC60000FFFF000000000000FFFF000000FFFF21
:100FD600FFFFFFFFFFFFFFFF000000000000000013
:100FE60000000000000000000000000000000000FB
:100FF60000000000000000000000000000000000EB
:1010060000000000000000000000000000000000DA
:1010160000000000000000000000000000000000CA
:10102600FFFF000000FFFF000000000000FFFF00C0
:101036000000FFFFFFFFFFFFFFFFFFFF00000000B4
:101046007EE6C38383C3EE7C000000000000000040
:10105600000000000000000000000000000000008A
:10106600000000000000000000000000000000007A
:101076000000181818181818181818181818180032
:1010860000000000FFFF000000FFFF00000000005E
:1010960000FFFF000000FFFFFFFFFFFFFFFFFFFF56
:1010A6000000000000000001010000000000000038
:1010B600000000000000000000000000000000002A
:1010C600000000000000000000000000000000001A
:1010D600000000000000000000000000000000000A
:1010E6000000000000000000FFFF000000FFFF00FE
:1010F6000000000000FFFF000000000001010303E4
:1011060007070F0F0C0C0C0C0C0C0C0C0606060635
:101116000606060606060606060606060606060669
:101126000606060606060202020202020202020281
:101136000202020202020202020202020202020289
:10114600020202020202020202020202030300007B
:1011560000FFFF000000000000070706060606065F
:101166000606060606060606060606060606060619
:101176000606060606060606060606060606060609
:1011860006060606060606060606060606060606F9
:1011960006060606060606060606060606060606E9
:1011A60006060606060606060606060606060606D9
:1011B60006060606060707000000000000000000FD
:1011C6000000000000000000000000000000000019
:1011D6000000000000000000000000000000000009
:1011E60000000000000000000000000000000000F9
:1011F60000000000000000000000000000000000E9
:1012060000000000000000000000000000000000D8
:1012160000000000000000000000000000000000C8
:1012260000C0C0C0C0C0C0C0C0C0C0C0C0C0C0C078
:10123600C0C0C0C0C0C0C0C0C0C0C0C0C0C0C0C0A8
:10124600C0C0C0C0C0C0C0C0C0C0C0C0C0C0C0C098
:10125600C0C0C0C0C0C0C0C0C0C0C0C0C0C0C0C088
:10126600C0C0C0C0C0C0C0C0C0C0C0C0C0C0C0C078
:10127600C0C0C0C0C0C0C0C0C0C0C0C0C0C0C00028
:101286000000000000FFFF000000C0C040404040DA
:101296004040404040404040404040404040404048
:1012A6004040404040404040404040404040404038
:1012B6004040404040404040404040404040404028
:1012C6004040406060606060606060E0E0E0E0E0F8
:1012D600E0E0E06060E0C0C0C0C0808000000000C8
:1012E60000FFFF000000000000FFFF000000FFFFFE
:1012F60000000000000000808080800000000000E8
:1013060000000000000000000000000000000000D7
:1013160000000000000000000000000000000000C7
:1013260000000000000000000000000000000000B7
:10133600000000000000000000FFFFFFFFFFFFFFAE
:10134600FFFC000000FFFF000000000000FFFF00A0
:101356000000FFFF00000000003F7161C1C161771E
:101366003E00000000000000000000000000000039
:101376000000000000000000000000000000000067
:101386000000000000000000000000000000000057
:1013960018181818181818181818000000FFFFFF5A
:1013A600FFFFFFFFFFFF000000FFFF00000000003F
:1013B60000FFFF000000FFFF00000000000000002B
:1013C6000000000000000000000000000000000017
:1013D6000000000000000000000000000000000007
:1013E60000000000000000000000000000000000F7
:1013F60000000000000000000000000000000000E7
:1014060000FFFFFFFFFFFFFF7F3F000000FFFF0021
:101416000000000000FFFF000000030302020202BA
:101426000202020202020202020202020202020296
:101436000202020202020202020202020202020286
:101446000202020202020202020202020202020276
:1014560002020202020202060606060606060E0E32
:101466000E0E0E0E0E0F0F0F0703010000000000F8
:1014760000FFFF000000000000070706060606063C
:1014860006060606060606060606060606060606F6
:1014960006060606060606060606060606060606E6
:1014A60006060606060606060606060606060606D6
:1014B60006060606060606060606060606060606C6
:1014C60006060606060606060606060606060606B6
:1014D60006060606060707000000000000000000DA
:1014E60000000000000000000000000000000000F6
:1014F60000000000000000000000000000000000E6
:1015060000000000000000000000000000000000D5
:1015160000000000000000000000000000000000C5
:1015260000000000000000000000000000000000B5
:1015360000000000000000000000000000008080A5
:101546008080808080808080808080000000000015
:101556000000000000000000FFFFFFFFFF0000008A
:101566000000000000000000000000000000000075
:101576000000000000000000000000000000000065
:101586000000000000000000000000000000000055
:101596000000000000000000000000000000000045
:1015A6000000000000000000000000000000000035
:1015B6000000000000000000000000000000000025
:1015C6000000000000000000000000000000000015
:1015D6000000000000000000000000000000000005
:1015E60000000000000000000000000000000000F5
:1015F60000000000000000000000000000007F7FE7
:101606007F7F7F7F7F7F7F7F7F7F7FFFFFFFFFFF64
:10161600FEFEFEFCFCF8F8F8FFFFFFFFFF000000EF
:1016260000000000000000000000000000000000B4
:1016360000000000000000000000000000C0C0C064
:101646000000000000000000000000000000000094
:101656000000000000000000000000000000000084
:10166600000000000000000000000000C0C0C00034
:101676000000000000000000000000000000000064
:1016860000000000C0C0C000000000000000000014
:101696000000000000000000000000C0C0C0000004
:1016A6000000000000000000000000000000000034
:1016B6000000000000000000000000000000F0F044
:1016C600F0F0F0F0F0F0F0F0F0E0E0E0E0E0E0E084
:1016D600C1C181838307071FFFFFFFFFFFFFFFFFD6
:1016E600FFFFFFFFFFFFFFFFFFFFFF0000000000FF
:1016F6000000000000E0E0E0E0E0E0E0E0FFFFFFE7
:10170600E0E0E0E0E0E0E0E000000000FFFFFF07CF
:10171600C7C7C7C7C7C7C7C7C7C7C7C707FFFFFF6B
:101726000000003C3C3C3C3C3C3C3C3CFFFFFF3C5E
:101736003C3C3C3C3C3C3C3C000000F0F0F0F0F013
:10174600F0F0F0F0FFFFFFF0F0F0F0F0F0F0F0F066
:1017560000000000F8F87878787878FFFFFF78784E
:101766007878F8F8F8000000000000FFFFFF1F1F60
:101776001FDFDFDF1F1F1FDFDFDF1FFFFFFF0F0F73
:101786000F0F0F0F0F0F0F0F0F1F1F1F1F1F1F3FD3
:101796003F3F3F7F7FFFFFFEFFFFFFFFFFE0E0E0F1
:1017A600E0E0E0E0E0E0E0E0E0E0E0000000000093
:1017B6000000000000FFFFFF0303030303FFFFFF1A
:1017C6000303030303FFFFFF00000000FFFFFF000A
:1017D60003E3E3E3E3FFFFFFE3E3E3E300FFFFFFEE
:1017E60000000000FEFEFE1E1E1EFEFEFF1F1FFE68
:1017F600FEFE1E1EFEFEFE000000000000000000B1
:101806000000FFFFFFFFE0E0E0E0E0E0E0000000B6
:1018160000000000FFFF7878787878FFFFFF78787F
:101826007878FFFFFF000000000000FFFFFF0E1E9C
:10183600FEFFFF1F0C3CFCFFFF0700FFFFFFFEFE45
:10184600FEFEFEFEFEFCFCFCFCFCFCFCFCFCF8F8D0
:10185600F8F8F0F0E0E0C0C3FFFFFFFFFF1F1F1F17
:101866001F1F1F1F1F1F1F1F1F1F1F00000000001D
:1018760000000000001F1F1F1F1F1F1F1FFFFFFF6D
:101886001F1F1F1F1F1F1F1F00000000FFFFFFC09D
:10189600C0C1C1C1C1FFFFFFC1F9F9F9C0FFFFFF18
:1018A60000000000FFFFFF00CFCFCFCFFFFFFFFFFD
:1018B600CFCFCF00FFFFFF000000000000000000B8
:1018C600C0F8FFFF0F0101010101FFFFFF0000004B
:1018D600000000007F7F7878787878FFFFFF7878BF
:1018E60078787F7F7F000000000000FFFFFFF0F8A0
:1018F600FF3F3F3FF8F8FF3F7FFEF0FFFFFF01018C
:1019060001010101010101010103030303030707AB
:1019160007070F0F1F1F3F7FFFFFFFFFFFF8F8F8B6
:10192600F8F8F8F8F8F8F8F8F8F8F8000000000009
:1019360000000000000000000000000000FFFFFFA4
:10194600000000000000000000000000FFFFFFF1A3
:10195600F1F1F1F1F1F1F1F1F1F1F1F1F1FFFFFF47
:1019660000000000FFFFFF0003030303FFFFFF0368
:101976000303F3F0FFFF7F0000000000F8F8FC3FD0
:101986001F0F03000000707070707F7F7F000000E3
:101996000000000000000000000000FFFFFFE0E084
:1019A600E0E0E0E0FCFCFC00000000FFFFFF0000C0
:1019B600000000000707070000F0F0FFFFFF00002F
:1019C6000000000000000000000000000000000011
:1019D6000000000000000000FFFFFFFFFF070707F1
:1019E60007070707070707070707070000000000A4
:1019F60000000000000080C0C0800000800101815E
:101A060000008000808000008000000080800000D0
:101A160000000000C0C0C000000080C0C080000000
:101A2600C00000C0C000C0C0C0C0008080000080F0
:101A36000000C1C1C1C00000C0C0C080000080005D
:101A460000008000000080C0C0C080000080C0C0D0
:101A56008000C0000000000000C000C1C1C1C1017B
:101A660001C1C1C181010100000080C0C080000029
:101A760080C0C0C08000808000C0C0C0C0800000A0
:101A86000000000000000000000000000000000050
:101A96000000000000000000FFFFFFFFFFFFFFFF48
:101AA600FFFFFFFFFFFFFFFFFFFFFF00000000003B
:101AB60000000000003FFFC0C0610000FF0404FFFB
:101AC6000000FF00FF0F0E78FF00E07E67677CE0F6
:101AD60000000063C7CCFD71003FE1C0C07F1E005F
:101AE6007FC0C0FF3F0000FFFF0000FFFF0C0CFFA0
:101AF6000000FFCCCCCC007FFF181CFFC000FF0706
:101B06001CF8FF000000FFFF180F07003EF3E1E19D
:101B1600F33F07FEF80707FCFE0300FFCCCCCC0022
:101B260000FF181CFFC00000003FFFC0C8F93000CE
:101B3600FF0C0C3CE700FFFF00FFC0C0F37F000076
:101B4600000000000000000000000000000000008F
:101B5600000000000000000000000000000000007F
:101B6600000000000000000000000000000000006F
:101B7600000000000000000000000000000000005F
:101B8600000000000000000000000000000000004F
:101B9600000000000000000000000000000000003F
:101BA600000000000000000000000000000000002F
:101BB600000000000000000000000000000000001F
:101BC600000000000000000000000000000000000F
:101BD60000000000000000000000000000000000FF
:101BE60000000000000000000000000000000000EF
:101BF600000080F0000000000000008000000000EF
:101C06000000000000000080808080C0C06060305E
:101C16003010B8F878000000000000000000000056
:101C260000000000000000000000000000000000AE
:101C3600003030180C0402E3FE1C00000000000017
:101C4600000000000000000000000000000000008E
:101C5600000000000000008080C0E0E0800000007E
:101C6600000000000000000000000000000000006E
:101C7600000000000000000000000000000000005E
:101C8600000000000000000000000000000000004E
:101C96000000C0FEFF1C0000000000000000000065
:101CA600000000000000000000000080000000802E
:101CB600E07C4761F060000804C27F1F0700000057
:101CC6000000000000F8F001010101C18080C07031
:101CD600380C0701000000000000000000000000B2
:101CE60000000000C0C0606030180CFC0800000C4A
:101CF600F8000000F0F0FC1F0000000000000000EB
:101D060000000000000000000080C0E0E0000000CD
:101D1600E020100804E60301C0F81F0701000000D8
:101D2600000000000000000000000000000060E06D
:101D3600C0C0C0C0C0C04040E0C0000000000000FD
:101D4600000000000000000000000000000000008D
:101D560000F8FF3F030090F0C00000000000000004
:101D6600000000000000000000000083FE3806832B
:101D760078F0CC07010080E09E8380000000000020
:101D860000000000E0FF7F000060380F070301003D
:101D960080000000000000000000000000000000BD
:101DA60000000000E000001E1800F07F000000FEAA
:101DB6001F000080FFFF0700000000000000000079
:101DC60000000000000002070301FF3F0100001CA5
:101DD6003F0088CC7F73380F03000000000000002E
:101DE60000000000000000000000000000000001EC
:101DF60003030301C0F0F87E1F0701000000000086
:101E060000000000000000C0C0C0C0C0C0E0E0F09C
:101E1600FF7F391C0E0707010000000000000000CC
:101E2600000000000000000007078180C760211144
:101E36001888846432190D070301010000000000B0
:101E4600000000808101000000000080C00000F852
:101E5600FF0088F0E0000000000000000000000025
:101E660000000006070100000103030000F07F03E5
:101E760000000C0700FF000000000000000000004A
:101E8600000000000040606078FECFC00000000047
:101E96000002CF83C08000000000000000000000A8
:101EA60000000000000000000000000000000080AC
:101EB600E0F8FEBF9F878180000000000000000060
:101EC600000000000000000101010181C1791F032B
:101ED600008000000000000000000000000000007C
:101EE6000000C0E0E070380C0603010000000000AE
:101EF600E0190780C0C000000000000000000000DC
:101F06000000F8FF3F0400000383C343213018FF9D
:101F1600FFE6C38180C0C080000000000000000012
:101F26000000000000000000000000E0FE070000C6
:101F360000000000FFFF000000000000000000009D
:101F4600000000000000C0F07C1F0300000000003D
:101F560000E3BF07018080000000000000000000D1
:101F6600000000000020F0F0F0F8F8787C3C1E1F1E
:101F76000F0F07030303010000000000000000002C
:101F8600000000000000008060381E07010000000D
:101F960000001FFCF0C080000000000000000000F0
:101FA600000001010000000060E0E07070381C1CB9
:101FB600FF070307070100000000000000000010F3
:101FC6003C7F3F38180C06060301000000000000A5
:101FD60001010101010101000000000000000000F4
:101FE600000000000000000000E07E0F000000007E
:101FF600000000000F0F00000000000000000000BD
:1020060000000000000001010000000000000000C8
:1020160000030303030307030000000000000000A1
:1020260000000000000000010100000000000000A8
:10203600000000000000000000000000000000009A
:10204600000000040602010000000000000000007D
:102056000000000003070F0707030100000000004F
:102066000000000000000000000000000830E0F062
:102076007F000000000000000000000000000000DB
:10208600000000000000000000000000000000004A
:10209600000000000000000000000000000000003A
:1020A600000000000000180C0701000000000000FE
:1020B600000000000000000000000000000000001A
:1020C600000000000000000000000000000000000A
:1020D60000000000000000000000000000000000FA
:1020E60000000000000000000000000000000000EA
:1020F60000000000000000000000000000000000DA
:1021060000000000000000000000000000000000C9
:1021160000000000000000000000000000000000B9
:1021260000000000000000000000000000000001A8
:0E21360000000000000000000000000000009B
:03000000025C1689
:0C5C1600787FE4F6D8FD758117025C5D14
:06714000900001023EF187
:104BDD00EFD394057480948040037F0122123ED858
:104BED00FED394037480948040037F0222EF7038CB
:104BFD00EE7008127140F452935294123ED8640133
:104C0D0070081271404293F45294123ED8FE640221
:104C1D00700712714042934294EE6403700A127150
:104C2D0040FEF45293EE4294EF6401703A123ED876
:104C3D00FE7008127140F452915292EE64017008A8
:104C4D001271404291F45292123ED86402700712D2
:104C5D00714042914292123ED86403700A12714023
:104C6D00FEF45291EE4292EF6402703A123ED8FE7B
:104C7D007008127140F452955296EE64017008124C
:104C8D0071404295F45296123ED86402700712712B
:104C9D004042954296123ED86403700A127140FE4E
:104CAD00F45295EE4296EF6403703A123ED8FE70C0
:104CBD0008127140F452B152B2EE640170081271D3
:104CCD004042B1F452B2123ED864027007127140E4
:104CDD0042B142B2123ED86403700A127140FEF422
:104CED0052B1EE42B2EF6404703A123ED8FE700833
:104CFD00127140F452B352B4EE6401700812714057
:104D0D0042B3F452B4123ED864027007127140429D
:104D1D00B342B4123ED86403700A127140FEF452CD
:104D2D00B3EE42B4EF6405703D123ED8FF7E0070C5
:104D3D0008127140F452C952CAEF64014E70081244
:104D4D00714042C9F452CA123ED864027007127102
:104D5D004042C942CA123ED86403700A127140FF24
:094D6D00F452C9EF42CA7F002292
:106A3100E4FEFDFC901C8CE0F8A3E0F9A3E0FAA3CE
:106A4100E0FBC30240EFE0FBA3E475F00102402745
:106A5100EEF0A3EFF0A3EBF0A3EAF0A3E9F02275C7
:066A6100C65A75C6A5220D
:10647F00901C8C1241000000000B7F1E126A3140ED
:10648F000475C780227F18126A31400475C78122B4
:10649F00E47F14126A32400475C78222E47F0C1223
:1064AF006A32400475C78322E47F06126A324004C1
:1064BF0075C78422E47F03126A32400475C78522B0
:0F64CF00E47F02126A32400475C7862275C787C0
:0164DE00229B
:0D70E100E4F5C7F5C5F5C675C380F5C422FA
:056C3600901C86EFF048
:106C3B00E4FF12647F75C501901C86E0F5C4E0FF8C
:106C4B007808A2E713D8FBF5C3126A60AFC2E5C799
:096C5B0030E40653C7EF7F332239
:016C6400220D
:106E1000901C89EEF0A3EFF0A3EDF012647F75C52E
:106E200002901C89A3E0FFF5C475C300A3E0F5C27E
:066E3000126A600270E12D
:106E3600901C83EEF0A3EFF012647F75C503901CDF
:106E460083A3E0FFF5C475C300126A601270E17F88
:066E5600047E00026FE45F
:106CBF00901C83126A51901C88E0FF14F0EF601B48
:106CCF00901C83126A4AAFF0FE901C85126A47A986
:0C6CDF00F0FA123ED8FD126E1080DB228D
:106D4300901C80126A51901C85E0FF14F0EF601ACA
:106D5300901C80126A4AAFF0126C36901C82126A41
:0B6D630047A9F0FAEF123F4080DC224D
:043DDD00411D15036C
:105A7000A2A6E43325E0FFA2A4E4334FFFA2A3E4EF
:105A80003325E025E04FFFA2A5E43333333354F848
:105A90004FFFA2A2E433C454F04F901C82F0901D3B
:105AA00015E0601814604314602D14704E901C8231
:105AB000E0641F6046E4901D15F0803F7F0A7E0081
:105AC000126FE4901C82E0FF641F602F901D14EFA2
:105AD000F0A37402F08024901C82E0641F701C907C
:105AE0001D1504F0901D14E0FF22901D14741FF08A
:0D5AF000A37403F07F0A7E00126FE47F1F95
:015AFD002286
:10600E00901C8FE02EFD126A73901C93E0FBA3E0B0
:10601E00FAA3E022901C8EF9E0F582758300023E11
:10602E00F12FF9EA3EFA901C93EBF0A3EAF0A3E904
:10603E00F0901C86E0FFA3E0FD901C9222F9901CCC
:10604E009CE0FF7E00E92FF9EE3AFA901C9BE022CD
:10605E0034FFFE901C91E0FD7C00023F74FA123E6C
:10606E00D8FF901C97E0FE22EEC3940874809480B3
:01607E0022FF
:106CEB00C2B4C2B6E4FE126076501EC2B3EF30E7F8
:106CFB0004D2B28002C2B2D2B37D017801EF088018
:0B6D0B0002C333D8FCFF0E80DDD2B4C1
:016D1600225A
:106D1700C2B4D2B6E4FE126076501EC2B3EF30E7BB
:106D270004D2B28002C2B2D2B37D017801EF0880EB
:0B6D370002C333D8FCFF0E80DDD2B495
:016D4200222E
:106E5C00E4FCEC126077501DEC24B0FF126CEBE4F8
:106E6C00FBEBC394C0E494005008E4FF126D170BC5
:056E7C0080EF0C80DD39
:016E810022EE
:0C6A6700FF901C9CE0FE901C8FE02EFDB8
:106A7300AE07AC05EEC3940274809480EE500424F8
:106A8300B6800224AEFF126CEBECC4540F2410FF4B
:0A6A9300126CEBEC540FFF026CEBE9
:1060EB00C2B57F647E00126FE4D2B57F327E0012A0
:1060FB006FE47FE2126CEB7F327E00126FE47F2F36
:10610B0012614A7FA01261337F811261337FEB12E0
:10611B00614A7FC4126CEB7F147E00126FE47FAF79
:10612B00126CEBC2B7026E5C126CEB7F147E00122A
:10613B006FE47F70126CEB7F147E00126FE42212FF
:0A614B006CEB7F147E00126FE4225B
:10653E00EF14602B04704E901D0C7418F0901D0E0D
:10654E007410F0901D0D740CF0901D1174FFF0A3DB
:10655E007401F0A37448F0901D10740CF080299013
:10656E001D0C7405F0901D0E7408F0901D0D740531
:10657E00F0901D107407F0A374FFF0A37409F0A33C
:0B658E0074A0F080037F00227F012238
:08669D00901C8FEEF0A3EFF05A
:1066A500E4FDFCED25E0FFEC33FE74962FF58274D6
:1066B500003EF583E493FAED25E0FFEC33FE749795
:1066C5002FF58274003EF583E493FFEAFE901C8F5C
:1066D500E06E7003A3E06F600B0DBD00010CED646F
:0866E500644C70BFAE04AF0568
:0166ED00228A
:10557100901C86EFF0A3EDF0A3EBF0A3EAF0A3E912
:01558100F039
:10558200A3E0FF12653EE4901C8EF0901C8812602E
:105592001A126022FF7E00C3948074809480502C83
:1055A200EF24E0FFEE34FFFE901C8CF0A3EFF07CC2
:1055B200007D05123F74901D1112601A12602F7443
:1055C20008F07B0512562304F0025614901C881230
:1055D200601A126022FE901C8EE0FD7C00E92DF91B
:1055E200EC3AFA900001123EF1FDEDFF12669D9039
:1055F2001C8CEEF0A3EFF07C007D18123F74901D1E
:105602001112601A12602F7410F07B0C12562324B0
:1056120002F0901C8812601A126022600302558DFB
:1056220022124A32901D10E0FF901C86E02FF0906B
:045632001C8EE022C8
:0C4A3200901C8FEFF0901C91EBF0AA0597
:104A3E00A3E0FF54076008EF54F82408FF800590A8
:104A4E001C92E0FF901C92EFF0E0FDFFEA2FFFE4D6
:104A5E0033FEEF7803CEC313CE13D8F9901C98F023
:104A6E00FCED2A5407A3F0EA131313541FFF901CF6
:104A7E0096F0EA5407A3F0C3EC9F04901C9AF0E45E
:104A8E00A3F0901C9AE0FFA3E0C39F4003024BDC0F
:104A9E00901C96E0FF901C98E09F5003024B96E40A
:104AAE00901C9CF0901C91E0FF901C9CE0FEC39F1C
:104ABE004003024BD3901C9BE0701D901C96E0FFB0
:104ACE0012600E901C9C12602512606FF8EF088029
:104ADE0002C333D8FC024B89901C9AE014FFA3E06A
:104AEE006F703F901C98E0126A67901C9BE024FF49
:104AFE00FFE412605E1260172FF9EA3EFA901C9CDA
:104B0E00E07E0029F9EE3AFA123ED8FF901C99E0A9
:104B1E00FEC374089EFEF8EF088002C313D8FC0291
:104B2E004B8912601712604B24FFFFEE12605EE994
:104B3E002FF9EA3E12606BC374089EFEF8EF0880F0
:104B4E0002C313D8FC901C9DF012601712604BFF2D
:104B5E00901C91E08FF0A429F9EA35F012606BF801
:104B6E00EF088002C333D8FCFB901C9BE0FF901C27
:104B7E0096E02F126A67901C9DE04BFF126D179006
:104B8E001C9CE004F0024AB2901C96E0FF901C9C24
:104B9E00E0FE12600EF9901C9C126026FF901C998C
:104BAE00E004FEF87401088002C333D8FC14FE90B2
:104BBE001C97E0FDF87401088002C333D8FC146E14
:0E4BCE005FFF126D17901C9BE004F0024A90EE
:014BDC0022B6
:105C22000270FAE493A3F8E493A34003F68001F22E
:105C320008DFF48029E493A3F85407240CC8C33383
:105C4200C4540F4420C8834004F456800146F6DF52
:105C5200E4800B0102040810204080902144E47E7D
:105C6200019360BCA3FF543F30E509541FFEE49347
:105C7200A360010ECF54C025E060A840B8E493A30E
:105C8200FAE493A3F8E493A3C8C582C8CAC583CA39
:105C9200F0A3C8C582C8CAC583CADFE9DEE780BEF1
:013DE10000E1
:103DE200E709F608DFFA8046E709F208DFFA803EC3
:103DF20088828C83E709F0A3DFFA8032E309F608B0
:103E0200DFFA8078E309F208DFFA807088828C8317
:103E1200E309F0A3DFFA806489828A83E0A3F608CB
:103E2200DFFA805889828A83E0A3F208DFFA804CA5
:103E320080D280FA80C680D4806980F2803380107C
:103E420080A680EA809A80A880DA80E280CA8033E5
:103E520089828A83ECFAE493A3C8C582C8CCC5835D
:103E6200CCF0A3C8C582C8CCC583CCDFE9DEE7802D
:103E72000D89828A83E493A3F608DFF9ECFAA9F0AC
:103E8200EDFB2289828A83ECFAE0A3C8C582C8CC02
:103E9200C583CCF0A3C8C582C8CCC583CCDFEADE1B
:103EA200E880DB89828A83E493A3F208DFF980CC7D
:103EB20088F0EF60010E4E60C388F0ED2402B40476
:103EC2000050B9F582EB2402B4040050AF2323451D
:063ED2008223903E3273D2
:103ED800BB010689828A83E0225002E722BBFE02E8
:093EE800E32289828A83E493221B
:103EF100BB010CE58229F582E5833AF583E0225086
:103F010006E92582F8E622BBFE06E92582F8E222CF
:0D3F1100E58229F582E5833AF583E49322E9
:103F1E00BB010989828A83F8E028F022500327F733
:103F2E0022BBFE05F8E328F3228A838982F8E49304
:023F3E00282237
:103F4000BB010689828A83F0225002F722BBFE0160
:023F5000F3225A
:103F5200F8BB010DE58229F582E5833AF583E8F0A5
:103F6200225006E92582C8F622BBFE05E92582C851
:023F7200F22239
:103F7400EF8DF0A4A8F0CF8CF0A428CE8DF0A42E61
:023F8400FE221B
:103F8600BC000BBE0029EF8DF084FFADF022E4CC1F
:103F9600F875F008EF2FFFEE33FEEC33FCEE9DECE8
:103FA600984005FCEE9DFE0FD5F0E9E4CEFD22ED2E
:103FB600F8F5F0EE8420D21CFEADF075F008EF2F78
:103FC600FFED33FD4007985006D5F0F222C398FD69
:053FD6000FD5F0EA2206
:103FDB00C2D5EC30E709B2D5E4C39DFDE49CFCEE01
:103FEB0030E715B2D5E4C39FFFE49EFE123F86C3B4
:103FFB00E49DFDE49CFC8003123F8630D507C3E4AF
:06400B009FFFE49EFE226F
:10401100C5F0F8A3E028F0C5F0F8E582158270023A
:064021001583E038F022D7
:10402700A3F8E0C5F025F0F0E5821582700215834C
:06403700E0C838F0E822A9
:10403D00BB0110E58229F582E5833AF583E0F5F0C1
:10404D00A3E0225009E92582F886F008E622BBFE9E
:10405D000AE92582F8E2F5F008E222E5832AF583E4
:08406D00E993F5F0A3E99322A9
:10407500BB010DC58229C582C5833AC5830240119E
:104085005011C58229F808E5F026F618F5F0E58205
:1040950036F622BBFE11C58229F808E225F0F5F0B7
:1040A500F218E23582F222F8E58229F582E5832AC3
:0D40B500F58374019325F0F5F0E4933822B3
:1040C200F8BB0111E58229F582E5833AF583E8F030
:1040D200E5F0A3F0225009E92582C8F608A6F022ED
:0D40E200BBFE09E92582C8F2E5F008F222D4
:1040EF00EB9FF5F0EA9E42F0E99D42F0E89C45F027
:0140FF00229E
:10410000A8828583F0D083D0821241171241171202
:104110004117124117E473E493A3C583C5F0C58327
:10412000C8C582C8F0A3C583C5F0C583C8C582C809
:01413000226C
:0C413100A42582F582E5F03583F5832299
:09413D00E0FBA3E0FAA3E0F92283
:10414600F8E0FBA3A3E0F925F0F0E5821582700202
:074156001583E0FA38F022A6
:09415D00EBF0A3EAF0A3E9F02263
:0C416600E493FB740193FA740293F922B5
:10417200BB010DE58229F582E5833AF58302413DD3
:104182005007E92582F80241FABBFE07E92582F8C9
:10419200024203E58229F582E5833AF5830241660C
:1041A200D083D082F8E4937012740193700DA3A3AC
:1041B20093F8740193F5828883E4737402936860C0
:0641C200EFA3A3A380DFC0
:0641C8008A838982E47382
:105D2900901CABEBF0A3EAF0A3E9F0901CAEE0FB0A
:105D3900A3E0FAA3E0F9123ED8FE901CABE0FBA366
:105D4900E0FAA3E0F9123ED8FF6E702AEF600E90D8
:105D59001CB174FFF5F012401145F070037F002269
:105D6900901CACE475F001124011901CAFE475F081
:105D79000112401180B5901CABE0FBA3E0FAA3E04F
:105D8900F9123ED8FDD3EE6480F8ED6480984003A3
:105D99007F0122901CAEE0FBA3E0FAA3E0F9123EDA
:075DA900D8FFC3ED9FFF22AC
:10000E00E4FFFE123ED8600C0FEF70010E09E9708E
:05001E00F20A80EF2250
:1041CE00EF4E6012EF60010EEDBB010B89828A8308
:1041DE00F0A3DFFCDEFA2289F05007F709DFFCA915
:0C41EE00F022BBFEFCF309DFFCA9F0226C
:0941FA00E6FB08E6FA08E6F922EA
:09420300E2FB08E2FA08E2F922EC
:00000001FF
