:10620300706172616D65746572732061726520637C
:106213006F7272656374202100706172616D6574C1
:10622300657273206572726F7220210072657374D8
:106233006F726520706172616D65746572732E2E65
:106243002E00FFFFFFFF0808020801010000010202
:106253003671007375636365737366756C6C79204F
:02626300210018
:10211000531CD1000000FFFFFFFF08080208010167
:062120000000010236710F
:106DBB00A3F07B017A1C7969227BFF901C74740110
:0E6DCB00F07D1F227B017A1C79D47410F02217
:0B6F72001258DB125F15125D2D80F835
:1058DB00125C237A00790212594F7A007902124135
:1058EB007F7A0679C412594F7A0679C412417F7AAE
:1058FB000D798612595D7A0D798612417F7A14796A
:10590B004812595D7A14794812417F125FFB125D80
:10591B00A9126C4F901CF1E054FEF0126D58126DF1
:10592B009C126E15126E33C2A7126F3FD2AF126F5D
:10593B0090901CDEE0700C126864901CDE7401F019
:10594B0012682C227B01125E9F7E067FC27D007B3C
:10595B0001227B01125E9F7E067FC27D007B0122AE
:105C230075BA8090FE0374C0F090FE03E030E0F993
:105C330090FE017401F090FE00F0E4F5BA901C6947
:105C4300F07405126DBBE4FF124B6E901C69740374
:105C5300F0740A126DBBE4FF125C9BFF125C8DA310
:105C63007432126DBC7F01124B6E901C697401F08B
:105C7300A3747C126DBC7F02125C9B7F03125C8D4C
:0A5C8300A314126DBC7F03024B6EE8
:105C8D007A1C7969124B6E901C697403F022124BC9
:0B5C9D006EE4901C69F0A304F0FB22F1
:106A7000E4FFFE901C6E126DCFE4126B807B017AF6
:106A80001C79D474FF901C70F0A3F07D0E12571780
:0F6A9000901CE2E0B50607A3E0B50702D322C3CE
:016A9F0022D4
:105DA900126A707BFF50127A627903126DC67F0EF8
:105DB9001253A07FE87E03805E7A62791C126DC659
:105DC9007F131253A07FF47E01126E517A62792FEC
:105DD900126DC47F131253A0E4FFFE126CC278D473
:105DE9007C1C7D017BFF7A6279457E007F10123E23
:105DF90063901C71126DCFE4FFFE126AFC7FE87E8E
:105E090003126E51126CE87A627956126DC47F31B1
:0B5E19001253A07FF47E01126E512294
:104FB0002032343030200020343830302000203986
:104FC0003630302000313434303020003139323046
:104FD0003020003338343030200035363030302047
:104FE000003537363030200031313532303000393D
:104FF000323136303000B4F2BFAA00B9D8B1D50092
:10500000D6F7BBFA00B4D3BBFA0045746865726E7C
:10501000657400574946492F344700525334383598
:1050200000C7EBCAE4C8EBC3DCC2EB00C7EBCAE4C1
:10503000C8EBD0C2C3DCC2EB00C7EBC8B7C8CFD047
:10504000C2C3DCC2EB0053544F500052554E00B95E
:10505000D8B1D5CEDECFDFC4A3BFE900B4F2BFAA7A
:10506000CEDECFDFC4A3BFE900D2D4CCABCDF800F5
:10507000CEDECFDFCDF800C0A9D5B9CDF800C4DAB7
:10508000B2BFCDF800CAC7B7F1BBD6B8B4B3F6B358
:10509000A7C9E8D6C300CAC700B7F100C8C8B5E3BE
:1050A00000415020494400504C4331365F4150008C
:0C50B000C4A3CABD006F626A656374008F
:10212600603C1C0A00FB80FF4FB001FDC0FF4FB7AB
:1021360002FEE0FF4FBE03FF40FF4FC504FF70FFE6
:102146004FCC05FFB8FF4FD306FFCFFF4FDA07FF8F
:10215600D0FF4FE108FFE8FF4FE809FFFDFF4FEF13
:10216600411C460A4C1C5DFF4FF6FF6EBCFF4FFB41
:10217600FF6ED5411BE3024C1C47FF5000FF6F7DED
:10218600FF5005FF6FAB411C5C02491C53FF500A10
:0A219600FF5013FF501B411BCF0345
:1055CE00901C7B7408F07A0B798C7BFFA312410E32
:1055DE007B0522E075F006A4240DF582E4341CF55B
:1055EE00831240EE901C747401F0227BFFE4901C39
:1055FE0074F022E075F006A4240BF582E4341CF559
:10560E0083E0FEA3E0227BFFE4901C74F0227BFF7C
:10561E00E4901C74F022901C7B7408F07BFF7A0BD4
:10562E007987227BFFE4901C74F0227BFFE4901CB0
:10563E0074F022F5831240EEE4901C74F07D0A2281
:10564E00901C6C1240EEE92403F9E43AFA22740C31
:10565E00901C7BF07BFF22901C6C1240EE023E8968
:0A566E007BFFE4901C74F07D3022F5
:0E6F3F00E4901CD3F0126ACF126F8702000399
:08000300901CDDE0FF026F66B6
:096F8700901CDCE024FF9287223B
:106ACF00901CD8125601F58BEEF58D901CD91256ED
:106ADF0001F5D7EEF5D6901CDA125601F5D5EEF585
:0D6AEF00D4901CDB125601F5D3EEF5D22237
:10606500901C6C12410E12564EC003C002C00112A4
:1060750056657C00D001D002D00329F9EC3AFA121A
:106085003E89F47003123EF1EF6401700304800C45
:10609500123E897005740A123EF174FF123ECF124A
:1060A5003E8975F00A84E5F0123EF112564EC003A2
:1060B500C002C0011256657E00D001D002D003296E
:0960C500F9EE3AFA123E89FF22BD
:106D0E007B017A1C7982901C9512410E901C98E49E
:106D1E00F0A37404F07A1C796F125B9CEF70037F02
:056D2E0001227F00229C
:10002600901C6C12410E7E007F047DFF1256541206
:0C003600417F901C6C1240EEE4023EF191
:106EEE007401123ECF123E89FF64047005901CD2CD
:086EFE0004F0EF5403023EF121
:106F0600126CE8744012565E7A1B7910A312410E79
:086F16007BC0E4FDFF0249C34A
:106BAB00126CE8901C7B7432F07BFF7A0C7999A302
:106BBB0012410E7B517D08E4FF1249C37A507921B3
:0A6BCB001255F97D0F7F640253A0FC
:105B1500126CE8901CD3E06062E4901C6CF0901C61
:105B25006CE0FFC3940474809480503B74E72FF5B8
:105B350082E4341BF583E0FF7E007B017A1C796DDE
:105B4500901C74E4F0A3740AF0124D07901C6CE0ED
:105B550075F014A42464FF1255F27D121253A0901F
:105B65001C6CE004F080B712565C7A0B7967A312BF
:105B7500410E7B107D107FAF1249C37A50792C12EC
:105B850055F97D0F7F0F1253A07A507939125614AB
:075B95007D237F0F0253A0E6
:1065DF00126CE87BFF7A5079461255F27D187F0FC7
:1065EF001253A07BFF7A50794B1255F27D187F968C
:1065FF001253A0901CDCE0901C7B700B7438F07B66
:10660F00FF7A0E79D080097438F07BFF7A1179F018
:0E661F00A312410E7B64E4FD7F2D1249C322BD
:10677A00126CE8901CDDE075F01EA4240BFD125685
:10678A005C7A0B7947A312410E7B107F0A1249C328
:10679A007A50794F1256147D0A7F1E1253A07A50EE
:0C67AA00795C12561C7D287F1E0253A053
:1067B600126CE87A50796912561C7D1D7F0A1253B5
:1067C600A0901CD81255E17D1F7F691253A0125567
:1067D600CE7D1F7F951249C3901C7B7408F07A0BFF
:0C67E60079871255D87D1F7F610249C3DE
:10690700126CE87A5079701256317D1D7F0A125346
:10691700A0901CD91255E17D1F7F691253A0125513
:10692700CE7D1F7F951249C31256241255DA7D1F5B
:056937007F610249C36D
:10693C00126CE87A5079771256317D1D7F0A12530A
:10694C00A0901CDA1255E17D1F7F691253A01255DD
:10695C00CE7D1F7F951249C31256241255DA7D1F26
:05696C007F610249C338
:10697100126CE87A50797E1256397D1D7F0A1253C6
:10698100A0901CDB1255E17D1F7F691253A01255A7
:10699100CE7D1F7F951249C31256241255DA7D1FF1
:0569A1007F610249C303
:106BFF00126CE87A5079851256397D147F30125312
:106C0F00A07A50799612566E7F0A1253A07A507955
:096C1F009912566E7FAC0253A0DD
:10638500126CE87BFF7A50799C1256467F0A1253AD
:10639500A0901CDFE075F006A4245DF582E4341CB2
:1063A5001256417F731253A01255CE7D0D7F951263
:1063B50049C31256241255DA7D0D7F611249C37BFC
:1063C500FF7A5079A11255F27D2B7F0A1253A07BDB
:0F63D500FF7A5079A71255F27D2B7F610253A0FA
:10613700126CE87BFF7A5079B01256467F0A1253E9
:10614700A0901CE0E075F006A42447F582E4341C17
:106157001256417F731253A01255CE7D0D7F9512B3
:1061670049C31256241255DA7D0D7F611249C37B4C
:10617700FF7A5079B51255F27D2B7F0A1253A09002
:106187001CE1E075F003A42453F582E4341C125596
:08619700ED7D2B7F610253A096
:076FAB00901CE07401F022CC
:0A6F7D00E4901CE0F0A37402F0227F
:10682C007B017A1C79D474FF901C70F0A3F07D0E60
:10683C00125717901CE2EEF0A3EFF0C2AFE4FFFE8C
:10684C00126CC27B017A1C79D4901C717410F0E428
:08685C00FFFE126AFCD2AF221C
:106DD9000305FF46110105FF46110405FF4611058C
:0E6DE90003FF46110501FF46110504FF461188
:1021A0007B080002000000000000000000000000AA
:1021B000000000000000000000000000000000001F
:1021C000000000000000000000000000000000000F
:1021D00000000000000000000000000000000000FF
:1021E00000000000000000000000000000000000EF
:103CA00000000000000000000000000041000000D3
:043CB00041000100CE
:105CA800901C6B1240EE9006C1123EA275F048A4FB
:105CB80029F9EA35F0FA22900001E075F048A4FFCE
:105CC800901C6E1240EEE92FF9EA22901C6B1240EC
:105CD800EE9006C1223EFAE92404F9E43AFA229049
:105CE8000044E4F5F01240737E007F4022FF75F017
:105CF80048A4F58285F083221240EEE94A4B223E01
:105D0800FA900044123FEE901C7DF022900002E4CD
:105D1800023F0375F048A4FFAEF0221241178982B2
:055D28008A8302417DA9
:065E9F00901C6912410E87
:105EA500E4901C6CF0F0901C6CE0C39418E4940032
:105EB500504D901C691240EE901C6CE0125CF5E4AC
:105EC500123F03EF125CB4900001E4123F03125D30
:105ED50014900003E4123F03900044E4F5F01240EF
:105EE50073900046E475F001125CEDC007125CDFAB
:105EF5007D00D00712417F901C6CE004F080A790D4
:105F05001C69125CD6E4123F039006C0E4023F030D
:105D2D00901CE0E06401704D900000F0900000E0E8
:105D3D00FEC39403E494005062E0FD75F005A424C5
:105D4D00D9F582E4346DF583E493FFED75F005A488
:105D5D0024DAF582E4346DF583E493FDEE75F005F8
:105D6D00A424DBF582E4346DF583125D23900000ED
:105D7D00E004F080B7901CE1E014600C14600E2478
:105D8D00027018906DE88008906DED8003906DF2B3
:0B5D9D00E493FFA3E493FDA3125D2339
:015DA80022D8
:1069A6007B007A007900EE702AEF24FD60111460F6
:1069B600151460192404701B7B017A007902227B6E
:1069C600017A0679C4227B017A0D7986227B017AC7
:0369D600147948E9
:0169D900229B
:1069DA007B007A007900EE702AEF24FD60111460C2
:1069EA00151460192404701B7B017A1C79A5227B7B
:1069FA00017A1C79B0227B017A1C79BB227B017A4D
:036A0A001C79C62E
:016A0D002266
:0A461100901C6AEDF0901C69EFF0B8
:10461B007E001269A6901C6B12410E901C6AE0FF83
:10462B001269A6901C6E12410E901C69E0FF126974
:10463B00DA901C7112410E901C6AE0FF1269DA903D
:10464B001C7412410E901C6B125D00700302481714
:10465B00901C6E125D007003024817901C71125D66
:10466B00007003024817901C74125D00700302481F
:10467B0017901CE0E07010901C6AE0FDA3125CAB7D
:10468B00900001ED123F03901C6B1240EEC003C073
:10469B0002C001125CD3123EA2125CF5D001D00213
:1046AB00D003123EA2FE901C69E06E600302476EBF
:1046BB00901C6B1240EEEF125D1B29F9EA3EFA904B
:1046CB000001123EA2FD901C6AE06D600302476E72
:1046DB00A3125CCB3EFA900002123EA2700302477B
:1046EB006E125CA8125D14901C6AE064047010D208
:1046FB00A7A3125CAB900044E475F00112402612A4
:10470B005CD3123EA2125D1B29F9EA125CDD901CF0
:10471B007A12410E901C6B125CCB125D07901C74CD
:10472B001240EE1264ED125CA8125CE7C006C007E3
:10473B007D00125CA8125CDFD007D00612417F907F
:10474B001C6AE064047002C2A7125CD3123EA2245E
:10475B0001FFE433FE7C007D18123F37125CD3ED72
:10476B00123F03E4900001F0900001E0FFC39418A6
:10477B00E494004003024817901C6E1240EE75F053
:10478B0048EF125CF9123EA2FF901C6AE06F707347
:10479B00125CBF35F0FA900001123EA2FF901C692B
:1047AB00E06F705F900002123EA26057125D149092
:1047BB001C69E06404700BD2A790004475F00112E1
:1047CB004026900001E0125D1B125CC8125CDD906C
:1047DB001C7A12410E125CC8125D07901C711240BC
:1047EB00EE1264ED125CBF35F0FA125CE7C00712F3
:1047FB005CDF7D00D00712417F901C69E064047080
:0C480B0002C2A7900001E004F002477315
:01481700227E
:0B571700901C6C12410E901C6FEDF016
:10572200E4901C72F0FDFC901C70E0FFA3E0901C62
:1057320073CFF0A3EFF0E4901C72F0901C6FE0FFC7
:10574200901C72E0C39F505C901C6CE475F00112D7
:1057520040F7123E89FF901C73E0F0A3E06FF0E483
:10576200FCFD901C73E0FEA3E0FF30E019EEC313D2
:10577200FEEF13FFEE64A0FEEF6401FF901C73EED8
:10578200F0A3EFF0800B901C73E0C313F0A3E013BF
:10579200F00DBD00010CED64084C70C6901C72E067
:0C57A20004F08097901C73E0FEA3E0FF71
:0157AE0022D8
:1051BF00C6F4CDA3BFAAB9D800CDA8D0C5B7BDCA74
:1051CF00BD00B9A4D7F7C4A3CABD00C3DCC2EBD0DE
:1051DF00DEB8C400B2A8CCD8C2CAC9E8D6C300B1E1
:1051EF00BEBBFAC8C8B5E300BBD6B8B4B3F6B3A715
:1051FF00C9E8D6C300D2D4CCABCDF800CEDECFDF1A
:10520F00CDF800C0A9D5B9CDF800C4DAB2BFCDF83A
:10521F0000FFFFFFFF0077726F6E6720706173737F
:10522F00776F7264202100496E76616C696420701B
:10523F00617373776F7264210043757272656E7458
:10524F0020636F756E747320697320312E00437560
:10525F007272656E7420636F756E7473206973203C
:10526F00322E00D0DEB8C4B3C9B9A600D0DEB8C4A0
:10527F00CAA7B0DC00506C656173652077616974F3
:10528F002061206D6F6D656E7400FFFFFFFF0808D2
:10529F000208010100000102367100000000000049
:0752AF0000000000000000F8
:103CB400421B0A010860311B0CFF51BF01FF65DF85
:103CC400FF51C803FF677AFF51D104FF6137FF51E9
:103CD400DA06FF5B15FF51E302FF6F99FF51EE0D0A
:103CE400FF6385FF51F707FF6BFF5C1BB3FF5204B3
:103CF40009FF67B6FF520B0AFF6907FF52120BFF59
:103D0400693CFF52190CFF6971521B3D0000000011
:103D14000102011B0C000000000102011BB36064DE
:103D24001B4F1E01FF67F21B01FF673D1701FF5E7A
:103D3400241D01FF6E6D0F01FF6C761E00FF643FB2
:103D44001B00FF64961700FF6DF71D00FF6F2F0F18
:103D540000FF00421E02FF52B61B02FF50BC1702B6
:103D6400FF41BD1D02FF6C280F02FF6E881E03FF7A
:103D740062651B03FF62C51703FF619F1D03FF6F8D
:063D84001E0F03FF009179
:10440900786A7C1C7D017BFF7E007F02123E6390EF
:104419001C697A1C796AE0FF7E007B01901C74E4B8
:10442900F0A3740AF022901BE4E075F014A424644C
:10443900FF901C747401F022901CDFEFF0901C5D5A
:1044490075F0061240E20240EE787F7C1C7D017B0C
:10445900017E007F13023E63901CD8E0FD901C464C
:10446900E0FB7A0022786A7C1C7D017BFF7E007F5D
:1044790002023E63E024FE901B40F0901B3EE014D4
:10448900901B41F0901B3EE022E024FE901B49F076
:10449900901B47E014901B4AF0901B47E022E075FF
:1044A900F006901C0B1240E2E0FEA3E022E075F05A
:1044B90014A42406FD901C7B740CF07A0B79477BBD
:1044C900FFA312410E7B10221240EE900003123E10
:1044D900A2901B0BF09000040241237B017A1B7907
:1044E900D022901B3EE075F007A4240CF9741B350B
:1044F900F0FA7B01901B4322901B47E075F007A45B
:1045090024B3F9741B35F0FA7B01901B4C22E4901B
:104519001C74F07D0A7F7322F5831240EEEF75F06B
:1045290014A42405FDE4901C74F07F4622E4901B3A
:104539000AF07BFF22E014901B40F0901B3EE090B4
:104549001B41F00422E014901B49F0901B47E090B6
:104559001B4AF00422901C69E0FF7E007B01229037
:104569001B0BE0640522901B0A7401F0A37408F088
:104579007BFF227B017A1B79E422901CDFE0FD900E
:104589001BE3E0FB7A0022901CE0E0FD901C5CE05C
:10459900FB7A002278D47C1C7D017E00023E639068
:1045A9001CE0EFF075F006901C4722901BD0E075D7
:1045B900F014A4246122901CF27417F0A37470F013
:1045C90022901B3EE0FD7B077A0022901B3EE09083
:1045D9001B40F004227B017A1B79F722901CD3E05F
:1045E9007B0122901CDDE06401F07BFF22901B47D8
:1045F900E0FD7B047A0022901B47E0901B49F00400
:0846090022901B0BE024F622B5
:105F15001259FB901C6AEFF0126A0E901C6AE0643D
:105F25001F6061E4901C69F0901C69E0FFC3941444
:105F350074809480504EEF75F005A4244FF582E4EB
:105F4500341BF583E0FF901C6AE0B5072F901C69B0
:105F5500E0FF75F005A42450F582E4341BF583E0D9
:105F6500FE901B0AE0B50614EF75F005A42451F563
:105F750082E4341BF5831240EE024179901C69E0FE
:045F850004F080A400
:015F890022F5
:096F90007BFF7A6F790602008E86
:03008E00024179B3
:105E24001245687075786C7C1C7D011244E4FE7F19
:105E340013123E637A1C79D1124452126D0EEF7024
:105E4400217BFF7A527920901C9512410E901C9868
:105E5400E4F0A37404F07B017A1C79D4125B9CEF08
:105E6400700F7BFF7A00794612008EE4901B0AF0D3
:105E7400221244E4120026126CE87BFF7A52792540
:105E840012443A7D1F7F311253A07FE87E03126EC5
:0B5E9400517BFF7A6B79AB12008E226D
:0567F20012456870343F
:1067F7001244E47F01126065901C69EFF0786A7CAF
:106807001C7D017BFF7A5279AA124476901C697A23
:106817001C796A12441F124D071245B41244397D80
:04682700261253A042
:01682B00224A
:106C7600901B0BE024FB601724FD7019901B0B740E
:106C860005F07BFF7A6B79AB12008E1245BF22129C
:066C960044E4126EEE2240
:106E6D0012456870157BFF7A6F790612008E901BA4
:0B6E7D000B7408F01244E412002622FF
:05673D001245687037F1
:106742001244E47F02126065901C69EFF0786A7C63
:106752001C7D017BFF7A5279AC124476901C69123F
:1067620045617A1C796A124425124D071245B4120A
:0767720044397D261253A0FB
:0167790022FD
:106DF700901B431240EE1244DEE94A4B600F901B92
:0E6E07000A7402F0901B431244D112008E2236
:10643F00901B3FE0FF14F0EF7001F01245CA7F018F
:10644F00126EA3901B3EEFF064067004A37402F06B
:10645F00901B3FE0FD7C00700A1245D41244892442
:10646F00028011ED64014C901B3E700512453E8079
:10647F000312447D901B42F07BFF7A007946120095
:07648F008E1244EB02410EE6
:01004200229B
:106F2F0012456F7A6F790612008E1244E402002622
:10649600901B3FE0FF04F0EF640270037402F012F9
:1064A60045CAE4FF126EA3901B3EEFF07002A3F004
:1064B600901B3FE0FD7C00700A1245D412448924EB
:1064C600028011ED64014C901B3E700512453E8022
:1064D6000312447D901B42F07BFF7A00794612003E
:0764E6008E1244EB02410E8F
:1060CE00901CD2E07055126CE8901CD3E07BFF7AE6
:1060DE00527936901C7470170412612C7A527948DA
:1060EE0012443A7D207F051253A012457C8016740F
:1060FE000112612C7A52795D12443A7D207F05128D
:10610E0053A01245DE1200267FE87E03126E517BED
:10611E00FF7A5B791512008E7F00227F0122F07DBF
:09612E00147F051253A07BFF222F
:1041BD00901B0BE012415342A60142F50242BD0392
:1041CD00433F0441DD06436E0743150D000043B523
:0F41DD001260CEEF70030243B5901CD3E070590F
:1041EC00901C69F0901C69E0FFC394047480948067
:1041FC00502A74E72FF582E4341BF5831245617A5B
:10420C001C796A124425124D07901C691244327DA8
:10421C00121253A0901C69E004F080C8901C7B74AF
:10422C000CF07A0B79671244C87D107FAF1249C32A
:06423C00901CD37401F098
:104242000242A0786C7C1C7D0112457C12445A7A91
:104252001B79F7124452126D0EEF602A7B017A1B12
:1042620079FA7F0412459D12682C12457C120026B1
:104272001245DE120026E4901B0AF01243D67BFFA1
:104282007A0079468010126CE87A52797B1243F3F5
:104292007BFF7A5B791512008EE4901CD3F0E490D8
:1042A2001CD2F022901CDCE06401F024FF92871201
:1042B200682C7BFF7A6579DF0243B2901CDDE070E7
:1042C20006FF126F66801F7F01126F66126CE87B19
:1042D200FF7A52798412443A7D167F1E1253A07FD0
:1042E200F47E01126E511243B61245367A007946B7
:1042F2000243B2901B4C1240EE1244DEE94A4B706C
:10430200030243B5901B0A7403F0901B4C1244D174
:104312000243B2901CDFE0FF901C60124449E94A5C
:104322004B600D75F006EF901C6012444C124179FF
:104332001243B61245367A0079460243B2901CE027
:10434200E0FF75F006901C4A12444CE94A4B600D9E
:1043520075F006EF901C4A12444C12417912682CF7
:104362001243D61245367A0079468044C2AFE4FF42
:10437200FE126CC27BFF7A5279997F1212459D7BA5
:10438200017A1C79D4901C717412F0E4FFFE126A57
:10439200FCD2AF126ACF126F871200031268641246
:1043A2006CE87A5279721243F31245367A007946F2
:1043B20012008E2212682C126CE87BFF7A527972FC
:1043C200E4901C74F07D167F461253A07FF47E01A8
:1043D200126E5122126CE87BFF7A527972E4901CC1
:1043E20074F07D167F461253A07FF47E01126E5147
:1043F200227BFFE4901C74F07D167F461253A07F4F
:07440200F47E01126E51224D
:106E8800901B0BE024FA70121245E570067A1B7904
:0B6E9800E480047A1B79F7126EEE22F2
:106C2800901B0BE024FA701512457C1200261245C1
:106C3800DE120026E4901CD3F0901CD2F0124536E8
:076C48007A00794602008E7C
:1052B600901B0BE024FE605B14604E1470030253D7
:1052C6008024F7700302537024076003025394127C
:0452D60045E5701921
:1052DA007A1B79E41253957A5279AE124409124D27
:0652EA000712442F7D12A3
:0352F000025391D5
:1052F3007A1B79F71253957A5279B0124409124DF9
:0953030007901BF71244327D26CD
:10530C000253911245EC7A67797A02008E901B4811
:10531C00E0FF14F0EF7001F01245F67F01126EA35E
:10532C00901B47EFF064037004A37402F0901B48C9
:10533C00E0FD7C00700A12460012449E240280118B
:10534C00ED64014C901B47700512454E80031244CE
:10535C0092901B4BF07BFF7A66797412008E12458B
:10536C000102410E124583E4FF126EA31244411256
:10537C0045178011124590E4FF126EA31245A81236
:10538C00444C1245171253A0227F01126065901CE9
:04539C0069EFF022A3
:1050BC00901B0BE024FE606F1460621470030251AD
:1050CC009F24F7700302518F240760030251B3121F
:0450DC0045E5702313
:1050E0007A1B79E41251B47A5279B212446E1245A5
:1050F0005E7A1C796A124425124D0712442F7D12E4
:035100000251B0A9
:105103007A1B79F71251B47A5279B412446E12456C
:105113005E7A1C796A124425124D07901BF71244DC
:03512300327D26B4
:105126000251B01245EC7A67797A02008E901B48DC
:10513600E0FF04F0C3EF940274809480400374028D
:10514600F01245F6E4FF126EA3901B47EFF07002D3
:10515600A3F0901B48E0FD7C00700A124600124442
:105166009E24028011ED64014C901B477005124588
:105176004E8003124492901B4BF07BFF7A66797443
:1051860012008E12450102410E1245837F01126EF6
:10519600A312444112451780111245907F01126EE9
:1051A600A31245A812444C1245171253A0227F029F
:0951B600126065901C69EFF02203
:1062650012460A601714602414603124037050121A
:106275004461E4FF126EA3901CD8802E901CD912A5
:106285004464E4FF126EA3901CD9801E901CDA12A0
:106295004464E4FF126EA3901CDA800E901CDB129E
:1062A5004464E4FF126EA3901CDBEFF075F00690DA
:1062B5001C0D12444C12443A7D1F7F691253A022D3
:1062C50012460A60171460241460312403705012BA
:1062D50044617F01126EA3901CD8802E901CD912A8
:1062E50044647F01126EA3901CD9801E901CDA12A3
:1062F50044647F01126EA3901CDA800E901CDB12A1
:1063050044647F01126EA3901CDBEFF075F00690DC
:106315001C0D12444C12443A7D1F7F691253A02272
:10619F0012460A601714602114602B240370549068
:1061AF001CD81244A7F58BEEF58D8025901CD912C3
:1061BF0044A7F5D7EEF5D68018901CDA1244A7F550
:1061CF00D5EEF5D4800B901CDB1244A7F5D3EEF57A
:1061DF00D212682C126CE87BFF7A527972E4901C11
:1061EF0074F07D167F461253A07FF47E01126E511C
:0461FF00126F1E22DB
:106F1E00901B0A7402F0A3F07BFF7A66797402006C
:016F2E008ED4
:01009100224C
:10004600E4901C6CF0126CE8901C6CE0C394037492
:100056008094805025E0FF2440F582E4341BF5832C
:10006600E075F007A4240CF582E4341B1245211236
:1000760053A0901C6CE004F080CE901B3F1244B657
:050086007F320249C3B6
:10667400E4901C6CF0126CE8901C6CE0C39403E48E
:1066840094005025E0FF2449F582E4341BF583E0AF
:1066940075F007A424B3F582E4341B124521125388
:1066A400A0901C6CE004F080CF901B481244B67F8D
:0466B400320249C3A2
:096F99007BFF7A66797402008E18
:106A0E00901B0AE064017006A3E064086022EF6444
:106A1E001F701A901CF1E030E01654FEF012456F14
:106A2E007A6F790612008E1244E40200261245BFD8
:016A3E002235
:106D330030313233343536373839414243444546AE
:106D43004748494A4B4C4D4E4F5051525354555658
:056D53005758595A00D9
:106BD500901C711240EE901C9EE475F001123FD896
:106BE50085F082F58322901C9FE024FFFF901C9E78
:0A6BF500E034FF22901C710240EE14
:0C4D0700901C6FEEF0A3EFF0A312410E21
:104D130078767C1C7D017BFF7A6D79337E007F255D
:104D2300123E63E4901C9EF0A3F0901C74E07004A8
:104D3300A3E0640A7027901C6FE0FEA3E0FFC3EEBC
:104D4300648094805017C3E49FFFE49E901C9BF003
:104D5300A3EFF0126BD5742D123F03800F901C6FDD
:104D6300E0FFA3E0901C9BCFF0A3EFF0901C74E056
:104D7300FEA3E0FDAC06901C9BE0FEA3E0FF123F08
:104D83003774762DF582741C3CF583E0FF126BD5E6
:104D9300EF123F03901C9BE0FEA3E0FF901C74E026
:104DA300FCA3E0FD123F37901C9BEEF0A3EFF04E07
:104DB30070BA126BF9901C9EE0FEA3E0F5828E831D
:104DC300E4123F03123E89B42D0A901CA2E4F0A31F
:104DD30004F08007E4901CA2F0A3F0901CA2E0FF73
:104DE300A3E0901CA0CFF0A3EFF0126BEBFE7C00CE
:104DF3007D02123F8CD3901CA1E09FEE6480F8905B
:104E03001CA0E06480984003024E92126BF9901C40
:104E1300A0E0FEA3E0F5828E83123EA2901C9DF0DB
:104E2300126BEBFE901CA3E02FFF901CA2E03EFE52
:104E3300901CA0E0FCA3E0FDC3EF9DFFEE9C8F82DE
:104E4300F583123EA28D828C83123F03901C9DE05A
:104E5300FF901C9FE024FFFD126BF2FC901CA3E06B
:104E63002DFD901CA2E03CFC901CA0E0FAA3E0FB0B
:104E7300C3ED9BFDEC9AFC126BF98D828C83EF12D0
:104E83003F03901CA0E475F001123FC2024DED9068
:054E93001C710240EE5D
:106EA300A905EF7003098006E97002A90319AF036E
:096EB300E98FF084A9F0AF01227F
:043D8A00411CA40034
:10546500ADF0FCEF75F0480240E2FF75F0480240F0
:10547500E2EF75F0480240E2EF75F0480240E2FFC6
:1054850075F0480240E2ADF0FCEF75F0480240E2ED
:10549500901C7AE475F0011240F7023E89EF75F031
:1054A500480240E2FF75F0480240E2E0FEA3E0C397
:1054B5009440EE940022E5822DF582E5833CF58348
:1054C50022A3F0E4A3F0A374FFF0A374E8F0A3E033
:1054D5004401F0A37401F0A322EF75F0480240E205
:1054E500900003123FEEAEF022E475F001023FD8C2
:1054F500FF75F0480240E2EF75F0480240E2900087
:1055050001023EA2A3F0A374FEF0A374E0F0229082
:0B5515000002023EA2900006023EA22F
:106D5800901CA57401F074501254C67440F054FE8F
:106D6800F0901CAE74EFF0A3F07B017A1C79A502B9
:026D78005520A4
:0300230002596B14
:10596B00C0E0C0F0C083C082C0D075D010309909A0
:10597B00C299901CADE054FEF0309869C298900625
:10598B00C2E0FF9000051254697401F090000412FC
:10599B005476E0704A9006C2E090004812546FE4CF
:1059AB00F0A304F090004612547D1254B050309086
:1059BB0006C2E090004612546F1254EE900006128D
:1059CB0054651254BBE599F09006C2E0FF900002BB
:1059DB001254777401F09000031254A27405F090E6
:1059EB001CA47401F0D0D0D082D083D0F0D0E032A0
:106D9C00901CB07402F074101254C67414F0901C51
:0F6DAC00B974FEF0A3F07B017A1C79B002552078
:030043000257AFB2
:1057AF00C0E0C0F0C083C082C0D075D010E59A3081
:1057BF00E10A539AFD901CB8E054FEF0E59A30E0F0
:1057CF006B539AFE900D84E0FF9006C712547E74BF
:1057DF0001F09006C61254A2E0704B900D84E09039
:1057EF00070A125484E4F0A304F0900708125476C9
:1057FF001254B05031900D84E0FF90070812548F6F
:10580F001254EE9006C81254651254BBE59BF090EB
:10581F000D84E0FF9006C41254A37403F09006C5E4
:10582F001254DE7405F0901CA47403F0D0D0D08213
:07583F00D083D0F0D0E0326D
:106E1500901CBB7403F0A37450F0740A12550990CA
:0E6E25001CC17408F07B017A1C79BB02552059
:03008B00025846D2
:10584600C0E0C0F0C083C082C0D075D010E5AC30D7
:10585600E10A53ACFD901CC3E054FEF0E5AC30E029
:105866006953ACFE901446E0900D891254A9740158
:10587600F0900D881254DEE0704A901446E0900DC8
:10588600CC1254A9E4F0A304F0900DCA12547D1270
:1058960054B05030901446E0FF900DCA1254DF12F7
:1058A60054EE900D8A12548B1254BBE5ADF0901451
:1058B60046E0900D861254F57404F0900D8712544C
:1058C600FC7405F0901CA47404F0D0D0D082D08370
:0558D600D0F0D0E0322B
:106E3300901CC67404F0A37450F074A0125509900A
:0E6E43001CCC7410F07B017A1C79C60255201D
:030093000256789A
:10567800C0E0C0F0C083C082C0D075D010E58430CF
:10568800E10A5384FD901CCEE054FEF0E58430E03E
:10569800735384FE901B08E090144B1254F5740168
:1056A800F090144A1254FCE0705A901B08E0FF90E6
:1056B800148E1254FDE4F0A304F075F048EF901432
:1056C8008C1240E21254B0503B901B08E090148CAE
:1056D8001254841254EE90144C12548B1254BBE59D
:1056E80085F0901B08E0FF75F0489014481240E2DE
:1056F8007405F0901CA4E0FE75F048EF9014491270
:0F57080040E2EEF0D0D0D082D083D0F0D0E032AB
:10552000123E89FD6401703B125503F59812551423
:1055300042891254E5F58BEEF58D900005123EA2DE
:1055400013928E900007123EA2428E900009123EE6
:10555000A252B890000A123EA252B712551A24FF66
:1055600092AC227C00ED6402702B125503F59A1266
:1055700054E5F5D7EEF5D6900007123EA2428E1202
:10558000551A42AF900009123EA252B590000A127D
:105590003EA252B622ED64034C7014125503F5ACD2
:1055A000125514F5D11254E5F5D5EEF5D480191243
:1055B0003E8964047017125503F58412551442D1C4
:0E55C0001254E5F5D3EEF5D212551A42AF2281
:106D7A00900008123EA230E00AED1DAE0470011C1C
:106D8A004E70EDE92408F9E43AFA123E8944010208
:026D9A003EF1C8
:1064ED00901C7712410E901C7DE0FF14F0EF604080
:1064FD00901C771240EE7D887C13126D7A901C777C
:10650D001240EE123E8924FE6011146015146019BC
:10651D00240370D2125495F59980CB125495F59BA6
:10652D0080C4125495F5AD80BD125495F58580B695
:01653D00223B
:0C6F5A00C2AC8F993099FDC299D2AC22D4
:10658F00FF75F0481240E27401F0EF2401FFE4338D
:10659F00FE7C007D18123F37AF0D2290000575F07D
:1065AF00480240E29006C775F0480240E275F04895
:1065BF00EF1240E2E0FEA3E04E2275F0481240E2F7
:1065CF0074FFF5F0023FC2900D8975F0480240E26A
:106C4F00E4901CE4F0A3F0A3F0A374DCF0A3E4F051
:106C5F00A3E04401F04402F0A37420F0A3F07B0101
:076C6F007A1C79E40266B80B
:1066B800123E89703D900001123EA2F58E900002B4
:1066C800123EA2F589900003123FEEAEF0F58AEE75
:1066D800F58C900005123EA2FF13928CEFC31313A2
:1066E80092A9900006123EA242B8900007123EA25C
:0366F80042B72284
:03000B00024E980A
:104E9800C0E0C0F0C083C082C0D075D008901CF2BA
:104EA800E07002A3E06017901CF21265CF901CF22C
:104EB800E07002A3E07007901CF1E04401F0900656
:104EC800C2E0FF1265AAE060289000481265BC9015
:104ED80006C2600CE09000481265AD1265CF8011E3
:104EE800E090000412658F9006C2EFF01265AAE404
:104EF800F0900D84E0FF1265B3E0602890070A1275
:104F080065BC900D84600CE090070A1265B61265C6
:104F1800CF8011E09006C612658F900D84EFF012D5
:104F280065B3E4F0901446E0FF1265D6E0602D7595
:104F3800F048EF900DCC1265C09014466009E090DF
:104F48000DCC1265C98015E0FF75F048900D8812E8
:104F58006593901446EFF01265D6E4F0901B08E0D4
:104F6800FF90144B1265D9E0603375F048EF901448
:104F78008E1265C0901B086009E090148E1265C9F6
:104F8800801BE0FF75F04890144A126593901B0847
:104F9800EFF075F04890144B1240E2E4F0D0D0D016
:084FA80082D083D0F0D0E0328A
:106E5100901C72EEF0A3EFF0901C7274FFF5F0122B
:0B6E61003FD845F06005126FA280EDE5
:016E6C002203
:086FA2007F0B7EBEDEFEDFFC6A
:016FAA0022C4
:104818002B2B2B0061002B4F6B0041542B574D4F16
:1048280044453D41505354410D0A002B4F4B004124
:10483800542B5741503D504C4331365F41502C4E1C
:104848004F4E450D0A0041542B484541525444549B
:104858003D373737373737324537393645373036CA
:1048680031373832453633364636440D0A0041541E
:104878002B575354413D756E696F6E2C2A21796E02
:104888007A666B6A3230303931323135212A0D0A75
:104898000041542B524547454E413D434C4F5544EA
:1048A8002C46495253540D0A0041542B534F434B45
:1048B800413D544350432C636C6F75642E7573727D
:1048C8002E636E2C31353030300D0A0041542B5395
:1048D80045415243483D31353030302C636C6F755B
:1048E800642E7573722E636E0D0A0041542B524567
:1048F80047434C4F55443D303030313936333930E9
:1049080030303030303030303035362C536B6447EF
:10491800417A796C0D0A0041542B57414E4E3D4463
:104928004843500D0A0041542B5A0D0A0041542B9C
:10493800454E544D0D0A00FF4818FF481C03E80077
:104948000000FF481CFF481E00C8000000FF482266
:10495800FF483300C8000000FF4837FF483300C84D
:10496800000000FF484EFF483300C8000000FF4821
:1049780076FF483300C8000000FF4899FF4833001D
:10498800C8000000FF48B1FF483300C8000000FF1E
:1049980048D4FF483300C8000000FF48F3FF4833FD
:1049A80000C8000000FF491FFF483300C80000008E
:0B49B800FF492EFF483300C80000003C
:1066FB007A4879227BFF7DC87C002275F00BA4249D
:10670B0045F582E43449F583E493FC740193FD224F
:10671B0075F00BA4243FF582E43449F5830241174D
:10672B007A49792E7BFF7DC87C0022F0901C6D028C
:02673B0040EE2E
:0C6F6600EF6006147005D29422C2942241
:10686400E4901C6CF0D294D2957FF47E01126E51A8
:10687400E4901C6CF0901C6CE0C3940C74809480C5
:106884005014E0FF12671BEF12670612662D901C6E
:066894006CE004F080DF5F
:01689A0022DB
:10662D00901C6D12410E901C70ECF0A3ED126736AC
:10663D00E94A4B6031901C70E07002A3E0602712B4
:10664D00673712000E901C7DEF126736901C7A1280
:10665D00410E7B017A1C79B01264ED901C70E0FE46
:07666D00A3E0FF126E5122B1
:106A3F00E4901C69F0F0901C69E0FFC39402E494A9
:106A4F0000501DEF12671BE94A600D901C69E012A0
:106A5F0067064C600312662D901C69E004F080D627
:016A6F002204
:106EBC00126A3F1266FB12662D7A4979351266FF0B
:096ECC0012662D12672B02662DDF
:106ED500126A3F1266FB12662D7A49793512672FC1
:096EE50012662D12672B02662DC6
:10009600B1EAB6A8BFAAB9D8B2CECA00C5E4D6C3DB
:1000A600CAB1BCE4D0D0C4A3C4E2C7EBCAE4C8EB6F
:1000B600C3DCC2EBD0C2C8B7C8CFD0DEB8C4B3C9A0
:1000C600B9A6CAA7B0DCD6F7BDE7C3E6B1BEB5D8B8
:1000D600C1ACBDD3D4B6B3CCCDA8D0C5B7BDCABD0F
:1000E600C6F4CDA3B2A8CCD8C2CAC9E8B4AEBFDAAA
:1000F600BBD6B8B4B3F6B3A7CAC7B7F1B5C8C4DAA6
:10010600B2BFCFB5CDB3D2BBB6FEC800CBC4B3F534
:10011600CABCBBAFD2D4CCABCDF8CEDECFDFC0A944
:10012600D5B9B4F2BFAAB9D8B1D5C4A3BFE9B1BE97
:10013600BBFAC8C8B5E3B9A4D7F7C4A3B4D38868D3
:10014600FF48109212F21292100000000F000201F6
:10015600080F000003002C24A42425E624242424CC
:100166002C0008040304080F090909090800404285
:1001760042FE424242FE42424000000806010000A2
:10018600000F000000004048494A48F8484A4948DC
:100196004000080804020100010204080800905407
:1001A600B6955C54349436549000000A0A0A0A093B
:1001B600050404020000482A987F284A10EF08F830
:1001C6000800090B05050B00080502050800FA4A98
:1001D6003E0A3E4AFA00E2223E000F0505050505E5
:1001E6000F0007080E001017D555577D5755D51720
:1001F600100008080F08080E08080F080800FE225D
:1002060022FE0008488808FF0800070202070000CF
:100216000009080F000000F902F849494949F901A7
:10022600FF00000F0003020202020B080F00482421
:10023600F20910121212F212100000000F00000054
:1002460008080F0000008868FF4802FAAFAAAFFA54
:10025600020000000F000A0A0603060A0A0088FFC9
:100266004800FE00820CE01F0000080F0000030992
:10027600040300030C0011F20022EAAABFAAAAEAAC
:100286002200000F04000F0202020A0F0000342CA5
:10029600F7A4E8A4EA09CA04E80001010F000F0266
:1002A6000F0003080F0000000181720C708000002F
:1002B60000000804020100000001020408004632A2
:1002C60082B2466B524A62126600000E0808080F98
:1002D6000808080E000042F22EE2013D2121213FCE
:1002E600E00000070207010101010908070020AA32
:1002F600B2E3B2AA00FE12F211000402080F000ACD
:100306000403000F000042F22EE200F453F25A56A4
:10031600F000000702070807010701090F00101186
:10032600F2000000C03FC0000000000007020906FE
:1003360001000106080010FC03F810948B4A2A9667
:100346001000000F0003080A0A0905040200E22251
:10035600223E2010EF08887808000F0402010804E6
:1003660002010204080000FC2424E404FF0485665C
:100376000400080700020B04020102040F00040433
:10038600FC040408FF080808F80002020109050336
:10039600000008080700A0908E8888FF888888805B
:1003A6008000080804020100010204080800FE0299
:1003B600FA02FE10EC0B08F8080009040304090809
:1003C6000502050808000088888889FA88888888D0
:1003D600000008080808080F080808080800809F99
:1003E6009555553F5555959F80000008040300001C
:1003F600000F0000000002F21212FA5652F2121218
:10040600F200000F04040705050704040F000404A6
:10041600846414FF14648404040002010202020FBF
:100426000202020102001010FF1020FC10FF0884D7
:10043600FC00040403020007080908080E0021E274
:100446000004342C27F424240400080708090909A9
:10045600090F090909008888FF48A4ACB5E6B4ACC1
:10046600A40000080F00080A0B04040B080021E290
:10047600001012F21212F21210000807080A0908F8
:100486000808090A0B0012D2FE51802F29E9292FEC
:10049600000001000F000809090F0909080011F200
:1004A60000F9A9ABFDADABF800000807080B08087A
:1004B6000B080A0B080010FC0304545455565454F8
:1004C6000400000F00000F050505050F00000404D9
:1004D60004FC2526242424E4040008040300000068
:1004E600080808070000084848C8484808FF0809DF
:1004F6000A00080808070404040003040E000000AC
:10050600FCA4A4A5A6A4A4A4BC000806010F040488
:10051600040404040F002010FC0382BAAAABAABA92
:10052600820000000F0001020A0E020201002244AE
:1005360000FC24E4243F24E40C0004020807080815
:100546000502050808009C88FF481054545FF454BF
:10055600500000000F0000010A080F000000028A88
:10056600529AD6B3D28A528A020002020202020FBD
:100576000202020202001011F20050CF41414FD098
:100586001000000007020808050205080800C05E02
:10059600525252FF5252525EC00007020202020F2E
:1005A60002020202070000FE02020202020202FE2C
:1005B60000000007020202020202020700007800A1
:1005C600FF08C43FC404F444240000000F040308D9
:1005D60004020106080004027DD555555555557D82
:1005E6000100000A090B050505050B090800801E18
:1005F600101010FF1010101E8000070404040407DA
:10060600040404040F0000FE0202020202020202B7
:100616000200080700000000000000000000404043
:100626005F5555D555555F40400008040304080F33
:100636000909090908001191898985BF818585897C
:100646001100000F040404040404040F00004453C2
:100656005256527C53D256524200010103050109FB
:10066600090F0101010000FC0484641F24C404FC7A
:100676000000000F000000000008080F000020AA7C
:10068600B2A3B2AA20FE0232CE00000F0404040F69
:10069600000F02020100008292DAD6B2B19189C13E
:1006A600800008040200080F00000204090098D424
:1006B600B3880064D44DC654E4000404020208045E
:1006C600030007080C004040404040404040404086
:1006D60040000000000000000000000000000004D0
:1006E60004040404040404040000040404040404CC
:1006F600040404040400000242424242424242020E
:10070600000008080808080808080808080000FE8D
:1007160002827E02027E8282FE00000F050404042D
:10072600040404040F008445F64CA002FE020202F3
:10073600FE0000000F000806010008080700887880
:100746000FF800D8545350D830000805020D000F9A
:100756000404040F00002010FC030080FF20100892
:10076600040000000F000100070808080E0000FE44
:100776000080420C00807F0000000003090804048A
:1007860002010204080008080888681FE80808082B
:100796000800080402010204000304080800FF0917
:1007A6009161910991619109FF000F01000000011B
:1007B600000008090F0020222222E23EE222222225
:1007C6002000080402010000070808080E0098D45B
:1007D600B388004848FF24A526000404020208083E
:1007E600040305080E008888FF4800FC040506047B
:1007F600040000080F00080700000000000000FFCA
:1008060045D57D55D5557D5547000807000F080489
:100816000102040A09008888FF4848020202FE0213
:10082600020000080F00000008080F000000404208
:1008360042FE424242FE42424000000806010000DB
:10084600000F000000004048494A48F8484A494815
:10085600400008080402010001020408080000F92B
:10086600022020A2FA222202FE00000F000201044A
:10087600070008080F008868FF4802FAAFAAAFFA17
:10088600020000000F000A0A0603060A0A0008FF13
:1008960008404444FF44447C40000203010804032A
:1008A6000003040808000404846414FF1464840428
:1008B600040002010202020F02020201020088681D
:1008C600FF2840FE0202FE00000000000F0804039D
:1008D600000007080E002424FF1400D43F447C8047
:1008E600E00008050104090004080004090000F0FE
:1008F6001010101F121212F202000805010509015C
:100906000509010508000002020202FE02020202B7
:10091600000008080808080F080808080800201042
:10092600FC030807FC242424040000000F00000038
:100936000F01010101008868FF4802FAAFAAAFFA69
:10094600020000000F000A0A0603060A0A00000059
:10095600E01FE000C03FC0000000080601000906D5
:10096600010001060800000000000000004F000022
:100976000007000700147F147F14242A7F2A1223FD
:100986001308646236495522500005070000001C12
:100996002241000041221C0014083E081408083EAB
:1009A60008080050300000080808080800606000C9
:1009B6000020100804023E5149453E00427F400097
:1009C60042615149462141454B311814127F102787
:1009D600454545393C4A49493001710905033649BF
:1009E600494936064949291E003636000000563662
:1009F6000000081422410014141414140041221497
:100A0600080201510906324979413E7E1111117ED3
:100A16007F494949363E414141227F4141221C7F5F
:100A2600494949417F090909013E4149497A7F08F7
:100A360008087F00417F41002040413F017F0814A4
:100A460022417F404040407F020C027F7F04081015
:100A56007F3E4141413E7F090909063E4151215EE3
:100A66007F09192946464949493101017F01013F5C
:100A76004040403F1F2040201F3F4038403F631406
:100A860008146307087008076151494543007F4110
:100A9600410002040810200041417F0004020102C7
:100AA6000440404040400102040000205454547861
:100AB6007F484848303844444444304848487F38A2
:100AC6005454545800087E0902485454543C7F0834
:100AD60008087000007A00002040403D007F202872
:100AE600440000417F40007C0438047C7C080404F8
:100AF6007838444444387C14141408081414147CBC
:100B06007C08040408485454542404043F44243CF8
:100B16004040403C1C2040201C3C4030403C442887
:100B260010284404483008044464544C44083641B0
:100B3600410000007700000041413608040202022D
:100B460001F8F81010080404024AC94D4A484868DA
:100B56003003030101010101010100000000000052
:100B66000000000000F0F8FCFCFCFCF8F0000000BF
:100B76000000000000000103030303010000000061
:100B860000081C3E7F00007F3E1C0800000000009D
:100B9600000000000000000000000000000000004F
:100BA600000000000000000000000000000000003F
:100BB600000000000000000000000000000000002F
:100BC600000000000000000000000000000000001F
:100BD600000000000000000000000000000000000F
:100BE60000000000000000000000000000000000FF
:100BF60000000000000000000000000000000000EF
:100C0600000000000000000000000000000000FFDF
:100C1600FFFFFFFFFFFFFFFFFFFFFFFFFFFFFFFFDE
:100C2600FFFFFFFFFFFFFFFFFFFFFFFFFFFFFFFFCE
:100C3600FFFFFFFFFFFFFFFFFFFFFFFFFFFFFFFFBE
:100C4600FFFFFFFFFFFFFFFFFFFFFFFFFFFFFFFFAE
:100C5600FFFFFFFFFFFFFFFFFFFFFFFFFFFFFFFF9E
:100C6600FFFFFFFFFFFFFFFFFFFFFFFFFFFFFFFF8E
:100C7600FFFFFFFFFFFFFFFFFFFFFFFFFFFFFFFF7E
:100C8600FFFFFFFFFFFFFFFFFFFFFFFFFFFFFFFF6E
:100C9600FFFFFF0000000000000000000000000051
:100CA600000000000000000000000000008080C07E
:100CB600C0E0E0E0F0F0F0F8F8F8F8FCFCFCFCFC32
:100CC600FCFCFEFEFEFCFCFCFCFCF8F8F8F0E0C0C8
:100CD600000000000000000000000000000000000E
:100CE600000000000000000000000000000000807E
:100CF60080C0E0E0F0F0F8FCFCFCFEFEFFFF7F7F2A
:100D06007F7F7F7F3F3F3F3F3F3F3F3F3F3F3F1F0D
:100D16001F3F3F3F3F3F3F3F3F7F7F7FFFFFFFFF3D
:100D2600FFFF3C0000000000000000000000000083
:100D3600000000000000804020203018180C0E0F24
:100D46000F070707030303010101010000000080EC
:100D5600C0E0E0F0F0F0F8F8F8F8FCFCFCFCFCFC75
:100D6600FCFCFCFCF8F8F8F0F0E0000000000001E4
:100D7600071F030000000000000000000000000044
:100D8600000000000000000000000000000000005D
:100D960000000000000000000080E0C00000043FEA
:100DA6003F3F7F7FFFFFFFFFFFFFFFFFFFFFFFFFCD
:100DB6007F7F7F7F3F3F3F1F0F070300000000003C
:100DC6000000000080808080C0C0C0C0E0E07030BD
:100DD60030180C00000000000000000000000000B9
:100DE60000000000000000000000FFFFFFFFFEFE05
:100DF600FCFCFCF8F8F8F8F8F8F8F8F8F8F8F8F861
:100E0600F8F8F8F8F8F8F8FCFCFCFCFCFCFEFEFE32
:100E1600FEFFFF7F3F3F1F1F0F0707030101000073
:100E260000000000000000000000000000000000BC
:100E3600000000000000000000000001070F1F3F37
:100E46003F3F7F7F7F7F7F7F7F7F7F7F7F7F7F7F2C
:100E56007F3F3F3F3F1F1F1F0F0F0707070303017A
:100E6600010000000000000000000000000000007B
:100E7600000000000000000000000000000000006C
:100E8600000000000000000000000000000000005C
:100E9600000000000000000000000000000000004C
:100EA600000000000000000000000000000000003C
:100EB600000000000000000000000000000000002C
:100EC60000000000000000000000000000C0C0C0DC
:100ED600C0C0C0C0C0C0C0C0C0C0C0C0C0C0C0C00C
:100EE600C0C0C0C0C0C0C0C0C0C0C0C0C0C0C0C0FC
:100EF600C0C0C0C0C0C0C0C0C0C0C0C0C0C0C0C0EC
:100F0600C0C0C0C0C0C0C0C0C0C0C0C0C0C0C0C0DB
:100F1600C0C0C0C0C0C0C0C0C0C0C0C0C0C0C0C0CB
:100F2600C0C0C0C0C0C0C0C0C0C0C000000000007B
:100F360000FFFF00000000808080C0C0E0E0E0E02D
:100F4600202060606060606060606060606060601B
:100F56006060606060C0C0C0C0C0C0C0C0C0C0C06B
:100F6600C0C0C0C0C0C0C0C0C0C0C0C0C0C0C0C07B
:100F7600C0C0C0C0C0C0C0C0C0C0C0C0C0C0C0C06B
:100F8600C0C0C0C0C0C0C0C0C0C0000000FFFF00DD
:100F96000000000000FFFF000000FFFFFFFFFFFF53
:100FA600FFFFFFFF0000000000000000000000003F
:100FB600000000000000000000000000000000002B
:100FC600000000000000000000000000000000001B
:100FD600000000000000000000000000000000000B
:100FE600000000000000000000000000FFFF0000FD
:100FF60000FFFF000000000000FFFF000000FFFFF1
:10100600FFFFFFFFFFFFFFFF000000007EE6C38338
:1010160083C3EE7C0000000000000000000000001A
:1010260000000000000000000000000000000000BA
:10103600000000000000000000000000000018187A
:101046001818181818181818181818000000000092
:10105600FFFF000000FFFF000000000000FFFF0090
:101066000000FFFFFFFFFFFFFFFFFFFF0000000084
:101076000000000101000000000000000000000068
:10108600000000000000000000000000000000005A
:10109600000000000000000000000000000000004A
:1010A600000000000000000000000000000000003A
:1010B60000000000FFFF000000FFFF00000000002E
:1010C60000FFFF00000000000101030307070F0FE8
:1010D6000C0C0C0C0C0C0C0C06060606060606067A
:1010E600060606060606060606060606060606069A
:1010F60006060202020202020202020202020202C2
:1011060002020202020202020202020202020202B9
:1011160002020202020202020303000000FFFF00B5
:101126000000000000070706060606060606060675
:101136000606060606060606060606060606060649
:101146000606060606060606060606060606060639
:101156000606060606060606060606060606060629
:101166000606060606060606060606060606060619
:101176000606060606060606060606060606060609
:101186000607070000000000000000000000000045
:101196000000000000000000000000000000000049
:1011A6000000000000000000000000000000000039
:1011B6000000000000000000000000000000000029
:1011C6000000000000000000000000000000000019
:1011D6000000000000000000000000000000000009
:1011E60000000000000000000000000000C0C0C0B9
:1011F600C0C0C0C0C0C0C0C0C0C0C0C0C0C0C0C0E9
:10120600C0C0C0C0C0C0C0C0C0C0C0C0C0C0C0C0D8
:10121600C0C0C0C0C0C0C0C0C0C0C0C0C0C0C0C0C8
:10122600C0C0C0C0C0C0C0C0C0C0C0C0C0C0C0C0B8
:10123600C0C0C0C0C0C0C0C0C0C0C0C0C0C0C0C0A8
:10124600C0C0C0C0C0C0C0C0C0C0C0000000000058
:1012560000FFFF000000C0C040404040404040400A
:101266004040404040404040404040404040404078
:101276004040404040404040404040404040404068
:101286004040404040404040404040404040406038
:1012960060606060606060E0E0E0E0E0E0E0E06048
:1012A60060E0C0C0C0C080800000000000FFFF00FA
:1012B6000000000000FFFF000000FFFF000000002C
:1012C6000000008080808000000000000000000018
:1012D6000000000000000000000000000000000008
:1012E60000000000000000000000000000000000F8
:1012F60000000000000000000000000000000000E8
:101306000000000000FFFFFFFFFFFFFFFFFC0000E3
:1013160000FFFF000000000000FFFF000000FFFFCD
:1013260000000000003F7161C1C161773E0000000E
:1013360000000000000000000000000000000000A7
:101346000000000000000000000000000000000097
:101356000000000000000000000000001818181827
:10136600181818181818000000FFFFFFFFFFFFFFEE
:10137600FFFF000000FFFF000000000000FFFF006D
:101386000000FFFF00000000000000000000000059
:101396000000000000000000000000000000000047
:1013A6000000000000000000000000000000000037
:1013B6000000000000000000000000000000000027
:1013C60000000000000000000000000000FFFFFF1A
:1013D600FFFFFFFF7F3F000000FFFF00000000004F
:1013E60000FFFF00000003030202020202020202E3
:1013F60002020202020202020202020202020202C7
:1014060002020202020202020202020202020202B6
:1014160002020202020202020202020202020202A6
:10142600020202060606060606060E0E0E0E0E0E32
:101436000E0F0F0F070301000000000000FFFF0062
:101446000000000000070706060606060606060652
:101456000606060606060606060606060606060626
:101466000606060606060606060606060606060616
:101476000606060606060606060606060606060606
:1014860006060606060606060606060606060606F6
:1014960006060606060606060606060606060606E6
:1014A6000607070000000000000000000000000022
:1014B6000000000000000000000000000000000026
:1014C6000000000000000000000000000000000016
:1014D6000000000000000000000000000000000006
:1014E60000000000000000000000000000000000F6
:1014F60000000000000000000000000000000000E6
:1015060000000000000000000000808080808080D5
:101516008080808080808000000000000000000045
:1015260000000000FFFFFFFFFF00000000000000BA
:1015360000000000000000000000000000000000A5
:101546000000000000000000000000000000000095
:101556000000000000000000000000000000000085
:101566000000000000000000000000000000000075
:101576000000000000000000000000000000000065
:101586000000000000000000000000000000000055
:101596000000000000000000000000000000000045
:1015A6000000000000000000000000000000000035
:1015B6000000000000000000000000000000000025
:1015C600000000000000000000007F7F7F7F7F7F1B
:1015D6007F7F7F7F7F7F7FFFFFFFFFFFFEFEFEFC9B
:1015E600FCF8F8F8FFFFFFFFFF0000000000000016
:1015F60000000000000000000000000000000000E5
:10160600000000000000000000C0C0C00000000094
:1016160000000000000000000000000000000000C4
:1016260000000000000000000000000000000000B4
:101636000000000000000000C0C0C0000000000064
:101646000000000000000000000000000000000094
:10165600C0C0C00000000000000000000000000044
:1016660000000000000000C0C0C000000000000034
:101676000000000000000000000000000000000064
:1016860000000000000000000000F0F0F0F0F0F0B4
:10169600F0F0F0F0F0E0E0E0E0E0E0E0C1C18183EE
:1016A6008307071FFFFFFFFFFFFFFFFFFFFFFFFF90
:1016B600FFFFFFFFFFFFFF0000000000000000002B
:1016C60000E0E0E0E0E0E0E0E0FFFFFFE0E0E0E097
:1016D600E0E0E0E000000000FFFFFF07C7C7C7C764
:1016E600C7C7C7C7C7C7C7C707FFFFFF0000003C7C
:1016F6003C3C3C3C3C3C3C3CFFFFFF3C3C3C3C3CDB
:101706003C3C3C3C000000F0F0F0F0F0F0F0F0F073
:10171600FFFFFFF0F0F0F0F0F0F0F0F00000000056
:10172600F8F87878787878FFFFFF78787878F8F89E
:10173600F8000000000000FFFFFF1F1F1FDFDFDFB4
:101746001F1F1FDFDFDF1FFFFFFF0F0F0F0F0F0F23
:101756000F0F0F0F0F1F1F1F1F1F1F3F3F3F3F7F03
:101766007FFFFFFEFFFFFFFFFFE0E0E0E0E0E0E0DD
:10177600E0E0E0E0E0E0E000000000000000000043
:1017860000FFFFFF0303030303FFFFFF030303033E
:1017960003FFFFFF00000000FFFFFF0003E3E3E39A
:1017A600E3FFFFFFE3E3E3E300FFFFFF00000000CA
:1017B600FEFEFE1E1E1EFEFEFF1F1FFEFEFE1E1E60
:1017C600FEFEFE0000000000000000000000FFFF1B
:1017D600FFFFE0E0E0E0E0E0E000000000000000E5
:1017E600FFFF7878787878FFFFFF78787878FFFFC2
:1017F600FF000000000000FFFFFF0E1EFEFFFF1FA0
:101806000C3CFCFFFF0700FFFFFFFEFEFEFEFEFE98
:10181600FEFCFCFCFCFCFCFCFCFCF8F8F8F8F0F028
:10182600E0E0C0C3FFFFFFFFFF1F1F1F1F1F1F1F9B
:101836001F1F1F1F1F1F1F000000000000000000C9
:10184600001F1F1F1F1F1F1F1FFFFFFF1F1F1F1F21
:101856001F1F1F1F00000000FFFFFFC0C0C1C1C146
:10186600C1FFFFFFC1F9F9F9C0FFFFFF000000004B
:10187600FFFFFF00CFCFCFCFFFFFFFFFCFCFCF00C0
:10188600FFFFFF000000000000000000C0F8FFFF9F
:101896000F0101010101FFFFFF0000000000000031
:1018A6007F7F7878787878FFFFFF787878787F7F01
:1018B6007F000000000000FFFFFFF0F8FF3F3F3F02
:1018C600F8F8FF3F7FFEF0FFFFFF01010101010174
:1018D60001010101010303030303070707070F0FB4
:1018E6001F1F3F7FFFFFFFFFFFF8F8F8F8F8F8F833
:1018F600F8F8F8F8F8F8F80000000000000000001A
:10190600000000000000000000FFFFFF00000000D4
:101916000000000000000000FFFFFFF1F1F1F1F10F
:10192600F1F1F1F1F1F1F1F1F1FFFFFF000000003B
:10193600FFFFFF0003030303FFFFFF030303F3F0AF
:10194600FFFF7F0000000000F8F8FC3F1F0F0300B8
:101956000000707070707F7F7F0000000000000044
:1019660000000000000000FFFFFFE0E0E0E0E0E034
:10197600FCFCFC00000000FFFFFF00000000000070
:101986000707070000F0F0FFFFFF0000000000005F
:101996000000000000000000000000000000000041
:1019A60000000000FFFFFFFFFF0707070707070705
:1019B60007070707070707000000000000000000F0
:1019C600000080C0C080000080010181000080000E
:1019D6008080000080000000808000000000000081
:1019E600C0C0C000000080C0C0800000C00000C0B1
:1019F600C000C0C0C0C00080800000800000C1C11F
:101A0600C1C00000C0C0C08000008000000080008F
:101A1600000080C0C0C080000080C0C08000C00040
:101A26000000000000C000C1C1C1C10101C1C1C1A7
:101A360081010100000080C0C080000080C0C0C0DD
:101A46008000808000C0C0C0C08000000000000090
:101A56000000000000000000000000000000000080
:101A660000000000FFFFFFFFFFFFFFFFFFFFFFFF7C
:101A7600FFFFFFFFFFFFFF00000000000000000067
:101A8600003FFFC0C0610000FF0404FF0000FF002C
:101A9600FF0F0E78FF00E07E67677CE000000063C2
:101AA600C7CCFD71003FE1C0C07F1E007FC0C0FFF4
:101AB6003F0000FFFF0000FFFF0C0CFF0000FFCC03
:101AC600CCCC007FFF181CFFC000FF071CF8FF00EE
:101AD6000000FFFF180F07003EF3E1E1F33F07FEAA
:101AE600F80707FCFE0300FFCCCCCC0000FF181C57
:101AF600FFC00000003FFFC0C8F93000FF0C0C3CDF
:101B0600E700FFFF00FFC0C0F37F000000000000F9
:101B160000000000000000000000000000000000BF
:101B260000000000000000000000000000000000AF
:101B3600000000000000000000000000000000009F
:101B4600000000000000000000000000000000008F
:101B5600000000000000000000000000000000007F
:101B6600000000000000000000000000000000006F
:101B7600000000000000000000000000000000005F
:101B8600000000000000000000000000000000004F
:101B9600000000000000000000000000000000003F
:101BA600000000000000000000000000000000002F
:101BB600000000000000000000000000000080F0AF
:101BC600000000000000008000000000000000008F
:101BD60000000080808080C0C06060303010B8F89F
:101BE6007800000000000000000000000000000077
:101BF6000000000000000000000000000030301867
:101C06000C0402E3FE1C00000000000000000000BF
:101C160000000000000000000000000000000000BE
:101C26000000008080C0E0E08000000000000000AE
:101C3600000000000000000000000000000000009E
:101C4600000000000000000000000000000000008E
:101C56000000000000000000000000000000C0FEC0
:101C6600FF1C000000000000000000000000000053
:101C7600000000000000008000000080E07C47615A
:101C8600F060000804C27F1F07000000000000008B
:101C960000F8F001010101C18080C070380C070115
:101CA600000000000000000000000000000000002E
:101CB600C0C0606030180CFC0800000CF800000082
:101CC600F0F0FC1F00000000000000000000000013
:101CD600000000000080C0E0E0000000E0201008E6
:101CE60004E60301C0F81F07010000000000000021
:101CF6000000000000000000000060E0C0C0C0C09E
:101D0600C0C04040E0C0000000000000000000002D
:101D160000000000000000000000000000F8FF3F87
:101D2600030090F0C000000000000000000000006A
:101D36000000000000000083FE38068378F0CC0720
:101D4600010080E09E83800000000000000000008B
:101D5600E0FF7F000060380F0703010080000000ED
:101D6600000000000000000000000000000000006D
:101D7600E000001E1800F07F000000FE1F0000803B
:101D8600FFFF070000000000000000000000000048
:101D9600000002070301FF3F0100001C3F0088CC42
:101DA6007F73380F030000000000000000000000F1
:101DB6000000000000000000000000010303030112
:101DC600C0F0F87E1F0701000000000000000000C0
:101DD600000000C0C0C0C0C0C0E0E0F0FF7F391CFA
:101DE6000E070701000000000000000000000000D0
:101DF6000000000007078180C760211118888464ED
:101E060032190D07030101000000000000000080E8
:101E16008101000000000080C00000F8FF0088F08B
:101E2600E0000000000000000000000000000006C6
:101E3600070100000103030000F07F0300000C0708
:101E460000FF00000000000000000000000000008D
:101E56000040606078FECFC0000000000002CF8323
:101E6600C08000000000000000000000000000002C
:101E7600000000000000000000000080E0F8FEBF47
:101E86009F87818000000000000000000000000025
:101E96000000000101010181C1791F0300800000DB
:101EA6000000000000000000000000000000C0E08C
:101EB600E070380C0603010000000000E0190780FE
:101EC600C0C0000000000000000000000000F8FF95
:101ED6003F0400000383C343213018FFFFE6C3819C
:101EE60080C0C0800000000000000000000000006C
:101EF60000000000000000E0FE07000000000000F7
:101F0600FFFF0000000000000000000000000000CD
:101F16000000C0F07C1F03000000000000E3BF07C4
:101F260001808000000000000000000000000000AA
:101F36000020F0F0F0F8F8787C3C1E1F0F0F070326
:101F46000303010000000000000000000000000084
:101F56000000008060381E070100000000001FFC22
:101F6600F0C0800000000000000000000000010139
:101F76000000000060E0E07070381C1CFF070307DB
:101F86000701000000000000000000103C7F3F3801
:101F9600180C060603010000000000000101010103
:101FA6000101010000000000000000000000000028
:101FB6000000000000E07E0F0000000000000000AE
:101FC6000F0F0000000000000000000000000000ED
:101FD60000000101000000000000000000030303F0
:101FE60003030703000000000000000000000000DB
:101FF60000000001010000000000000000000000D9
:1020060000000000000000000000000000000004C6
:1020160006020100000000000000000000000000B1
:1020260003070F070703010000000000000000007F
:1020360000000000000000000830E0F07F00000013
:10204600000000000000000000000000000000008A
:10205600000000000000000000000000000000007A
:10206600000000000000000000000000000000006A
:102076000000180C0701000000000000000000002E
:10208600000000000000000000000000000000004A
:10209600000000000000000000000000000000003A
:1020A600000000000000000000000000000000002A
:1020B600000000000000000000000000000000001A
:1020C600000000000000000000000000000000000A
:1020D60000000000000000000000000000000000FA
:1020E60000000000000000000000000000000000EA
:1020F60000000000000000000000000100000000D9
:0A21060000000000000000000000CF
:03000000025A8918
:0C5A8900787FE4F6D8FD758117025AD032
:066FB200900001023EA266
:104B6E00EFD394057480948040037F0122123E8916
:104B7E00FED394037480948040037F0222EF70383A
:104B8E00EE7008126FB2F452935294123E89640181
:104B9E007008126FB24293F45294123E89FE640270
:104BAE007007126FB242934294EE6403700A126F52
:104BBE00B2FEF45293EE4294EF6401703A123E89C3
:104BCE00FE7008126FB2F452915292EE64017008A8
:104BDE00126FB24291F45292123E89640270071221
:104BEE006FB242914292123E896403700A126FB202
:104BFE00FEF45291EE4292EF6402703A123E89FE3A
:104C0E007008126FB2F452955296EE64017008124B
:104C1E006FB24295F45296123E8964027007126F7B
:104C2E00B242954296123E896403700A126FB2FE2A
:104C3E00F45295EE4296EF6403703A123E89FE707E
:104C4E0008126FB2F452B152B2EE64017008126FD4
:104C5E00B242B1F452B2123E8964027007126FB2C0
:104C6E0042B142B2123E896403700A126FB2FEF470
:104C7E0052B1EE42B2EF6404703A123E89FE7008F1
:104C8E00126FB2F452B352B4EE64017008126FB2E6
:104C9E0042B3F452B4123E8964027007126FB242EC
:104CAE00B342B4123E896403700A126FB2FEF4521C
:104CBE00B3EE42B4EF6405703D123E89FF7E007084
:104CCE0008126FB2F452C952CAEF64014E70081244
:104CDE006FB242C9F452CA123E8964027007126F53
:104CEE00B242C942CA123E896403700A126FB2FF01
:094CFE00F452C9EF42CA7F002202
:10689B00E4FEFDFC901C75E0F8A3E0F9A3E0FAA37D
:1068AB00E0FBC30240A0E0FBA3E475F001023FD87C
:1068BB00EEF0A3EFF0A3EBF0A3EAF0A3E9F022755F
:0668CB00C65A75C6A522A5
:10632500901C751240B10000000B7F1E12689B4047
:106335000475C780227F1812689B400475C78122A7
:10634500E47F1412689C400475C78222E47F0C1216
:10635500689C400475C78322E47F0612689C40044C
:1063650075C78422E47F0312689C400475C78522A3
:0F637500E47F0212689C400475C7862275C787B3
:0163840022F6
:0D6F4D00E4F5C7F5C5F5C675C380F5C4228F
:056AA000901C6FEFF0F7
:106AA500E4FF12632575C501901C6FE0F5C4E0FF96
:106AB5007808A2E713D8FBF5C31268CAAFC2E5C7C9
:096AC50030E40653C7EF7F3322D1
:016ACE0022A5
:106C9C00901C72EEF0A3EFF0A3EDF012632575C516
:106CAC0002901C72A3E0FFF5C475C300A3E0F5C20B
:066CBC001268CA026F4DD0
:106CC200901C6CEEF0A3EFF012632575C503901CC7
:106CD2006CA3E0FFF5C475C3001268CA126F4D7F42
:066CE200047E00026E5169
:106AFC00901C6C1268BB901C71E0FF14F0EF601BD3
:106B0C00901C6C1268B4AFF0FE901C6E1268B1A9A8
:0C6B1C00F0FA123E89FD126C9C80DB2216
:106B8000901C691268BB901C6EE0FF14F0EF601A55
:106B9000901C691268B4AFF0126AA0901C6B126866
:0B6BA000B1A9F0FAEF123EF180DC22F8
:043D8E00411CFD03D4
:1059FB00A2A6E43325E0FFA2A4E4334FFFA2A3E465
:105A0B003325E025E04FFFA2A5E43333333354F8BD
:105A1B004FFFA2A2E433C454F04F901C6BF0901CC8
:105A2B00FDE0601814604314602D14704E901C6BD5
:105A3B00E0641F6046E4901CFDF0803F7F0A7E000F
:105A4B00126E51901C6BE0FF641F602F901CFCEFDB
:105A5B00F0A37402F08024901C6BE0641F701C9008
:105A6B001CFD04F0901CFCE0FF22901CFC741FF04A
:0D5A7B00A37403F07F0A7E00126E517F1F9E
:015A880022FB
:105F8A00901C78E02EFD1268DD901C7CE0FBA3E0FB
:105F9A00FAA3E022901C77F9E0F582758300023EAD
:105FAA00A22FF9EA3EFA901C7CEBF0A3EAF0A3E9EF
:105FBA00F0901C6FE0FFA3E0FD901C7B22F9901C7F
:105FCA0085E0FF7E00E92FF9EE3AFA901C84E02280
:105FDA0034FFFE901C7AE0FD7C00023F25FA123E57
:105FEA0089FF901C80E0FE22EEC39408748094809E
:015FFA002284
:106B2800C2B4C2B6E4FE125FF2501EC2B3EF30E741
:106B380004D2B28002C2B2D2B37D017801EF0880DC
:0B6B480002C333D8FCFF0E80DDD2B486
:016B5300221F
:106B5400C2B4D2B6E4FE125FF2501EC2B3EF30E705
:106B640004D2B28002C2B2D2B37D017801EF0880B0
:0B6B740002C333D8FCFF0E80DDD2B45A
:016B7F0022F3
:106CE800E4FCEC125FF3501DEC24B0FF126B28E4B7
:106CF800FBEBC394C0E494005008E4FF126B540B00
:056D080080EF0C80DDAE
:016D0D002263
:0C68D100FF901C85E0FE901C78E02EFD7E
:1068DD00AE07AC05EEC3940274809480EE50042490
:1068ED00B6800224AEFF126B28ECC4540F2410FFA7
:0A68FD00126B28EC540FFF026B2809
:105FFB00C2B57F647E00126E51D2B57F327E001225
:10600B006E517FE2126B287F327E00126E517F2F12
:10601B0012605A7FA01260437F811260437FEB12A4
:10602B00605A7FC4126B287F147E00126E517FAFB3
:10603B00126B28C2B7026CE8126B287F147E001219
:10604B006E517F70126B287F147E00126E512212DC
:0A605B006B287F147E00126E5122A4
:1063E400EF14602B04704E901CF47418F0901CF69B
:1063F4007410F0901CF5740CF0901CF974FFF0A369
:106404007401F0A37444F0901CF8740CF08029908B
:106414001CF47405F0901CF67408F0901CF57405D7
:10642400F0901CF87407F0A374FFF0A37409F0A3B0
:0B643400746CF080037F00227F0122C7
:08653E00901C78EEF0A3EFF0D1
:10654600E4FDFCED25E0FFEC33FE74962FF5827436
:10655600003EF583E493FAED25E0FFEC33FE7497F5
:106566002FF58274003EF583E493FFEAFE901C78D3
:10657600E06E7003A3E06F600B0DBD00010CED64CF
:08658600644C70BFAE04AF05C8
:01658E0022EA
:1053A000901C6FEFF0A3EDF0A3EBF0A3EAF0A3E9FC
:0153B000F00C
:1053B100A3E0FF1263E4E4901C77F0901C71125F8C
:1053C10096125F9EFF7E00C3948074809480502C5F
:1053D100EF24E0FFEE34FFFE901C75F0A3EFF07CAC
:1053E100007D05123F25901CF9125F96125FAB7488
:1053F10008F07B0512545204F0025443901C7112C0
:105401005F96125F9EFE901C77E0FD7C00E92DF90E
:10541100EC3AFA900001123EA2FDEDFF12653E90BA
:105421001C75EEF0A3EFF07C007D18123F25901C57
:10543100F9125F96125FAB7410F07B0C1254522478
:1054410002F0901C71125F96125F9E60030253BCC2
:10545100221249C3901CF8E0FF901C6FE02FF090DE
:045461001C77E022B2
:0C49C300901C78EFF0901C7AEBF0AA0535
:1049CF00A3E0FF54076008EF54F82408FF80059018
:1049DF001C7BE0FF901C7BEFF0E0FDFFEA2FFFE474
:1049EF0033FEEF7803CEC313CE13D8F9901C81F0AA
:1049FF00FCED2A5407A3F0EA131313541FFF901C66
:104A0F007FF0EA5407A3F0C3EC9F04901C83F0E4FB
:104A1F00A3F0901C83E0FFA3E0C39F4003024B6D04
:104A2F00901C7FE0FF901C81E09F5003024B27E416
:104A3F00901C85F0901C7AE0FF901C85E0FEC39FD0
:104A4F004003024B64901C84E0701D901C7FE0FFBC
:104A5F00125F8A901C85125FA1125FEBF8EF08803E
:104A6F0002C333D8FC024B1A901C83E014FFA3E05F
:104A7F006F703F901C81E01268D1901C84E024FF7E
:104A8F00FFE4125FDA125F932FF9EA3EFA901C856A
:104A9F00E07E0029F9EE3AFA123E89FF901C82E07F
:104AAF00FEC374089EFEF8EF088002C313D8FC0201
:104ABF004B1A125F93125FC724FFFFEE125FDAE902
:104ACF002FF9EA3E125FE7C374089EFEF8EF0880E5
:104ADF0002C313D8FC901C86F0125F93125FC7FFBE
:104AEF00901C7AE08FF0A429F9EA35F0125FE7F80D
:104AFF00EF088002C333D8FCFB901C84E0FF901CAE
:104B0F007FE02F1268D1901C86E04BFF126B549000
:104B1F001C85E004F0024A43901C7FE0FF901C8547
:104B2F00E0FE125F8AF9901C85125FA2FF901C8233
:104B3F00E004FEF87401088002C333D8FC14FE9021
:104B4F001C80E0FDF87401088002C333D8FC146E9A
:0E4B5F005FFF126B54901C84E004F0024A21A8
:014B6D002225
:105A9500026F72E493A3F8E493A34003F68001F246
:105AA50008DFF48029E493A3F85407240CC8C33312
:105AB500C4540F4420C8834004F456800146F6DFE1
:105AC500E4800B0102040810204080902110E47E40
:105AD500019360BCA3FF543F30E509541FFEE493D6
:105AE500A360010ECF54C025E060A840B8E493A39D
:105AF500FAE493A3F8E493A3C8C582C8CAC583CAC8
:105B0500F0A3C8C582C8CAC583CADFE9DEE780BE7F
:013D92000030
:103D9300E709F608DFFA8046E709F208DFFA803E12
:103DA30088828C83E709F0A3DFFA8032E309F608FF
:103DB300DFFA8078E309F208DFFA807088828C8367
:103DC300E309F0A3DFFA806489828A83E0A3F6081B
:103DD300DFFA805889828A83E0A3F208DFFA804CF5
:103DE30080D280FA80C680D4806980F280338010CC
:103DF30080A680EA809A80A880DA80E280CA803335
:103E030089828A83ECFAE493A3C8C582C8CCC583AC
:103E1300CCF0A3C8C582C8CCC583CCDFE9DEE7807C
:103E23000D89828A83E493A3F608DFF9ECFAA9F0FB
:103E3300EDFB2289828A83ECFAE0A3C8C582C8CC51
:103E4300C583CCF0A3C8C582C8CCC583CCDFEADE6A
:103E5300E880DB89828A83E493A3F208DFF980CCCC
:103E630088F0EF60010E4E60C388F0ED2402B404C5
:103E73000050B9F582EB2402B4040050AF2323456C
:063E83008223903DE37371
:103E8900BB010689828A83E0225002E722BBFE0237
:093E9900E32289828A83E493226A
:103EA200BB010CE58229F582E5833AF583E02250D5
:103EB20006E92582F8E622BBFE06E92582F8E2221F
:0D3EC200E58229F582E5833AF583E4932239
:103ECF00BB010989828A83F8E028F022500327F783
:103EDF0022BBFE05F8E328F3228A838982F8E49354
:023EEF00282287
:103EF100BB010689828A83F0225002F722BBFE01B0
:023F0100F322A9
:103F0300F8BB010DE58229F582E5833AF583E8F0F4
:103F1300225006E92582C8F622BBFE05E92582C8A0
:023F2300F22288
:103F2500EF8DF0A4A8F0CF8CF0A428CE8DF0A42EB0
:023F3500FE226A
:103F3700BC000BBE0029EF8DF084FFADF022E4CC6E
:103F4700F875F008EF2FFFEE33FEEC33FCEE9DEC37
:103F5700984005FCEE9DFE0FD5F0E9E4CEFD22ED7D
:103F6700F8F5F0EE8420D21CFEADF075F008EF2FC7
:103F7700FFED33FD4007985006D5F0F222C398FDB8
:053F87000FD5F0EA2255
:103F8C00C2D5EC30E709B2D5E4C39DFDE49CFCEE50
:103F9C0030E715B2D5E4C39FFFE49EFE123F37C352
:103FAC00E49DFDE49CFC8003123F3730D507C3E44D
:063FBC009FFFE49EFE22BF
:103FC200C5F0F8A3E028F0C5F0F8E582158270028A
:063FD2001583E038F02227
:103FD800A3F8E0C5F025F0F0E5821582700215839C
:063FE800E0C838F0E822F9
:103FEE00BB0110E58229F582E5833AF583E0F5F011
:103FFE00A3E0225009E92582F886F008E622BBFEEE
:10400E000AE92582F8E2F5F008E222E5832AF58333
:08401E00E993F5F0A3E99322F8
:10402600BB010DC58229C582C5833AC583023FC23D
:104036005011C58229F808E5F026F618F5F0E58254
:1040460036F622BBFE11C58229F808E225F0F5F006
:10405600F218E23582F222F8E58229F582E5832A12
:0D406600F58374019325F0F5F0E493382202
:10407300F8BB0111E58229F582E5833AF583E8F07F
:10408300E5F0A3F0225009E92582C8F608A6F0223C
:0D409300BBFE09E92582C8F2E5F008F22223
:1040A000EB9FF5F0EA9E42F0E99D42F0E89C45F076
:0140B00022ED
:1040B100A8828583F0D083D0821240C81240C812F2
:1040C10040C81240C8E473E493A3C583C5F0C58317
:1040D100C8C582C8F0A3C583C5F0C583C8C582C859
:0140E10022BC
:0C40E200A42582F582E5F03583F58322E9
:0940EE00E0FBA3E0FAA3E0F922D3
:1040F700F8E0FBA3A3E0F925F0F0E5821582700252
:074107001583E0FA38F022F5
:09410E00EBF0A3EAF0A3E9F022B2
:0C411700E493FB740193FA740293F92204
:10412300BB010DE58229F582E5833AF5830240EE72
:104133005007E92582F80241ABBBFE07E92582F867
:104143000241B4E58229F582E5833AF583024117FA
:10415300D083D082F8E4937012740193700DA3A3FB
:1041630093F8740193F5828883E47374029368600F
:06417300EFA3A3A380DF0F
:064179008A838982E473D1
:105B9C00901C92EBF0A3EAF0A3E9F0901C95E0FBCB
:105BAC00A3E0FAA3E0F9123E89FE901C92E0FBA35D
:105BBC00E0FAA3E0F9123E89FF6E702AEF600E90B6
:105BCC001C9874FFF5F0123FC245F070037F002261
:105BDC00901C93E475F001123FC2901C96E475F092
:105BEC0001123FC280B5901C92E0FBA3E0FAA3E047
:105BFC00F9123E89FDD3EE6480F8ED648098400381
:105C0C007F0122901C95E0FBA3E0FAA3E0F9123E81
:075C1C0089FFC3ED9FFF2289
:10000E00E4FFFE123E89600C0FEF70010E09E970DD
:05001E00F20A80EF2250
:10417F00EF4E6012EF60010EEDBB010B89828A8357
:10418F00F0A3DFFCDEFA2289F05007F709DFFCA964
:0C419F00F022BBFEFCF309DFFCA9F022BB
:0941AB00E6FB08E6FA08E6F92239
:0941B400E2FB08E2FA08E2F9223C
:00000001FF
