:1061DF00706172616D6574657273206172652063A1
:1061EF006F7272656374202100706172616D6574E6
:1061FF00657273206572726F7220210072657374FD
:10620F006F726520706172616D65746572732E2E89
:10621F002E00FFFFFFFF0808020801010000010226
:10622F003671007375636365737366756C6C792073
:02623F0021003C
:10211000531CD1000000FFFFFFFF08080208010167
:062120000000010236710F
:106DAC00A3F07B017A1C7969227BFF901C7474011F
:0E6DBC00F07D1F227B017A1C79D47410F02226
:0B6F860012583F125E88125C9F80F8DA
:10583F00125FD87A0079021258B37A0079021241B6
:10584F007F7A0679C41258B37A0679C412417F7AE7
:10585F000D79861258C17A0D798612417F7A1479A3
:10586F00481258C17A14794812417F125F6E125D47
:10587F001B126C3F901CF1E054FEF0126D49126D3B
:10588F008D126E06126E24C2A7126F0FD2AF126F57
:10589F009A901CDEE0700C126846901CDE7401F0CA
:1058AF0012680E227B01125E117E067FC27D007B85
:1058BF0001227B01125E117E067FC27D007B0122D9
:105FD800E4901C69F07405126DACE4FF124B439019
:105FE8001C697403F0740A126DACE4FF126034FF8C
:105FF800126026A37432126DAD7F01124B43901CC0
:10600800697401F0A3747C126DAD7F021260347F55
:0E60180003126026A314126DAD7F03024B43EA
:106026007A1C7969124B43901C697403F022124B57
:0B60360043E4901C69F0A304F0FB227F
:106A8700E4FFFE901C6E126DC0E4126B977B017AD7
:106A97001C79D474FF901C70F0A3F07D0E12567B06
:0F6AA700901CE2E0B50607A3E0B50702D322C3B7
:016AB60022BD
:105D1B00126A877BFF50127A6179DF126DB77F0EA3
:105D2B0012545E7FE87E03805E7A6179F8126DB75C
:105D3B007F1312545E7FF47E01126E427A62790BEE
:105D4B00126DB57F1312545EE4FFFE126CB378D460
:105D5B007C1C7D017BFF7A6279217E007F10123ED5
:105D6B0063901C71126DC0E4FFFE126B137FE87E13
:105D7B0003126E42126CD97A627932126DB57F3191
:0B5D8B0012545E7FF47E01126E422273
:104F940020323430302000203438303020002039A2
:104FA4003630302000313434303020003139323062
:104FB4003020003338343030200035363030302063
:104FC4000035373630302000313135323030003959
:104FD400323136303000B4F2BFAA00B9D8B1D500AE
:104FE400D6F7BBFA00B4D3BBFA0045746865726E99
:104FF400657400574946492F3447005253343835B5
:1050040000C7EBCAE4C8EBC3DCC2EB00C7EBCAE4DD
:10501400C8EBD0C2C3DCC2EB00C7EBC8B7C8CFD063
:10502400C2C3DCC2EB0053544F500052554E00B97A
:10503400D8B1D5CEDECFDFC4A3BFE900B4F2BFAA96
:10504400CEDECFDFC4A3BFE900D2D4CCABCDF80011
:10505400CEDECFDFCDF800C0A9D5B9CDF800C4DAD3
:10506400B2BFCDF800CAC7B7F1BBD6B8B4B3F6B374
:10507400A7C9E8D6C300CAC700B7F100C8C8B5E3DA
:1050840000415020494400504C4331365F415000A8
:10509400C4A3CABD004D61737465722D4F626A6505
:0350A40063740032
:10212600603C1C0A00F504FF4F9401FA82FF4F9BA6
:1021360002FD41FF4FA203FE2CFF4FA904FEA1FFA3
:102146004FB005FF51FF4FB706FF88FF4FBE07FF91
:102156008BFF4FC508FFC6FF4FCC09FFF9FF4FD3D2
:10216600411C460A4C1C5DFF4FDAFF6EADFF4FDF88
:10217600FF6EC6411BE3024C1C47FF4FE4FF000EF7
:10218600FF4FE9FF6F3B411C5C02491C53FF4FEEBA
:0A219600FF4FF7FF4FFF411BCF037F
:1055D100901C7B7408F07A0B798C7BFFA312410E2F
:1055E1007B0522E075F006A4240DF582E4341CF558
:1055F100831240EE901C747401F0227BFFE4901C36
:1056010074F022E075F006A4240BF582E4341CF555
:1056110083E0FEA3E0227BFFE4901C74F0227BFF79
:10562100E4901C74F022901C7B7408F07BFF7A0BD1
:105631007987227BFFE4901C74F0227BFFE4901CAD
:1056410074F022F5831240EEE4901C74F07D0A227E
:10565100901C6C1240EEE92403F9E43AFA22740C2E
:10566100901C7BF07BFF22901C6C1240EE023E8965
:0A5671007BFFE4901C74F07D3022F2
:106F0F00E4901CD3F0126AE6126F91120003901CEA
:076F1F00E0E0901BF3F022FB
:08000300901CDDE0FF026F7AA2
:096F9100901CDCE024FF92872231
:106AE600901CD8125604F58BEEF58D901CD91256D3
:106AF60004F5D7EEF5D6901CDA125604F5D5EEF568
:0D6B0600D4901CDB125604F5D3EEF5D2221C
:10604100901C6C12410E125651C003C002C00112C5
:1060510056687C00D001D002D00329F9EC3AFA123B
:106061003E89F47003123EF1EF6401700304800C69
:10607100123E897005740A123EF174FF123ECF126E
:106081003E8975F00A84E5F0123EF1125651C003C3
:10609100C002C0011256687E00D001D002D003298F
:0960A100F9EE3AFA123E89FF22E1
:106CFF007B017A1C7982901C9512410E901C98E4AE
:106D0F00F0A37404F07A1C796F125C18EF70037F94
:056D1F0001227F0022AB
:10002600901C6C12410E7E007F047DFF1256571203
:0C003600417F901C6C1240EEE4023EF191
:106EDF007401123ECF123E89FF64047005901CD2DC
:086EEF0004F0EF5403023EF130
:106EF700126CD974401256617A1B7910A312410E95
:086F07007BC0E4FDFF02499884
:106BC200126CD9901C7B7432F07BFF7A0C7999A3FA
:106BD20012410E7B517D08E4FF1249987A507905E3
:0A6BE2001255FC7D0F7F6402545E23
:105B9100126CD9901CD3E06062E4901C6CF0901CF4
:105BA1006CE0FFC3940474809480503B74E72FF53C
:105BB10082E4341BF583E0FF7E007B017A1C796D62
:105BC100901C74E4F0A3740AF0124CDC901C6CE09D
:105BD10075F014A42464FF1255F57D1212545E90E1
:105BE1001C6CE004F080B712565F7A0B7967A31240
:105BF100410E7B107D107FAF1249987A50791012B7
:105C010055FC7D0F7F0F12545E7A50791D12561785
:075C11007D237F0F02545EAA
:1065C100126CD97BFF7A50792A1255F57D187F0F0D
:1065D10012545E7BFF7A50792F1255F57D187F9604
:1065E10012545E901CDCE0901C7B700B7438F07BC5
:1065F100FF7A0E79D080097438F07BFF7A1179F037
:0E660100A312410E7B64E4FD7F2D1249982206
:10675C00126CD9901CDDE075F01EA4240BFD1256B2
:10676C005F7A0B7947A312410E7B107F0A1249986E
:10677C007A5079331256177D0A7F1E12545E7A5066
:0C678C00794012561F7D287F1E02545ECB
:10679800126CD97A50794D12561F7D1D7F0A1254FA
:1067A8005E901CD81255E47D1F7F6912545E125505
:1067B800D17D1F7F95124998901C7B7408F07A0B45
:0C67C80079871255DB7D1F7F6102499824
:1068E900126CD97A5079541256347D1D7F0A12548C
:1068F9005E901CD91255E47D1F7F6912545E1255B2
:10690900D17D1F7F951249981256271255DD7D1F9B
:056919007F61024998B6
:10691E00126CD97A50795B1256347D1D7F0A12544F
:10692E005E901CDA1255E47D1F7F6912545E12557B
:10693E00D17D1F7F951249981256271255DD7D1F66
:05694E007F6102499881
:10695300126CD97A50796212563C7D1D7F0A12540B
:106963005E901CDB1255E47D1F7F6912545E125545
:10697300D17D1F7F951249981256271255DD7D1F31
:056983007F610249984C
:106C1600126CD97A50796912563C7D147F30125421
:106C26005E7A50797A1256717F0A12545E7A5079DA
:096C36007D1256717FAC02545E20
:10636100126CD97BFF7A5079801256497F0A1254F8
:106371005E901CDFE075F006A4245DF582E4341C18
:106381001256447F7312545E1255D17D0D7F9512C2
:1063910049981256271255DD7D0D7F611249987B70
:1063A100FF7A5079851255F57D2B7F0A12545E7B59
:0F63B100FF7A50798B1255F57D2B7F6102545E78
:10611300126CD97BFF7A5079941256497F0A125434
:106123005E901BF3E075F006A42447F582E4341C6B
:106133001256447F7312545E1255D17D0D7F951212
:1061430049981256271255DD7D0D7F611249987BC0
:10615300FF7A5079991255F57D737F0512545E903D
:106163001CE1E075F003A42453F582E4341C1255BA
:08617300F07D737F7802545E99
:106F3B00901BF3E0901CE0F0D29C439A1043AC10F2
:016F4B002223
:10000E00901BF3E0901CE0F0A37402F0C29C539A94
:05001E00EF53ACEF22DE
:10680E007B017A1C79D474FF901C70F0A3F07D0E7E
:10681E0012567B901CE2EEF0A3EFF0C2AFE4FFFE47
:10682E00126CB37B017A1C79D4901C717410F0E455
:08683E00FFFE126B13D2AF2222
:106DCA000305FF46110105FF46110405FF4611059B
:0E6DDA0003FF46110501FF46110504FF461197
:1021A0007B080002000000000000000000000000AA
:1021B000000000000000000000000000000000001F
:1021C000000000000000000000000000000000000F
:1021D00000000000000000000000000000000000FF
:1021E00000000000000000000000000000000000EF
:103CA00000000000000000000000000041000000D3
:043CB00041000100CE
:1059ED00901C6B1240EE9006C1123EA275F048A4B9
:1059FD0029F9EA35F0FA22900001E075F048A4FF8C
:105A0D00901C6E1240EEE92FF9EA22E92404F9E424
:105A1D003AFA22901C6B1240EE9006C1229000447F
:105A2D00E4F5F01240737E007F402275F048A4F536
:105A3D008285F083221240EEE94A4B22900002E467
:105A4D00023F0312411789828A8302417D900044EF
:105A5D00123FEE901C7DF022123EA2FF901C69E0D9
:0C5A6D006F22123EA2FF901C6AE06F2224
:065E1100901C6912410E15
:105E1700E4901C6CF0F0901C6CE0C39418E49400C0
:105E2700504E901C691240EE901C6CE0FF125A38DD
:105E3700E4123F03EF1259F9900001E4123F0312F5
:105E47005A49900003E4123F03900044E4F5F0122E
:105E57004073900046E475F001125A30C007125A99
:105E6700187D00D00712417F901C6CE004F080A6DB
:105E7700901C69125A23E4123F039006C0E4023FC4
:015E87000317
:105C9F00901CE0E06401704D900000F0900000E077
:105CAF00FEC39403E494005062E0FD75F005A42454
:105CBF00CAF582E4346DF583E493FFED75F005A426
:105CCF0024CBF582E4346DF583E493FDEE75F00596
:105CDF00A424CCF582E4346DF583125A5090000061
:105CEF00E004F080B7901CE1E014600C14600E2407
:105CFF00027018906DD98008906DDE8003906DE36F
:0B5D0F00E493FFA3E493FDA3125A509D
:015D1A002266
:1069BD007B007A007900EE702AEF24FD60111460DF
:1069CD00151460192404701B7B017A007902227B57
:1069DD00017A0679C4227B017A0D7986227B017AB0
:0369ED00147948D2
:0169F0002284
:1069F1007B007A007900EE702AEF24FD60111460AB
:106A0100151460192404701B7B017A1C79A5227B63
:106A1100017A1C79B0227B017A1C79BB227B017A35
:036A21001C79C617
:016A2400224F
:0A461100901C6AEDF0901C69EFF0B8
:10461B007E001269BD901C6B12410E901C6AE0FF6C
:10462B001269BD901C6E12410E901C69E0FF12695D
:10463B00F1901C7112410E901C6AE0FF1269F1900F
:10464B001C7412410E901C6B125A4270030247EC01
:10465B00901C6E125A4270030247EC901C71125A56
:10466B004270030247EC901C74125A4270030247CB
:10467B00EC901CE0E07010901C6AE0FDA31259F066
:10468B00900001ED123F03901C6B1240EEC003C073
:10469B0002C001125A20123EA2125A38D001D00287
:1046AB00D003125A6560030247471259ED9000017F
:1046BB00125A6F6003024747A31259F0900002127F
:1046CB003EA260781259ED125A49901C6AE06404BC
:1046DB007010D2A7A31259F0900044E475F00112A8
:1046EB0040261259ED125A18901C7A12410E12598B
:1046FB00ED125A5A901C741240EE12651F1259EDAE
:10470B00125A2AC006C0077D001259ED125A18D052
:10471B0007D00612417F901C6AE064047002C2A7A6
:10472B00125A20123EA22401FFE433FE7C007D18B6
:10473B00123F37AF05125A20ED123F03E4900001F0
:10474B00F0900001E0FFC39418E49400400302478B
:10475B00EC901C6E1240EE75F048EF125A3B125A59
:10476B006F7075125A0435F0FA900001125A657089
:10477B0067900002123EA2605F125A49901C69E0DA
:10478B006404700BD2A790004475F0011240269080
:10479B000001E075F048A4FFAEF0125A0D3EFA127C
:1047AB005A18901C7A12410E125A0D3EFA125A5A8E
:1047BB00901C711240EE12651F125A0435F0FA125A
:1047CB005A2AC007125A187D00D00712417F901C3D
:1047DB0069E064047002C2A7900001E004F0024794
:0147EB004C81
:0147EC0022AA
:0B567B00901C6C12410E901C6FEDF0B3
:10568600E4901C72F0FDFC901C70E0FFA3E0901CFF
:1056960073CFF0A3EFF0E4901C72F0901C6FE0FF64
:1056A600901C72E0C39F505C901C6CE475F0011274
:1056B60040F7123E89FF901C73E0F0A3E06FF0E420
:1056C600FCFD901C73E0FEA3E0FF30E019EEC3136F
:1056D600FEEF13FFEE64A0FEEF6401FF901C73EE75
:1056E600F0A3EFF0800B901C73E0C313F0A3E0135C
:1056F600F00DBD00010CED64084C70C6901C72E004
:0C57060004F08097901C73E0FEA3E0FF0D
:015712002274
:1051AA00C6F4CDA3BFAAB9D800CDA8D0C5B7BDCA89
:1051BA00BD00B9A4D7F7C4A3CABD00C3DCC2EBD0F3
:1051CA00DEB8C400B2A8CCD8C2CAC9E8D6C300B1F6
:1051DA00BEBBFAC8C8B5E300BBD6B8B4B3F6B3A72A
:1051EA00C9E8D6C300D2D4CCABCDF800CEDECFDF2F
:1051FA00CDF800C0A9D5B9CDF800C4DAB2BFCDF850
:10520A0000FFFFFFFF0077726F6E67207061737394
:10521A00776F7264202100496E76616C6964207030
:10522A00617373776F7264210043757272656E746D
:10523A0020636F756E747320697320312E00437575
:10524A007272656E7420636F756E74732069732051
:10525A00322E00D0DEB8C4B3C9B9A600D0DEB8C4B5
:10526A00CAA7B0DC00506C65617365207761697408
:10527A002061206D6F6D656E7400FFFFFFFF0808E7
:10528A00020801010000010236710000000000005E
:07529A00000000000000000D
:103CB400421B0A010860311B0CFF51AA01FF65C1B8
:103CC400FF51B303FF675CFF51BC04FF6113FF5155
:103CD400C506FF5B91FF51CE02FF6FA3FF51D90DC3
:103CE400FF6361FF51E207FF6C165C1BB3FF51EFEA
:103CF40009FF6798FF51F60AFF68E9FF51FD0BFFC2
:103D0400691EFF52040CFF6953521B3D0000000062
:103D14000102011B0C000000000102011BB36064DE
:103D24001B4F1E01FF67D41B01FF671F1701FF5DB7
:103D3400961D01FF6E5E0F01FF6C671E00FF641B82
:103D44001B00FF64721700FF6DE81D00FF6F5D0F1D
:103D540000FF00421E02FF52A11B02FF50A71702E0
:103D6400FF41BD1D02FF69880F02FF6E791E03FF2C
:103D740062411B03FF62A11703FF617B1D03FF6FF9
:063D84004C0F03FF00914B
:10440900786A7C1C7D017BFF7E007F02123E6390EF
:104419001C697A1C796AE0FF7E007B01901C74E4B8
:10442900F0A3740AF022901BE4E075F014A424644C
:10443900FF901C747401F022901CDFEFF0901C5D5A
:1044490075F0061240E20240EE787F7C1C7D017B0C
:10445900017E007F13023E63901CD8E0FD901C464C
:10446900E0FB7A0022786A7C1C7D017BFF7E007F5D
:1044790002023E63E024FE901B40F0901B3EE014D4
:10448900901B41F0901B3EE022E024FE901B49F076
:10449900901B47E014901B4AF0901B47E022E075FF
:1044A900F006901C0B1240E2E0FEA3E022E075F05A
:1044B90014A42406FD901C7B740CF07A0B79477BBD
:1044C900FFA312410E7B10221240EE900003123E10
:1044D900A2901B0BF09000040241237B017A1B7907
:1044E900D022901B3EE075F007A4240CF9741B350B
:1044F900F0FA7B01901B4322901B47E075F007A45B
:1045090024B3F9741B35F0FA7B01901B4C22E4901B
:104519001C74F07D0A7F7322F5831240EEEF75F06B
:1045290014A42405FDE4901C74F07F4622E4901B3A
:104539000AF07BFF22E014901B40F0901B3EE090B4
:104549001B41F00422E014901B49F0901B47E090B6
:104559001B4AF00422901C69E0FF7E007B01229037
:104569001B0BE0640522901B0A7401F0A37408F088
:104579007BFF227B017A1B79E422901CDFE0FD900E
:104589001BE3E0FB7A0022901BF3E0FD901C5CE04A
:10459900FB7A002278D47C1C7D017E00023E639068
:1045A9001BF3EFF075F006901C4722901BD0E075C5
:1045B900F014A4246122901CF27417F0A37470F013
:1045C90022901B3EE0FD7B077A0022901B3EE09083
:1045D9001B40F004227B017A1B79F722901CD3E05F
:1045E9007B0122901CDDE06401F07BFF22901B47D8
:1045F900E0FD7B047A0022901B47E0901B49F00400
:0846090022901B0BE024F622B5
:105E880012595F901C6AEFF0126A25901C6AE06450
:105E98001F6061E4901C69F0901C69E0FFC39414D2
:105EA80074809480504EEF75F005A4244FF582E479
:105EB800341BF583E0FF901C6AE0B5072F901C693E
:105EC800E0FF75F005A42450F582E4341BF583E067
:105ED800FE901B0AE0B50614EF75F005A42451F5F1
:105EE80082E4341BF5831240EE024179901C69E08C
:045EF80004F080A48E
:015EFC002283
:096F9A007BFF7A6E79F702008E8C
:03008E00024179B3
:105D96001245687075786C7C1C7D011244E4FE7FA8
:105DA60013123E637A1C79D1124452126CFFEF70C3
:105DB600217BFF7A52790B901C9512410E901C980C
:105DC600E4F0A37404F07B017A1C79D4125C18EF1A
:105DD600700F7BFF7A00794612008EE4901B0AF062
:105DE600221244E4120026126CD97BFF7A527910F3
:105DF60012443A7D1F7F3112545E7FE87E03126E95
:0B5E0600427BFF7A6B79C212008E22F3
:0567D40012456870345D
:1067D9001244E47F01126041901C69EFF0786A7CF1
:1067E9001C7D017BFF7A527995124476901C697A57
:1067F9001C796A12441F124CDC1245B41244397DCB
:046809002612545EA1
:01680D002268
:106C6700901B0BE024FB601724FD7019901B0B741D
:106C770005F07BFF7A6B79C212008E1245BF221294
:066C870044E4126EDF225E
:106E5E0012456870157BFF7A6E79F712008E901BC3
:0B6E6E000B7408F01244E4120026220E
:05671F0012456870370F
:106724001244E47F02126041901C69EFF0786A7CA5
:106734001C7D017BFF7A527997124476901C691272
:1067440045617A1C796A124425124CDC1245B41254
:0767540044397D2612545E5A
:01675B00221B
:106DE800901B431240EE1244DEE94A4B600F901BA1
:0E6DF8000A7402F0901B431244D112008E2246
:10641B00901B3FE0FF14F0EF7001F01245CA7F01B3
:10642B00126E94901B3EEFF064067004A37402F09E
:10643B00901B3FE0FD7C00700A1245D41244892466
:10644B00028011ED64014C901B3E700512453E809D
:10645B000312447D901B42F07BFF7A0079461200B9
:07646B008E1244EB02410E0A
:01004200229B
:106F5D0012456F7A6E79F712008E1244E402002604
:10647200901B3FE0FF04F0EF640270037402F0121D
:1064820045CAE4FF126E94901B3EEFF07002A3F037
:10649200901B3FE0FD7C00700A1245D4124489240F
:1064A200028011ED64014C901B3E700512453E8046
:1064B2000312447D901B42F07BFF7A007946120062
:0764C2008E1244EB02410EB3
:1060AA00901CD2E07055126CD9901CD3E07BFF7A19
:1060BA00527921901C747017041261087A5279334C
:1060CA0012443A7D207F0512545E12457C80167474
:1060DA00011261087A52794812443A7D207F0512EA
:1060EA00545E1245DE1200267FE87E03126E427B62
:1060FA00FF7A5B799112008E7F00227F0122F07D68
:09610A00147F0512545E7BFF2294
:1041BD00901B0BE012415342A60142F50242BD0392
:1041CD00433F0441DD06436E0743150D000043B523
:0F41DD001260AAEF70030243B5901CD3E0705933
:1041EC00901C69F0901C69E0FFC394047480948067
:1041FC00502A74E72FF582E4341BF5831245617A5B
:10420C001C796A124425124CDC901C691244327DD4
:10421C001212545E901C69E004F080C8901C7B74F0
:10422C000CF07A0B79671244C87D107FAF12499855
:06423C00901CD37401F098
:104242000242A0786C7C1C7D0112457C12445A7A91
:104252001B79F7124452126CFFEF602A7B017A1B22
:1042620079FA7F0412459D12680E12457C120026CF
:104272001245DE120026E4901B0AF01243D67BFFA1
:104282007A0079468010126CD97A5279661243F319
:104292007BFF7A5B799112008EE4901CD3F0E4905C
:1042A2001CD2F022901CDCE06401F024FF92871201
:1042B200680E7BFF7A6579C10243B2901CDDE07023
:1042C20006FF126F7A801F7F01126F7A126CD97B00
:1042D200FF7A52796F12443A7D167F1E12545E7F26
:1042E200F47E01126E421243B61245367A007946C6
:1042F2000243B2901B4C1240EE1244DEE94A4B706C
:10430200030243B5901B0A7403F0901B4C1244D174
:104312000243B2901CDFE0FF901C60124449E94A5C
:104322004B600D75F006EF901C6012444C124179FF
:104332001243B61245367A0079460243B2901BF315
:10434200E0FF75F006901C4A12444CE94A4B600D9E
:1043520075F006EF901C4A12444C12417912680E15
:104362001243D61245367A0079468044C2AFE4FF42
:10437200FE126CB37BFF7A5279847F1212459D7BC9
:10438200017A1C79D4901C717412F0E4FFFE126B56
:1043920013D2AF126AE6126F91120003126846122C
:1043A2006CD97A52795D1243F31245367A00794616
:1043B20012008E2212680E126CD97BFF7A52795D3E
:1043C200E4901C74F07D167F4612545E7FF47E01E9
:1043D200126E4222126CD97BFF7A52795DE4901CF4
:1043E20074F07D167F4612545E7FF47E01126E4297
:1043F200227BFFE4901C74F07D167F4612545E7F90
:07440200F47E01126E42225C
:106E7900901B0BE024FA70121245E570067A1B7913
:0B6E8900E480047A1B79F7126EDF2210
:10698800901B0BE024FC601B24FE701F12457C1238
:1069980000261245DE120026E4901CD3F0901CD28B
:1069A800F08008901CE0E0901BF3F01245367A0066
:0569B800794602008E8B
:1052A100901B0BE024FE605B14604E1470030253EC
:1052B1006B24F7700302535B2407600302537F12D0
:0452C10045E5701936
:1052C5007A1B79E41253807A527999124409124C67
:0652D500DC12442F7D12E3
:0352DB0002537CFF
:1052DE007A1B79F71253807A52799B124409124C39
:0952EE00DC901BF71244327D260E
:1052F70002537C1245EC7A67795C02008E901B485A
:10530700E0FF14F0EF7001F01245F67F01126E9482
:10531700901B47EFF064037004A37402F0901B48DE
:10532700E0FD7C00700A12460012449E24028011A0
:10533700ED64014C901B47700512454E80031244E3
:1053470092901B4BF07BFF7A66795612008E1245BE
:105357000102410E124583E4FF126E94124441127A
:1053670045178011124590E4FF126E941245A8125A
:10537700444C12451712545E227F01126041901C63
:0453870069EFF022B8
:1050A700901B0BE024FE606F1460621470030251C2
:1050B7008A24F7700302517A2407600302519E1273
:0450C70045E5702328
:1050CB007A1B79E412519F7A52799D12446E1245E4
:1050DB005E7A1C796A124425124CDC12442F7D1225
:0350EB0002519BD4
:1050EE007A1B79F712519F7A52799F12446E1245AC
:1050FE005E7A1C796A124425124CDC901BF712441E
:03510E00327D26C9
:1051110002519B1245EC7A67795C02008E901B4824
:10512100E0FF04F0C3EF94027480948040037402A2
:10513100F01245F6E4FF126E94901B47EFF07002F7
:10514100A3F0901B48E0FD7C00700A124600124457
:105151009E24028011ED64014C901B47700512459D
:105161004E8003124492901B4BF07BFF7A66795676
:1051710012008E12450102410E1245837F01126E0B
:105181009412444112451780111245907F01126E0D
:10519100941245A812444C12451712545E227F0204
:0951A100126041901C69EFF0223C
:1062410012460A601714602414603124037050123E
:106251004461E4FF126E94901CD8802E901CD912D8
:106261004464E4FF126E94901CD9801E901CDA12D3
:106271004464E4FF126E94901CDA800E901CDB12D1
:106281004464E4FF126E94901CDBEFF075F006900D
:106291001C0D12444C12443A7D1F7F6912545E2238
:1062A10012460A60171460241460312403705012DE
:1062B10044617F01126E94901CD8802E901CD912DB
:1062C10044647F01126E94901CD9801E901CDA12D6
:1062D10044647F01126E94901CDA800E901CDB12D4
:1062E10044647F01126E94901CDBEFF075F0069010
:1062F1001C0D12444C12443A7D1F7F6912545E22D8
:10617B0012460A601714602114602B24037054908C
:10618B001CD81244A7F58BEEF58D8025901CD912E7
:10619B0044A7F5D7EEF5D68018901CDA1244A7F574
:1061AB00D5EEF5D4800B901CDB1244A7F5D3EEF59E
:1061BB00D212680E126CD97BFF7A52795DE4901C77
:1061CB0074F07D167F4612545E7FF47E01126E4290
:0461DB00126F4C22D1
:106F4C00901B0A7402F0A3F07BFF7A66795602005C
:016F5C008EA6
:01009100224C
:10004600E4901C6CF0126CD9901C6CE0C3940374A1
:100056008094805025E0FF2440F582E4341BF5832C
:10006600E075F007A4240CF582E4341B1245211236
:10007600545E901C6CE004F080CE901B3F1244B698
:050086007F32024998E1
:10665600E4901C6CF0126CD9901C6CE0C39403E4BB
:1066660094005025E0FF2449F582E4341BF583E0CD
:1066760075F007A424B3F582E4341B1245211254A5
:106686005E901C6CE004F080CF901B481244B67FED
:0466960032024998EB
:096FA3007BFF7A66795602008E2C
:106A2500901B0AE064017006A3E064086022EF642D
:106A35001F701A901CF1E030E01654FEF012456FFD
:106A45007A6E79F712008E1244E40200261245BFD1
:016A5500221E
:106D240030313233343536373839414243444546BD
:106D34004748494A4B4C4D4E4F5051525354555667
:056D44005758595A00E8
:106BEC00901C711240EE901C9EE475F001123FD87F
:106BFC0085F082F58322901C9FE024FFFF901C9E61
:0A6C0C00E034FF22901C710240EEFC
:0C4CDC00901C6FEEF0A3EFF0A312410E4D
:104CE80078767C1C7D017BFF7A6D79247E007F2598
:104CF800123E63E4901C9EF0A3F0901C74E07004D4
:104D0800A3E0640A7027901C6FE0FEA3E0FFC3EEE7
:104D1800648094805017C3E49FFFE49E901C9BF02E
:104D2800A3EFF0126BEC742D123F03800F901C6FF1
:104D3800E0FFA3E0901C9BCFF0A3EFF0901C74E081
:104D4800FEA3E0FDAC06901C9BE0FEA3E0FF123F33
:104D58003774762DF582741C3CF583E0FF126BECFA
:104D6800EF123F03901C9BE0FEA3E0FF901C74E051
:104D7800FCA3E0FD123F37901C9BEEF0A3EFF04E32
:104D880070BA126C10901C9EE0FEA3E0F5828E8330
:104D9800E4123F03123E89B42D0A901CA2E4F0A34A
:104DA80004F08007E4901CA2F0A3F0901CA2E0FF9E
:104DB800A3E0901CA0CFF0A3EFF0126C02FE7C00E1
:104DC8007D02123F8CD3901CA1E09FEE6480F89086
:104DD8001CA0E06480984003024E67126C10901C7F
:104DE800A0E0FEA3E0F5828E83123EA2901C9DF007
:104DF800126C02FE901CA3E02FFF901CA2E03EFE66
:104E0800901CA0E0FCA3E0FDC3EF9DFFEE9C8F8209
:104E1800F583123EA28D828C83123F03901C9DE085
:104E2800FF901C9FE024FFFD126C09FC901CA3E07E
:104E38002DFD901CA2E03CFC901CA0E0FAA3E0FB36
:104E4800C3ED9BFDEC9AFC126C108D828C83EF12E3
:104E58003F03901CA0E475F001123FC2024DC290BE
:054E68001C710240EE88
:106E9400A905EF7003098006E97002A90319AF037D
:096EA400E98FF084A9F0AF01228E
:043D8A00411CA40034
:10538B009006C2E090004675F0480240E2900D8412
:10539B00E090070875F0480240E2901446E0900D4B
:1053AB00CA75F0480240E2901B08E090148C75F02F
:1053BB00480240E275F0480240E275F0480240E2D4
:1053CB0075F0480240E275F0480240E275F0480281
:1053DB0040E2901C7AE475F0011240F7023E8975A9
:1053EB00F0480240E2E0FEA3E0C39440EE940022BA
:1053FB00E475F001123FD8AFF0FE22E5822FF58263
:10540B00E5833EF5832275F0480240E2F0901B08DD
:10541B00E075F04822A3F0E4A3F0A374FFF0A374AB
:10542B00C6F0A3E04401F0A37401F0A322900003A3
:10543B00123FEEAEF022900001023EA2A3F0A37445
:10544B00FDF0A37441F022900002023EA2900006F0
:03545B00023EA26C
:106D4900901CA57401F074501254207440F054FE44
:106D5900F0901CAE74EFF0A3F07B017A1C79A502C8
:026D69005523B0
:030023000258CFB1
:1058CF00C0E0C0F0C083C082C0D075D0103099093D
:1058DF00C299901CADE054FEF0309869C2989006C2
:1058EF00C2E09000051253927401F09006C2E0904E
:1058FF00000412539FE070479006C2E090004812D8
:10590F0053ACE4F0A304F012538B1253F050301247
:10591F00538B1253FB9006C2E09000061253B9123C
:10592F005406E599F09006C2E09000021253BF743E
:10593F0001F09006C2E09000031253BF7405F0907F
:10594F001CA47401F0D0D0D082D083D0F0D0E0323C
:106D8D00901CB07402F074101254207414F0901C06
:0F6D9D00B974FEF0A3F07B017A1C79B002552384
:030043000257134E
:10571300C0E0C0F0C083C082C0D075D010E59A301D
:10572300E10A539AFD901CB8E054FEF0E59A30E08C
:105733006A539AFE900D84E09006C71253C5740114
:10574300F0900D84E09006C61253C5E07047900DAB
:1057530084E090070A1253CBE4F0A304F0125398A9
:105763001253F050301253981253FB900D84E09073
:1057730006C81253CB125406E59BF0900D84E090BB
:1057830006C41253D17403F0900D84E09006C51241
:1057930053D17405F0901CA47403F0D0D0D082D000
:0657A30083D0F0D0E032DB
:106E0600901CBB7403F0A37450F0740A125447909C
:0E6E16001CC17408F07B017A1C79BB02552365
:03008B000257A970
:1057A900C0E0C0F0C083C082C0D075D010E5AC3075
:1057B900E10A53ACFD901CC3E054FEF0E5AC30E0C7
:1057C9006A53ACFE901446E0900D891253D77401C8
:1057D900F0901446E0900D881253D7E0704790146A
:1057E90046E0900DCC1253EAE4F0A304F01253A55D
:1057F9001253F050301253A51253FB901446E09007
:105809000D8A1253EA125406E5ADF0901446E09061
:105819000D861254117404F0901446E0900D87120D
:1058290054117405F0901CA47404F0D0D0D082D027
:0658390083D0F0D0E03244
:106E2400901CC67404F0A37450F074A012544790DC
:0E6E34001CCC7410F07B017A1C79C602552329
:03009300025A7995
:105A7900C0E0C0F0C083C082C0D075D010E58430CA
:105A8900E10A5384FD901CCEE054FEF0E58430E039
:105A9900605384FE12541890144B1240E2740112A0
:105AA900541790144A1240E2E070461254189014A8
:105AB9008E1240E2E4F0A304F01253B21253F050F4
:105AC900301253B21253FB12541890144C1240E284
:105AD900125406E5851254179014481240E27405D1
:105AE900F0901CA4E0FF1254189014491240E2EF00
:0C5AF900F0D0D0D082D083D0F0D0E032CA
:10552300123E89FD6401703B125441F598125452A6
:105533004289125438F58BEEF58D900005123EA288
:1055430013928E900007123EA2428E900009123EE3
:10555300A252B890000A123EA252B712545824FF26
:1055630092AC227C00ED6402702B125441F59A1226
:105573005438F5D7EEF5D6900007123EA2428E12AC
:10558300545842AF900009123EA252B590000A123D
:105593003EA252B622ED64034C7014125441F5AC92
:1055A300125452F5D1125438F5D5EEF5D4801912B0
:1055B3003E8964047017125441F58412545242D147
:0E55C300125438F5D3EEF5D212545842AF22EE
:106D6B00900008123EA230E00AED1DAE0470011C2B
:106D7B004E70EDE92408F9E43AFA123E8944010217
:026D8B003EF1D7
:10651F00901C7712410E901C7DE0FF14F0EF60404D
:10652F00901C771240EE7D887C13126D6B901C7758
:10653F001240EE123E8924FE60111460151460198A
:10654F00240370D21253DDF59980CB1253DDF59BE6
:10655F0080C41253DDF5AD80BD1253DDF58580B6D5
:01656F002209
:1064C900E090000575F0480240E2E09006C775F0DB
:1064D900480240E2E02401FFE433FE7C007D18120B
:1064E9003F37AF0DEDF022E090070A75F048024002
:1064F900E2E0900D8975F0480240E2E0900DCC751C
:10650900F0480240E274FFF5F0023FC2E090144BFC
:0665190075F0480240E2AB
:106C3F00E4901CE4F0A3F0A3F0A374A8F0A3741CD9
:106C4F00F0A3E04401F04402F0A37420F0A3F07B22
:086C5F00017A1C79E402669A37
:10669A00123E89703D900001123EA2F58E900002D2
:1066AA00123EA2F589900003123FEEAEF0F58AEE93
:1066BA00F58C900005123EA2FF13928CEFC31313C0
:1066CA0092A9900006123EA242B8900007123EA27A
:0366DA0042B722A2
:03000B00024E6D35
:104E6D00C0E0C0F0C083C082C0D075D008901CF2E5
:104E7D00E07002A3E06017901CF212650E901CF218
:104E8D00E07002A3E07007901CF1E04401F0900681
:104E9D00C21264C9E060359006C2E0900048126409
:104EAD00CDE0FEA3E04E9006C2600CE090004812EB
:104EBD0064D712650E8015E09000041264F474013D
:104ECD00F09006C21264DD1264C9E4F0900D8412F4
:104EDD0064D3E0602D900D841264F0E0FEA3E04EEB
:104EED00900D8460081264F012650E8015E0900636
:104EFD00C61264FE7401F0900D841264DD1264D349
:104F0D00E4F09014461264FAE0602D901446126598
:104F1D0004E0FEA3E04E901446600812650412658D
:104F2D000E8015E0900D881265087401F0901446FE
:104F3D001264DD1264FAE4F0901B08126515E0604E
:104F4D003B901B08E090148E126519E0FEA3E04E15
:104F5D00901B08600FE075F04890148E1240E2121D
:104F6D00650E8018E075F04890144A1240E2740105
:104F7D00F0901B081264DD126515E4F0D0D0D082DC
:074F8D00D083D0F0D0E03228
:106E4200901C72EEF0A3EFF0901C7274FFF5F0123A
:0B6E52003FD845F06005126FAC80EDEA
:016E5D002212
:086FAC007F0B7EBEDEFEDFFC60
:016FB40022BA
:1047ED002B2B2B0061002B4F6B0041542B574D4F42
:1047FD0044453D41505354410D0A002B4F4B004150
:10480D00542B5741503D504C4331365F41502C4E47
:10481D004F4E450D0A0041542B48454152544454C6
:10482D003D373737373737324537393645373036F5
:10483D0031373832453633364636440D0A00415449
:10484D002B575354413D756E696F6E2C2A21796E2D
:10485D007A666B6A3230303931323135212A0D0AA0
:10486D000041542B524547454E413D434C4F554415
:10487D002C46495253540D0A0041542B534F434B70
:10488D00413D544350432C636C6F75642E757372A8
:10489D002E636E2C31353030300D0A0041542B53C0
:1048AD0045415243483D31353030302C636C6F7586
:1048BD00642E7573722E636E0D0A0041542B524592
:1048CD0047434C4F55443D30303031393633393014
:1048DD0030303030303030303035362C536B64471B
:1048ED00417A796C0D0A0041542B57414E4E3D448F
:1048FD004843500D0A0041542B5A0D0A0041542BC8
:10490D00454E544D0D0A00FF47EDFF47F103E800FA
:10491D000000FF47F1FF47F300C8000000FF47F715
:10492D00FF480800C8000000FF480CFF480800C8F9
:10493D00000000FF4823FF480800C8000000FF48A2
:10494D004BFF480800C8000000FF486EFF480800F4
:10495D00C8000000FF4886FF480800C8000000FF9F
:10496D0048A9FF480800C8000000FF48C8FF4808D4
:10497D0000C8000000FF48F4FF480800C800000010
:0B498D00FF4903FF480800C8000000BD
:1066DD007A4779F77BFF7DC87C002275F00BA424E7
:1066ED001AF582E43449F583E493FC740193FD2299
:1066FD0075F00BA42414F582E43449F58302411797
:10670D007A4979037BFF7DC87C0022F0901C6D02D5
:02671D0040EE4C
:0C6F7A00EF6006147005D29422C294222D
:10684600E4901C6CF0D294D2957FF47E01126E42D5
:10685600E4901C6CF0901C6CE0C3940C74809480E3
:106866005014E0FF1266FDEF1266E812660F901CE8
:066876006CE004F080DF7D
:01687C0022F9
:10660F00901C6D12410E901C70ECF0A3ED126718E8
:10661F00E94A4B6031901C70E07002A3E0602712D2
:10662F006719126F26901C7DEF126718901C7A1253
:10663F00410E7B017A1C79B012651F901C70E0FE31
:07664F00A3E0FF126E4222DE
:106A5600E4901C69F0F0901C69E0FFC39402E49492
:106A660000501DEF1266FDE94A600D901C69E012A8
:106A760066E84C600312660F901C69E004F080D64D
:016A860022ED
:106EAD00126A561266DD12660F7A49790A1266E188
:096EBD0012660F12670D02660F48
:106EC600126A561266DD12660F7A49790A1267113E
:096ED60012660F12670D02660F2F
:10009600B1EAB6A8BFAAB9D8B2CECA00C5E4D6C3DB
:1000A600CAB1BCE4D0D0C4A3C4E2C7EBCAE4C8EB6F
:1000B600C3DCC2EBD0C2C8B7C8CFD0DEB8C4B3C9A0
:1000C600B9A6CAA7B0DCD6F7BDE7C3E6B1BEB5D8B8
:1000D600C1ACBDD3D4B6B3CCCDA8D0C5B7BDCABD0F
:1000E600C6F4CDA3B2A8CCD8C2CAC9E8B4AEBFDAAA
:1000F600BBD6B8B4B3F6B3A7CAC7B7F1B5C8C4DAA6
:10010600B2BFCFB5CDB3D2BBB6FEC800CBC4B3F534
:10011600CABCBBAFD2D4CCABCDF8CEDECFDFC0A944
:10012600D5B9B4F2BFAAB9D8B1D5C4A3BFE9B1BE97
:10013600BBFAC8C8B5E3B9A4D7F7C4A3B4D38868D3
:10014600FF48109212F21292100000000F000201F6
:10015600080F000003002C24A42425E624242424CC
:100166002C0008040304080F090909090800404285
:1001760042FE424242FE42424000000806010000A2
:10018600000F000000004048494A48F8484A4948DC
:100196004000080804020100010204080800905407
:1001A600B6955C54349436549000000A0A0A0A093B
:1001B600050404020000482A987F284A10EF08F830
:1001C6000800090B05050B00080502050800FA4A98
:1001D6003E0A3E4AFA00E2223E000F0505050505E5
:1001E6000F0007080E001017D555577D5755D51720
:1001F600100008080F08080E08080F080800FE225D
:1002060022FE0008488808FF0800070202070000CF
:100216000009080F000000F902F849494949F901A7
:10022600FF00000F0003020202020B080F00482421
:10023600F20910121212F212100000000F00000054
:1002460008080F0000008868FF4802FAAFAAAFFA54
:10025600020000000F000A0A0603060A0A0088FFC9
:100266004800FE00820CE01F0000080F0000030992
:10027600040300030C0011F20022EAAABFAAAAEAAC
:100286002200000F04000F0202020A0F0000342CA5
:10029600F7A4E8A4EA09CA04E80001010F000F0266
:1002A6000F0003080F0000000181720C708000002F
:1002B60000000804020100000001020408004632A2
:1002C60082B2466B524A62126600000E0808080F98
:1002D6000808080E000042F22EE2013D2121213FCE
:1002E600E00000070207010101010908070020AA32
:1002F600B2E3B2AA00FE12F211000402080F000ACD
:100306000403000F000042F22EE200F453F25A56A4
:10031600F000000702070807010701090F00101186
:10032600F2000000C03FC0000000000007020906FE
:1003360001000106080010FC03F810948B4A2A9667
:100346001000000F0003080A0A0905040200E22251
:10035600223E2010EF08887808000F0402010804E6
:1003660002010204080000FC2424E404FF0485665C
:100376000400080700020B04020102040F00040433
:10038600FC040408FF080808F80002020109050336
:10039600000008080700A0908E8888FF888888805B
:1003A6008000080804020100010204080800FE0299
:1003B600FA02FE10EC0B08F8080009040304090809
:1003C6000502050808000088888889FA88888888D0
:1003D600000008080808080F080808080800809F99
:1003E6009555553F5555959F80000008040300001C
:1003F600000F0000000002F21212FA5652F2121218
:10040600F200000F04040705050704040F000404A6
:10041600846414FF14648404040002010202020FBF
:100426000202020102001010FF1020FC10FF0884D7
:10043600FC00040403020007080908080E0021E274
:100446000004342C27F424240400080708090909A9
:10045600090F090909008888FF48A4ACB5E6B4ACC1
:10046600A40000080F00080A0B04040B080021E290
:10047600001012F21212F21210000807080A0908F8
:100486000808090A0B0012D2FE51802F29E9292FEC
:10049600000001000F000809090F0909080011F200
:1004A60000F9A9ABFDADABF800000807080B08087A
:1004B6000B080A0B080010FC0304545455565454F8
:1004C6000400000F00000F050505050F00000404D9
:1004D60004FC2526242424E4040008040300000068
:1004E600080808070000084848C8484808FF0809DF
:1004F6000A00080808070404040003040E000000AC
:10050600FCA4A4A5A6A4A4A4BC000806010F040488
:10051600040404040F002010FC0382BAAAABAABA92
:10052600820000000F0001020A0E020201002244AE
:1005360000FC24E4243F24E40C0004020807080815
:100546000502050808009C88FF481054545FF454BF
:10055600500000000F0000010A080F000000028A88
:10056600529AD6B3D28A528A020002020202020FBD
:100576000202020202001011F20050CF41414FD098
:100586001000000007020808050205080800C05E02
:10059600525252FF5252525EC00007020202020F2E
:1005A60002020202070000FE02020202020202FE2C
:1005B60000000007020202020202020700007800A1
:1005C600FF08C43FC404F444240000000F040308D9
:1005D60004020106080004027DD555555555557D82
:1005E6000100000A090B050505050B090800801E18
:1005F600101010FF1010101E8000070404040407DA
:10060600040404040F0000FE0202020202020202B7
:100616000200080700000000000000000000404043
:100626005F5555D555555F40400008040304080F33
:100636000909090908001191898985BF818585897C
:100646001100000F040404040404040F00004453C2
:100656005256527C53D256524200010103050109FB
:10066600090F0101010000FC0484641F24C404FC7A
:100676000000000F000000000008080F000020AA7C
:10068600B2A3B2AA20FE0232CE00000F0404040F69
:10069600000F02020100008292DAD6B2B19189C13E
:1006A600800008040200080F00000204090098D424
:1006B600B3880064D44DC654E4000404020208045E
:1006C600030007080C004040404040404040404086
:1006D60040000000000000000000000000000004D0
:1006E60004040404040404040000040404040404CC
:1006F600040404040400000242424242424242020E
:10070600000008080808080808080808080000FE8D
:1007160002827E02027E8282FE00000F050404042D
:10072600040404040F008445F64CA002FE020202F3
:10073600FE0000000F000806010008080700887880
:100746000FF800D8545350D830000805020D000F9A
:100756000404040F00002010FC030080FF20100892
:10076600040000000F000100070808080E0000FE44
:100776000080420C00807F0000000003090804048A
:1007860002010204080008080888681FE80808082B
:100796000800080402010204000304080800FF0917
:1007A6009161910991619109FF000F01000000011B
:1007B600000008090F0020222222E23EE222222225
:1007C6002000080402010000070808080E0098D45B
:1007D600B388004848FF24A526000404020208083E
:1007E600040305080E008888FF4800FC040506047B
:1007F600040000080F00080700000000000000FFCA
:1008060045D57D55D5557D5547000807000F080489
:100816000102040A09008888FF4848020202FE0213
:10082600020000080F00000008080F000000404208
:1008360042FE424242FE42424000000806010000DB
:10084600000F000000004048494A48F8484A494815
:10085600400008080402010001020408080000F92B
:10086600022020A2FA222202FE00000F000201044A
:10087600070008080F008868FF4802FAAFAAAFFA17
:10088600020000000F000A0A0603060A0A0008FF13
:1008960008404444FF44447C40000203010804032A
:1008A6000003040808000404846414FF1464840428
:1008B600040002010202020F02020201020088681D
:1008C600FF2840FE0202FE00000000000F0804039D
:1008D600000007080E002424FF1400D43F447C8047
:1008E600E00008050104090004080004090000F0FE
:1008F6001010101F121212F202000805010509015C
:100906000509010508000002020202FE02020202B7
:10091600000008080808080F080808080800201042
:10092600FC030807FC242424040000000F00000038
:100936000F01010101008868FF4802FAAFAAAFFA69
:10094600020000000F000A0A0603060A0A00000059
:10095600E01FE000C03FC0000000080601000906D5
:10096600010001060800000000000000004F000022
:100976000007000700147F147F14242A7F2A1223FD
:100986001308646236495522500005070000001C12
:100996002241000041221C0014083E081408083EAB
:1009A60008080050300000080808080800606000C9
:1009B6000020100804023E5149453E00427F400097
:1009C60042615149462141454B311814127F102787
:1009D600454545393C4A49493001710905033649BF
:1009E600494936064949291E003636000000563662
:1009F6000000081422410014141414140041221497
:100A0600080201510906324979413E7E1111117ED3
:100A16007F494949363E414141227F4141221C7F5F
:100A2600494949417F090909013E4149497A7F08F7
:100A360008087F00417F41002040413F017F0814A4
:100A460022417F404040407F020C027F7F04081015
:100A56007F3E4141413E7F090909063E4151215EE3
:100A66007F09192946464949493101017F01013F5C
:100A76004040403F1F2040201F3F4038403F631406
:100A860008146307087008076151494543007F4110
:100A9600410002040810200041417F0004020102C7
:100AA6000440404040400102040000205454547861
:100AB6007F484848303844444444304848487F38A2
:100AC6005454545800087E0902485454543C7F0834
:100AD60008087000007A00002040403D007F202872
:100AE600440000417F40007C0438047C7C080404F8
:100AF6007838444444387C14141408081414147CBC
:100B06007C08040408485454542404043F44243CF8
:100B16004040403C1C2040201C3C4030403C442887
:100B260010284404483008044464544C44083641B0
:100B3600410000007700000041413608040202022D
:100B460001F8F81010080404024AC94D4A484868DA
:100B56003003030101010101010100000000000052
:100B66000000000000F0F8FCFCFCFCF8F0000000BF
:100B76000000000000000103030303010000000061
:100B860000081C3E7F00007F3E1C0800000000009D
:100B9600000000000000000000000000000000004F
:100BA600000000000000000000000000000000003F
:100BB600000000000000000000000000000000002F
:100BC600000000000000000000000000000000001F
:100BD600000000000000000000000000000000000F
:100BE60000000000000000000000000000000000FF
:100BF60000000000000000000000000000000000EF
:100C0600000000000000000000000000000000FFDF
:100C1600FFFFFFFFFFFFFFFFFFFFFFFFFFFFFFFFDE
:100C2600FFFFFFFFFFFFFFFFFFFFFFFFFFFFFFFFCE
:100C3600FFFFFFFFFFFFFFFFFFFFFFFFFFFFFFFFBE
:100C4600FFFFFFFFFFFFFFFFFFFFFFFFFFFFFFFFAE
:100C5600FFFFFFFFFFFFFFFFFFFFFFFFFFFFFFFF9E
:100C6600FFFFFFFFFFFFFFFFFFFFFFFFFFFFFFFF8E
:100C7600FFFFFFFFFFFFFFFFFFFFFFFFFFFFFFFF7E
:100C8600FFFFFFFFFFFFFFFFFFFFFFFFFFFFFFFF6E
:100C9600FFFFFF0000000000000000000000000051
:100CA600000000000000000000000000008080C07E
:100CB600C0E0E0E0F0F0F0F8F8F8F8FCFCFCFCFC32
:100CC600FCFCFEFEFEFCFCFCFCFCF8F8F8F0E0C0C8
:100CD600000000000000000000000000000000000E
:100CE600000000000000000000000000000000807E
:100CF60080C0E0E0F0F0F8FCFCFCFEFEFFFF7F7F2A
:100D06007F7F7F7F3F3F3F3F3F3F3F3F3F3F3F1F0D
:100D16001F3F3F3F3F3F3F3F3F7F7F7FFFFFFFFF3D
:100D2600FFFF3C0000000000000000000000000083
:100D3600000000000000804020203018180C0E0F24
:100D46000F070707030303010101010000000080EC
:100D5600C0E0E0F0F0F0F8F8F8F8FCFCFCFCFCFC75
:100D6600FCFCFCFCF8F8F8F0F0E0000000000001E4
:100D7600071F030000000000000000000000000044
:100D8600000000000000000000000000000000005D
:100D960000000000000000000080E0C00000043FEA
:100DA6003F3F7F7FFFFFFFFFFFFFFFFFFFFFFFFFCD
:100DB6007F7F7F7F3F3F3F1F0F070300000000003C
:100DC6000000000080808080C0C0C0C0E0E07030BD
:100DD60030180C00000000000000000000000000B9
:100DE60000000000000000000000FFFFFFFFFEFE05
:100DF600FCFCFCF8F8F8F8F8F8F8F8F8F8F8F8F861
:100E0600F8F8F8F8F8F8F8FCFCFCFCFCFCFEFEFE32
:100E1600FEFFFF7F3F3F1F1F0F0707030101000073
:100E260000000000000000000000000000000000BC
:100E3600000000000000000000000001070F1F3F37
:100E46003F3F7F7F7F7F7F7F7F7F7F7F7F7F7F7F2C
:100E56007F3F3F3F3F1F1F1F0F0F0707070303017A
:100E6600010000000000000000000000000000007B
:100E7600000000000000000000000000000000006C
:100E8600000000000000000000000000000000005C
:100E9600000000000000000000000000000000004C
:100EA600000000000000000000000000000000003C
:100EB600000000000000000000000000000000002C
:100EC60000000000000000000000000000C0C0C0DC
:100ED600C0C0C0C0C0C0C0C0C0C0C0C0C0C0C0C00C
:100EE600C0C0C0C0C0C0C0C0C0C0C0C0C0C0C0C0FC
:100EF600C0C0C0C0C0C0C0C0C0C0C0C0C0C0C0C0EC
:100F0600C0C0C0C0C0C0C0C0C0C0C0C0C0C0C0C0DB
:100F1600C0C0C0C0C0C0C0C0C0C0C0C0C0C0C0C0CB
:100F2600C0C0C0C0C0C0C0C0C0C0C000000000007B
:100F360000FFFF00000000808080C0C0E0E0E0E02D
:100F4600202060606060606060606060606060601B
:100F56006060606060C0C0C0C0C0C0C0C0C0C0C06B
:100F6600C0C0C0C0C0C0C0C0C0C0C0C0C0C0C0C07B
:100F7600C0C0C0C0C0C0C0C0C0C0C0C0C0C0C0C06B
:100F8600C0C0C0C0C0C0C0C0C0C0000000FFFF00DD
:100F96000000000000FFFF000000FFFFFFFFFFFF53
:100FA600FFFFFFFF0000000000000000000000003F
:100FB600000000000000000000000000000000002B
:100FC600000000000000000000000000000000001B
:100FD600000000000000000000000000000000000B
:100FE600000000000000000000000000FFFF0000FD
:100FF60000FFFF000000000000FFFF000000FFFFF1
:10100600FFFFFFFFFFFFFFFF000000007EE6C38338
:1010160083C3EE7C0000000000000000000000001A
:1010260000000000000000000000000000000000BA
:10103600000000000000000000000000000018187A
:101046001818181818181818181818000000000092
:10105600FFFF000000FFFF000000000000FFFF0090
:101066000000FFFFFFFFFFFFFFFFFFFF0000000084
:101076000000000101000000000000000000000068
:10108600000000000000000000000000000000005A
:10109600000000000000000000000000000000004A
:1010A600000000000000000000000000000000003A
:1010B60000000000FFFF000000FFFF00000000002E
:1010C60000FFFF00000000000101030307070F0FE8
:1010D6000C0C0C0C0C0C0C0C06060606060606067A
:1010E600060606060606060606060606060606069A
:1010F60006060202020202020202020202020202C2
:1011060002020202020202020202020202020202B9
:1011160002020202020202020303000000FFFF00B5
:101126000000000000070706060606060606060675
:101136000606060606060606060606060606060649
:101146000606060606060606060606060606060639
:101156000606060606060606060606060606060629
:101166000606060606060606060606060606060619
:101176000606060606060606060606060606060609
:101186000607070000000000000000000000000045
:101196000000000000000000000000000000000049
:1011A6000000000000000000000000000000000039
:1011B6000000000000000000000000000000000029
:1011C6000000000000000000000000000000000019
:1011D6000000000000000000000000000000000009
:1011E60000000000000000000000000000C0C0C0B9
:1011F600C0C0C0C0C0C0C0C0C0C0C0C0C0C0C0C0E9
:10120600C0C0C0C0C0C0C0C0C0C0C0C0C0C0C0C0D8
:10121600C0C0C0C0C0C0C0C0C0C0C0C0C0C0C0C0C8
:10122600C0C0C0C0C0C0C0C0C0C0C0C0C0C0C0C0B8
:10123600C0C0C0C0C0C0C0C0C0C0C0C0C0C0C0C0A8
:10124600C0C0C0C0C0C0C0C0C0C0C0000000000058
:1012560000FFFF000000C0C040404040404040400A
:101266004040404040404040404040404040404078
:101276004040404040404040404040404040404068
:101286004040404040404040404040404040406038
:1012960060606060606060E0E0E0E0E0E0E0E06048
:1012A60060E0C0C0C0C080800000000000FFFF00FA
:1012B6000000000000FFFF000000FFFF000000002C
:1012C6000000008080808000000000000000000018
:1012D6000000000000000000000000000000000008
:1012E60000000000000000000000000000000000F8
:1012F60000000000000000000000000000000000E8
:101306000000000000FFFFFFFFFFFFFFFFFC0000E3
:1013160000FFFF000000000000FFFF000000FFFFCD
:1013260000000000003F7161C1C161773E0000000E
:1013360000000000000000000000000000000000A7
:101346000000000000000000000000000000000097
:101356000000000000000000000000001818181827
:10136600181818181818000000FFFFFFFFFFFFFFEE
:10137600FFFF000000FFFF000000000000FFFF006D
:101386000000FFFF00000000000000000000000059
:101396000000000000000000000000000000000047
:1013A6000000000000000000000000000000000037
:1013B6000000000000000000000000000000000027
:1013C60000000000000000000000000000FFFFFF1A
:1013D600FFFFFFFF7F3F000000FFFF00000000004F
:1013E60000FFFF00000003030202020202020202E3
:1013F60002020202020202020202020202020202C7
:1014060002020202020202020202020202020202B6
:1014160002020202020202020202020202020202A6
:10142600020202060606060606060E0E0E0E0E0E32
:101436000E0F0F0F070301000000000000FFFF0062
:101446000000000000070706060606060606060652
:101456000606060606060606060606060606060626
:101466000606060606060606060606060606060616
:101476000606060606060606060606060606060606
:1014860006060606060606060606060606060606F6
:1014960006060606060606060606060606060606E6
:1014A6000607070000000000000000000000000022
:1014B6000000000000000000000000000000000026
:1014C6000000000000000000000000000000000016
:1014D6000000000000000000000000000000000006
:1014E60000000000000000000000000000000000F6
:1014F60000000000000000000000000000000000E6
:1015060000000000000000000000808080808080D5
:101516008080808080808000000000000000000045
:1015260000000000FFFFFFFFFF00000000000000BA
:1015360000000000000000000000000000000000A5
:101546000000000000000000000000000000000095
:101556000000000000000000000000000000000085
:101566000000000000000000000000000000000075
:101576000000000000000000000000000000000065
:101586000000000000000000000000000000000055
:101596000000000000000000000000000000000045
:1015A6000000000000000000000000000000000035
:1015B6000000000000000000000000000000000025
:1015C600000000000000000000007F7F7F7F7F7F1B
:1015D6007F7F7F7F7F7F7FFFFFFFFFFFFEFEFEFC9B
:1015E600FCF8F8F8FFFFFFFFFF0000000000000016
:1015F60000000000000000000000000000000000E5
:10160600000000000000000000C0C0C00000000094
:1016160000000000000000000000000000000000C4
:1016260000000000000000000000000000000000B4
:101636000000000000000000C0C0C0000000000064
:101646000000000000000000000000000000000094
:10165600C0C0C00000000000000000000000000044
:1016660000000000000000C0C0C000000000000034
:101676000000000000000000000000000000000064
:1016860000000000000000000000F0F0F0F0F0F0B4
:10169600F0F0F0F0F0E0E0E0E0E0E0E0C1C18183EE
:1016A6008307071FFFFFFFFFFFFFFFFFFFFFFFFF90
:1016B600FFFFFFFFFFFFFF0000000000000000002B
:1016C60000E0E0E0E0E0E0E0E0FFFFFFE0E0E0E097
:1016D600E0E0E0E000000000FFFFFF07C7C7C7C764
:1016E600C7C7C7C7C7C7C7C707FFFFFF0000003C7C
:1016F6003C3C3C3C3C3C3C3CFFFFFF3C3C3C3C3CDB
:101706003C3C3C3C000000F0F0F0F0F0F0F0F0F073
:10171600FFFFFFF0F0F0F0F0F0F0F0F00000000056
:10172600F8F87878787878FFFFFF78787878F8F89E
:10173600F8000000000000FFFFFF1F1F1FDFDFDFB4
:101746001F1F1FDFDFDF1FFFFFFF0F0F0F0F0F0F23
:101756000F0F0F0F0F1F1F1F1F1F1F3F3F3F3F7F03
:101766007FFFFFFEFFFFFFFFFFE0E0E0E0E0E0E0DD
:10177600E0E0E0E0E0E0E000000000000000000043
:1017860000FFFFFF0303030303FFFFFF030303033E
:1017960003FFFFFF00000000FFFFFF0003E3E3E39A
:1017A600E3FFFFFFE3E3E3E300FFFFFF00000000CA
:1017B600FEFEFE1E1E1EFEFEFF1F1FFEFEFE1E1E60
:1017C600FEFEFE0000000000000000000000FFFF1B
:1017D600FFFFE0E0E0E0E0E0E000000000000000E5
:1017E600FFFF7878787878FFFFFF78787878FFFFC2
:1017F600FF000000000000FFFFFF0E1EFEFFFF1FA0
:101806000C3CFCFFFF0700FFFFFFFEFEFEFEFEFE98
:10181600FEFCFCFCFCFCFCFCFCFCF8F8F8F8F0F028
:10182600E0E0C0C3FFFFFFFFFF1F1F1F1F1F1F1F9B
:101836001F1F1F1F1F1F1F000000000000000000C9
:10184600001F1F1F1F1F1F1F1FFFFFFF1F1F1F1F21
:101856001F1F1F1F00000000FFFFFFC0C0C1C1C146
:10186600C1FFFFFFC1F9F9F9C0FFFFFF000000004B
:10187600FFFFFF00CFCFCFCFFFFFFFFFCFCFCF00C0
:10188600FFFFFF000000000000000000C0F8FFFF9F
:101896000F0101010101FFFFFF0000000000000031
:1018A6007F7F7878787878FFFFFF787878787F7F01
:1018B6007F000000000000FFFFFFF0F8FF3F3F3F02
:1018C600F8F8FF3F7FFEF0FFFFFF01010101010174
:1018D60001010101010303030303070707070F0FB4
:1018E6001F1F3F7FFFFFFFFFFFF8F8F8F8F8F8F833
:1018F600F8F8F8F8F8F8F80000000000000000001A
:10190600000000000000000000FFFFFF00000000D4
:101916000000000000000000FFFFFFF1F1F1F1F10F
:10192600F1F1F1F1F1F1F1F1F1FFFFFF000000003B
:10193600FFFFFF0003030303FFFFFF030303F3F0AF
:10194600FFFF7F0000000000F8F8FC3F1F0F0300B8
:101956000000707070707F7F7F0000000000000044
:1019660000000000000000FFFFFFE0E0E0E0E0E034
:10197600FCFCFC00000000FFFFFF00000000000070
:101986000707070000F0F0FFFFFF0000000000005F
:101996000000000000000000000000000000000041
:1019A60000000000FFFFFFFFFF0707070707070705
:1019B60007070707070707000000000000000000F0
:1019C600000080C0C080000080010181000080000E
:1019D6008080000080000000808000000000000081
:1019E600C0C0C000000080C0C0800000C00000C0B1
:1019F600C000C0C0C0C00080800000800000C1C11F
:101A0600C1C00000C0C0C08000008000000080008F
:101A1600000080C0C0C080000080C0C08000C00040
:101A26000000000000C000C1C1C1C10101C1C1C1A7
:101A360081010100000080C0C080000080C0C0C0DD
:101A46008000808000C0C0C0C08000000000000090
:101A56000000000000000000000000000000000080
:101A660000000000FFFFFFFFFFFFFFFFFFFFFFFF7C
:101A7600FFFFFFFFFFFFFF00000000000000000067
:101A8600003FFFC0C0610000FF0404FF0000FF002C
:101A9600FF0F0E78FF00E07E67677CE000000063C2
:101AA600C7CCFD71003FE1C0C07F1E007FC0C0FFF4
:101AB6003F0000FFFF0000FFFF0C0CFF0000FFCC03
:101AC600CCCC007FFF181CFFC000FF071CF8FF00EE
:101AD6000000FFFF180F07003EF3E1E1F33F07FEAA
:101AE600F80707FCFE0300FFCCCCCC0000FF181C57
:101AF600FFC00000003FFFC0C8F93000FF0C0C3CDF
:101B0600E700FFFF00FFC0C0F37F000000000000F9
:101B160000000000000000000000000000000000BF
:101B260000000000000000000000000000000000AF
:101B3600000000000000000000000000000000009F
:101B4600000000000000000000000000000000008F
:101B5600000000000000000000000000000000007F
:101B6600000000000000000000000000000000006F
:101B7600000000000000000000000000000000005F
:101B8600000000000000000000000000000000004F
:101B9600000000000000000000000000000000003F
:101BA600000000000000000000000000000000002F
:101BB600000000000000000000000000000080F0AF
:101BC600000000000000008000000000000000008F
:101BD60000000080808080C0C06060303010B8F89F
:101BE6007800000000000000000000000000000077
:101BF6000000000000000000000000000030301867
:101C06000C0402E3FE1C00000000000000000000BF
:101C160000000000000000000000000000000000BE
:101C26000000008080C0E0E08000000000000000AE
:101C3600000000000000000000000000000000009E
:101C4600000000000000000000000000000000008E
:101C56000000000000000000000000000000C0FEC0
:101C6600FF1C000000000000000000000000000053
:101C7600000000000000008000000080E07C47615A
:101C8600F060000804C27F1F07000000000000008B
:101C960000F8F001010101C18080C070380C070115
:101CA600000000000000000000000000000000002E
:101CB600C0C0606030180CFC0800000CF800000082
:101CC600F0F0FC1F00000000000000000000000013
:101CD600000000000080C0E0E0000000E0201008E6
:101CE60004E60301C0F81F07010000000000000021
:101CF6000000000000000000000060E0C0C0C0C09E
:101D0600C0C04040E0C0000000000000000000002D
:101D160000000000000000000000000000F8FF3F87
:101D2600030090F0C000000000000000000000006A
:101D36000000000000000083FE38068378F0CC0720
:101D4600010080E09E83800000000000000000008B
:101D5600E0FF7F000060380F0703010080000000ED
:101D6600000000000000000000000000000000006D
:101D7600E000001E1800F07F000000FE1F0000803B
:101D8600FFFF070000000000000000000000000048
:101D9600000002070301FF3F0100001C3F0088CC42
:101DA6007F73380F030000000000000000000000F1
:101DB6000000000000000000000000010303030112
:101DC600C0F0F87E1F0701000000000000000000C0
:101DD600000000C0C0C0C0C0C0E0E0F0FF7F391CFA
:101DE6000E070701000000000000000000000000D0
:101DF6000000000007078180C760211118888464ED
:101E060032190D07030101000000000000000080E8
:101E16008101000000000080C00000F8FF0088F08B
:101E2600E0000000000000000000000000000006C6
:101E3600070100000103030000F07F0300000C0708
:101E460000FF00000000000000000000000000008D
:101E56000040606078FECFC0000000000002CF8323
:101E6600C08000000000000000000000000000002C
:101E7600000000000000000000000080E0F8FEBF47
:101E86009F87818000000000000000000000000025
:101E96000000000101010181C1791F0300800000DB
:101EA6000000000000000000000000000000C0E08C
:101EB600E070380C0603010000000000E0190780FE
:101EC600C0C0000000000000000000000000F8FF95
:101ED6003F0400000383C343213018FFFFE6C3819C
:101EE60080C0C0800000000000000000000000006C
:101EF60000000000000000E0FE07000000000000F7
:101F0600FFFF0000000000000000000000000000CD
:101F16000000C0F07C1F03000000000000E3BF07C4
:101F260001808000000000000000000000000000AA
:101F36000020F0F0F0F8F8787C3C1E1F0F0F070326
:101F46000303010000000000000000000000000084
:101F56000000008060381E070100000000001FFC22
:101F6600F0C0800000000000000000000000010139
:101F76000000000060E0E07070381C1CFF070307DB
:101F86000701000000000000000000103C7F3F3801
:101F9600180C060603010000000000000101010103
:101FA6000101010000000000000000000000000028
:101FB6000000000000E07E0F0000000000000000AE
:101FC6000F0F0000000000000000000000000000ED
:101FD60000000101000000000000000000030303F0
:101FE60003030703000000000000000000000000DB
:101FF60000000001010000000000000000000000D9
:1020060000000000000000000000000000000004C6
:1020160006020100000000000000000000000000B1
:1020260003070F070703010000000000000000007F
:1020360000000000000000000830E0F07F00000013
:10204600000000000000000000000000000000008A
:10205600000000000000000000000000000000007A
:10206600000000000000000000000000000000006A
:102076000000180C0701000000000000000000002E
:10208600000000000000000000000000000000004A
:10209600000000000000000000000000000000003A
:1020A600000000000000000000000000000000002A
:1020B600000000000000000000000000000000001A
:1020C600000000000000000000000000000000000A
:1020D60000000000000000000000000000000000FA
:1020E60000000000000000000000000000000000EA
:1020F60000000000000000000000000100000000D9
:0A21060000000000000000000000CF
:03000000025B059B
:0C5B0500787FE4F6D8FD758117025B4C38
:066FB500900001023EA263
:104B4300EFD394057480948040037F0122123E8941
:104B5300FED394037480948040037F0222EF703865
:104B6300EE7008126FB5F452935294123E896401A9
:104B73007008126FB54293F45294123E89FE640298
:104B83007007126FB542934294EE6403700A126F7A
:104B9300B5FEF45293EE4294EF6401703A123E89EB
:104BA300FE7008126FB5F452915292EE64017008D0
:104BB300126FB54291F45292123E89640270071249
:104BC3006FB542914292123E896403700A126FB527
:104BD300FEF45291EE4292EF6402703A123E89FE65
:104BE3007008126FB5F452955296EE640170081274
:104BF3006FB54295F45296123E8964027007126FA4
:104C0300B542954296123E896403700A126FB5FE4F
:104C1300F45295EE4296EF6403703A123E89FE70A9
:104C230008126FB5F452B152B2EE64017008126FFC
:104C3300B542B1F452B2123E8964027007126FB5E5
:104C430042B142B2123E896403700A126FB5FEF498
:104C530052B1EE42B2EF6404703A123E89FE70081C
:104C6300126FB5F452B352B4EE64017008126FB50B
:104C730042B3F452B4123E8964027007126FB54214
:104C8300B342B4123E896403700A126FB5FEF45244
:104C9300B3EE42B4EF6405703D123E89FF7E0070AF
:104CA30008126FB5F452C952CAEF64014E7008126C
:104CB3006FB542C9F452CA123E8964027007126F7B
:104CC300B542C942CA123E896403700A126FB5FF26
:094CD300F452C9EF42CA7F00222D
:10687D00E4FEFDFC901C75E0F8A3E0F9A3E0FAA39B
:10688D00E0FBC30240A0E0FBA3E475F001023FD89A
:10689D00EEF0A3EFF0A3EBF0A3EAF0A3E9F022757D
:0668AD00C65A75C6A522C3
:10630100901C751240B10000000B7F1E12687D4089
:106311000475C780227F1812687D400475C78122E9
:10632100E47F1412687E400475C78222E47F0C1258
:10633100687E400475C78322E47F0612687E4004AC
:1063410075C78422E47F0312687E400475C78522E5
:0F635100E47F0212687E400475C7862275C787F5
:01636000221A
:0D6F6D00E4F5C7F5C5F5C675C380F5C4226F
:056AB700901C6FEFF0E0
:106ABC00E4FF12630175C501901C6FE0F5C4E0FFA3
:106ACC007808A2E713D8FBF5C31268ACAFC2E5C7D0
:096ADC0030E40653C7EF7F3322BA
:016AE500228E
:106C8D00901C72EEF0A3EFF0A3EDF012630175C549
:106C9D0002901C72A3E0FFF5C475C300A3E0F5C21A
:066CAD001268AC026F6DDD
:106CB300901C6CEEF0A3EFF012630175C503901CFA
:106CC3006CA3E0FFF5C475C3001268AC126F6D7F4F
:066CD300047E00026E4287
:106B1300901C6C12689D901C71E0FF14F0EF601BD9
:106B2300901C6C126896AFF0FE901C6E126893A9CD
:0C6B3300F0FA123E89FD126C8D80DB220E
:106B9700901C6912689D901C6EE0FF14F0EF601A5C
:106BA700901C69126896AFF0126AB7901C6B126856
:0B6BB70093A9F0FAEF123EF180DC22FF
:043D8E00411CFD03D4
:10595F00A2A6E43325E0FFA2A4E4334FFFA2A3E401
:10596F003325E025E04FFFA2A5E43333333354F85A
:10597F004FFFA2A2E433C454F04F901C6BF0901C65
:10598F00FDE0601814604314602D14704E901C6B72
:10599F00E0641F6046E4901CFDF0803F7F0A7E00AC
:1059AF00126E42901C6BE0FF641F602F901CFCEF87
:1059BF00F0A37402F08024901C6BE0641F701C90A5
:1059CF001CFD04F0901CFCE0FF22901CFC741FF0E7
:0D59DF00A37403F07F0A7E00126E427F1F4A
:0159EC002298
:105EFD00901C78E02EFD1268BF901C7CE0FBA3E0A7
:105F0D00FAA3E022901C77F9E0F582758300023E3A
:105F1D00A22FF9EA3EFA901C7CEBF0A3EAF0A3E97C
:105F2D00F0901C6FE0FFA3E0FD901C7B22F9901C0C
:105F3D0085E0FF7E00E92FF9EE3AFA901C84E0220D
:105F4D0034FFFE901C7AE0FD7C00023F25FA123EE4
:105F5D0089FF901C80E0FE22EEC39408748094802B
:015F6D002211
:106B3F00C2B4C2B6E4FE125F65501EC2B3EF30E7B7
:106B4F0004D2B28002C2B2D2B37D017801EF0880C5
:0B6B5F0002C333D8FCFF0E80DDD2B46F
:016B6A002208
:106B6B00C2B4D2B6E4FE125F65501EC2B3EF30E77B
:106B7B0004D2B28002C2B2D2B37D017801EF088099
:0B6B8B0002C333D8FCFF0E80DDD2B443
:016B960022DC
:106CD900E4FCEC125F66501DEC24B0FF126B3FE43C
:106CE900FBEBC394C0E494005008E4FF126B6B0BF8
:056CF90080EF0C80DDBE
:016CFE002273
:0C68B300FF901C85E0FE901C78E02EFD9C
:1068BF00AE07AC05EEC3940274809480EE500424AE
:1068CF00B6800224AEFF126B3FECC4540F2410FFAE
:0A68DF00126B3FEC540FFF026B3FF9
:105F6E00C2B57F647E00126E42D2B57F327E0012C1
:105F7E006E427FE2126B3F7F327E00126E427F2FA7
:105F8E00125FCD7FA0125FB67F81125FB67FEB12DC
:105F9E005FCD7FC4126B3F7F147E00126E427FAFC7
:105FAE00126B3FC2B7026CD9126B3F7F147E001288
:105FBE006E427F70126B3F7F147E00126E42221271
:0A5FCE006B3F7F147E00126E42222A
:1063C000EF14602B04704E901CF47418F0901CF6BF
:1063D0007410F0901CF5740CF0901CF974FFF0A38D
:1063E0007401F0A37444F0901CF8740CF0802990B0
:1063F0001CF47405F0901CF67408F0901CF57405FC
:10640000F0901CF87407F0A374FFF0A37409F0A3D4
:0B641000746CF080037F00227F0122EB
:08657000901C78EEF0A3EFF09F
:10657800E4FDFCED25E0FFEC33FE74962FF5827404
:10658800003EF583E493FAED25E0FFEC33FE7497C3
:106598002FF58274003EF583E493FFEAFE901C78A1
:1065A800E06E7003A3E06F600B0DBD00010CED649D
:0865B800644C70BFAE04AF0596
:0165C00022B8
:10545E00901C6FEFF0A3EDF0A3EBF0A3EAF0A3E93D
:01546E00F04D
:10546F00A3E0FF1263C0E4901C77F0901C71125FF1
:10547F0009125F11FF7E00C3948074809480502CBA
:10548F00EF24E0FFEE34FFFE901C75F0A3EFF07CED
:10549F00007D05123F25901CF9125F09125F1E74E3
:1054AF0008F07B0512551004F0025501901C711283
:1054BF005F09125F11FE901C77E0FD7C00E92DF96A
:1054CF00EC3AFA900001123EA2FDEDFF12657090CA
:1054DF001C75EEF0A3EFF07C007D18123F25901C99
:1054EF00F9125F09125F1E7410F07B0C1255102415
:1054FF0002F0901C71125F09125F11600302547A5F
:10550F0022124998901CF8E0FF901C6FE02FF0904A
:04551F001C77E022F3
:0C499800901C78EFF0901C7AEBF0AA0560
:1049A400A3E0FF54076008EF54F82408FF80059043
:1049B4001C7BE0FF901C7BEFF0E0FDFFEA2FFFE49F
:1049C40033FEEF7803CEC313CE13D8F9901C81F0D5
:1049D400FCED2A5407A3F0EA131313541FFF901C91
:1049E4007FF0EA5407A3F0C3EC9F04901C83F0E427
:1049F400A3F0901C83E0FFA3E0C39F4003024B425B
:104A0400901C7FE0FF901C81E09F5003024AFCE46D
:104A1400901C85F0901C7AE0FF901C85E0FEC39FFB
:104A24004003024B39901C84E0701D901C7FE0FF12
:104A3400125EFD901C85125F14125F5EF8EF088011
:104A440002C333D8FC024AEF901C83E014FFA3E0B6
:104A54006F703F901C81E01268B3901C84E024FFC7
:104A6400FFE4125F4D125F062FF9EA3EFA901C85AF
:104A7400E07E0029F9EE3AFA123E89FF901C82E0AA
:104A8400FEC374089EFEF8EF088002C313D8FC022C
:104A94004AEF125F06125F3A24FFFFEE125F4DE900
:104AA4002FF9EA3E125F5AC374089EFEF8EF08809D
:104AB40002C313D8FC901C86F0125F06125F3AFF03
:104AC400901C7AE08FF0A429F9EA35F0125F5AF8C5
:104AD400EF088002C333D8FCFB901C84E0FF901CD9
:104AE4007FE02F1268B3901C86E04BFF126B6B9033
:104AF4001C85E004F0024A18901C7FE0FF901C859E
:104B0400E0FE125EFDF9901C85125F15FF901C8279
:104B1400E004FEF87401088002C333D8FC14FE904C
:104B24001C80E0FDF87401088002C333D8FC146EC5
:0E4B34005FFF126B6B901C84E004F00249F6E8
:014B42002250
:105B1100026F86E493A3F8E493A34003F68001F2B5
:105B210008DFF48029E493A3F85407240CC8C33395
:105B3100C4540F4420C8834004F456800146F6DF64
:105B4100E4800B0102040810204080902110E47EC3
:105B5100019360BCA3FF543F30E509541FFEE49359
:105B6100A360010ECF54C025E060A840B8E493A320
:105B7100FAE493A3F8E493A3C8C582C8CAC583CA4B
:105B8100F0A3C8C582C8CAC583CADFE9DEE780BE03
:013D92000030
:103D9300E709F608DFFA8046E709F208DFFA803E12
:103DA30088828C83E709F0A3DFFA8032E309F608FF
:103DB300DFFA8078E309F208DFFA807088828C8367
:103DC300E309F0A3DFFA806489828A83E0A3F6081B
:103DD300DFFA805889828A83E0A3F208DFFA804CF5
:103DE30080D280FA80C680D4806980F280338010CC
:103DF30080A680EA809A80A880DA80E280CA803335
:103E030089828A83ECFAE493A3C8C582C8CCC583AC
:103E1300CCF0A3C8C582C8CCC583CCDFE9DEE7807C
:103E23000D89828A83E493A3F608DFF9ECFAA9F0FB
:103E3300EDFB2289828A83ECFAE0A3C8C582C8CC51
:103E4300C583CCF0A3C8C582C8CCC583CCDFEADE6A
:103E5300E880DB89828A83E493A3F208DFF980CCCC
:103E630088F0EF60010E4E60C388F0ED2402B404C5
:103E73000050B9F582EB2402B4040050AF2323456C
:063E83008223903DE37371
:103E8900BB010689828A83E0225002E722BBFE0237
:093E9900E32289828A83E493226A
:103EA200BB010CE58229F582E5833AF583E02250D5
:103EB20006E92582F8E622BBFE06E92582F8E2221F
:0D3EC200E58229F582E5833AF583E4932239
:103ECF00BB010989828A83F8E028F022500327F783
:103EDF0022BBFE05F8E328F3228A838982F8E49354
:023EEF00282287
:103EF100BB010689828A83F0225002F722BBFE01B0
:023F0100F322A9
:103F0300F8BB010DE58229F582E5833AF583E8F0F4
:103F1300225006E92582C8F622BBFE05E92582C8A0
:023F2300F22288
:103F2500EF8DF0A4A8F0CF8CF0A428CE8DF0A42EB0
:023F3500FE226A
:103F3700BC000BBE0029EF8DF084FFADF022E4CC6E
:103F4700F875F008EF2FFFEE33FEEC33FCEE9DEC37
:103F5700984005FCEE9DFE0FD5F0E9E4CEFD22ED7D
:103F6700F8F5F0EE8420D21CFEADF075F008EF2FC7
:103F7700FFED33FD4007985006D5F0F222C398FDB8
:053F87000FD5F0EA2255
:103F8C00C2D5EC30E709B2D5E4C39DFDE49CFCEE50
:103F9C0030E715B2D5E4C39FFFE49EFE123F37C352
:103FAC00E49DFDE49CFC8003123F3730D507C3E44D
:063FBC009FFFE49EFE22BF
:103FC200C5F0F8A3E028F0C5F0F8E582158270028A
:063FD2001583E038F02227
:103FD800A3F8E0C5F025F0F0E5821582700215839C
:063FE800E0C838F0E822F9
:103FEE00BB0110E58229F582E5833AF583E0F5F011
:103FFE00A3E0225009E92582F886F008E622BBFEEE
:10400E000AE92582F8E2F5F008E222E5832AF58333
:08401E00E993F5F0A3E99322F8
:10402600BB010DC58229C582C5833AC583023FC23D
:104036005011C58229F808E5F026F618F5F0E58254
:1040460036F622BBFE11C58229F808E225F0F5F006
:10405600F218E23582F222F8E58229F582E5832A12
:0D406600F58374019325F0F5F0E493382202
:10407300F8BB0111E58229F582E5833AF583E8F07F
:10408300E5F0A3F0225009E92582C8F608A6F0223C
:0D409300BBFE09E92582C8F2E5F008F22223
:1040A000EB9FF5F0EA9E42F0E99D42F0E89C45F076
:0140B00022ED
:1040B100A8828583F0D083D0821240C81240C812F2
:1040C10040C81240C8E473E493A3C583C5F0C58317
:1040D100C8C582C8F0A3C583C5F0C583C8C582C859
:0140E10022BC
:0C40E200A42582F582E5F03583F58322E9
:0940EE00E0FBA3E0FAA3E0F922D3
:1040F700F8E0FBA3A3E0F925F0F0E5821582700252
:074107001583E0FA38F022F5
:09410E00EBF0A3EAF0A3E9F022B2
:0C411700E493FB740193FA740293F92204
:10412300BB010DE58229F582E5833AF5830240EE72
:104133005007E92582F80241ABBBFE07E92582F867
:104143000241B4E58229F582E5833AF583024117FA
:10415300D083D082F8E4937012740193700DA3A3FB
:1041630093F8740193F5828883E47374029368600F
:06417300EFA3A3A380DF0F
:064179008A838982E473D1
:105C1800901C92EBF0A3EAF0A3E9F0901C95E0FB4E
:105C2800A3E0FAA3E0F9123E89FE901C92E0FBA3E0
:105C3800E0FAA3E0F9123E89FF6E702AEF600E9039
:105C48001C9874FFF5F0123FC245F070037F0022E4
:105C5800901C93E475F001123FC2901C96E475F015
:105C680001123FC280B5901C92E0FBA3E0FAA3E0CA
:105C7800F9123E89FDD3EE6480F8ED648098400304
:105C88007F0122901C95E0FBA3E0FAA3E0F9123E05
:075C980089FFC3ED9FFF220D
:106F2600E4FFFE123E89600C0FEF70010E09E97056
:056F3600F20A80EF22C9
:10417F00EF4E6012EF60010EEDBB010B89828A8357
:10418F00F0A3DFFCDEFA2289F05007F709DFFCA964
:0C419F00F022BBFEFCF309DFFCA9F022BB
:0941AB00E6FB08E6FA08E6F92239
:0941B400E2FB08E2FA08E2F9223C
:00000001FF
