:103AE100706172616D6574657273206172652063C6
:103AF1006F7272656374202100706172616D65740B
:103B0100657273206572726F722021007265737421
:103B11006F726520706172616D65746572732E2EAE
:103B21002E00FFFFFFFF08080208010100A988001D
:0F3B31007375636365737366756C6C792021001F
:102832004E0F5500FFFFFFFF08080208010100A923
:01284200880D
:104044007E037F727D007B01121CAF7E037F727D35
:10405400007B0122A3F07B017A0E79F1227BFF9091
:104064000EFA7401F07D1F227B017A0F7956740DCC
:02407400F02238
:0B463C00123B9B12385812460880F811
:103B9B0012365D7A00790A1240447A03797C121C42
:103BAB00AF7A0679EE1240447A0A7960121CAF1292
:103BBB003A1712376212438A900F68E054FEF012E4
:103BCB0044911244F6124517124535C2A71245C649
:103BDB00D2AF124650900F60E0700C1236E2900F8D
:083BEB00607401F0123F382262
:10365D0075BA8090FE0374C0F090FE03E030E0F97F
:10366D0090FE017401F090FE00F0E4F5BA900EF1B9
:10367D00F07405124058E4FF12255E900EF17403AC
:10368D00F0740A124058E4FF1236D5FF1236C7A364
:10369D0074321240597F0112255E900EF17401F0C3
:1036AD00A3747C1240597F021236D57F031236C7A0
:0A36BD00A3141240597F0302255E9A
:1036C7007A0E79F112255E900EF17403F02212251D
:0B36D7005EE4900EF1F0A304F0FB2273
:1040A700E4FFFE900EF612406CE412426D7B017A3B
:1040B7000F795674FF900EF8F0A3F07D0B1232655E
:0F40C700900F61E0B50607A3E0B50702D322C34F
:0140D60022C7
:103762001240A77BFF50127A3A79E11240637F0E32
:10377200122AFF7FE87E03805E7A3A79FA1240636A
:103782007F13122AFF7FF47E011200267A3B790D05
:103792001240617F13122AFFE4FFFE1243FD7856A6
:1037A2007C0F7D017BFF7A3B79237E007F0D121A0D
:1037B20074900EF912406CE4FFFE1241E97FE87E3C
:1037C200031200261244237A3B79311240617F3181
:0B37D200122AFF7FF47E011200262265
:102BC4002032343030200020343830302000203996
:102BD4003630302000313434303020003139323056
:102BE4003020003338343030200035363030302057
:102BF400003537363030200031313532303000394D
:102C0400323136303000C7EBCAE4C8EBC3DCC2EB68
:102C140000C7EBCAE4C8EBD0C2C3DCC2EB00C7EB0D
:102C2400C8B7C8CFD0C2C3DCC2EB0053544F500066
:102C340052554E00B1BEB5D8C1ACBDD300D4B6B365
:102C4400CCC1ACBDD300D2D4CCABCDF800CEDECF5A
:102C5400DFCDF800C0A9D5B9CDF800C4DAB2BFCD34
:102C6400F800CAC7B7F1BBD6B8B4B3F6B3A7C9E87E
:092C7400D6C300CAC700B7F10085
:10284300410E9700603C0EB400FB80FF2BC401FDDA
:10285300C0FF2BCB02FEE0FF2BD203FF40FF2BD99F
:1028630004FF70FF2BE005FFB8FF2BE706FFCFFF48
:102873002BEE07FFD0FF2BF508FFE8FF2BFC09FF2A
:08288300FDFF2C03410EF00AD9
:102C7D00E075F006A424B7F582E4340EF583E0FB8D
:102C8D00A3E0FAA3E0F9900EFA7401F07D1F7F69BD
:102C9D00227408900F01F0A374FFF0A322E075F0E9
:102CAD0006A424B5F582E4340EF583E0FEA3E022FC
:102CBD007BFFE4900EFAF0227BFFE4900EFAF022F7
:102CCD00740AF07420A3F07B057D1F22900EF4E0B2
:102CDD00FBA3E0FAA3E02401F9E43AFA227BFFE436
:102CED00900EFAF022900EF4A3E0FAA3E0F9121A76
:102CFD009A7E00227BFFE4900EFAF022740AF0A374
:102D0D00741BF07B057D1F7F61227BFFE4900EFA23
:102D1D00F0227BFF900EFA7401F07D18227BFFE408
:072D2D00900EFAF07D302248
:1045C600900E967407F0E4A3F0124190124647024B
:0245D6000003E0
:08000300900F5FE0FF024630A0
:09464700900F5EE024FF9287222F
:10419000900F5A122CAAF58BEEF58D900F5B122C16
:1041A000AAF5D7EEF5D6900F5C122CAAF5D5EEF550
:0D41B000D4900F5D122CAAF5D3EEF5D222AB
:10393E00900EF4EBF0A3EAF0A3E9F0EF6401701738
:10394E00122CD9C002C001122CF2D001D00229F9DA
:10395E00EE3AFA7401801F122CD9C002C001122C4B
:10396E00F2D001D00229F9EE3AFA121A9A700574C1
:10397E000A121B0274FF121AE0121A9A75F00A84C8
:10398E00E5F0121B02122CD9C002C001122CF2D08B
:0D399E0001D00229F9EE3AFA121A9AFF221E
:10433C00900F137401F0A3740FF0A37403F0A3E4B3
:10434C00F0A37404F07B017A0E79F51235D6EF7078
:07435C00037F01227F002214
:1043B100900EF4EBF0A3EAF0A3E9F07E007F047D18
:1043C10000122CE3121CAF900EF4E0FBA3E0FAA361
:0643D100E0F9E4021B020A
:0D4616007401121AE0121A9A5403021B02DA
:104587001244237440122CA07413F0A374A4F07B7C
:07459700C0E4FDFF022075E6
:1042C200124423900F017432122CA3740BF0A374C6
:1042D2002DF07B517D08E4FF1220757A2C790A12A9
:0942E2002CBD7D0F7F64022AFF50
:104076007B017A0E79981243B17B017A0E79A612EA
:1040860043B11244237A2C7915122CBD7D0F7F0F74
:10409600122AFF7A2C7922122CC57D237F0F022A41
:0140A600FF1A
:103DEF001244237A2C792F122D1F7F0F122AFF7A5C
:103DFF002C7934122D1F7F96122AFF900F5EE090C0
:103E0F000F01700D7438122CA3740DF0A37464801D
:103E1F000B7438122CA37410F0A37484F07B64E439
:073E2F00FD7F2D122075221A
:103EBD00124423900F5FE075F01EA4240BFD900FAC
:103ECD0001740C122CA37409F0A374DBF07B107F2A
:103EDD000A1220757A2C7938122CC57D0A7F1E1294
:103EED002AFF7A2C7941122CEA7D287F1E022AFFA7
:103FDC001244237A2C794A122CEA7D1D7F0A122A6C
:103FEC00FF900F5A122C7D122AFF122C9E122CCDF0
:103FFC007F95122075122C9E740AF0741B122CD211
:05400C007F6102207538
:104106001244237A2C7951122D017D1D7F0A122A21
:10411600FF900F5B122C7D122AFF122C9E122CCDC3
:0E4126007F95122075122C9E122D0902207515
:104134001244237A2C7958122D017D1D7F0A122AEC
:10414400FF900F5C122C7D122AFF122C9E122CCD94
:0E4154007F95122075122C9E122D09022075E7
:104162001244237A2C795F122D177D1D7F0A122AA1
:10417200FF900F5D122C7D122AFF122C9E122CCD65
:0E4182007F95122075122C9E122D09022075B9
:1042EB001244237A2C7966122D177D147F30122AF3
:1042FB00FF7A2C7977122D2A7F0A122AFF7A2C79D2
:09430B007A122D2A7FAC022AFF70
:103F38007B017A0F795674FF900EF8F0A3F07D0B91
:103F4800123265900F61EEF0A3EFF0C2AFE4FFFE0E
:103F58001243FD7B017A0F7956900EF9740DF0E447
:083F6800FFFE1241E9D2AF2275
:0D288B004A00000504FF2E910305FF2F37C2
:10296400EF75F016A42462F9740A35F0FA900EF5A6
:102974007401F0A3EAF0A3E9F0900DD1E075F0162C
:10298400A42472F582E5F0340AF58322900DD1E097
:102994002401FFE433FE7C007D28121B48EDF02265
:1029A400900DD1E0FF75F016A42460F582E5F034B3
:1029B4000AF58322F583E4F0A3F0F58375821022EF
:1029C40035F0FA900EF57401F0A3EAF0A3E9F022D1
:1029D40075F016EFA42462F582E5F0340AF583E07D
:1029E400640222F583A3E0900EF8F07B0122FDEF50
:1029F40075F016A42462F9740A35F0FA7B0122906A
:102A04000A5FE0FF75F016A42224EEF582E5F034A7
:102A140006F58322EF75F016A424F0F97406222437
:102A24007CF582E5F03403F58322EF75F016A424D7
:052A34007EF97403228D
:0839AB00900EF1EFF0A3EDF026
:1039B300E4A3F0F0900EF3E0FFC3940274809480CC
:1039C3005051EF75F005A42400F582E43400F5832B
:1039D300E0FF900EF1E0B50732900EF3E0FF75F0D3
:1039E30005A42401F582E43400F583E0FE900EF291
:1039F300E0B50617EF75F005A42402F582E4340060
:103A0300F583A3E0FAA3E0F9121CA9900EF3E004F6
:033A1300F080A19F
:013A1600228D
:0E4608007D047F051239AB7D057F030239ABBF
:102E91001229A4E07003022F361229D46039900D53
:102EA100D1E01229A9E4F0D2A7122964A3E0041207
:102EB10029EB7A0F793F123D4D900DD1E0FF122998
:102EC100811229BAC083C0821229F2D007D006121A
:102ED1001CAFC2A7122990900A5FE075F016A412E8
:102EE1002A0DE06050122A03122A0DE4F0122A186A
:102EF1001229C4900A5FE075F016A42400F582E55A
:102F0100F034071229E77A0F794A123D4D122A034C
:102F11002400F582E5F034071229B8C083C082FD90
:102F2100122A1835F0FA7B01D007D006121CAF9097
:062F31000A5F1229932241
:102F37009006EDE075F016A4122A23E07003022F25
:102F4700DB9006ED122A06122A23E4F0122A2E122B
:102F570029C49006EDE075F016A4248EF582E5F0FD
:102F670034031229E77A0F794A123D4D9006ED1284
:102F77002A06248EF582E5F034031229B8C083C0EF
:102F870082FD122A2E35F0FA7B01D007D006121CDB
:102F9700AF9006ED1229931229A4E060371229D4C5
:102FA7007032900DD1E01229A9E4F0122964122998
:102FB700E97A0F7934123D4D900DD1E0FF12298146
:102FC7001229BAC083C0821229F2D007D006121C78
:052FD700AF1229902259
:0A326500900EF4EB1229CCA3EDF05B
:10326F00E4900EFAF0900EF8E0FFA3E0900EFBCF83
:10327F00F0A3EFF0E4900EFAF0900EF7E0FF900E4F
:10328F00FAE0C39F5062900EF4E0FBA3E475F001E7
:10329F00121BE9A9F0FA121A9AFF900EFBE0F0A3A5
:1032AF00E06FF0E4FCFD900EFBE0FEA3E0FF30E0EA
:1032BF0019EEC313FEEF13FFEE64A0FEEF6401FFE0
:1032CF00900EFBEEF0A3EFF0800B900EFBE0C3131C
:1032DF00F0A3E013F00DBD00010CED64084C70C6B7
:1032EF00900EFAE004F08091900EFBE0FEA3E0FF59
:0132FF0022AC
:10330000C6F4CDA3BFAAB9D800CDA8D0C5B7BDCA51
:10331000BD00C3DCC2EBD0DEB8C400B2A8CCD8C2BA
:10332000CAC9E8D6C300BBD6B8B4B3F6B3A7C9E8D8
:10333000D6C300D2D4CCABCDF800CEDECFDFCDF8F3
:1033400000C0A9D5B9CDF800C4DAB2BFCDF800FFEE
:10335000FFFFFF0077726F6E672070617373776F86
:103360007264202100D0DEB8C4B3C9B9A600D0DE93
:10337000B8C4CAA7B0DC00506C6561736520776182
:1033800069742061206D6F6D656E7400FFFFFFFF33
:0A33900008080208010100A98800E6
:10289800410DD20160230DD3FF330001FF3DEFFF4F
:1028A800330903FF3EBDFF331205FF4076FF331B9C
:1028B80002FF4659FF332606FF42EB5C0E6CFF33DE
:1028C8003308FF3FDCFF333A09FF4106FF33410A73
:1028D800FF4134FF33480BFF4162520DF600000000
:1028E800010203010DD3000000010203010E6C6018
:1028F800640E081E01FF43141B01FF41BD1701FFB1
:1029080037DD1D01FF000E0F01FF446E1E00FF3C66
:10291800A31B00FF3CF81700FF44D51D00FF45D856
:102928000F00FF00421E02FF2D341B02FF2A391739
:1029380002FF1D021D02FF45B30F02FF45531E0390
:10294800FF3BF31B03FF3C4B1703FF2FDC1D03FF6B
:0729580045E80F03FF0089B1
:101EC400900EF1EFF07A0E79F27E007B01900EF91C
:101ED400E4F0A3740AF022900E98E075F014A424A0
:101EE40064FF900EFA7401F022EFF075F006A4245A
:101EF400B7F582E5F0340EF583E0FBA3E0FAA3E046
:101F0400F922E075F006A424B5F582E5F0340EF567
:101F140083E0FEA3E022900F5AE0FD900EF0E0FB78
:101F24007A0022900DF7E075F007A424D3F9740D1C
:101F3400900DFC35F0FA7401F0A3EAF0A3E9F02265
:101F440078027C0F7D017B017E007F0E021A74E013
:101F540024FE900DF9F0900DF7E014900DFAF09036
:101F64000DF7E022E024FE900E02F0900E00E01443
:101F7400900E03F0900E00E0227A3379657BFFE443
:101F8400900EFAF07D167F4622E075F014A4240624
:101F9400FD900F01740CF0A374FFF0A37409F0A377
:101FA40074DBF07B107F32227B017A0E79882290D9
:101FB4000003121AB3900E96F0900004021C79905C
:101FC4000DD27401F07407900E96F07BFF22E0149A
:101FD400900DF9F0900DF7E0900DFAF00422E01462
:101FE400900E02F0900E00E0900E03F00422EF75C4
:101FF400F014A42405FDE4900EFAF07F4622900E1E
:1020040000E075F007A4246C22900E96E06404228C
:1020140078567C0F7D017E00021A74900E88E0755C
:10202400F014A4246122900F697417F0A37470F063
:1020340022900DF7E0FD7B057A0022900DF7E090E9
:102044000DF9F00422900E97E07B0122900F5FE0DF
:102054006401F07BFF22900E00E0FD7B047A0022F5
:10206400900E00E0900E02F00422900E96E024F709
:012074002249
:10385800123433900EF2EFF0124011900EF2E06441
:103868001F6061E4900EF1F0900EF1E0FFC3941434
:1038780074809480504EEF75F005A42408F582E416
:10388800340EF583E0FF900EF2E0B5072F900EF1AD
:10389800E0FF75F005A42409F582E4340EF583E011
:1038A800FE900DD2E0B50614EF75F005A4240AF5D4
:1038B80082E4340EF583121EFF021CA9900EF1E07B
:0438C80004F080A4E4
:0138CC0022D9
:094650007BFF7A45798702008E98
:03008E00021CA9A8
:1037DD0012200D707578F47C0E7D01121FACFE7FEA
:1037ED000E121A747A0F7955121F4412433CEF7062
:1037FD0021900F1374FFF0A37433F0A3744FF0A353
:10380D00E4F0A37404F07B017A0F79561235D6EFEC
:10381D00700F7BFF7A3E793612008EE4900DD2F058
:10382D0022121FAC1243B11244237BFF7A33795419
:10383D00121EE67D1F7F31122AFF7FE87E031200E4
:0B384D00267BFF7A4279C212008E2217
:0543140012200D7022D3
:10431900121FAC7F0112393E900EF1EFF07A0E793F
:10432900F2121ECD1223C012201F121EE57D261285
:024339002AFF59
:01433B00225F
:10446E00900E96E024FC601424FD70167404121F46
:10447E00CB7A4279C212008E12202A22121FAC125F
:03448E00461622AD
:10000E0012200D700F7BFF7A45798712008E121F1A
:05001E00AC1243B12209
:0541BD0012200D702628
:1041C200121FAC7F0212393E900EF1EFF07E007B9F
:1041D200017A0E79F2121ED11223C012201F121E72
:0641E200E57D26122AFF14
:0141E80022B4
:1044D500900DFC121EFD121FBDE94A4B6012900D96
:1044E500D27402F0900DFC121EFD121FB312008E45
:0144F50022A4
:103CA300900DF8E0FF14F0EF7001F01220357F0162
:103CB30012456E900DF7EFF064047004A37402F0E4
:103CC300900DF8E0FD7C00700A12203F121F5F2464
:103CD300028011ED64014C900DF77005121FD28024
:103CE30003121F53900DFBF07BFF7A3E79361200CF
:053CF3008E121F2722C4
:01004200229B
:1045D800121FC37A45798712008E121FAC0243B1AD
:103CF800900DF8E0FF04F0EF640270037402F01214
:103D08002035E4FF12456E900DF7EFF07002A3F036
:103D1800900DF8E0FD7C00700A12203F121F5F240E
:103D2800028011ED64014C900DF77005121FD280CE
:103D380003121F53900DFBF07BFF7A3E7936120079
:053D48008E121F27226E
:101D0200900E96E0147003021DEB147003021E394C
:101D1200147003021E0224FD7003021E58046003A5
:091D2200021E92900E97E0706120
:101D2B00900EF1F0900EF1E0FFC394047480948058
:101D3B00502D74992FF582E4340EF583E0FF7E006D
:101D4B007B017A0E79F2121ED11223C0900EF11282
:101D5B001EDE7D12122AFF900EF1E004F080C5907A
:101D6B000F01740CF0A374FFF0A37409F0A374FBC0
:101D7B00F07B107D107FAF122075900E977401F0E1
:101D8B002278F47C0E7D017B017A0E7998121F4C20
:101D9B007A0E79A6121F4412433CEF60297B017A1D
:101DAB000E79A77F04122014123F387B017A0E792B
:101DBB00981243B17B017A0E79A61243B1121E938E
:101DCB007A3E793680111244237A33796E121F8151
:101DDB00121EB77A40797612008EE4900E97F0229D
:101DEB00900F5EE06401F024FF9287123F387BFF77
:101DFB007A3D79EF021E8F900F5FE07006FF12465F
:101E0B003080187F011246301244237BFF7A3379DE
:101E1B0077121EE67D167F1E122AFF123F381244E0
:101E2B0023121F7D121EB77A3E79BD021E8F900EB4
:101E3B0005121EFD121FBDE94A4B604B900DD2746B
:101E4B0003F0900E05121EFD121FB38037C2AFE4D4
:101E5B00FFFE1243FD7BFF7A33798C7F0D1220142A
:101E6B007B017A0F7956900EF9740DF0E4FFFE1298
:101E7B0041E9D2AF124190124647120003121E9352
:101E8B007A3E793612008E22E4900DD2F012442362
:101E9B007BFF7A337965E4900EFAF07D167F46125C
:101EAB002AFF7FF47E011200267BFF22122AFF7F7E
:091EBB00F47E011200267BFF22D7
:10455300900E96E024FB701212204970067A0E79B1
:0B4563009880047A0E79A612461622FA
:1045B300900E96E0FFE4900DD2F07BFF7A3E7936C1
:0345C30002008E65
:102D3400900E96E024FE604914603C24FE60030279
:072D44002DE2122049701678
:102D4B007A0E79987F0112393E121EC41223C012DB
:042D5B001EDB7D12EC
:022D5F008017DB
:102D61007A0E79A67F0112393E121EC41223C09039
:0A2D71000EA6121EDE7D26022AFFC8
:102D7B001220507A3E79BD02008E900E01E0FF14B6
:102D8B00F0EF7001F012205A7F0112456E900E0089
:102D9B00EFF064037004A37402F0900E01E0FD7C6D
:102DAB0000700A122064121F7424028011ED64015A
:102DBB004C900E007005121FE28003121F68900EDC
:102DCB0004F07BFF7A3E797C12008E122002F9749C
:082DDB000E900E05121F3722B5
:102A3900900E96E024FE604514603824FE6003027F
:072A49002AEB122049701472
:102A50007A0E7998122AEC121ED11223C0121EDBB4
:022A60007D12E5
:022A62008015DD
:102A64007A0E79A6122AEC121ED11223C0900EA659
:082A7400121EDE7D26022AFF7E
:102A7C001220507A3E79BD02008E900E01E0FF04C8
:102A8C00F0C3EF94027480948040037402F012201F
:102A9C005AE4FF12456E900E00EFF07002A3F09016
:102AAC000E01E0FD7C00700A122064121F742402D7
:102ABC008011ED64014C900E007005121FE2800332
:102ACC00121F68900E04F07BFF7A3E797C12008E08
:102ADC00122002F9740E35F0FA900E05121F3A22EC
:102AEC007F0212393E900EF1EFF07E007B017A0EE0
:032AFC0079F2224A
:103BF30012206E601714602414603124037048127D
:103C03001F1AE4FF12456E900F5A802E900F5B121D
:103C13001F1DE4FF12456E900F5B801E900F5C1218
:103C23001F1DE4FF12456E900F5C800E900F5D1216
:103C33001F1DE4FF12456E900F5D121EED121EE66E
:083C43007D1F7F69122AFF2298
:103C4B0012206E6017146024146031240370481224
:103C5B001F1A7F0112456E900F5A802E900F5B1228
:103C6B001F1D7F0112456E900F5B801E900F5C1223
:103C7B001F1D7F0112456E900F5C800E900F5D1221
:103C8B001F1D7F0112456E900F5D121EED121EE679
:083C9B007D1F7F69122AFF2240
:102FDC0012206E601F14603114604B2403706590D6
:102FEC000F5A121F06F58BEEF58D1230517A3F7980
:102FFC00DC02304D900F5B121F06F5D7EEF5D612A2
:10300C0030517A41790602304D900F5C121F06F553
:10301C00D5EEF5D4123F38124423121F7D123073B3
:10302C007A417934801B900F5D121F06F5D3EEF5B3
:10303C00D2123F38124423121F7D1230737A417919
:10304C006212008E22123F381244237BFF7A3379AE
:10305C0065E4900EFAF07D167F46122AFF7FF47E0F
:10306C00011200267BFF22122AFF7FF47E01120040
:04307C00267BFF228E
:1045E800900DD27402F0121FCB7A3E797C02008EB5
:010089002254
:103E3600E4900EF4F0124423900EF4E0C39403745D
:103E46008094805028E0FF24F9F582E4340DF58350
:103E5600E075F007A424D3F582E4340D121EFB129C
:103E66001FF2122AFF900EF4E004F080CB900DF8BA
:063E7600121F8D022075F1
:103E7C00E4900EF4F0124423900EF4E0C39403E4A7
:103E8C0094005024E0FF2402F582E4340EF58312F2
:103E9C002005F582E4340E121EFB121FF2122AFFCB
:103EAC00900EF4E004F080D0900E01121F8D0220D1
:013EBC007590
:094659007BFF7A3E797C02008EA1
:10401100900DD2E064017008900E96E06407602272
:10402100EF641F701A900F68E030E01654FEF01232
:104031001FC37A45798712008E121FAC0243B11259
:03404100202A2210
:1044490030313233343536373839414243444546C1
:104459004748494A4B4C4D4E4F505152535455566B
:054469005758595A00EC
:10429800900EF6E0FBA3E0FAA3E0F922900F24E0E9
:1042A80024FFFF900F23E034FF22900F23E475F0E2
:0A42B80001121BE985F082F5832254
:1023C000900EF4EEF0A3EFF0A3EBF0A3EAF0A3E994
:0123D000F01C
:1023D10078FB7C0E7D017BFF7A4479497E007F2565
:1023E100121A74E4900F23F0A3F0900EF9E0700438
:1023F100A3E0640A702A900EF4E0FEA3E0FFC3EEAE
:1024010064809480501AC3E49FFFE49E900F20F0F3
:10241100A3EFF01242981242B2742D121B14800FD6
:10242100900EF4E0FFA3E0900F20CFF0A3EFF09027
:102431000EF9E0FEA3E0FDAC06900F20E0FEA3E064
:10244100FF121B4874FB2DF582740E3CF583E0FFEF
:102451001242981242B2EF121B14900F20E0FEA319
:10246100E0FF900EF9E0FCA3E0FD121B48900F2065
:10247100EEF0A3EFF04E70B7124298900F23E0FEFA
:10248100A3E0F5828E83E4121B14121A9AB42D0A6A
:10249100900F27E4F0A304F08007E4900F27F0A346
:1024A100F0900F27E0FFA3E0900F25CFF0A3EFF00E
:1024B1001242A4FE7C007D02121B9DD3900F26E0E8
:1024C1009FEE6480F8900F25E06480984003022518
:1024D1005A124298900F25E0FEA3E0F5828E8312F6
:1024E1001AB3900F22F01242A4FE900F28E02FFFA2
:1024F100900F27E03EFE900F25E0FCA3E0FDC3EF27
:102501009DFFEE9C8F82F583121AB38D828C83120C
:102511001B14900F22E0FF900F24E024FFFD1242D4
:10252100ABFC900F28E02DFD900F27E03CFC900FB5
:1025310025E0FAA3E0FBC3ED9BFDEC9AFC12429867
:102541008D828C83EF121B14900F26E004F070062D
:0C255100900F25E004F00224B112429823
:01255D00225B
:10456E00A905EF7003098006E97002A90319AF03CC
:09457E00E98FF084A9F0AF0122DD
:10436300900F69E07002A3E0601C900F6AE024FFE5
:10437300F0900F69E034FFF0E07002A3E070079063
:074383000F68E04401F02285
:10002600900EF6EEF0A3EFF0900EF674FFF5F012D8
:0B0036001BE945F0600512466280EDFA
:01004100229C
:084662007F0B7EBEDEFEDFFCD3
:01466A00222D
:1031C400900EF5E0FBA3E475F001121BE9A9F0FAF7
:1031D400021A9A9006ECE0FF75F016A422F583E437
:1031E400F0A37402F075F016EFA422F583E475F0F1
:1031F40001121BE9ADF0FC75F016EFA422A3F0E474
:10320400A3F0A374FFF0A374E8F0A3E04401F0A3D7
:103214007401F0A322F583E0FEA3E0C39410EE94BE
:103224000022F583E5822DF582E5833CF583229027
:103234000003121BFFAEF022900001021AB3900E9D
:10324400F2E0FBA3E0FAA3E0F922A3F0A374FEF0FA
:10325400A374E0F022900002021AB3900006021A4E
:01326400B3B6
:10449100900F297401F074501232017440F054FEEF
:1044A100F0900F3274EFF0A3F07B017A0F792902BB
:0244B1002DE3F9
:03002300023EFD9D
:103EFD00C0E0C0F0C083C082C0D0309909C2999093
:103F0D000F31E054FEF0309817C29890037AE075A7
:103F1D00F016A4240BF582E5F03400F5837401F05E
:0B3F2D00D0D0D082D083D0F0D0E032A2
:1044F600900F347402F074101232017414F0900F9D
:104506003D7401F0A374FEF07B017A0F7934022D1D
:01451600E3C1
:0300430002339AEB
:10339A00C0E0C0F0C083C082C0D075D000C000C0F9
:1033AA0004C005C006C007E59A30E10A539AFD90A9
:1033BA000F3CE054FEF0E59A30E059539AFE123180
:1033CA00D7247DF582E5F03403F58374011231E8E0
:1033DA00247CF582E5F03403F583E070371231D7A7
:1033EA002490F582E5F034031231E1248EF582E56A
:1033FA00F03403123219501C1231D7248EF582E5AB
:10340A00F034031231EF247EF582E5F034031232F0
:10341A0026E59BF0D007D006D005D004D000D0D046
:09342A00D082D083D0F0D0E03252
:10451700900F3F7403F0A37450F0740A12324E9058
:0E4527000F457408F07B017A0F793F022DE3F7
:03008B00023080C0
:10308000C0E0C0F0C083C082C0D075D000C000C016
:1030900004C005C006C007E5AC30E10A53ACFD90A2
:1030A0000F47E054FEF0E5AC30E06253ACFE900A0E
:1030B0005E1231DA24EFF582E5F03406F58374010F
:1030C0001231E824EEF582E5F03406F583E0703D38
:1030D000900A5E1231DA2402F582E5F034071231EB
:1030E000E12400F582E5F03407123219501F900AEE
:1030F0005E1231DA2400F582E5F034071231EF2454
:10310000F0F582E5F03406123226E5ADF0D007D0B6
:1031100006D005D004D000D0D0D082D083D0F0D05B
:02312000E0329B
:10453500900F4A7404F0A37450F074A012324E9098
:0E4545000F507410F07B017A0F794A022DE3BB
:0300930002312215
:10312200C0E0C0F0C083C082C0D075D000C000C073
:1031320004C005C006C007E58430E10A5384FD904F
:103142000F52E054FEF0E58430E0625384FE900DAD
:10315200D01231DA2461F582E5F0340AF583740184
:103162001231E82460F582E5F0340AF583E0703D1F
:10317200900DD01231DA2474F582E5F0340A12315E
:10318200E12472F582E5F0340A123219501F900DD3
:10319200D01231DA2472F582E5F0340A1231EF24CA
:1031A20062F582E5F0340A123226E585F0D007D0C6
:1031B20006D005D004D000D0D0D082D083D0F0D0B9
:0231C200E032F9
:102DE300121A9AFD6401703B12323CF59812325963
:102DF3004289123233F58BEEF58D900005121AB32A
:102E030013928E900007121AB3428E900009121A81
:102E1300B352B890000A121AB352B712325F24FFAA
:102E230092AC227C00ED6402702B12323CF59A12B4
:102E33003233F5D7EEF5D6900007121AB3428E124D
:102E4300325F42AF900009121AB352B590000A12D2
:102E53001AB352B622ED64034C701412323CF5AC33
:102E6300123259F5D1123233F5D5EEF5D480191259
:102E73001A9A6404701712323CF58412325942D103
:0E2E8300123233F5D3EEF5D212325F42AF2297
:1044B300900008121AB330E00AED1DAE0470011C1F
:1044C3004E70EDE92408F9E43AFA121A9A4401020B
:0244D3001B02CA
:103D4D00900EF2EBF0A3EAF0A3E9F0900EF8E0FF8D
:103D5D0014F0EF603B1232427D887C131244B31293
:103D6D003242121A9A24FE6011146015146019243F
:103D7D000370D81231C4F59980D11231C4F59B80EE
:103D8D00CA1231C4F5AD80C31231C4F585023D5858
:013D9D002203
:10354D00F5837401F0EF2401FFE433FE7C007D2848
:10355D00121B48AF0522E0FF75F016A422F5837407
:10356D00FFF5F0021BD3F583E0FEA3E04E22EFF052
:10357D0075F016A422240BF582E5F03400F58322B4
:10358D00247DF582E5F03403F5832224EFF582E501
:10359D00F03406F583222461F582E5F0340AF583D3
:1035AD0022A4241EF582E5F0340022A42490F58295
:1035BD00E5F0340322A42402F582E5F0340722A4B9
:0935CD002474F582E5F0340A22B1
:10438A00E4900F6BF0A3F0A3F0A374DCF0A3E4F0C5
:10439A00A3E04401F04402F0A37420F0A3F07B01EF
:0743AA007A0F796B02004657
:10004600121A9A703D900001121AB3F58E900002B2
:10005600121AB3F589900003121BFFAEF0F58AEE73
:10006600F58C900005121AB3FF13928CEFC313138D
:1000760092A9900006121AB342B8900007121AB35A
:0300860042B7225C
:03000B000226F7D3
:1026F700C0E0C0F0C083C082C0D075D000C000C0A9
:1027070001C002C003C004C005C006C0071243636E
:1027170090037A123563123582E0603475F016EF54
:102727001235AE12357390037A600CE075F016120D
:1027370035AE12356A8019123563240AF582E5F041
:10274700340012354D90037A12357B123582E4F04E
:102757009006EC12356312358DE0603475F016EF94
:102767001235B81235739006EC600CE075F016124E
:1027770035B812356A8019123563247CF582E5F085
:10278700340312354D9006EC12357B12358DE4F08B
:10279700900A5E123563123598E0603475F016EFD3
:1027A7001235C2123573900A5E600CE075F016128E
:1027B70035C212356A801912356324EEF582E5F0C9
:1027C700340612354D900A5E12357B123598E4F0C7
:1027D700900DD01235631235A3E0603475F016EF13
:1027E7001235CC123573900DD0600CE075F01612CF
:1027F70035CC12356A80191235632460F582E5F00D
:10280700340A12354D900DD012357B1235A3E4F002
:10281700D007D006D005D004D003D002D001D00015
:0B282700D0D0D082D083D0F0D0E032BF
:102220002B2B2B0061002B4F6B0041542B574D4F34
:1022300044453D41505354410D0A002B4F4B004142
:10224000542B5741503D504C43305F41502C4E4F22
:102250004E450D0A0041542B484541525444543DCB
:1022600037373737373732453739364537303631F4
:10227000373832453633364636440D0A0041542B42
:10228000575354413D756E696F6E2C2A21796E7AD1
:10229000666B6A3230303931323135212A0D0A000D
:1022A00041542B524547454E413D434C4F55442CDC
:1022B00046495253540D0A0041542B534F434B414E
:1022C0003D544350432C636C6F75642E7573722EAE
:1022D000636E2C31353030300D0A0041542B53459C
:1022E000415243483D31353030302C636C6F75645A
:1022F0002E7573722E636E0D0A0041542B524547A2
:10230000434C4F55443D303030313936333930301D
:10231000303030303030303034302C536B64474103
:102320007A796C0D0A0041542B57414E4E3D44487A
:1023300043500D0A0041542B5A0D0A00FF2220FF82
:10234000222403E8000000FF2224FF222600C80008
:102350000000FF222AFF223B00C8000000FF223FAE
:10236000FF223B00C8000000FF2255FF223B00C8AF
:10237000000000FF227DFF223B00C8000000FF227A
:10238000A0FF223B00C8000000FF22B8FF223B0054
:10239000C8000000FF22DBFF223B00C8000000FF56
:1023A00022FAFF223B00C8000000FF2326FF223B49
:1023B00000C8000000FF2335FF223B00C8000000DA
:1045F80075F00BA4243CF582E43423F583E493227C
:0C463000EF6006147005D29422C29422A0
:1036E200E4900EF1F0D294D2957FF47E011200267E
:1036F200E4900EF1F0900EF1E0FFC3940C7480940C
:1037020080505CEF1245F8FB740193FA740293F94E
:1037120012459E900EF8EFF0900EF1E01245F8F986
:10372200740193FA740293900EF5C9F0A3EAF0A320
:10373200E9F07B017A0F7934123D4D900EF1E0757C
:10374200F00BA42442F582E43423F583E493FE745F
:0F3752000193FF120026900EF1E004F00236F70B
:013761002245
:10009600B1EAB6A8BFAAB9D8B2CECA00C5E4D6C3DB
:1000A600CAB1BCE4D0D0C4A3C4E2C7EBCAE4C8EB6F
:1000B600C3DCC2EBD0C2C8B7C8CFD0DEB8C4B3C9A0
:1000C600B9A6CAA7B0DCD6F7BDE7C3E6B1BEB5D8B8
:1000D600C1ACBDD3D4B6B3CCCDA8D0C5B7BDCABD0F
:1000E600C6F4CDA3B2A8CCD8C2CAC9E8B4AEBFDAAA
:1000F600BBD6B8B4B3F6B3A7CAC7B7F1B5C8C4DAA6
:10010600B2BFCFB5CDB3D2BBB6FEC800CBC4B3F534
:10011600CABCBBAFD2D4CCABCDF8CEDECFDFC0A944
:10012600D5B98868FF48109212F2129210000000AA
:100136000F000201080F000003002C24A42425E66A
:10014600242424242C0008040304080F090909099F
:100156000800404242FE424242FE4242400000083F
:1001660006010000000F000000004048494A48F818
:10017600484A4948400008080402010001020408F0
:1001860008009054B6955C54349436549000000A96
:100196000A0A0A09050404020000482A987F284A28
:1001A60010EF08F80800090B05050B000805020505
:1001B6000800FA4A3E0A3E4AFA00E2223E000F05CD
:1001C600050505050F0007080E001017D555577DC4
:1001D6005755D517100008080F08080E08080F080D
:1001E6000800FE2222FE0008488808FF08000702D1
:1001F600020700000009080F000000F902F849494B
:100206004949F901FF00000F0003020202020B0830
:100216000F004824F20910121212F2121000000008
:100226000F00000008080F0000008868FF4802FA67
:10023600AFAAAFFA020000000F000A0A0603060A78
:100246000A0088FF4800FE00820CE01F0000080F2D
:1002560000000309040300030C0011F20022EAAABD
:10026600BFAAAAEA2200000F04000F0202020A0F28
:100276000000342CF7A4E8A4EA09CA04E800010146
:100286000F000F020F0003080F0000000181720C1F
:100296007080000000000804020100000001020452
:1002A6000800463282B2466B524A62126600000E5F
:1002B6000808080F0808080E000042F22EE2013D69
:1002C6002121213FE0000007020701010101090881
:1002D600070020AAB2E3B2AA00FE12F2110004023D
:1002E600080F000A0403000F000042F22EE200F499
:1002F60053F25A56F00000070207080701070109E2
:100306000F001011F2000000C03FC0000000000006
:100316000702090601000106080010FC03F8109404
:100326008B4A2A961000000F0003080A0A090504E2
:100336000200E222223E2010EF08887808000F040F
:100346000201080402010204080000FC2424E4045B
:10035600FF0485660400080700020B04020102047C
:100366000F000404FC040408FF080808F800020251
:1003760001090503000008080700A0908E8888FF81
:1003860088888880800008080402010001020408A9
:100396000800FE02FA02FE10EC0B08F80800090439
:1003A600030409080502050808000088888889FAF8
:1003B60088888888000008080808080F08080808C0
:1003C6000800809F9555553F5555959F800000081C
:1003D60004030000000F0000000002F21212FA5699
:1003E60052F21212F200000F040407050507040476
:1003F6000F000404846414FF1464840404000201DE
:100406000202020F0202020102001010FF1020FC7D
:1004160010FF0884FC00040403020007080908080A
:100426000E0021E20004342C27F4242404000807DB
:1004360008090909090F090909008888FF48A4ACB9
:10044600B5E6B4ACA40000080F00080A0B04040BC0
:10045600080021E2001012F21212F2121000080730
:10046600080A09080808090A0B0012D2FE51802F53
:1004760029E9292F000001000F000809090F0909C1
:10048600080011F200F9A9ABFDADABF800000807B2
:10049600080B08080B080A0B080010FC0304545448
:1004A600555654540400000F00000F050505050FAE
:1004B6000000040404FC2526242424E40400080483
:1004C60003000000080808070000084848C8484814
:1004D60008FF08090A0008080807040404000304C2
:1004E6000E000000FCA4A4A5A6A4A4A4BC000806B3
:1004F600010F0404040404040F002010FC0382BA54
:10050600AAABAABA820000000F0001020A0E02027C
:100516000100224400FC24E4243F24E40C000402ED
:10052600080708080502050808009C88FF481054BB
:10053600545FF454500000000F0000010A080F0039
:100546000000028A529AD6B3D28A528A0200020266
:100556000202020F0202020202001011F20050CF44
:1005660041414FD0100000000702080805020508A7
:100576000800C05E525252FF5252525EC00007023D
:100586000202020F02020202070000FE020202023B
:10059600020202FE00000007020202020202020735
:1005A60000007800FF08C43FC404F444240000009F
:1005B6000F04030804020106080004027DD5555500
:1005C6005555557D0100000A090B050505050B0962
:1005D6000800801E101010FF1010101E8000070467
:1005E60004040407040404040F0000FE02020202CD
:1005F60002020202020008070000000000000000DC
:10060600000040405F5555D555555F4040000804F1
:100616000304080F0909090908001191898985BF92
:10062600818585891100000F040404040404040F65
:10063600000044535256527C53D256524200010196
:1006460003050109090F0101010000FC0484641F70
:1006560024C404FC0000000F000000000008080F7E
:10066600000020AAB2A3B2AA20FE0232CE00000FDA
:100676000404040F000F02020100008292DAD6B2CF
:10068600B19189C1800008040200080F000002042D
:10069600090098D4B3880064D44DC654E400040419
:1006A60002020804030007080C0040404040404096
:1006B60040404040400000000000000000000000F4
:1006C60000000004040404040404040400000404F8
:1006D60004040404040404040400000242424242E6
:1006E60042424202000008080808080808080808EC
:1006F600080000FE02827E02027E8282FE00000F59
:1007060005040404040404040F008445F64CA00206
:10071600FE020202FE0000000F00080601000808A3
:10072600070088780FF800D8545350D830000805D1
:10073600020D000F0404040F00002010FC030080CB
:10074600FF201008040000000F0001000708080839
:100756000E0000FE0080420C00807F0000000003B7
:100766000908040402010204080008080888681F32
:10077600E808080808000804020102040003040847
:100786000800FF099161910991619109FF000F012C
:1007960000000001000008090F0020222222E23E8C
:1007A600E2222222200008040201000007080808AD
:1007B6000E0098D4B388004848FF24A526000404F8
:1007C60002020808040305080E008888FF4800FC9A
:1007D60004050604040000080F00080700000000D6
:1007E600000000FF45D57D55D5557D5547000807C6
:1007F600000F08040102040A0900000000000000BE
:10080600004F00000007000700147F147F14242AFD
:100816007F2A1223130864623649552250000507C1
:100826000000001C2241000041221C0014083E0862
:100836001408083E08080050300000080808080898
:10084600006060000020100804023E5149453E0049
:10085600427F400042615149462141454B311814BF
:10086600127F1027454545393C4A494930017109EF
:1008760005033649494936064949291E00363600D8
:1008860000005636000008142241001414141414F3
:1008960000412214080201510906324979413E7E7F
:1008A6001111117E7F494949363E414141227F411E
:1008B60041221C7F494949417F090909013E4149B5
:1008C600497A7F0808087F00417F41002040413F68
:1008D600017F081422417F404040407F020C027F86
:1008E6007F0408107F3E4141413E7F090909063ECB
:1008F6004151215E7F09192946464949493101017D
:100906007F01013F4040403F1F2040201F3F4038AD
:10091600403F63140814630708700807615149458E
:1009260043007F41410002040810200041417F003E
:10093600040201020440404040400102040000203D
:10094600545454787F4848483038444444443048E6
:1009560048487F385454545800087E090248545475
:10096600543C7F0808087000007A00002040403D93
:10097600007F2028440000417F40007C0438047C2E
:100986007C0804047838444444387C141414080859
:100996001414147C7C080404084854545424040495
:1009A6003F44243C4040403C1C2040201C3C4030FE
:1009B600403C442810284404483008044464544CFD
:1009C60044083641410000007700000041413608E6
:1009D6000402020201F8F81010080404024AC94D84
:1009E6004A48486830030301010101010101000082
:1009F600000000000000000000F0F8FCFCFCFCF821
:100A0600F0000000000000000000010303030301E2
:100A16000000000000081C3E7F00007F3E1C08000E
:100A260000000000000000000000000000000000C0
:100A360000000000000000000000000000000000B0
:100A460000000000000000000000000000000000A0
:100A56000000000000000000000000000000000090
:100A66000000000000000000000000000000000080
:100A76000000000000000000000000000000000070
:100A86000000000000000000000000000000000060
:100A96000000000000000000000000000000000050
:100AA600000000FFFFFFFFFFFFFFFFFFFFFFFFFF4D
:100AB600FFFFFFFFFFFFFFFFFFFFFFFFFFFFFFFF40
:100AC600FFFFFFFFFFFFFFFFFFFFFFFFFFFFFFFF30
:100AD600FFFFFFFFFFFFFFFFFFFFFFFFFFFFFFFF20
:100AE600FFFFFFFFFFFFFFFFFFFFFFFFFFFFFFFF10
:100AF600FFFFFFFFFFFFFFFFFFFFFFFFFFFFFFFF00
:100B0600FFFFFFFFFFFFFFFFFFFFFFFFFFFFFFFFEF
:100B1600FFFFFFFFFFFFFFFFFFFFFFFFFFFFFFFFDF
:100B2600FFFFFFFFFFFFFF000000000000000000C6
:100B360000000000000000000000000000000000AF
:100B4600008080C0C0E0E0E0F0F0F0F8F8F8F8FCD3
:100B5600FCFCFCFCFCFCFEFEFEFCFCFCFCFCF8F8D1
:100B6600F8F0E0C0000000000000000000000000F7
:100B7600000000000000000000000000000000006F
:100B86000000008080C0E0E0F0F0F8FCFCFCFEFE17
:100B9600FFFF7F7F7F7F7F7F3F3F3F3F3F3F3F3F5F
:100BA6003F3F3F1F1F3F3F3F3F3F3F3F3F7F7F7FCF
:100BB600FFFFFFFFFFFF3C000000000000000000F9
:100BC60000000000000000000000804020203018D7
:100BD600180C0E0F0F07070703030301010101009D
:100BE60000000080C0E0E0F0F0F0F8F8F8F8FCFC57
:100BF600FCFCFCFCFCFCFCFCF8F8F8F0F0E0000067
:100C060000000001071F03000000000000000000B4
:100C160000000000000000000000000000000000CE
:100C26000000000000000000000000000080E0C09E
:100C36000000043F3F3F7F7FFFFFFFFFFFFFFFFFF7
:100C4600FFFFFFFF7F7F7F7F3F3F3F1F0F070300B1
:100C5600000000000000000080808080C0C0C0C08E
:100C6600E0E0703030180C000000000000000000CA
:100C76000000000000000000000000000000FFFF70
:100C8600FFFFFEFEFCFCFCF8F8F8F8F8F8F8F8F8B8
:100C9600F8F8F8F8F8F8F8F8F8F8F8FCFCFCFCFCBA
:100CA600FCFEFEFEFEFFFF7F3F3F1F1F0F070703F1
:100CB600010100000000000000000000000000002C
:100CC600000000000000000000000000000000011D
:100CD600070F1F3F3F3F7F7F7F7F7F7F7F7F7F7F26
:100CE6007F7F7F7F7F3F3F3F3F1F1F1F0F0F0707FE
:100CF60007030301010000000000000000000000DF
:100D060000000000000000000000000000000000DD
:100D160000000000000000000000000000000000CD
:100D260000000000000000000000000000000000BD
:100D360000000000000000000000000000000000AD
:100D4600000000000000000000000000000000009D
:100D5600000000000000000000000000000000008D
:100D660000C0C0C0C0C0C0C0C0C0C0C0C0C0C0C03D
:100D7600C0C0C0C0C0C0C0C0C0C0C0C0C0C0C0C06D
:100D8600C0C0C0C0C0C0C0C0C0C0C0C0C0C0C0C05D
:100D9600C0C0C0C0C0C0C0C0C0C0C0C0C0C0C0C04D
:100DA600C0C0C0C0C0C0C0C0C0C0C0C0C0C0C0C03D
:100DB600C0C0C0C0C0C0C0C0C0C0C0C0C0C0C000ED
:100DC6000000000000FFFF00000000808080C0C01F
:100DD600E0E0E0E02020606060606060606060608D
:100DE600606060606060606060C0C0C0C0C0C0C05D
:100DF600C0C0C0C0C0C0C0C0C0C0C0C0C0C0C0C0ED
:100E0600C0C0C0C0C0C0C0C0C0C0C0C0C0C0C0C0DC
:100E1600C0C0C0C0C0C0C0C0C0C0C0C0C0C000004C
:100E260000FFFF000000000000FFFF000000FFFFC2
:100E3600FFFFFFFFFFFFFFFF0000000000000000B4
:100E4600000000000000000000000000000000009C
:100E5600000000000000000000000000000000008C
:100E6600000000000000000000000000000000007C
:100E7600000000000000000000000000000000006C
:100E8600FFFF000000FFFF000000000000FFFF0062
:100E96000000FFFFFFFFFFFFFFFFFFFF0000000056
:100EA6007EE6C38383C3EE7C0000000000000000E2
:100EB600000000000000000000000000000000002C
:100EC600000000000000000000000000000000001C
:100ED60000001818181818181818181818181800D4
:100EE60000000000FFFF000000FFFF000000000000
:100EF60000FFFF000000FFFFFFFFFFFFFFFFFFFFF8
:100F060000000000000000010100000000000000D9
:100F160000000000000000000000000000000000CB
:100F260000000000000000000000000000000000BB
:100F360000000000000000000000000000000000AB
:100F46000000000000000000FFFF000000FFFF009F
:100F56000000000000FFFF00000000000101030385
:100F660007070F0F0C0C0C0C0C0C0C0C06060606D7
:100F7600060606060606060606060606060606060B
:100F86000606060606060202020202020202020223
:100F9600020202020202020202020202020202022B
:100FA600020202020202020202020202030300001D
:100FB60000FFFF0000000000000707060606060601
:100FC60006060606060606060606060606060606BB
:100FD60006060606060606060606060606060606AB
:100FE600060606060606060606060606060606069B
:100FF600060606060606060606060606060606068B
:10100600060606060606060606060606060606067A
:10101600060606060607070000000000000000009E
:1010260000000000000000000000000000000000BA
:1010360000000000000000000000000000000000AA
:10104600000000000000000000000000000000009A
:10105600000000000000000000000000000000008A
:10106600000000000000000000000000000000007A
:10107600000000000000000000000000000000006A
:1010860000C0C0C0C0C0C0C0C0C0C0C0C0C0C0C01A
:10109600C0C0C0C0C0C0C0C0C0C0C0C0C0C0C0C04A
:1010A600C0C0C0C0C0C0C0C0C0C0C0C0C0C0C0C03A
:1010B600C0C0C0C0C0C0C0C0C0C0C0C0C0C0C0C02A
:1010C600C0C0C0C0C0C0C0C0C0C0C0C0C0C0C0C01A
:1010D600C0C0C0C0C0C0C0C0C0C0C0C0C0C0C000CA
:1010E6000000000000FFFF000000C0C0404040407C
:1010F60040404040404040404040404040404040EA
:1011060040404040404040404040404040404040D9
:1011160040404040404040404040404040404040C9
:101126004040406060606060606060E0E0E0E0E099
:10113600E0E0E06060E0C0C0C0C080800000000069
:1011460000FFFF000000000000FFFF000000FFFF9F
:101156000000000000000080808080000000000089
:101166000000000000000000000000000000000079
:101176000000000000000000000000000000000069
:101186000000000000000000000000000000000059
:10119600000000000000000000FFFFFFFFFFFFFF50
:1011A600FFFC000000FFFF000000000000FFFF0042
:1011B6000000FFFF00000000003F7161C1C16177C0
:1011C6003E000000000000000000000000000000DB
:1011D6000000000000000000000000000000000009
:1011E60000000000000000000000000000000000F9
:1011F60018181818181818181818000000FFFFFFFC
:10120600FFFFFFFFFFFF000000FFFF0000000000E0
:1012160000FFFF000000FFFF0000000000000000CC
:1012260000000000000000000000000000000000B8
:1012360000000000000000000000000000000000A8
:101246000000000000000000000000000000000098
:101256000000000000000000000000000000000088
:1012660000FFFFFFFFFFFFFF7F3F000000FFFF00C3
:101276000000000000FFFF0000000303020202025C
:101286000202020202020202020202020202020238
:101296000202020202020202020202020202020228
:1012A6000202020202020202020202020202020218
:1012B60002020202020202060606060606060E0ED4
:1012C6000E0E0E0E0E0F0F0F07030100000000009A
:1012D60000FFFF00000000000007070606060606DE
:1012E6000606060606060606060606060606060698
:1012F6000606060606060606060606060606060688
:101306000606060606060606060606060606060677
:101316000606060606060606060606060606060667
:101326000606060606060606060606060606060657
:10133600060606060607070000000000000000007B
:101346000000000000000000000000000000000097
:101356000000000000000000000000000000000087
:101366000000000000000000000000000000000077
:101376000000000000000000000000000000000067
:101386000000000000000000000000000000000057
:101396000000000000000000000000000000808047
:1013A60080808080808080808080800000000000B7
:1013B6000000000000000000FFFFFFFFFF0000002C
:1013C6000000000000000000000000000000000017
:1013D6000000000000000000000000000000000007
:1013E60000000000000000000000000000000000F7
:1013F60000000000000000000000000000000000E7
:1014060000000000000000000000000000000000D6
:1014160000000000000000000000000000000000C6
:1014260000000000000000000000000000000000B6
:1014360000000000000000000000000000000000A6
:101446000000000000000000000000000000000096
:1014560000000000000000000000000000007F7F88
:101466007F7F7F7F7F7F7F7F7F7F7FFFFFFFFFFF06
:10147600FEFEFEFCFCF8F8F8FFFFFFFFFF00000091
:101486000000000000000000000000000000000056
:1014960000000000000000000000000000C0C0C006
:1014A6000000000000000000000000000000000036
:1014B6000000000000000000000000000000000026
:1014C600000000000000000000000000C0C0C000D6
:1014D6000000000000000000000000000000000006
:1014E60000000000C0C0C0000000000000000000B6
:1014F6000000000000000000000000C0C0C00000A6
:1015060000000000000000000000000000000000D5
:101516000000000000000000000000000000F0F0E5
:10152600F0F0F0F0F0F0F0F0F0E0E0E0E0E0E0E025
:10153600C1C181838307071FFFFFFFFFFFFFFFFF77
:10154600FFFFFFFFFFFFFFFFFFFFFF0000000000A0
:101556000000000000E0E0E0E0E0E0E0E0FFFFFF88
:10156600E0E0E0E0E0E0E0E000000000FFFFFF0771
:10157600C7C7C7C7C7C7C7C7C7C7C7C707FFFFFF0D
:101586000000003C3C3C3C3C3C3C3C3CFFFFFF3C00
:101596003C3C3C3C3C3C3C3C000000F0F0F0F0F0B5
:1015A600F0F0F0F0FFFFFFF0F0F0F0F0F0F0F0F008
:1015B60000000000F8F87878787878FFFFFF7878F0
:1015C6007878F8F8F8000000000000FFFFFF1F1F02
:1015D6001FDFDFDF1F1F1FDFDFDF1FFFFFFF0F0F15
:1015E6000F0F0F0F0F0F0F0F0F1F1F1F1F1F1F3F75
:1015F6003F3F3F7F7FFFFFFEFFFFFFFFFFE0E0E093
:10160600E0E0E0E0E0E0E0E0E0E0E0000000000034
:101616000000000000FFFFFF0303030303FFFFFFBB
:101626000303030303FFFFFF00000000FFFFFF00AB
:1016360003E3E3E3E3FFFFFFE3E3E3E300FFFFFF8F
:1016460000000000FEFEFE1E1E1EFEFEFF1F1FFE09
:10165600FEFE1E1EFEFEFE00000000000000000052
:101666000000FFFFFFFFE0E0E0E0E0E0E000000058
:1016760000000000FFFF7878787878FFFFFF787821
:101686007878FFFFFF000000000000FFFFFF0E1E3E
:10169600FEFFFF1F0C3CFCFFFF0700FFFFFFFEFEE7
:1016A600FEFEFEFEFEFCFCFCFCFCFCFCFCFCF8F872
:1016B600F8F8F0F0E0E0C0C3FFFFFFFFFF1F1F1FB9
:1016C6001F1F1F1F1F1F1F1F1F1F1F0000000000BF
:1016D60000000000001F1F1F1F1F1F1F1FFFFFFF0F
:1016E6001F1F1F1F1F1F1F1F00000000FFFFFFC03F
:1016F600C0C1C1C1C1FFFFFFC1F9F9F9C0FFFFFFBA
:1017060000000000FFFFFF00CFCFCFCFFFFFFFFF9E
:10171600CFCFCF00FFFFFF00000000000000000059
:10172600C0F8FFFF0F0101010101FFFFFF000000EC
:10173600000000007F7F7878787878FFFFFF787860
:1017460078787F7F7F000000000000FFFFFFF0F841
:10175600FF3F3F3FF8F8FF3F7FFEF0FFFFFF01012D
:10176600010101010101010101030303030307074D
:1017760007070F0F1F1F3F7FFFFFFFFFFFF8F8F858
:10178600F8F8F8F8F8F8F8F8F8F8F80000000000AB
:1017960000000000000000000000000000FFFFFF46
:1017A600000000000000000000000000FFFFFFF145
:1017B600F1F1F1F1F1F1F1F1F1F1F1F1F1FFFFFFE9
:1017C60000000000FFFFFF0003030303FFFFFF030A
:1017D6000303F3F0FFFF7F0000000000F8F8FC3F72
:1017E6001F0F03000000707070707F7F7F00000085
:1017F6000000000000000000000000FFFFFFE0E026
:10180600E0E0E0E0FCFCFC00000000FFFFFF000061
:10181600000000000707070000F0F0FFFFFF0000D0
:1018260000000000000000000000000000000000B2
:101836000000000000000000FFFFFFFFFF07070792
:101846000707070707070707070707000000000045
:1018560000000000000080C0C080000080010181FF
:101866000000800080800000800000008080000072
:1018760000000000C0C0C000000080C0C0800000A2
:10188600C00000C0C000C0C0C0C000808000008092
:101896000000C1C1C1C00000C0C0C08000008000FF
:1018A60000008000000080C0C0C080000080C0C072
:1018B6008000C0000000000000C000C1C1C1C1011D
:1018C60001C1C1C181010100000080C0C0800000CB
:1018D60080C0C0C08000808000C0C0C0C080000042
:1018E60000000000000000000000000000000000F2
:1018F6000000000000000000FFFFFFFFFFFFFFFFEA
:10190600FFFFFFFFFFFFFFFFFFFFFF0000000000DC
:1019160000000000003FFFC0C0610000FF0404FF9C
:101926000000FF00FF0F0E78FF00E07E67677CE097
:1019360000000063C7CCFD71003FE1C0C07F1E0000
:101946007FC0C0FF3F0000FFFF0000FFFF0C0CFF41
:101956000000FFCCCCCC007FFF181CFFC000FF07A7
:101966001CF8FF000000FFFF180F07003EF3E1E13F
:10197600F33F07FEF80707FCFE0300FFCCCCCC00C4
:1019860000FF181CFFC00000003FFFC0C8F9300070
:0E199600FF0C0C3CE700FFFF00FFC0C0F37F1A
:030000000234C106
:0C34C100787FE4F6D8FD7581070235081D
:06466B00900001021AB3E9
:10255E00EFD394057480948040037F0122121A9A5F
:10256E00FED394037480948040037F0222EF703870
:10257E00EE700812466BF452935294121A9A64013A
:10258E00700812466B4293F45294121A9AFE640229
:10259E00700712466B42934294EE6403700A124621
:1025AE006BFEF45293EE4294EF6401703A121A9A53
:1025BE00FE700812466BF452915292EE640170084E
:1025CE0012466B4291F45292121A9A6402700712DA
:1025DE00466B42914292121A9A6403700A12466B2B
:1025EE00FEF45291EE4292EF6402703A121A9AFE83
:1025FE00700812466BF452955296EE6401700812F2
:10260E00466B4295F45296121A9A6402700712465D
:10261E006B42954296121A9A6403700A12466BFE2A
:10262E00F45295EE4296EF6403703A121A9AFE70C7
:10263E000812466BF452B152B2EE640170081246A3
:10264E006B42B1F452B2121A9A6402700712466BC0
:10265E0042B142B2121A9A6403700A12466BFEF429
:10266E0052B1EE42B2EF6404703A121A9AFE70083A
:10267E0012466BF452B352B4EE6401700812466BFC
:10268E0042B3F452B4121A9A6402700712466B42A5
:10269E00B342B4121A9A6403700A12466BFEF452D5
:1026AE00B3EE42B4EF6405703D121A9AFF7E0070CD
:1026BE000812466BF452C952CAEF64014E700812EA
:1026CE00466B42C9F452CA121A9A64027007124635
:1026DE006B42C942CA121A9A6403700A12466BFF01
:0926EE00F452C9EF42CA7F002238
:103F7000E4FEFDFC900EFDE0F8A3E0F9A3E0FAA357
:103F8000E0FBC3021C37E0FBA3E475F001021BE970
:103F9000EEF0A3EFF0A3EBF0A3EAF0A3E9F02275B3
:063FA000C65A75C6A522F9
:103A8100900EFD121C480000000B7F1E123F70407B
:103A91000475C780227F18123F70400475C78122C8
:103AA100E47F14123F71400475C78222E47F0C1237
:103AB1003F71400475C78322E47F06123F714004C1
:103AC10075C78422E47F03123F71400475C78522C4
:0F3AD100E47F02123F71400475C7862275C787D4
:013AE00022C3
:0D462300E4F5C7F5C5F5C675C380F5C422E2
:0540D700900EF7EFF070
:1040DC00E4FF123A8175C501900EF7E0F5C4E0FFDC
:1040EC007808A2E713D8FBF5C3123F9FAFC2E5C710
:0940FC0030E40653C7EF7F3322C4
:014105002297
:1043D700900EFAEEF0A3EFF0A3EDF0123A8175C557
:1043E70002900EFAA3E0FFF5C475C300A3E0F5C27F
:0643F700123F9F02462365
:1043FD00900EF4EEF0A3EFF0123A8175C503900E16
:10440D00F4A3E0FFF5C475C300123F9F1246237F4E
:06441D00047E00020026EF
:1041E900900EF4123F90900EF9E0FF14F0EF601B6F
:1041F900900EF4123F89AFF0FE900EF6123F86A999
:0C420900F0FA121A9AFD1243D780DB2253
:10426D00900EF1123F90900EF6E0FF14F0EF601AF1
:10427D00900EF1123F89AFF01240D7900EF3123F1E
:0B428D0086A9F0FAEF121B0280DC2271
:04295F00410F7C03A5
:10343300A2A6E43325E0FFA2A4E4334FFFA2A3E452
:103443003325E025E04FFFA2A5E43333333354F8AB
:103453004FFFA2A2E433C454F04F900EF3F0900F49
:103463007CE0601814604314602D14704E900EF3CA
:10347300E0641F6046E4900F7CF0803F7F0A7E008B
:10348300120026900EF3E0FF641F602F900F7BEF76
:10349300F0A37402F08024900EF3E0641F701C907C
:1034A3000F7C04F0900F7BE0FF22900F7B741FF0E2
:0D34B300A37403F07F0A7E001200267F1F25
:0134C00022E9
:1038CD00900EFEE02EFD123FB2900F02E0FBA3E042
:1038DD00FAA3E022900EFDF9E0F582758300021A3D
:1038ED00B32FF9EA3EFA900F02EBF0A3EAF0A3E949
:1038FD00F0900EF5E0FFA3E0FD900F0122F9900F7F
:10390D000BE0FF7E00E92FF9EE3AFA900F0AE02264
:10391D0034FFFE900F00E0FD7C00021B36FA121AF8
:10392D009AFF900F06E0FE22EEC3940874809480F7
:01393D002267
:10421500C2B4C2B6E4FE123935501EC2B3EF30E760
:1042250004D2B28002C2B2D2B37D017801EF088018
:0B42350002C333D8FCFF0E80DDD2B4C2
:01424000225B
:10424100C2B4D2B6E4FE123935501EC2B3EF30E724
:1042510004D2B28002C2B2D2B37D017801EF0880EC
:0B42610002C333D8FCFF0E80DDD2B496
:01426C00222F
:10442300E4FCEC123936501DEC24B0FF124215E4C3
:10443300FBEBC394C0E494005008E4FF1242410B29
:0544430080EF0C80DD9C
:014448002251
:0C3FA600FF900F0BE0FE900EFEE02EFDE1
:103FB200AE07AC05EEC3940274809480EE500424E4
:103FC200B6800224AEFF124215ECC4540F2410FF37
:0A3FD200124215EC540FFF024215D5
:103A1700C2B57F647E00120026D2B57F327E0012C7
:103A270000267FE21242157F327E001200267F2F8A
:103A3700123A767FA0123A5F7F81123A5F7FEB12CC
:103A47003A767FC41242157F147E001200267FAF9C
:103A5700124215C2B70244231242157F147E001288
:103A670000267F701242157F147E00120026221254
:0A3A770042157F147E001200262283
:103B4000EF14602B04704E900F737418F0900F7583
:103B50007410F0900F74740CF0900F7874FFF0A351
:103B60007401F0A37428F0900F77740CF080299002
:103B70000F737405F0900F757408F0900F7474054E
:103B8000F0900F777407F0A374FFF0A37408F0A30C
:0B3B90007400F080037F00227F012200
:083D9E00900EFEEEF0A3EFF021
:103DA600E4FDFCED25E0FFEC33FE74962FF58274FE
:103DB600003EF583E493FAED25E0FFEC33FE7497BD
:103DC6002FF58274003EF583E493FFEAFE900EFE23
:103DD600E06E7003A3E06F600B0DBD00010CED6497
:083DE600644C70BFAE04AF0590
:013DEE0022B2
:102AFF00900EF5EFF0A3EDF0A3EBF0A3EAF0A3E94E
:012B0F00F0D5
:102B1000A3E0FF123B40E4900EFDF0900EF7123858
:102B2000D91238E1FF7E00C3948074809480502CC9
:102B3000EF24E0FFEE34FFFE900EFBF0A3EFF07CFD
:102B4000007D05121B36900F781238D91238EE74BA
:102B500008F07B05122BB104F0022BA2900EF712A5
:102B600038D91238E1FE900EFDE0FD7C00E92DF928
:102B7000EC3AFA900001121AB3FDEDFF123D9E905F
:102B80000EFBEEF0A3EFF07C007D18121B36900FC9
:102B9000781238D91238EE7410F07B0C122BB12455
:102BA00002F0900EF71238D91238E16003022B1BA5
:102BB00022122075900F77E0FF900EF5E02FF09035
:042BC0000EFDE02204
:0C207500900EFEEFF0900F00EBF0AA05BB
:10208100A3E0FF54076008EF54F82408FF8005908F
:102091000F01E0FF900F01EFF0E0FDFFEA2FFFE4F9
:1020A10033FEEF7803CEC313CE13D8F9900F07F0A8
:1020B100FCED2A5407A3F0EA131313541FFF900FEA
:1020C10005F0EA5407A3F0C3EC9F04900F09F0E474
:1020D100A3F0900F09E0FFA3E0C39F400302221F7A
:1020E100900F05E0FF900F07E09F50030221D9E414
:1020F100900F0BF0900F00E0FF900F0BE0FEC39FDD
:102101004003022216900F0AE0701D900F05E0FFB8
:102111001238CD900F0B1238E412392EF8EF0880E7
:1021210002C333D8FC0221CC900F09E014FFA3E0D5
:102131006F703F900F07E0123FA6900F0AE024FF57
:10214100FFE412391D1238D62FF9EA3EFA900F0B2F
:10215100E07E0029F9EE3AFA121A9AFF900F08E090
:10216100FEC374089EFEF8EF088002C313D8FC0278
:1021710021CC1238D612390A24FFFFEE12391DE99B
:102181002FF9EA3E12392AC374089EFEF8EF08803F
:1021910002C313D8FC900F0CF01238D612390AFF83
:1021A100900F00E08FF0A429F9EA35F012392AF8EE
:1021B100EF088002C333D8FCFB900F0AE0FF900FB9
:1021C10005E02F123FA6900F0CE04BFF1242419009
:1021D1000F0BE004F00220F5900F05E0FF900F0BCC
:1021E100E0FE1238CDF9900F0B1238E5FF900F0881
:1021F100E004FEF87401088002C333D8FC14FE9099
:102201000F06E0FDF87401088002C333D8FC146E98
:0E2211005FFF124241900F0AE004F00220D35A
:01221F00229C
:1034CD0002463CE493A3F8E493A34003F68001F293
:1034DD0008DFF48029E493A3F85407240CC8C33300
:1034ED00C4540F4420C8834004F456800146F6DFCF
:1034FD00E4800B0102040810204080902832E47E05
:10350D00019360BCA3FF543F30E509541FFEE493C3
:10351D00A360010ECF54C025E060A840B8E493A38A
:10352D00FAE493A3F8E493A3C8C582C8CAC583CAB5
:10353D00F0A3C8C582C8CAC583CADFE9DEE780BE6D
:012963000073
:1019A400E709F608DFFA8046E709F208DFFA803E25
:1019B40088828C83E709F0A3DFFA8032E309F60812
:1019C400DFFA8078E309F208DFFA807088828C837A
:1019D400E309F0A3DFFA806489828A83E0A3F6082E
:1019E400DFFA805889828A83E0A3F208DFFA804C08
:1019F40080D280FA80C680D4806980F280338010DF
:101A040080A680EA809A80A880DA80E280CA803347
:101A140089828A83ECFAE493A3C8C582C8CCC583BF
:101A2400CCF0A3C8C582C8CCC583CCDFE9DEE7808F
:101A34000D89828A83E493A3F608DFF9ECFAA9F00E
:101A4400EDFB2289828A83ECFAE0A3C8C582C8CC64
:101A5400C583CCF0A3C8C582C8CCC583CCDFEADE7D
:101A6400E880DB89828A83E493A3F208DFF980CCDF
:101A740088F0EF60010E4E60C388F0ED2402B404D8
:101A84000050B9F582EB2402B4040050AF2323457F
:061A940082239019F47397
:101A9A00BB010689828A83E0225002E722BBFE024A
:091AAA00E32289828A83E493227D
:101AB300BB010CE58229F582E5833AF583E02250E8
:101AC30006E92582F8E622BBFE06E92582F8E22232
:0D1AD300E58229F582E5833AF583E493224C
:101AE000BB010989828A83F8E028F022500327F796
:101AF00022BBFE05F8E328F3228A838982F8E49367
:021B0000282299
:101B0200BB010689828A83F0225002F722BBFE01C2
:021B1200F322BC
:101B1400F8BB010DE58229F582E5833AF583E8F007
:101B2400225006E92582C8F622BBFE05E92582C8B3
:021B3400F2229B
:101B3600EF8DF0A4A8F0CF8CF0A428CE8DF0A42EC3
:021B4600FE227D
:101B4800BC000BBE0029EF8DF084FFADF022E4CC81
:101B5800F875F008EF2FFFEE33FEEC33FCEE9DEC4A
:101B6800984005FCEE9DFE0FD5F0E9E4CEFD22ED90
:101B7800F8F5F0EE8420D21CFEADF075F008EF2FDA
:101B8800FFED33FD4007985006D5F0F222C398FDCB
:051B98000FD5F0EA2268
:101B9D00C2D5EC30E709B2D5E4C39DFDE49CFCEE63
:101BAD0030E715B2D5E4C39FFFE49EFE121B48C378
:101BBD00E49DFDE49CFC8003121B4830D507C3E473
:061BCD009FFFE49EFE22D2
:101BD300C5F0F8A3E028F0C5F0F8E582158270029D
:061BE3001583E038F0223A
:101BE900A3F8E0C5F025F0F0E582158270021583AF
:061BF900E0C838F0E8220C
:101BFF00BB0110E58229F582E5833AF583E0F5F024
:101C0F00A3E0225009E92582F886F008E622BBFE00
:101C1F000AE92582F8E2F5F008E222E5832AF58346
:081C2F00E993F5F0A3E993220B
:101C3700EB9FF5F0EA9E42F0E99D42F0E89C45F003
:011C4700227A
:101C4800A8828583F0D083D082121C5F121C5F1299
:101C58001C5F121C5FE473E493A3C583C5F0C583BE
:101C6800C8C582C8F0A3C583C5F0C583C8C582C8E6
:011C78002249
:101C7900BB010DE58229F582E5833AF583021CE46F
:101C89005007E92582F8021CDBBBFE07E92582F82B
:101C9900021CEDE58229F582E5833AF583021CF6FB
:061CA9008A838982E473C6
:1035D600900F10EBF0A3EAF0A3E9F0900F13E0FBD5
:1035E600A3E0FAA3E0F9121A9AFE900F10E0FBA3EB
:1035F600E0FAA3E0F9121A9AFF6E702AEF600E90B5
:103606000F1674FFF5F0121BD345F070037F0022EE
:10361600900F11E475F001121BD3900F14E475F0AE
:1036260001121BD380B5900F10E0FBA3E0FAA3E0D4
:10363600F9121A9AFDD3EE6480F8ED64809840037F
:103646007F0122900F13E0FBA3E0FAA3E0F9121A20
:073656009AFFC3ED9FFF2264
:10459E00E4FFFE121A9A600C0FEF70010E09E9701B
:0545AE00F20A80EF227B
:101CAF00EF4E6012EF60010EEDBB010B89828A834C
:101CBF00F0A3DFFCDEFA2289F05007F709DFFCA959
:0C1CCF00F022BBFEFCF309DFFCA9F022B0
:091CDB00E6FB08E6FA08E6F9222E
:091CE400E0FBA3E0FAA3E0F92201
:091CED00E2FB08E2FA08E2F92228
:0C1CF600E493FB740193FA740293F9224A
:00000001FF
