:10617D00706172616D657465727320617265206303
:10618D006F7272656374202100706172616D657448
:10619D00657273206572726F72202100726573745F
:1061AD006F726520706172616D65746572732E2EEC
:1061BD002E00FFFFFFFF0808020801010000010289
:1061CD0000F116007375636365737366756C6C7996
:0361DD002021007E
:10214400541BDB000000FFFFFFFF08080208010129
:072154000000010200F1167A
:106C1000A3F07B017A1B7973227E087F527D007B73
:106C2000010240C27BFF901B7E7401F07D1F227B1E
:096C3000017A1B79DE7411F022D7
:106F3300125BE075C127125D5112592943C11080BC
:016F4300F558
:105BE000125F0DE4F58E7E087F52FD7B017A00790D
:105BF000001240C27A087952126C197A1079A412F4
:105C00006C197E017F077D007B017A1879F61240BE
:105C1000C2125EA3125C5B126C39901BFCE054FE56
:105C2000F0126D6A126DCF126E2A126E48C2A71260
:105C30006C61D2AF126F9F901BE8E0700C1268216C
:105C4000901BE87401F00267E9E4FF126F817FE8BE
:0B5C50007E03126E667F01126F81223E
:105F0D00E4901B73F07405126C10E4FF124AC790F5
:105F1D001B737403F0740A126C10E4FF125F69FFB7
:105F2D00125F5BA37432126C117F01124AC7901B72
:105F3D00737401F0A3747C126C117F02125F697F80
:0E5F4D0003125F5BA314126C117F03024AC79C
:105F5B007A1B7973124AC7901B737403F022124A8F
:0B5F6B00C7E4901B73F0A304F0FB22BE
:106A2A00E4FFFE901B78126C2FE4126B677B017AED
:106A3A001B79DE74FF901B7AF0A3F07D0F1257FCCE
:0F6A4A00901BEDE0B50607A3E0B50702D322C30A
:016A5900221A
:105C5B00126A2A7BFF50127A61797D126C267F0EB5
:105C6B001254A47FE87E03805E7A617996126C26CB
:105C7B007F131254A47FF47E01126E667A6179A9A8
:105C8B00126C247F131254A4E4FFFE126CD478DE42
:105C9B007C1B7D017BFF7A6179BF7E007F11123DFA
:105CAB00A3901B7B126C2FE4FFFE126AE37FE87E4E
:105CBB0003126E66126CFA7A6179D1126C247F3101
:0B5CCB001254A47FF47E01126E6622CA
:10508D0020323430302000203438303020002039A8
:10509D003630302000313434303020003139323068
:1050AD003020003338343030200035363030302069
:1050BD00003537363030200031313532303000395F
:1050CD00323136303000B4F2BFAA00B9D8B1D500B4
:1050DD00D6F7BBFA00B4D3BBFA0045746865726E9F
:1050ED00657400574946492F3447005253343835BB
:1050FD00004F74686572005050495F7000C7EBCA6D
:10510D00E4C8EBC3DCC2EB00C7EBCAE4C8EBD0C20A
:10511D00C3DCC2EB00C7EBC8B7C8CFD0C2C3DCC27B
:10512D00EB0053544F500052554E00B9D8B1D5CE67
:10513D00DECFDFC4A3BFE900B4F2BFAACEDECFDF5E
:10514D00C4A3BFE900D2D4CCABCDF800CEDECFDF07
:10515D00CDF800C0A9D5B9CDF800C4DAB2BFCDF8ED
:10516D0000CAC7B7F1BBD6B8B4B3F6B3A7C9E8D672
:10517D00C300CAC700B7F100C8C8B5E3004150204D
:10518D00494400504C4332365F415000C4A3CABD60
:10519D00004D61737465722D4F626A65637400C052
:0A51AD00A9D5B9CDF8D0ADD2E900C4
:10215B00603C1B0700F504FF508D01FA82FF509481
:10216B0002FD41FF509B03FE2CFF50A204FEA1FF7A
:10217B0050A905FF51FF50B006FF88FF50B707FF6E
:10218B008BFF50BE08FFC6FF50C509FFF9FF50CCAF
:10219B00411B430A4C1B67FF50D3FF6ED1FF50D836
:1021AB00FF6EEA411ADE024C1B44FF50DDFF6F65E8
:1021BB00FF50E2FF6F96411B6502491B5CFF50E726
:1021CB00FF50F0FF50F8411AC9034C1B50FF50FE53
:0D21DB00FF6FB1FF5104FF6FB8411B66029A
:10561700901B857408F07A0B79C07BFFA312405169
:105627007B0522E075F006A4240AF582E4341BF515
:1056370083124031901B7E7401F0227BFFE4901BA4
:105647007EF0227BFFE4901B7EF022E075F006A43B
:105657002408F582E4341BF583E0FEA3E022901BC7
:10566700857408F07BFF7A0B79BB227BFFE4901BE4
:105677007EF0227BFFE4901B7EF0227BFFE4901BF1
:105687007EF022F583124031E4901B7EF07D0A22E2
:10569700901B76124031E92403F9E43AFA22740C9C
:1056A700901B85F07BFF227BFFE4901B7EF022900E
:0856B7001B76124031023DC9CF
:106C6100E4901BDDF0126A89126F8D120003901BF4
:106C7100EAE0901AEEF0901BECE0901AF0F070034D
:076C8100026FB1126FB8228F
:08000300901BE7E0FF026F8192
:096F8D00901BE6E024FF9287222C
:106A8900901BE2125652F58BEEF58D901BE31256D0
:106A990052F5D7EEF5D6901BE4125652F5D5EEF520
:0D6AA900D4901BE5125652F5D3EEF5D22223
:105F7600901B76124051125697C003C002C0011200
:105F860056B67C00D001D002D00329F9EC3AFA12B9
:105F96003DC9F47003123E64EF6401700304800C83
:105FA600123DC97005740A123E6474FF123E0F1248
:105FB6003DC975F00A84E5F0123E64125697C00397
:105FC600C002C0011256B67E00D001D002D003290D
:095FD600F9EE3AFA123DC9FF226E
:106D20007B017A1B798D901BA1124051901BA4E42A
:106D3000F0A37404F07A1B7979125B59EF70037F2A
:056D400001227F00228A
:10002600901B761240517E007F047DFF12569D1272
:0C00360040C2901B76124031E4023E6490
:106F03007401123E0F123DC9FF64047005901BDC2F
:086F130004F0EF5403023E6498
:106F1B00126CFA74401256A77A157944A312405199
:086F2B007BC0E4FDFF02477D7D
:106B9200126CFA901B857432F07BFF7A0C79CDA3CC
:106BA2001240517B517D08E4FF12477D7A51790AE8
:0A6BB2001256427D0F7F640254A4C6
:105AD200126CFA901BDDE06062E4901B76F0901B82
:105AE20076E0FFC3940474809480503B74E22FF5F7
:105AF20082E4341AF583E0FF7E007B017A1B79771A
:105B0200901B7EE4F0A3740AF0124C60901B76E0C6
:105B120075F014A42464FF12563B7D121254A49013
:105B22001B76E004F080B71256A57A0B799BA3127C
:105B320040517B107D107FAF12477D7A517915124B
:105B420056427D0F7F0F1254A47A51792212564A7F
:075B52007D237F0F0254A424
:10651500126CFA7BFF7A51792F12563B7D187F0F4B
:106525001254A47BFF7A51793412563B7D187F961D
:106535001254A4901BE6E0901B85700B7438F07B19
:10654500FF7A0F790480097438F07BFF7A12792479
:0E655500A31240517B64E4FD7F2D12477D228E
:10673700126CFA901BE7E075F01EA4240BFD1256AD
:10674700A57A0B797BA31240517B107F0A12477DF4
:106757007A51793812564A7D0A7F1E1254A47A510B
:0C67670079451256727D287F1E0254A452
:10677300126CFA7A5179521256727D1D7F0A1254A5
:10678300A4901BE212562A7D1F7F691254A412564D
:10679300177D1F7F9512477D901B857408F07A0B38
:0C67A30079BB1256217D1F7F6102477DEB
:1068C400126CFA7A51795912567A7D1D7F0A125444
:1068D400A4901BE312562A7D1F7F691254A41256FA
:1068E400177D1F7F9512477D1256651256237D1F13
:0568F4007F6102477DF9
:1068F900126CFA7A51796012567A7D1D7F0A125408
:10690900A4901BE412562A7D1F7F691254A41256C3
:10691900177D1F7F9512477D1256651256237D1FDD
:056929007F6102477DC3
:10692E00126CFA7A5179671256827D1D7F0A1254C3
:10693E00A4901BE512562A7D1F7F691254A412568D
:10694E00177D1F7F9512477D1256651256237D1FA8
:05695E007F6102477D8E
:106AB600126CFA7A51796E1256827D147F30125416
:106AC600A47A51797F1256AE7D307F0A1254A47A89
:0D6AD6005179821256AE7D307FAC0254A47F
:10630000126CFA7BFF7A51798512568F7F0A1254EC
:10631000A4901BE9E075F006A42467F582E4341B21
:1063200012568A7F731254A41256177D0D7F951250
:10633000477D1256651256237D0D7F6112477D7B86
:10634000FF7A51798A12563B7D2B7F0A1254A47B27
:0F635000FF7A51799012563B7D2B7F610254A446
:1060B100126CFA7BFF7A51799912568F7F0A12542A
:1060C100A4901AEEE075F006A42444F582E4341B92
:1060D10012568A7F731254A41256177D0D7F9512A2
:1060E100477D1256651256237D0D7F6112477D7BD8
:1060F100FF7A51799E12563B7D737F051254A4900D
:106101001BEBE075F003A4245CF582E4341B12560A
:08611100367D737F780254A46F
:10004600126CFA7BFF7A5179ACE4901B7EF07D1D31
:100056007F051254A4901AF0E075F006A42450F51A
:1000660082E4341B1256367D1F7F691254A4125641
:10007600177D1F7F9512477D1256651256237D1FE9
:050086007F6102477DCF
:096F9600D29C439A1043AC102276
:0F6F6500901BEB7402F0C29C539AEF53ACEF22D7
:076FB10053AC7F53847F22E3
:076FB80043AC8043848022FA
:1067E9007B017A1B79DE74FF901B7AF0A3F07D0F91
:1067F9001257FC901BEDEEF0A3EFF0C2AFE4FFFEE1
:10680900126CD47B017A1B79DE901B7B7411F0E446
:08681900FFFE126AE3D2AF2278
:106DEE000305FF4DF10105FF4DF10405FF4DF105C2
:0E6DFE0003FF4DF10501FF4DF10504FF4DF1BE
:1021E80078F6000000000000000000000000000079
:1021F80000000000000000000000000000000000D7
:1022080000000000000000000000000000000000C6
:1022180000000000000000000000000000000000B6
:1022280000000000000000000000000000000000A6
:103AD80000000000000000000000610718F6000068
:103AE80000000000000000000000000000000000CE
:103AF80000000000000000000000000000000000BE
:103B080000000000000000000000000000000000AD
:103B1800000000000000000000000000000000009D
:103B2800000000000000000000000000000000008D
:103B3800000000000000000000000000000000007D
:103B4800000000000000000000000000000000006D
:103B5800000000000000000000000000000000005D
:103B6800000000000000000000000000000000004D
:103B7800000000000000000000000000000000003D
:103B8800000000000000000000000000000000002D
:103B9800000000000000000000000000000000001D
:103BA800000000000000000000000000000000000D
:103BB80000000000000000000000000000000000FD
:103BC80000000000000000000000000000000000ED
:103BD80000000000000000000000000000000000DD
:053BE8000000000000D8
:10699700901B76124031900851123DE275F085A4A4
:1069A70029F9EA35F0FA22901B7602403112405A53
:1069B70089828A830240C0E92483F9E43AFA023FD4
:0169C700616E
:10592900E4901B73F0901BEAE06401705B901BEC40
:10593900E060077D057F04024DF1E4901B73F09050
:105949001B73E0FEC39403E494005062E0FD75F01C
:1059590005A424EEF582E4346DF583E493FFED7537
:10596900F005A424EFF582E4346DF583E493FDEEAC
:1059790075F005A424F0F582E4346DF5831269B459
:10598900901B73E004F080B7901BEBE014600C14DB
:10599900600E24027018906DFD8008906E028003DD
:0E59A900906E07E493FFA3E493FDA31269B48C
:0159B70022CD
:106BBC007B007A007900EE7020EF24FD600E1460EB
:106BCC0012240370147B017A007900227B017A086D
:096BDC007952227B017A1079A4A0
:016BE500228D
:106963007B007A007900EE702AEF24FD6011146039
:10697300151460192404701B7B017A1B79AF227BE9
:10698300017A1B79BA227B017A1B79C5227B017AB2
:036993001B79D09D
:0169960022DE
:10635F00901B82EFF09018F7E06F704FA3E0604B47
:10636F00E4F0901B82E06404700BD2A79019F975CA
:10637F00F001123F35C003C002C0017B017A1879CA
:10638F00F9901B861240519019F9E0A3E0901B89F8
:10639F00F0D001D002D003125E37E49019F9F0A3C8
:0C63AF00F0901B82E064047002C2A72280
:0A4DF100901B75EDF0901B74EFF0BD
:104DFB007E00126BBC901B76124051901B75E0FF2E
:104E0B00126BBC901B79124051901B74E0FF12691E
:104E1B0063901B7C124051901B75E0FF12696390ED
:104E2B001B7F1240511269AEE94A4B7003024F5D72
:104E3B00901B7C124031E94A4B7003024F5D901B73
:104E4B007F124031E94A4B7003024F5D901BEAE041
:104E5B007010901B75E0FDA312699A900001ED1282
:104E6B003E761269AEC003C002C0011269AE900853
:104E7B0051123DE275F085A4F58285F083D001D007
:104E8B0002D003123DE2FF901B74E06F6003024FF0
:104E9B004F126997900001123DE2FF901B75E06F76
:104EAB006003024F4FA312699A900002123DE22059
:104EBB00E003024F4F126997E92402F9E43AFA1220
:104ECB003DC954FE123E64901B75E064047020D201
:104EDB00A7A312699A1269BEFFAEF0EE54FEFCEF67
:104EEB002401FFE43E54014CFEEE8FF0123FC4123E
:104EFB006997E92403F9E43AFA901B8612405112A0
:104F0B006997900083123F8CFF901B89EFF0901BE9
:104F1B007F124031125E371269971269BEE5F05469
:104F2B00FE75F000123FC4901B75E064047002C262
:104F3B00A71269AE9008517401123E31540F9008BC
:104F4B0051123E76901B74E0FF901B7C1240311285
:024F5B00635F92
:014F5D002231
:0B57FC00901B76124051901B79EDF0DD
:10580700E4901B7CF0FDFC901B7AE0FFA3E0901B6B
:105817007DCFF0A3EFF0E4901B7CF0901B79E0FFC5
:10582700901B7CE0C39F505C901B76E475F00112DF
:10583700403A123DC9FF901B7DE0F0A3E06FF0E412
:10584700FCFD901B7DE0FEA3E0FF30E019EEC313E3
:10585700FEEF13FFEE64A0FEEF6401FF901B7DEEE9
:10586700F0A3EFF0800B901B7DE0C313F0A3E013D0
:10587700F00DBD00010CED64084C70C6901B7CE078
:0C58870004F08097901B7DE0FEA3E0FF82
:0158930022F2
:1052CD00C6F4CDA3BFAAB9D800CDA8D0C5B7BDCA65
:1052DD00BD00B9A4D7F7C4A3CABD00CDA8D0C5D011
:1052ED00ADD2E900C3DCC2EBD0DEB8C400B2A8CCAD
:1052FD00D8C2CAC9E8D6C300B1BEBBFAC8C8B5E3A7
:10530D0000BBD6B8B4B3F6B3A7C9E8D6C300D2D4A0
:10531D00CCABCDF800CEDECFDFCDF800C0A9D5B92E
:10532D00CDF800C4DAB2BFCDF800FFFFFFFF007764
:10533D00726F6E672070617373776F7264202100D6
:10534D00496E76616C69642070617373776F7264F6
:10535D00210043757272656E7420636F756E747380
:10536D0020697320312E0043757272656E7420634F
:10537D006F756E747320697320322E00D0DEB8C441
:10538D00B3C9B9A600D0DEB8C4CAA7B0DC00506C52
:10539D006561736520776169742061206D6F6D653E
:1053AD006E7400FFFFFFFF080802080101000001F5
:1053BD000200F116000000000000000000000000D7
:0153CD0000DF
:103BED004219FD0109603819FFFF52CD01FF65151E
:103BFD00FF52D603FF6737FF52DF04FF60B1FF525C
:103C0D00E805FF0046FF52F107FF5AD2FF52FA02B4
:103C1D00FF6FA8FF53050EFF6300FF530E08FF6AE9
:103C2D00B65C1AADFF531B0AFF6773FF53220BFFE0
:103C3D0068C4FF53290CFF68F9FF53300DFF692E3F
:103C4D00521A370000000001020119FF00000000A8
:103C5D000102011AAD60641A491E01FF67AF1B0115
:103C6D00FF66FA1701FF5CD61D01FF6E820F01FF83
:103C7D006C881E00FF64161B00FF646D1700FF6E3D
:103C8D000C1D00FF6F550F00FF00421E02FF51B7C4
:103C9D001B02FF4F5E1702FF41001D02FF66760FEC
:103CAD0002FF6E9D1E03FF61E01B03FF62401703C1
:0D3CBD00FF61191D03FF6F440F03FF00910D
:1043980078747C1B7D017BFF7E007F02123DA39019
:1043A8001B737A1B7974E0FF7E007B01901B7EE40F
:1043B800F0A3740AF022901ADFE075F014A42464C4
:1043C800FF901B7E7401F022901BE9EFF0901B67B1
:1043D80075F006124025024031788A7C1B7D017BEE
:1043E800017E007F14023DA3901BE2E0FD901B4379
:1043F800E0FB7A002278747C1B7D017BFF7E007FC6
:1044080002023DA3E024FE901A3AF0901A38E01414
:10441800901A3BF0901A38E022E024FE901A43F0FC
:10442800901A41E014901A44F0901A41E022E07585
:10443800F006901B08124025E0FEA3E022E075F08C
:1044480014A42406FD901B85740CF07A0B797B7BF1
:10445800FFA31240517B1022124031900003123DFD
:10446800E29019FEF09000040240667B017A1A7906
:10447800CA22E49019FDF07BFF22901A38E075F00B
:1044880007A424FFF9741935F0FA7B01901A3D222C
:10449800901A41E075F007A424ADF9741A35F0FAC2
:1044A8007B01901A4622E4901B7EF07D0A7F7322DE
:1044B800F583124031EF75F014A42405FDE4901B38
:1044C8007EF07F4622E014901A3AF0901A38E09075
:1044D8001A3BF00422E014901A43F0901A41E0903D
:1044E8001A44F00422901B73E0FF7E007B012290A7
:1044F80019FEE06406229019FD7401F0A37409F016
:104508007BFF227B017A1A79DF22901AF0E0FD9076
:104518001B66E0FB7A002278DE7C1B7D017E0002B0
:104528003DA3901AEEEFF075F006901B4422901A06
:10453800F0EFF075F006901B5022901ACAE075F063
:1045480014A4246122901BFD742EF0A374E0F022C1
:10455800901A38E0FD7B087A0022901A38E0901A09
:104568003AF004227B017A1A79F322901BDDE07B72
:104578000122901BE7E06401F07BFF22901A41E0E2
:10458800FD7B047A0022901A41E0901A43F004223D
:074598009019FEE024F5225A
:105D51001259B8901B74EFF01269C8901B74E0647B
:105D61001F6061E4901B73F0901B73E0FFC39414F8
:105D710074809480504EEF75F005A42449F582E4B7
:105D8100341AF583E0FF901B74E0B5072F901B7365
:105D9100E0FF75F005A4244AF582E4341AF583E0A6
:105DA100FE9019FDE0B50614EF75F005A4244BF53E
:105DB10082E4341AF5831240310240BC901B73E037
:045DC10004F080A4C6
:015DC50022BB
:096F9F007BFF7A6F791B02008E62
:03008E000240BC71
:105CD6001244F7707578767C1B7D01124473FE7F43
:105CE60014123DA37A1B79DB1243E1126D20EF708B
:105CF600217BFF7A537937901BA1124051901BA448
:105D0600E4F0A37404F07B017A1B79DE125B59EF91
:105D1600700F7BFF7A6579AA12008EE49019FDF068
:105D260022124473120026126CFA7BFF7A53793CD6
:105D36001243C97D1F7F311254A47FE87E03126E81
:0B5D4600667BFF7A6B799212008E22C0
:0567AF001244F77034F4
:1067B4001244737F01125F76901B73EFF078747C40
:1067C4001B7D017BFF7A5379C2124405901B737AB7
:1067D4001B79741243AE124C601245421243C87DB9
:0467E400261254A481
:0167E800228E
:106C88009019FEE024FA601724FD70199019FE741B
:106C980006F07BFF7A6B799212008E12454D221214
:066CA8004473126F032289
:106E82001244F770157BFF7A6F791B12008E9019EE
:0B6E9200FE7409F01244731200262267
:0566FA001244F77037A7
:1066FF001244737F02125F76901B73EFF078747CF5
:10670F001B7D017BFF7A5379C4124405901B7312D2
:10671F0044F07A1B79741243B4124C601245421242
:07672F0043C87D261254A4AB
:016736002240
:106E0C00901A3D12403112446DE94A4B600F9019B3
:0E6E1C00FD7402F0901A3D12446012008E22A6
:10641600901A39E0FF14F0EF7001F01245587F0131
:10642600126EB8901A38EFF064077004A37402F085
:10643600901A39E0FD7C00700A1245621244182455
:10644600028011ED64014C901A3870051244CD801B
:106456000312440C901A3CF07BFF7A6579AA12006D
:076466008E12448202405136
:01004200229B
:106F55001244FE7A6F791B12008E124473020026CA
:10646D00901A39E0FF04F0EF640270037402F01229
:10647D004558E4FF126EB8901A38EFF07002A3F091
:10648D00901A39E0FD7C00700A12456212441824FE
:10649D00028011ED64014C901A3870051244CD80C4
:1064AD000312440C901A3CF07BFF7A6579AA120016
:0764BD008E124482024051DF
:105FDF00901BDCE07055126CFA901BDDE07BFF7AB2
:105FEF0053794D901B7E70170412603D7A53795F81
:105FFF001243C97D207F051254A412450B801674DD
:10600F000112603D7A5379741243C97D207F0512C6
:10601F0054A412456C1200267FE87E03126E667B35
:10602F00FF7A5A79D212008E7F00227F0122F07DF3
:09603F00147F051254A47BFF221A
:104100009019FEE012409641F501423B02420C0339
:1041100042850442B90541230742EC08425B0E0088
:1041200000432C125FDFEF700302432C901BDDE095
:024130007059C4
:10413200901B73F0901B73E0FFC39404748094800F
:10414200502A74E22FF582E4341AF5831244F07A8D
:104152001B79741243B4124C60901B731243C17DDD
:10416200121254A4901B73E004F080C8901B857453
:104172000CF07A0B799B1244577D107FAF12477D6A
:06418200901BDD7401F04A
:104188000241EF78767C1B7D0112450B1243E97AD8
:104198001A79F31243E1126D20EF602A7B017A1A33
:1041A80079F67F0412451F1267E912450B120026A3
:1041B80012456C120026E49019FDF012436E7BFF45
:1041C8007A6579AA8019126CFA7BFF7A537992E49E
:1041D800901B7EF07F4612438B7BFF7A5A79D2126E
:1041E800008EE4901BDDF0E4901BDCF022901BE6CF
:1041F800E06401F024FF92871267E97BFF7A657912
:1042080015024329901BE7E07006FF126F818016A4
:104218007F01126F81126CFA7BFF7A53799B1243EC
:10422800C97F1E12438B12434E12447A7A6579AACB
:10423800024329901A4612403112446DE94A4B70E4
:104248000302432C9019FD7403F0901A461244603F
:10425800024329901BE9E0FF901B6A1243D8E94A00
:104268004B600D75F006EF901B6A1243DB1240BCE1
:1042780012434E12447A7A6579AA024329901AEEBB
:10428800E0FF75F006901B471243DBE94A4B600DCF
:1042980075F006EF901B471243DB1240BC901AEEF4
:1042A800E0901BEA12432D12447A7A6579AA0243F8
:1042B80029901AF0E0FF75F006901B531243DBE9D2
:1042C8004A4B600D75F006EF901B531243DB12400A
:1042D800BC901AF0E0901BEC12432D12447A7A65D8
:1042E80079AA803DC2AFE4FFFE126CD47BFF7A53FB
:1042F80079B07F1312451F7B017A1B79DE901B7BF7
:104308007413F0E4FFFE126AE3D2AF126A89126FE7
:104318008D12000312682112436E12447A7A65796D
:10432800AA12008E22F01267E9126CFA7BFF7A5308
:104338007989E4901B7EF07D167F461254A47FF4A1
:104348007E01126E66221267E9126CFA7BFF7A53BD
:104358007989E4901B7EF07D167F461254A47FF481
:104368007E01126E6622126CFA7BFF7A537989E419
:10437800901B7EF07D167F461254A47FF47E0112B6
:104388006E66227D161254A47FF47E01126E662298
:106E9D009019FEE024F9701212457370067A1A7972
:0B6EAD00DF80047A1A79F3126F0322D1
:106676009019FEE024FC601E14602524FE70291289
:10668600450B12002612456C120026E4901BDDF025
:10669600901BDCF08012901BEAE0901AEEF0800866
:1066A600901BECE0901AF0F012447A7A6579AA020F
:0266B600008E54
:1051B7009019FEE024FE60611460541470030252DB
:1051C7008914700302529E24F77003025277240752
:0A51D70060030252B612457370190E
:1051E1007A1A79DF1252C27A5379C6124398124C55
:0651F100601243BE7D12B6
:0351F7000252B3AE
:1051FA007A1A79F31252C27A5379C8124398124C26
:09520A0060901AF31243C17D26E5
:105213000252B312457A7A67793702008E901A42A6
:10522300E0FF14F0EF7001F01245847F01126EB8B5
:10523300901A41EFF064037004A37402F0901A42D1
:10524300E0FD7C00700A12458E12442D2402801169
:10525300ED64014C901A4170051244DD8003124441
:1052630021901A45F07BFF7A6579EF12008E124484
:1052730098024051901BE9E0901ADE1252B7124394
:10528300D01244AE802A901AEEE0901B651252B7FA
:1052930012452A1243DB1244AE8015124512E4FF75
:1052A300126EB81245361243DB1243C97D1F7F6964
:1052B3001254A422FDE0FB7A00E4FF126EB8227FB1
:0A52C30001125F76901B73EFF022DA
:104F5E009019FEE024FE6075146068147003025010
:104F6E004914700302505E24F77003025037240771
:0A4F7E0060030250761245737023A1
:104F88007A1A79DF1250827A5379CA1243FD124491
:104F9800ED7A1B79741243B4124C601243BE7D1231
:034FA80002507341
:104FAB007A1A79F31250827A5379CC1243FD124458
:104FBB00ED7A1B79741243B4124C60901AF31243BE
:034FCB00C17D267F
:104FCE0002507312457A7A67793702008E901A4230
:104FDE00E0FF04F0C3EF94027480948040037402E7
:104FEE00F0124584E4FF126EB8901A41EFF0700291
:104FFE00A3F0901A42E0FD7C00700A12458E124416
:10500E002D24028011ED64014C901A41700512445A
:10501E00DD8003124421901A45F07BFF7A6579EF0B
:10502E0012008E124498024051901BE9E0901ADE55
:10503E001250771243D01244AE802A901AEEE090AE
:10504E001B6512507712452A1243DB1244AE8015AF
:10505E001245127F01126EB81245361243DB12430F
:10506E00C97D1F7F691254A422FDE0FB7A007F01E7
:0F507E00126EB8227F02125F76901B73EFF02242
:1061E0001245986017146024146031240370501213
:1061F00043F0E4FF126EB8901BE2802E901BE31276
:1062000043F3E4FF126EB8901BE3801E901BE41270
:1062100043F3E4FF126EB8901BE4800E901BE5126E
:1062200043F3E4FF126EB8901BE5EFF075F00690B3
:106230001B0A1243DB1243C97D1F7F691254A4223B
:1062400012459860171460241460312403705012B2
:1062500043F07F01126EB8901BE2802E901BE31278
:1062600043F37F01126EB8901BE3801E901BE41273
:1062700043F37F01126EB8901BE4800E901BE51271
:1062800043F37F01126EB8901BE5EFF075F00690B6
:106290001B0A1243DB1243C97D1F7F691254A422DB
:10611900124598601714602114602B240370549061
:106129001BE2124436F58BEEF58D8025901BE312A8
:106139004436F5D7EEF5D68018901BE4124436F5AF
:10614900D5EEF5D4800B901BE5124436F5D3EEF568
:10615900D21267E9126CFA7BFF7A537989E4901BB2
:106169007EF07D167F461254A47FF47E01126E667E
:04617900126F44223B
:106F44009019FD7402F0A3F07BFF7A6579EF0200DB
:016F54008EAE
:01009100224C
:1065AA00E4901B76F0126CFA901B76E0C3940374A5
:1065BA008094805025E0FF243AF582E4341AF5836A
:1065CA00E075F007A424FFF582E434191244B812E6
:1065DA0054A4901B76E004F080CE901A39124445F8
:0565EA007F3202477D35
:1065EF00E4901B76F0126CFA901B76E0C39403E4F0
:1065FF0094005025E0FF2443F582E4341AF583E03C
:10660F0075F007A424ADF582E4341A1244B812547D
:10661F00A4901B76E004F080CF901A421244457F7D
:04662F003202477D6F
:096FA8007BFF7A6579EF02008E8F
:1069C8009019FDE064017006A3E064096022EF6499
:1069D8001F701A901BFCE030E01654FEF01244FEC3
:1069E8007A6F791B12008E12447302002612454DED
:0169F800227C
:106D4500303132333435363738394142434445469C
:106D55004748494A4B4C4D4E4F5051525354555646
:056D65005758595A00C7
:106BE600901B7B124031901BA8E475F001123F4BBD
:106BF60085F082F58322901BA9E024FFFF901BA855
:0A6C0600E034FF22901B7B024031B6
:0C4C6000901B79EEF0A3EFF0A31240517E
:104C6C0078807C1B7D017BFF7A6D79457E007F25EA
:104C7C00123DA3E4901BA8F0A3F0901B7EE07004FF
:104C8C00A3E0640A7027901B79E0FEA3E0FFC3EE5B
:104C9C00648094805017C3E49FFFE49E901BA5F0A2
:104CAC00A3EFF0126BE6742D123E76800F901B79F9
:104CBC00E0FFA3E0901BA5CFF0A3EFF0901B7EE0EC
:104CCC00FEA3E0FDAC06901BA5E0FEA3E0FF123EA8
:104CDC00AA74802DF582741B3CF583E0FF126BE601
:104CEC00EF123E76901BA5E0FEA3E0FF901B7EE04A
:104CFC00FCA3E0FD123EAA901BA5EEF0A3EFF04E34
:104D0C0070BA126C0A901BA8E0FEA3E0F5828E83A9
:104D1C00E4123E76123DC9B42D0A901BACE4F0A30C
:104D2C0004F08007E4901BACF0A3F0901BACE0FF08
:104D3C00A3E0901BAACFF0A3EFF0126BFCFE7C005B
:104D4C007D02123EFFD3901BABE09FEE6480F89087
:104D5C001BAAE06480984003024DEB126C0A901B76
:104D6C00AAE0FEA3E0F5828E83123DE2901BA7F031
:104D7C00126BFCFE901BADE02FFF901BACE03EFED7
:104D8C00901BAAE0FCA3E0FDC3EF9DFFEE9C8F827D
:104D9C00F583123DE28D828C83123E76901BA7E048
:104DAC00FF901BA9E024FFFD126C03FC901BADE0EF
:104DBC002DFD901BACE03CFC901BAAE0FAA3E0FBA1
:104DCC00C3ED9BFDEC9AFC126C0A8D828C83EF1266
:104DDC003E76901BAAE475F001123F35024D4690C9
:054DEC001B7B024031B9
:106EB800A905EF7003098006E97002A90319AF0359
:096EC800E98FF084A9F0AF01226A
:043CCA00411BAE00EC
:1053CE00900850E090008375F0850240259010A261
:1053DE00E09008D575F0850240259018F4E0901104
:1053EE002775F085024025E0FEA3E0FFEE54FEFC9B
:1053FE00EE5401FEEF2401FBE43E54014CFDEB2282
:10540E00F09010A2E090085475F085024025F090BF
:10541E0018F4E09010A675F085024025901B86E4E6
:10542E0075F00112403A023DC9A3F0E4A3F0A37453
:10543E00FFF0A374C6F0A3E04401F0A37401F0A33F
:10544E002275F085124025E5822FF582E5833EF523
:10545E008322E05401FEA3E0C39480EE94002290D8
:10546E000003123F8CAEF022E05481FEA3E0FFEE6B
:10547E0044022275F085024025900001023DE2A310
:10548E00F0A374FDF0A37441F022900002023DE2FD
:06549E00900006023DE251
:106D6A00901BAF7401F074501254377440F054FE03
:106D7A00F0901BB874EFF0A3F07B017A1B79AF0295
:026D8A00556949
:030023000256BFC3
:1056BF00C0E0C0F0C083C082C0D075D01830990947
:1056CF00C299901BB7E054FEF030987BC298901BA4
:1056DF00AE7401F0900850E09000021253D5E044F0
:1056EF0002F0900850E09000021253E2E020E057E1
:1056FF001253CEC083C082125476D082D083F0A3CF
:10570F00EFF01253CE125460503D1253CEC083C0EF
:10571F00821253F5D082D083CDF0A3EDF0900850D4
:10572F00E09000031253EF125455E599F090085092
:10573F00E09000001254167401F0900850E09000B1
:10574F00011254247405F0D0D0D082D083D0F0D081
:02575F00E03236
:106DCF00901BBA7402F074101254377414F0901BA5
:0F6DDF00C374FEF0A3F07B017A1B79BA025569E9
:03004300025894CC
:10589400C0E0C0F0C083C082C0D075D018E59A3093
:1058A400E10A539AFD901BC2E054FEF0E59A30E001
:1058B40069539AFE901BAE740312540EE044021214
:1058C400540EE020E0541253DBC083C0821254769D
:1058D400D082D083F0A3EFF01253DB125460503A1D
:1058E4001253DBC083C0821253F5D082D083CDF033
:1058F400A3EDF09010A2E090085512544FE59BF0F0
:105904009010A2E09008521254817403F09010A2F7
:10591400E09008531254817405F0D0D0D082D08323
:05592400D0F0D0E032DC
:106E2A00901BC57403F0A37450F0740A12548D9029
:0E6E3A001BCB7408F07B017A1B79C5025569E9
:03008B00025761B8
:10576100C0E0C0F0C083C082C0D075D010E5AC30BD
:10577100E10A53ACFD901BCDE054FEF0E5AC30E006
:105781006F53ACFE901BAE740412541CE044021221
:10579100541CE020E05A1253E8C083C082125476B0
:1057A100D082D083F0A3EFF01253E812546050403E
:1057B1001253E8C083C0821253F5D082D083CDF05A
:1057C100A3EDF09018F4E09010A712544FE5ADF05E
:1057D1009018F4E075F0859010A41240257404F03F
:1057E1009018F4E075F0859010A51240257405F02D
:0B57F100D0D0D082D083D0F0D0E032C6
:106E4800901BD07404F0A37450F074A012548D9069
:0E6E58001BD67410F07B017A1B79D0025569AD
:03009300026048C0
:10604800C0E0C0F0C083C082C0D075D008E58430FD
:10605800E10A5384FD901BD8E054FEF0E58430E05B
:106068003D5384FE9018F8E070349019FBF0A304B7
:10607800F0C39019F9E094015024E475F001123F3F
:106088004BFE74F925F0F58274183EF583E585F02A
:106098009018F67405F0901BAEE09018F7F0D0D089
:0960A800D082D083D0F0D0E032A8
:10556900123DC9FD6401703B125487F59812549895
:10557900428912546DF58BEEF58D900005123DE2CE
:1055890013928E900007123DE2428E900009123D5F
:10559900E252B890000A123DE252B712549E24FF1B
:1055A90092AC227C00ED6402702B125487F59A129A
:1055B900546DF5D7EEF5D6900007123DE2428E12F2
:1055C900549E42AF900009123DE252B590000A1272
:1055D9003DE252B622ED64034C7014125487F5ACC7
:1055E900125498F5D112546DF5D5EEF5D4801912EF
:1055F9003DC964047017125487F58412549842D136
:0E56090012546DF5D3EEF5D212549E42AF222C
:106D8C00900008123DE230E00AED1DAE0470011CCB
:106D9C004E70EDE92408F9E43AFA123DC9440102B7
:026DAC003E6443
:065E3700901B8312405194
:105E3D00A2D0E433901B8AF0E033333354F8F09062
:105E4D001B89E0FF14F0EF604C901B831240317DF5
:105E5D00887C13126D8C901B83124031123DC92426
:105E6D00FE601114601514601F240370D212542AA1
:105E7D00F59980CB12542AF59B80C4901B8AE04281
:105E8D00AC12542AF5AD80B7901B8AE042841254AF
:055E9D002AF58580AA32
:015EA20022DD
:106C3900E4901BEFF0A3F0A3F0A374D4F0A3740EB7
:106C4900F0A3E04401F04402F0A37420F0A3F07B28
:086C5900017A1B79EF0266339A
:10663300123DC9703D900001123DE2F58E900002BB
:10664300123DE2F589900003123F8CAEF0F58AEE1D
:10665300F58C900005123DE2FF13928CEFC31313E8
:1066630092A9900006123DE242B8900007123DE263
:0366730042B72209
:03000B0002459F0C
:10459F00C0E0C0F0C083C082C0D075D000901BFDBA
:1045AF00E07002A3E0601B901BFD74FFF5F0123F5B
:1045BF0035901BFDE07002A3E07007901BFCE044F8
:1045CF0001F0900850E075F085900002124025E050
:1045DF00C31330E06E900850E075F08590008312A1
:1045EF004025E0C313543F9008506032E075F085CA
:1045FF00900083124025C083C082E0FCA3E0FDEC55
:10460F00C313FFEC5481FCEF24FFFFEF543F25E071
:10461F004CFFEDD082D083CFF0A3EFF08025E07573
:10462F00F085900002124025E04401F0900850E020
:10463F0004F0540FF0E075F085900002124025E071
:10464F0054FDF09010A2E075F085900854124025AB
:10465F00E0C31330E06E9010A2E075F0859008D59E
:10466F00124025E0C313543F9010A26032E075F062
:10467F00859008D5124025C083C082E0FCA3E0FDE1
:10468F00ECC313FFEC5481FCEF24FFFFEF543F25E5
:10469F00E04CFFEDD082D083CFF0A3EFF08025E088
:1046AF0075F085900854124025E04401F09010A257
:1046BF00E004F0540FF0E075F08590085412402597
:1046CF00E054FDF09018F4E075F0859010A61240BC
:1046DF0025E0FFC31330E06E9018F4E075F085907D
:1046EF001127124025E0C313543F9018F46032E0B5
:1046FF0075F085901127124025C083C082E0FCA37E
:10470F00E0FDECC313FFEC5481FCEF24FFFFEF54EB
:10471F003F25E04CFFEDD082D083CFF0A3EFF080A8
:10472F0025E075F0859010A6124025E04401F09029
:10473F0018F4E004F0540FF0E075F0859010A61215
:10474F004025E054FDF09019FBE07002A3E06013E8
:10475F009019FB74FFF5F0123F3545F07005901876
:0E476F00F804F0D0D0D082D083D0F0D0E03269
:106E6600901B7CEEF0A3EFF0901B7C74FFF5F01204
:0B6E76003F4B45F06005126DAE80ED53
:016E810022EE
:106DAE00901C07740BF0901C08742CF0901C08E0DB
:106DBE0014FFF0EF70F6901C07E014FFF0EF70EC8C
:016DCE0022A2
:104928002B2B2B0061002B4F6B0041542B574D4F05
:1049380044453D41505354410D0A002B4F4B004113
:10494800542B5741503D504C4332365F41502C4E0A
:104958004F4E450D0A0041542B484541525444548A
:104968003D373737373737324537393645373036B9
:1049780031373832453633364636440D0A0041540D
:104988002B575354413D4C48432C36363636363631
:1049980036360D0A0041542B524547454E413D439A
:1049A8004C4F55442C46495253540D0A0041542B40
:1049B800534F434B413D544350432C636C6F7564D4
:1049C8002E7573722E636E2C31353030300D0A001F
:1049D80041542B5345415243483D31353030302CFA
:1049E800636C6F75642E7573722E636E0D0A0041C9
:1049F800542B524547434C4F55443D3030303139A4
:104A08003633393030303030303030303036362C84
:104A1800536B6447417A796C0D0A0041542B574116
:104A28004E4E3D444843500D0A0041542B5A0D0A3E
:104A38000041542B454E544D0D0A00FF4928FF49AB
:104A48002C03E8000000FF492CFF492E00C8000095
:104A580000FF4932FF494300C8000000FF4947FFF3
:104A6800494300C8000000FF495EFF494300C800F1
:104A78000000FF4986FF494300C8000000FF499D28
:104A8800FF494300C8000000FF49B5FF494300C87B
:104A9800000000FF49D8FF494300C8000000FF4953
:104AA800F7FF494300C8000000FF4A23FF494300BD
:0F4AB800C8000000FF4A32FF494300C800000059
:1066B8007A4979327BFF7DC87C002275F00BA424CF
:1066C80049F582E4344AF583E493FC740193FD228E
:1066D80075F00BA42443F582E4344AF58302405A4A
:1066E8007A4A79327BFF7DC87C0022F0901B7702C2
:0266F80040312F
:0C6F8100EF6006147005D29422C2942226
:10682100E4901B76F0D294D2957FF47E01126E66CD
:10683100E4901B76F0901B76E0C3940C74809480F6
:106841005014E0FF1266D8EF1266C3126563901B05
:0668510076E004F080DF98
:01685700221E
:10656300901B77124051901B7AECF0A3ED1266F367
:10657300E94A4B6031901B7AE07002A3E060271276
:1065830066F412000E901B89EF1266F3901B8612BD
:1065930040517B017A1B79BA125E37901B7AE0FE79
:0765A300A3E0FF126E662267
:1069F900E4901B73F0F0901B73E0FFC39402E494DE
:106A090000501DEF1266D8E94A600D901B73E01221
:106A190066C34C6003126563901B73E004F080D673
:016A2900224A
:106ED1001269F91266B81265637A4A79391266BC89
:096EE1001265631266E8026563A4
:106EEA001269F91266B81265637A4A79391266EC40
:096EFA001265631266E80265638B
:10009600B1EAB6A8BFAAB9D8B2CECA00C5E4D6C3DB
:1000A600CAB1BCE4D0D0C4A3C4E2C7EBCAE4C8EB6F
:1000B600C3DCC2EBD0C2C8B7C8CFD0DEB8C4B3C9A0
:1000C600B9A6CAA7B0DCD6F7BDE7C3E6B1BEB5D8B8
:1000D600C1ACBDD3D4B6B3CCCDA8D0C5B7BDCABD0F
:1000E600C6F4CDA3B2A8CCD8C2CAC9E8B4AEBFDAAA
:1000F600BBD6B8B4B3F6B3A7CAC7B7F1B5C8C4DAA6
:10010600B2BFCFB5CDB3D2BBB6FEC800CBC4B3F534
:10011600CABCBBAFD2D4CCABCDF8CEDECFDFC0A944
:10012600D5B9B4F2BFAAB9D8B1D5C4A3BFE9B1BE97
:10013600BBFAC8C8B5E3B9A4D7F7C4A3B4D3D0AD46
:10014600D2E98868FF48109212F21292100000005D
:100156000F000201080F000003002C24A42425E64A
:10016600242424242C0008040304080F090909097F
:100176000800404242FE424242FE4242400000081F
:1001860006010000000F000000004048494A48F8F8
:10019600484A4948400008080402010001020408D0
:1001A60008009054B6955C54349436549000000A76
:1001B6000A0A0A09050404020000482A987F284A08
:1001C60010EF08F80800090B05050B0008050205E5
:1001D6000800FA4A3E0A3E4AFA00E2223E000F05AD
:1001E600050505050F0007080E001017D555577DA4
:1001F6005755D517100008080F08080E08080F08ED
:100206000800FE2222FE0008488808FF08000702B0
:10021600020700000009080F000000F902F849492A
:100226004949F901FF00000F0003020202020B0810
:100236000F004824F20910121212F21210000000E8
:100246000F00000008080F0000008868FF4802FA47
:10025600AFAAAFFA020000000F000A0A0603060A58
:100266000A0088FF4800FE00820CE01F0000080F0D
:1002760000000309040300030C0011F20022EAAA9D
:10028600BFAAAAEA2200000F04000F0202020A0F08
:100296000000342CF7A4E8A4EA09CA04E800010126
:1002A6000F000F020F0003080F0000000181720CFF
:1002B6007080000000000804020100000001020432
:1002C6000800463282B2466B524A62126600000E3F
:1002D6000808080F0808080E000042F22EE2013D49
:1002E6002121213FE0000007020701010101090861
:1002F600070020AAB2E3B2AA00FE12F2110004021D
:10030600080F000A0403000F000042F22EE200F478
:1003160053F25A56F00000070207080701070109C1
:100326000F001011F2000000C03FC00000000000E6
:100336000702090601000106080010FC03F81094E4
:100346008B4A2A961000000F0003080A0A090504C2
:100356000200E222223E2010EF08887808000F04EF
:100366000201080402010204080000FC2424E4043B
:10037600FF0485660400080700020B04020102045C
:100386000F000404FC040408FF080808F800020231
:1003960001090503000008080700A0908E8888FF61
:1003A6008888888080000808040201000102040889
:1003B6000800FE02FA02FE10EC0B08F80800090419
:1003C600030409080502050808000088888889FAD8
:1003D60088888888000008080808080F08080808A0
:1003E6000800809F9555553F5555959F80000008FC
:1003F60004030000000F0000000002F21212FA5679
:1004060052F21212F200000F040407050507040455
:100416000F000404846414FF1464840404000201BD
:100426000202020F0202020102001010FF1020FC5D
:1004360010FF0884FC0004040302000708090808EA
:100446000E0021E20004342C27F4242404000807BB
:1004560008090909090F090909008888FF48A4AC99
:10046600B5E6B4ACA40000080F00080A0B04040BA0
:10047600080021E2001012F21212F2121000080710
:10048600080A09080808090A0B0012D2FE51802F33
:1004960029E9292F000001000F000809090F0909A1
:1004A600080011F200F9A9ABFDADABF80000080792
:1004B600080B08080B080A0B080010FC0304545428
:1004C600555654540400000F00000F050505050F8E
:1004D6000000040404FC2526242424E40400080463
:1004E60003000000080808070000084848C84848F4
:1004F60008FF08090A0008080807040404000304A2
:100506000E000000FCA4A4A5A6A4A4A4BC00080692
:10051600010F0404040404040F002010FC0382BA33
:10052600AAABAABA820000000F0001020A0E02025C
:100536000100224400FC24E4243F24E40C000402CD
:10054600080708080502050808009C88FF4810549B
:10055600545FF454500000000F0000010A080F0019
:100566000000028A529AD6B3D28A528A0200020246
:100576000202020F0202020202001011F20050CF24
:1005860041414FD010000000070208080502050887
:100596000800C05E525252FF5252525EC00007021D
:1005A6000202020F02020202070000FE020202021B
:1005B600020202FE00000007020202020202020715
:1005C60000007800FF08C43FC404F444240000007F
:1005D6000F04030804020106080004027DD55555E0
:1005E6005555557D0100000A090B050505050B0942
:1005F6000800801E101010FF1010101E8000070447
:1006060004040407040404040F0000FE02020202AC
:1006160002020202020008070000000000000000BB
:10062600000040405F5555D555555F4040000804D1
:100636000304080F0909090908001191898985BF72
:10064600818585891100000F040404040404040F45
:10065600000044535256527C53D256524200010176
:1006660003050109090F0101010000FC0484641F50
:1006760024C404FC0000000F000000000008080F5E
:10068600000020AAB2A3B2AA20FE0232CE00000FBA
:100696000404040F000F02020100008292DAD6B2AF
:1006A600B19189C1800008040200080F000002040D
:1006B600090098D4B3880064D44DC654E4000404F9
:1006C60002020804030007080C0040404040404076
:1006D60040404040400000000000000000000000D4
:1006E60000000004040404040404040400000404D8
:1006F60004040404040404040400000242424242C6
:1007060042424202000008080808080808080808CB
:10071600080000FE02827E02027E8282FE00000F38
:1007260005040404040404040F008445F64CA002E6
:10073600FE020202FE0000000F0008060100080883
:10074600070088780FF800D8545350D830000805B1
:10075600020D000F0404040F00002010FC030080AB
:10076600FF201008040000000F0001000708080819
:100776000E0000FE0080420C00807F000000000397
:100786000908040402010204080008080888681F12
:10079600E808080808000804020102040003040827
:1007A6000800FF099161910991619109FF000F010C
:1007B60000000001000008090F0020222222E23E6C
:1007C600E22222222000080402010000070808088D
:1007D6000E0098D4B388004848FF24A526000404D8
:1007E60002020808040305080E008888FF4800FC7A
:1007F60004050604040000080F00080700000000B6
:10080600000000FF45D57D55D5557D5547000807A5
:10081600000F08040102040A09008888FF484802FC
:100826000202FE02020000080F00000008080F0086
:100836000000404242FE424242FE42424000000860
:1008460006010000000F000000004048494A48F831
:10085600484A494840000808040201000102040809
:10086600080000F9022020A2FA222202FE00000F50
:1008760000020104070008080F008868FF4802FA12
:10088600AFAAAFFA020000000F000A0A0603060A22
:100896000A0008FF08404444FF44447C4000020329
:1008A600010804030003040808000404846414FF18
:1008B60014648404040002010202020F020202010F
:1008C60002008868FF2840FE0202FE0000000000C9
:1008D6000F080403000007080E002424FF1400D4A8
:1008E6003F447C80E0000805010409000408000478
:1008F600090000F01010101F121212F20200080573
:10090600010509010509010508000002020202FEAF
:1009160002020202000008080808080F0808080872
:1009260008002010FC030807FC242424040000000F
:100936000F0000000F01010101008868FF4802FA5C
:10094600AFAAAFFA020000000F000A0A0603060A61
:100956000A000000E01FE000C03FC00000000806DB
:100966000100090601000106080010FF108848FF73
:100976000808F8408000000F000806010808070074
:1009860001001011F2001860810680601C00000052
:10099600070209040201020408000000000000002A
:1009A600004F00000007000700147F147F14242A5C
:1009B6007F2A122313086462364955225000050720
:1009C6000000001C2241000041221C0014083E08C1
:1009D6001408083E080800503000000808080808F7
:1009E600006060000020100804023E5149453E00A8
:1009F600427F400042615149462141454B3118141E
:100A0600127F1027454545393C4A4949300171094D
:100A160005033649494936064949291E0036360036
:100A26000000563600000814224100141414141451
:100A360000412214080201510906324979413E7EDD
:100A46001111117E7F494949363E414141227F417C
:100A560041221C7F494949417F090909013E414913
:100A6600497A7F0808087F00417F41002040413FC6
:100A7600017F081422417F404040407F020C027FE4
:100A86007F0408107F3E4141413E7F090909063E29
:100A96004151215E7F0919294646494949310101DB
:100AA6007F01013F4040403F1F2040201F3F40380C
:100AB600403F6314081463070870080761514945ED
:100AC60043007F41410002040810200041417F009D
:100AD600040201020440404040400102040000209C
:100AE600545454787F484848303844444444304845
:100AF60048487F385454545800087E0902485454D4
:100B0600543C7F0808087000007A00002040403DF1
:100B1600007F2028440000417F40007C0438047C8C
:100B26007C0804047838444444387C1414140808B7
:100B36001414147C7C0804040848545454240404F3
:100B46003F44243C4040403C1C2040201C3C40305C
:100B5600403C442810284404483008044464544C5B
:100B66004408364141000000770000004141360844
:100B76000402020201F8F81010080404024AC94DE2
:100B86004A484868300303010101010101010000E0
:100B9600000000000000000000F0F8FCFCFCFCF87F
:100BA600F000000000000000000001030303030141
:100BB6000000000000081C3E7F00007F3E1C08006D
:100BC600000000000000000000000000000000001F
:100BD600000000000000000000000000000000000F
:100BE60000000000000000000000000000000000FF
:100BF60000000000000000000000000000000000EF
:100C060000000000000000000000000000000000DE
:100C160000000000000000000000000000000000CE
:100C260000000000000000000000000000000000BE
:100C360000000000000000000000000000000000AE
:100C4600000000FFFFFFFFFFFFFFFFFFFFFFFFFFAB
:100C5600FFFFFFFFFFFFFFFFFFFFFFFFFFFFFFFF9E
:100C6600FFFFFFFFFFFFFFFFFFFFFFFFFFFFFFFF8E
:100C7600FFFFFFFFFFFFFFFFFFFFFFFFFFFFFFFF7E
:100C8600FFFFFFFFFFFFFFFFFFFFFFFFFFFFFFFF6E
:100C9600FFFFFFFFFFFFFFFFFFFFFFFFFFFFFFFF5E
:100CA600FFFFFFFFFFFFFFFFFFFFFFFFFFFFFFFF4E
:100CB600FFFFFFFFFFFFFFFFFFFFFFFFFFFFFFFF3E
:100CC600FFFFFFFFFFFFFF00000000000000000025
:100CD600000000000000000000000000000000000E
:100CE600008080C0C0E0E0E0F0F0F0F8F8F8F8FC32
:100CF600FCFCFCFCFCFCFEFEFEFCFCFCFCFCF8F830
:100D0600F8F0E0C000000000000000000000000055
:100D160000000000000000000000000000000000CD
:100D26000000008080C0E0E0F0F0F8FCFCFCFEFE75
:100D3600FFFF7F7F7F7F7F7F3F3F3F3F3F3F3F3FBD
:100D46003F3F3F1F1F3F3F3F3F3F3F3F3F7F7F7F2D
:100D5600FFFFFFFFFFFF3C00000000000000000057
:100D66000000000000000000000080402020301835
:100D7600180C0E0F0F0707070303030101010100FB
:100D860000000080C0E0E0F0F0F0F8F8F8F8FCFCB5
:100D9600FCFCFCFCFCFCFCFCF8F8F8F0F0E00000C5
:100DA60000000001071F0300000000000000000013
:100DB600000000000000000000000000000000002D
:100DC6000000000000000000000000000080E0C0FD
:100DD6000000043F3F3F7F7FFFFFFFFFFFFFFFFF56
:100DE600FFFFFFFF7F7F7F7F3F3F3F1F0F07030010
:100DF600000000000000000080808080C0C0C0C0ED
:100E0600E0E0703030180C00000000000000000028
:100E16000000000000000000000000000000FFFFCE
:100E2600FFFFFEFEFCFCFCF8F8F8F8F8F8F8F8F816
:100E3600F8F8F8F8F8F8F8F8F8F8F8FCFCFCFCFC18
:100E4600FCFEFEFEFEFFFF7F3F3F1F1F0F0707034F
:100E5600010100000000000000000000000000008A
:100E6600000000000000000000000000000000017B
:100E7600070F1F3F3F3F7F7F7F7F7F7F7F7F7F7F84
:100E86007F7F7F7F7F3F3F3F3F1F1F1F0F0F07075C
:100E9600070303010100000000000000000000003D
:100EA600000000000000000000000000000000003C
:100EB600000000000000000000000000000000002C
:100EC600000000000000000000000000000000001C
:100ED600000000000000000000000000000000000C
:100EE60000000000000000000000000000000000FC
:100EF60000000000000000000000000000000000EC
:100F060000C0C0C0C0C0C0C0C0C0C0C0C0C0C0C09B
:100F1600C0C0C0C0C0C0C0C0C0C0C0C0C0C0C0C0CB
:100F2600C0C0C0C0C0C0C0C0C0C0C0C0C0C0C0C0BB
:100F3600C0C0C0C0C0C0C0C0C0C0C0C0C0C0C0C0AB
:100F4600C0C0C0C0C0C0C0C0C0C0C0C0C0C0C0C09B
:100F5600C0C0C0C0C0C0C0C0C0C0C0C0C0C0C0004B
:100F66000000000000FFFF00000000808080C0C07D
:100F7600E0E0E0E0202060606060606060606060EB
:100F8600606060606060606060C0C0C0C0C0C0C0BB
:100F9600C0C0C0C0C0C0C0C0C0C0C0C0C0C0C0C04B
:100FA600C0C0C0C0C0C0C0C0C0C0C0C0C0C0C0C03B
:100FB600C0C0C0C0C0C0C0C0C0C0C0C0C0C00000AB
:100FC60000FFFF000000000000FFFF000000FFFF21
:100FD600FFFFFFFFFFFFFFFF000000000000000013
:100FE60000000000000000000000000000000000FB
:100FF60000000000000000000000000000000000EB
:1010060000000000000000000000000000000000DA
:1010160000000000000000000000000000000000CA
:10102600FFFF000000FFFF000000000000FFFF00C0
:101036000000FFFFFFFFFFFFFFFFFFFF00000000B4
:101046007EE6C38383C3EE7C000000000000000040
:10105600000000000000000000000000000000008A
:10106600000000000000000000000000000000007A
:101076000000181818181818181818181818180032
:1010860000000000FFFF000000FFFF00000000005E
:1010960000FFFF000000FFFFFFFFFFFFFFFFFFFF56
:1010A6000000000000000001010000000000000038
:1010B600000000000000000000000000000000002A
:1010C600000000000000000000000000000000001A
:1010D600000000000000000000000000000000000A
:1010E6000000000000000000FFFF000000FFFF00FE
:1010F6000000000000FFFF000000000001010303E4
:1011060007070F0F0C0C0C0C0C0C0C0C0606060635
:101116000606060606060606060606060606060669
:101126000606060606060202020202020202020281
:101136000202020202020202020202020202020289
:10114600020202020202020202020202030300007B
:1011560000FFFF000000000000070706060606065F
:101166000606060606060606060606060606060619
:101176000606060606060606060606060606060609
:1011860006060606060606060606060606060606F9
:1011960006060606060606060606060606060606E9
:1011A60006060606060606060606060606060606D9
:1011B60006060606060707000000000000000000FD
:1011C6000000000000000000000000000000000019
:1011D6000000000000000000000000000000000009
:1011E60000000000000000000000000000000000F9
:1011F60000000000000000000000000000000000E9
:1012060000000000000000000000000000000000D8
:1012160000000000000000000000000000000000C8
:1012260000C0C0C0C0C0C0C0C0C0C0C0C0C0C0C078
:10123600C0C0C0C0C0C0C0C0C0C0C0C0C0C0C0C0A8
:10124600C0C0C0C0C0C0C0C0C0C0C0C0C0C0C0C098
:10125600C0C0C0C0C0C0C0C0C0C0C0C0C0C0C0C088
:10126600C0C0C0C0C0C0C0C0C0C0C0C0C0C0C0C078
:10127600C0C0C0C0C0C0C0C0C0C0C0C0C0C0C00028
:101286000000000000FFFF000000C0C040404040DA
:101296004040404040404040404040404040404048
:1012A6004040404040404040404040404040404038
:1012B6004040404040404040404040404040404028
:1012C6004040406060606060606060E0E0E0E0E0F8
:1012D600E0E0E06060E0C0C0C0C0808000000000C8
:1012E60000FFFF000000000000FFFF000000FFFFFE
:1012F60000000000000000808080800000000000E8
:1013060000000000000000000000000000000000D7
:1013160000000000000000000000000000000000C7
:1013260000000000000000000000000000000000B7
:10133600000000000000000000FFFFFFFFFFFFFFAE
:10134600FFFC000000FFFF000000000000FFFF00A0
:101356000000FFFF00000000003F7161C1C161771E
:101366003E00000000000000000000000000000039
:101376000000000000000000000000000000000067
:101386000000000000000000000000000000000057
:1013960018181818181818181818000000FFFFFF5A
:1013A600FFFFFFFFFFFF000000FFFF00000000003F
:1013B60000FFFF000000FFFF00000000000000002B
:1013C6000000000000000000000000000000000017
:1013D6000000000000000000000000000000000007
:1013E60000000000000000000000000000000000F7
:1013F60000000000000000000000000000000000E7
:1014060000FFFFFFFFFFFFFF7F3F000000FFFF0021
:101416000000000000FFFF000000030302020202BA
:101426000202020202020202020202020202020296
:101436000202020202020202020202020202020286
:101446000202020202020202020202020202020276
:1014560002020202020202060606060606060E0E32
:101466000E0E0E0E0E0F0F0F0703010000000000F8
:1014760000FFFF000000000000070706060606063C
:1014860006060606060606060606060606060606F6
:1014960006060606060606060606060606060606E6
:1014A60006060606060606060606060606060606D6
:1014B60006060606060606060606060606060606C6
:1014C60006060606060606060606060606060606B6
:1014D60006060606060707000000000000000000DA
:1014E60000000000000000000000000000000000F6
:1014F60000000000000000000000000000000000E6
:1015060000000000000000000000000000000000D5
:1015160000000000000000000000000000000000C5
:1015260000000000000000000000000000000000B5
:1015360000000000000000000000000000008080A5
:101546008080808080808080808080000000000015
:101556000000000000000000FFFFFFFFFF0000008A
:101566000000000000000000000000000000000075
:101576000000000000000000000000000000000065
:101586000000000000000000000000000000000055
:101596000000000000000000000000000000000045
:1015A6000000000000000000000000000000000035
:1015B6000000000000000000000000000000000025
:1015C6000000000000000000000000000000000015
:1015D6000000000000000000000000000000000005
:1015E60000000000000000000000000000000000F5
:1015F60000000000000000000000000000007F7FE7
:101606007F7F7F7F7F7F7F7F7F7F7FFFFFFFFFFF64
:10161600FEFEFEFCFCF8F8F8FFFFFFFFFF000000EF
:1016260000000000000000000000000000000000B4
:1016360000000000000000000000000000C0C0C064
:101646000000000000000000000000000000000094
:101656000000000000000000000000000000000084
:10166600000000000000000000000000C0C0C00034
:101676000000000000000000000000000000000064
:1016860000000000C0C0C000000000000000000014
:101696000000000000000000000000C0C0C0000004
:1016A6000000000000000000000000000000000034
:1016B6000000000000000000000000000000F0F044
:1016C600F0F0F0F0F0F0F0F0F0E0E0E0E0E0E0E084
:1016D600C1C181838307071FFFFFFFFFFFFFFFFFD6
:1016E600FFFFFFFFFFFFFFFFFFFFFF0000000000FF
:1016F6000000000000E0E0E0E0E0E0E0E0FFFFFFE7
:10170600E0E0E0E0E0E0E0E000000000FFFFFF07CF
:10171600C7C7C7C7C7C7C7C7C7C7C7C707FFFFFF6B
:101726000000003C3C3C3C3C3C3C3C3CFFFFFF3C5E
:101736003C3C3C3C3C3C3C3C000000F0F0F0F0F013
:10174600F0F0F0F0FFFFFFF0F0F0F0F0F0F0F0F066
:1017560000000000F8F87878787878FFFFFF78784E
:101766007878F8F8F8000000000000FFFFFF1F1F60
:101776001FDFDFDF1F1F1FDFDFDF1FFFFFFF0F0F73
:101786000F0F0F0F0F0F0F0F0F1F1F1F1F1F1F3FD3
:101796003F3F3F7F7FFFFFFEFFFFFFFFFFE0E0E0F1
:1017A600E0E0E0E0E0E0E0E0E0E0E0000000000093
:1017B6000000000000FFFFFF0303030303FFFFFF1A
:1017C6000303030303FFFFFF00000000FFFFFF000A
:1017D60003E3E3E3E3FFFFFFE3E3E3E300FFFFFFEE
:1017E60000000000FEFEFE1E1E1EFEFEFF1F1FFE68
:1017F600FEFE1E1EFEFEFE000000000000000000B1
:101806000000FFFFFFFFE0E0E0E0E0E0E0000000B6
:1018160000000000FFFF7878787878FFFFFF78787F
:101826007878FFFFFF000000000000FFFFFF0E1E9C
:10183600FEFFFF1F0C3CFCFFFF0700FFFFFFFEFE45
:10184600FEFEFEFEFEFCFCFCFCFCFCFCFCFCF8F8D0
:10185600F8F8F0F0E0E0C0C3FFFFFFFFFF1F1F1F17
:101866001F1F1F1F1F1F1F1F1F1F1F00000000001D
:1018760000000000001F1F1F1F1F1F1F1FFFFFFF6D
:101886001F1F1F1F1F1F1F1F00000000FFFFFFC09D
:10189600C0C1C1C1C1FFFFFFC1F9F9F9C0FFFFFF18
:1018A60000000000FFFFFF00CFCFCFCFFFFFFFFFFD
:1018B600CFCFCF00FFFFFF000000000000000000B8
:1018C600C0F8FFFF0F0101010101FFFFFF0000004B
:1018D600000000007F7F7878787878FFFFFF7878BF
:1018E60078787F7F7F000000000000FFFFFFF0F8A0
:1018F600FF3F3F3FF8F8FF3F7FFEF0FFFFFF01018C
:1019060001010101010101010103030303030707AB
:1019160007070F0F1F1F3F7FFFFFFFFFFFF8F8F8B6
:10192600F8F8F8F8F8F8F8F8F8F8F8000000000009
:1019360000000000000000000000000000FFFFFFA4
:10194600000000000000000000000000FFFFFFF1A3
:10195600F1F1F1F1F1F1F1F1F1F1F1F1F1FFFFFF47
:1019660000000000FFFFFF0003030303FFFFFF0368
:101976000303F3F0FFFF7F0000000000F8F8FC3FD0
:101986001F0F03000000707070707F7F7F000000E3
:101996000000000000000000000000FFFFFFE0E084
:1019A600E0E0E0E0FCFCFC00000000FFFFFF0000C0
:1019B600000000000707070000F0F0FFFFFF00002F
:1019C6000000000000000000000000000000000011
:1019D6000000000000000000FFFFFFFFFF070707F1
:1019E60007070707070707070707070000000000A4
:1019F60000000000000080C0C0800000800101815E
:101A060000008000808000008000000080800000D0
:101A160000000000C0C0C000000080C0C080000000
:101A2600C00000C0C000C0C0C0C0008080000080F0
:101A36000000C1C1C1C00000C0C0C080000080005D
:101A460000008000000080C0C0C080000080C0C0D0
:101A56008000C0000000000000C000C1C1C1C1017B
:101A660001C1C1C181010100000080C0C080000029
:101A760080C0C0C08000808000C0C0C0C0800000A0
:101A86000000000000000000000000000000000050
:101A96000000000000000000FFFFFFFFFFFFFFFF48
:101AA600FFFFFFFFFFFFFFFFFFFFFF00000000003B
:101AB60000000000003FFFC0C0610000FF0404FFFB
:101AC6000000FF00FF0F0E78FF00E07E67677CE0F6
:101AD60000000063C7CCFD71003FE1C0C07F1E005F
:101AE6007FC0C0FF3F0000FFFF0000FFFF0C0CFFA0
:101AF6000000FFCCCCCC007FFF181CFFC000FF0706
:101B06001CF8FF000000FFFF180F07003EF3E1E19D
:101B1600F33F07FEF80707FCFE0300FFCCCCCC0022
:101B260000FF181CFFC00000003FFFC0C8F93000CE
:101B3600FF0C0C3CE700FFFF00FFC0C0F37F000076
:101B4600000000000000000000000000000000008F
:101B5600000000000000000000000000000000007F
:101B6600000000000000000000000000000000006F
:101B7600000000000000000000000000000000005F
:101B8600000000000000000000000000000000004F
:101B9600000000000000000000000000000000003F
:101BA600000000000000000000000000000000002F
:101BB600000000000000000000000000000000001F
:101BC600000000000000000000000000000000000F
:101BD60000000000000000000000000000000000FF
:101BE60000000000000000000000000000000000EF
:101BF600000080F0000000000000008000000000EF
:101C06000000000000000080808080C0C06060305E
:101C16003010B8F878000000000000000000000056
:101C260000000000000000000000000000000000AE
:101C3600003030180C0402E3FE1C00000000000017
:101C4600000000000000000000000000000000008E
:101C5600000000000000008080C0E0E0800000007E
:101C6600000000000000000000000000000000006E
:101C7600000000000000000000000000000000005E
:101C8600000000000000000000000000000000004E
:101C96000000C0FEFF1C0000000000000000000065
:101CA600000000000000000000000080000000802E
:101CB600E07C4761F060000804C27F1F0700000057
:101CC6000000000000F8F001010101C18080C07031
:101CD600380C0701000000000000000000000000B2
:101CE60000000000C0C0606030180CFC0800000C4A
:101CF600F8000000F0F0FC1F0000000000000000EB
:101D060000000000000000000080C0E0E0000000CD
:101D1600E020100804E60301C0F81F0701000000D8
:101D2600000000000000000000000000000060E06D
:101D3600C0C0C0C0C0C04040E0C0000000000000FD
:101D4600000000000000000000000000000000008D
:101D560000F8FF3F030090F0C00000000000000004
:101D6600000000000000000000000083FE3806832B
:101D760078F0CC07010080E09E8380000000000020
:101D860000000000E0FF7F000060380F070301003D
:101D960080000000000000000000000000000000BD
:101DA60000000000E000001E1800F07F000000FEAA
:101DB6001F000080FFFF0700000000000000000079
:101DC60000000000000002070301FF3F0100001CA5
:101DD6003F0088CC7F73380F03000000000000002E
:101DE60000000000000000000000000000000001EC
:101DF60003030301C0F0F87E1F0701000000000086
:101E060000000000000000C0C0C0C0C0C0E0E0F09C
:101E1600FF7F391C0E0707010000000000000000CC
:101E2600000000000000000007078180C760211144
:101E36001888846432190D070301010000000000B0
:101E4600000000808101000000000080C00000F852
:101E5600FF0088F0E0000000000000000000000025
:101E660000000006070100000103030000F07F03E5
:101E760000000C0700FF000000000000000000004A
:101E8600000000000040606078FECFC00000000047
:101E96000002CF83C08000000000000000000000A8
:101EA60000000000000000000000000000000080AC
:101EB600E0F8FEBF9F878180000000000000000060
:101EC600000000000000000101010181C1791F032B
:101ED600008000000000000000000000000000007C
:101EE6000000C0E0E070380C0603010000000000AE
:101EF600E0190780C0C000000000000000000000DC
:101F06000000F8FF3F0400000383C343213018FF9D
:101F1600FFE6C38180C0C080000000000000000012
:101F26000000000000000000000000E0FE070000C6
:101F360000000000FFFF000000000000000000009D
:101F4600000000000000C0F07C1F0300000000003D
:101F560000E3BF07018080000000000000000000D1
:101F6600000000000020F0F0F0F8F8787C3C1E1F1E
:101F76000F0F07030303010000000000000000002C
:101F8600000000000000008060381E07010000000D
:101F960000001FFCF0C080000000000000000000F0
:101FA600000001010000000060E0E07070381C1CB9
:101FB600FF070307070100000000000000000010F3
:101FC6003C7F3F38180C06060301000000000000A5
:101FD60001010101010101000000000000000000F4
:101FE600000000000000000000E07E0F000000007E
:101FF600000000000F0F00000000000000000000BD
:1020060000000000000001010000000000000000C8
:1020160000030303030307030000000000000000A1
:1020260000000000000000010100000000000000A8
:10203600000000000000000000000000000000009A
:10204600000000040602010000000000000000007D
:102056000000000003070F0707030100000000004F
:102066000000000000000000000000000830E0F062
:102076007F000000000000000000000000000000DB
:10208600000000000000000000000000000000004A
:10209600000000000000000000000000000000003A
:1020A600000000000000180C0701000000000000FE
:1020B600000000000000000000000000000000001A
:1020C600000000000000000000000000000000000A
:1020D60000000000000000000000000000000000FA
:1020E60000000000000000000000000000000000EA
:1020F60000000000000000000000000000000000DA
:1021060000000000000000000000000000000000C9
:1021160000000000000000000000000000000000B9
:1021260000000000000000000000000000000001A8
:0E21360000000000000000000000000000009B
:03000000025A465B
:0C5A4600787FE4F6D8FD75811F025A8DB0
:066FBF00900001023DE21A
:104AC700EFD394057480948040037F0122123DC97F
:104AD700FED394037480948040037F0222EF7038E2
:104AE700EE7008126FBFF452935294123DC96401DD
:104AF7007008126FBF4293F45294123DC9FE6402CC
:104B07007007126FBF42934294EE6403700A126FEC
:104B1700BFFEF45293EE4294EF6401703A123DC91E
:104B2700FE7008126FBFF452915292EE6401700842
:104B3700126FBF4291F45292123DC964027007127C
:104B47006FBF42914292123DC96403700A126FBF50
:104B5700FEF45291EE4292EF6402703A123DC9FEA2
:104B67007008126FBFF452955296EE6401700812E6
:104B77006FBF4295F45296123DC964027007126FD7
:104B8700BF42954296123DC96403700A126FBFFE79
:104B9700F45295EE4296EF6403703A123DC9FE70E7
:104BA70008126FBFF452B152B2EE64017008126F6F
:104BB700BF42B1F452B2123DC964027007126FBF0F
:104BC70042B142B2123DC96403700A126FBFFEF4CC
:104BD70052B1EE42B2EF6404703A123DC9FE70085A
:104BE700126FBFF452B352B4EE64017008126FBF74
:104BF70042B3F452B4123DC964027007126FBF4248
:104C0700B342B4123DC96403700A126FBFFEF45277
:104C1700B3EE42B4EF6405703D123DC9FF7E0070EC
:104C270008126FBFF452C952CAEF64014E700812DE
:104C37006FBF42C9F452CA123DC964027007126FAE
:104C4700BF42C942CA123DC96403700A126FBFFF4F
:094C5700F452C9EF42CA7F0022A9
:10685800E4FEFDFC901B7FE0F8A3E0F9A3E0FAA3B7
:10686800E0FBC3023FE3E0FBA3E475F001023F4B0A
:10687800EEF0A3EFF0A3EBF0A3EAF0A3E9F02275A2
:06688800C65A75C6A522E8
:1062A000901B7F123FF40000000B7F1E12685840C5
:1062B0000475C780227F18126858400475C7812270
:1062C000E47F14126859400475C78222E47F0C12DF
:1062D0006859400475C78322E47F06126859400458
:1062E00075C78422E47F03126859400475C785226C
:0F62F000E47F02126859400475C7862275C7877C
:0162FF00227C
:0D6F7400E4F5C7F5C5F5C675C380F5C42268
:056A5A00901B79EFF034
:106A5F00E4FF1262A075C501901B79E0F5C4E0FF59
:106A6F007808A2E713D8FBF5C3126887AFC2E5C752
:096A7F0030E40653C7EF7F332217
:016A880022EB
:106CAE00901B7CEEF0A3EFF0A3EDF01262A075C581
:106CBE0002901B7CA3E0FFF5C475C300A3E0F5C2F0
:066CCE00126887026F74DA
:106CD400901B76EEF0A3EFF01262A075C503901B33
:106CE40076A3E0FFF5C475C300126887126F747F42
:066CF400047E00026E6642
:106AE300901B76126878901B7BE0FF14F0EF601B1D
:106AF300901B76126871AFF0FE901B7812686EA936
:0C6B0300F0FA123DC9FD126CAE80DB22DE
:106B6700901B73126878901B78E0FF14F0EF601A9F
:106B7700901B73126871AFF0126A5A901B751268F6
:0B6B87006EA9F0FAEF123E6480DC22E1
:043CCE00411C0A0388
:1059B800A2A6E43325E0FFA2A4E4334FFFA2A3E4A8
:1059C8003325E025E04FFFA2A5E43333333354F801
:1059D8004FFFA2A2E433C454F04F901B75F0901C03
:1059E8000AE0601814604314602D14704E901B7503
:1059F800E0641F6046E4901C0AF0803F7F0A7E0046
:105A0800126E66901B75E0FF641F602F901C09EFF3
:105A1800F0A37402F08024901B75E0641F701C9042
:105A28001C0A04F0901C09E0FF22901C09741FF066
:0D5A3800A37403F07F0A7E00126E667F1FCC
:015A4500223E
:105DC600901B82E02EFD12689A901B86E0FBA3E0F2
:105DD600FAA3E022901B81F9E0F582758300023D6B
:105DE600E22FF9EA3EFA901B86EBF0A3EAF0A3E96C
:105DF600F0901B79E0FFA3E0FD901B8522F9901B34
:105E06008FE0FF7E00E92FF9EE3AFA901B8EE02232
:105E160034FFFE901B84E0FD7C00023E98FA123DA2
:105E2600C9FF901B8AE0FE22EEC39408748094801A
:015E36002249
:106B0F00C2B4C2B6E4FE125E2E501EC2B3EF30E71F
:106B1F0004D2B28002C2B2D2B37D017801EF0880F5
:0B6B2F0002C333D8FCFF0E80DDD2B49F
:016B3A002238
:106B3B00C2B4D2B6E4FE125E2E501EC2B3EF30E7E3
:106B4B0004D2B28002C2B2D2B37D017801EF0880C9
:0B6B5B0002C333D8FCFF0E80DDD2B473
:016B6600220C
:106CFA00E4FCEC125E2F501DEC24B0FF126B0FE483
:106D0A00FBEBC394C0E494005008E4FF126B3B0B06
:056D1A0080EF0C80DD9C
:016D1F002251
:0C688E00FF901B8FE0FE901B82E02EFDAF
:10689A00AE07AC05EEC3940274809480EE500424D3
:1068AA00B6800224AEFF126B0FECC4540F2410FF03
:0A68BA00126B0FEC540FFF026B0F7E
:105EA300C2B57F647E00126E66D2B57F327E001269
:105EB3006E667FE2126B0F7F327E00126E667F2F5B
:105EC300125F027FA0125EEB7F81125EEB7FEB120B
:105ED3005F027FC4126B0F7F147E00126E667FAF6A
:105EE300126B0FC2B7026CFA126B0F7F147E001293
:105EF3006E667F70126B0F7F147E00126E66221225
:0A5F03006B0F7F147E00126E662201
:1063BB00EF14602B04704E901BFF7418F0901C01AF
:1063CB007410F0901C00740CF0901C0474FFF0A37C
:1063DB007401F0A37448F0901C03740CF0802990A6
:1063EB001BFF7405F0901C017408F0901C007405E1
:1063FB00F0901C037407F0A374FFF0A37409F0A3CF
:0B640B0074A0F080037F00227F0122BC
:0864C400901B82EEF0A3EFF043
:1064CC00E4FDFCED25E0FFEC33FE74962FF58274B1
:1064DC00003EF583E493FAED25E0FFEC33FE749770
:1064EC002FF58274003EF583E493FFEAFE901B8245
:1064FC00E06E7003A3E06F600B0DBD00010CED644A
:08650C00644C70BFAE04AF0542
:016514002264
:1054A400901B79EFF0A3EDF0A3EBF0A3EAF0A3E9EE
:0154B400F007
:1054B500A3E0FF1263BBE4901B81F0901B7B125DA0
:1054C500D2125DDAFF7E00C3948074809480502CE4
:1054D500EF24E0FFEE34FFFE901B7FF0A3EFF07C9E
:1054E500007D05123E98901C04125DD2125DE77492
:1054F50008F07B0512555604F0025547901B7B12A8
:105505005DD2125DDAFE901B81E0FD7C00E92DF98C
:10551500EC3AFA900001123DE2FDEDFF1264C490F1
:105525001B7FEEF0A3EFF07C007D18123E98901CD7
:1055350004125DD2125DE77410F07B0C12555624EF
:1055450002F0901B7B125DD2125DDA60030254C03B
:105555002212477D901C03E0FF901B79E02FF0900D
:045565001B81E022A4
:0C477D00901B82EFF0901B84EBF0AA056B
:10478900A3E0FF54076008EF54F82408FF80059060
:104799001B85E0FF901B85EFF0E0FDFFEA2FFFE4AA
:1047A90033FEEF7803CEC313CE13D8F9901B8BF0E9
:1047B900FCED2A5407A3F0EA131313541FFF901BAF
:1047C90089F0EA5407A3F0C3EC9F04901B8DF0E431
:1047D900A3F0901B8DE0FFA3E0C39F40030249278C
:1047E900901B89E0FF901B8BE09F50030248E1E496
:1047F900901B8FF0901B84E0FF901B8FE0FEC39FFE
:10480900400302491E901B8EE0701D901B89E0FF3A
:10481900125DC6901B8F125DDD125E27F8EF0880CE
:1048290002C333D8FC0248D4901B8DE014FFA3E0E7
:104839006F703F901B8BE012688E901B8EE024FFF7
:10484900FFE4125E16125DCF2FF9EA3EFA901B8F34
:10485900E07E0029F9EE3AFA123DC9FF901B8CE07F
:10486900FEC374089EFEF8EF088002C313D8FC0249
:1048790048D4125DCF125E0324FFFFEE125E16E9E3
:104889002FF9EA3E125E23C374089EFEF8EF0880F2
:1048990002C313D8FC901B90F0125DCF125E03FF88
:1048A900901B84E08FF0A429F9EA35F0125E23F811
:1048B900EF088002C333D8FCFB901B8EE0FF901BEE
:1048C90089E02F12688E901B90E04BFF126B3B9092
:1048D9001B8FE004F00247FD901B89E0FF901B8FBE
:1048E900E0FE125DC6F9901B8F125DDEFF901B8CF6
:1048F900E004FEF87401088002C333D8FC14FE906A
:104909001B8AE0FDF87401088002C333D8FC146ED9
:0E4919005FFF126B3B901B8EE004F00247DB49
:01492700226D
:105A5200026F33E493A3F8E493A34003F68001F2C8
:105A620008DFF48029E493A3F85407240CC8C33355
:105A7200C4540F4420C8834004F456800146F6DF24
:105A8200E4800B0102040810204080902144E47E4F
:105A9200019360BCA3FF543F30E509541FFEE49319
:105AA200A360010ECF54C025E060A840B8E493A3E0
:105AB200FAE493A3F8E493A3C8C582C8CAC583CA0B
:105AC200F0A3C8C582C8CAC583CADFE9DEE780BEC3
:013CD20000F1
:103CD300E709F608DFFA8046E709F208DFFA803ED3
:103CE30088828C83E709F0A3DFFA8032E309F608C0
:103CF300DFFA8078E309F208DFFA807088828C8328
:103D0300E309F0A3DFFA806489828A83E0A3F608DB
:103D1300DFFA805889828A83E0A3F208DFFA804CB5
:103D230080D280FA80C680D4806980F2803380108C
:103D330080A680EA809A80A880DA80E280CA8033F5
:103D430089828A83ECFAE493A3C8C582C8CCC5836D
:103D5300CCF0A3C8C582C8CCC583CCDFE9DEE7803D
:103D63000D89828A83E493A3F608DFF9ECFAA9F0BC
:103D7300EDFB2289828A83ECFAE0A3C8C582C8CC12
:103D8300C583CCF0A3C8C582C8CCC583CCDFEADE2B
:103D9300E880DB89828A83E493A3F208DFF980CC8D
:103DA30088F0EF60010E4E60C388F0ED2402B40486
:103DB3000050B9F582EB2402B4040050AF2323452D
:063DC3008223903D2373F2
:103DC900BB010689828A83E0225002E722BBFE02F8
:093DD900E32289828A83E493222B
:103DE200BB010CE58229F582E5833AF583E0225096
:103DF20006E92582F8E622BBFE06E92582F8E222E0
:0D3E0200E58229F582E5833AF583E49322F9
:103E0F00BB010989828A83F8E028F022500327F743
:103E1F0022BBFE05F8E328F3228A838982F8E49314
:023E2F00282247
:103E3100BB010FF8E58229F582E5833AF583E02895
:103E4100F0225009C58229F8E58226F622BBFE0937
:103E5100C58229F8E22582F222F8EA2583F583E971
:033E610093282281
:103E6400BB010689828A83F0225002F722BBFE013D
:023E7400F32237
:103E7600F8BB010DE58229F582E5833AF583E8F082
:103E8600225006E92582C8F622BBFE05E92582C82E
:023E9600F22216
:103E9800EF8DF0A4A8F0CF8CF0A428CE8DF0A42E3E
:023EA800FE22F8
:103EAA00BC000BBE0029EF8DF084FFADF022E4CCFC
:103EBA00F875F008EF2FFFEE33FEEC33FCEE9DECC5
:103ECA00984005FCEE9DFE0FD5F0E9E4CEFD22ED0B
:103EDA00F8F5F0EE8420D21CFEADF075F008EF2F55
:103EEA00FFED33FD4007985006D5F0F222C398FD46
:053EFA000FD5F0EA22E3
:103EFF00C2D5EC30E709B2D5E4C39DFDE49CFCEEDE
:103F0F0030E715B2D5E4C39FFFE49EFE123EAAC36D
:103F1F00E49DFDE49CFC8003123EAA30D507C3E468
:063F2F009FFFE49EFE224C
:103F3500C5F0F8A3E028F0C5F0F8E5821582700217
:063F45001583E038F022B4
:103F4B00A3F8E0C5F025F0F0E58215827002158329
:063F5B00E0C838F0E82286
:103F6100BB010A89828A83E0F5F0A3E0225006872B
:103F7100F009E71922BBFE07E3F5F009E3192289ED
:0B3F8100828A83E493F5F07401932220
:103F8C00BB0110E58229F582E5833AF583E0F5F073
:103F9C00A3E0225009E92582F886F008E622BBFE50
:103FAC000AE92582F8E2F5F008E222E5832AF58396
:083FBC00E993F5F0A3E993225B
:103FC400BB010A89828A83F0E5F0A3F0225006F748
:0F3FD40009A7F01922BBFE06F3E5F009F3192245
:103FE300EB9FF5F0EA9E42F0E99D42F0E89C45F034
:013FF30022AB
:103FF400A8828583F0D083D08212400B12400B122A
:10400400400B12400BE473E493A3C583C5F0C5834E
:10401400C8C582C8F0A3C583C5F0C583C8C582C816
:014024002279
:0C402500A42582F582E5F03583F58322A6
:09403100E0FBA3E0FAA3E0F92290
:10403A00F8E0FBA3A3E0F925F0F0E582158270020F
:07404A001583E0FA38F022B3
:09405100EBF0A3EAF0A3E9F02270
:0C405A00E493FB740193FA740293F922C2
:10406600BB010DE58229F582E5833AF583024031ED
:104076005007E92582F80240EEBBFE07E92582F8E3
:104086000240F7E58229F582E5833AF58302405A34
:10409600D083D082F8E4937012740193700DA3A3B9
:1040A60093F8740193F5828883E4737402936860CD
:0640B600EFA3A3A380DFCD
:0640BC008A838982E4738F
:105B5900901B9EEBF0A3EAF0A3E9F0901BA1E0FBF8
:105B6900A3E0FAA3E0F9123DC9FE901B9EE0FBA356
:105B7900E0FAA3E0F9123DC9FF6E702AEF600E90BA
:105B89001BA474FFF5F0123F3545F070037F002226
:105B9900901B9FE475F001123F35901BA2E475F04C
:105BA90001123F3580B5901B9EE0FBA3E0FAA3E00C
:105BB900F9123DC9FDD3EE6480F8ED648098400385
:105BC9007F0122901BA1E0FBA3E0FAA3E0F9123DBB
:075BD900C9FFC3ED9FFF228D
:10000E00E4FFFE123DC9600C0FEF70010E09E9709E
:05001E00F20A80EF2250
:1040C200EF4E6012EF60010EEDBB010B89828A8315
:1040D200F0A3DFFCDEFA2289F05007F709DFFCA922
:0C40E200F022BBFEFCF309DFFCA9F02279
:0940EE00E6FB08E6FA08E6F922F7
:0940F700E2FB08E2FA08E2F922FA
:00000001FF
