:1044F700706172616D6574657273206172652063A6
:104507006F7272656374202100706172616D6574EA
:10451700657273206572726F722021007265737401
:104527006F726520706172616D65746572732E2E8E
:104537002E00FFFFFFFF0808020801010000487E68
:10454700007375636365737366756C6C79202100FE
:10311A005113BB000000FFFFFFFF0808020801016E
:04312A000000487EDB
:1050CC00A3F07B017A137953227BFF90135E74015A
:0E50DC00F07D1F227B017A1379BE740EF02244
:0B526500123C371241F112477D80F827
:103C3700123F7F7A007910123CAB7A007910122478
:103C47006E7A047992123CAB7A04799212246E7AD6
:103C5700097914123CB97A09791412246E7A0D790C
:103C670096123CB97A0D799612246E1243BB124014
:103C770080124F389013D1E054FEF0125067125063
:103C8700AB125108125126C2A7125232D2AF1252AA
:103C9700799013C8E0700C124BEB9013C87401F0C5
:103CA700124BB3227B011240047E047F827D007B8E
:103CB70001227B011240047E047F827D007B01226A
:103F7F0075BA8090FE0374C0F090FE03E030E0F954
:103F8F0090FE017401F090FE00F0E4F5BA90135327
:103F9F00F074051250CCE4FF122DF09013537403FC
:103FAF00F0740A1250CCE4FF123FF7FF123FE9A35F
:103FBF0074321250CD7F01122DF09013537401F013
:103FCF00A3747C1250CD7F02123FF77F03123FE99B
:0A3FDF00A3141250CD7F03022DF051
:103FE9007A137953122DF09013537403F022122D82
:0B3FF900F0E4901353F0A304F0FB224F
:104D5800E4FFFE9013581250E0E4124E957B017A5E
:104D68001379BE74FF90135AF0A3F07D0C1239DC4E
:0F4D78009013CAE0B50607A3E0B50702D322C324
:014D87002209
:10408000124D587BFF50127A4479F71250D77F0EA9
:1040900012370F7FE87E03805E7A4579101250D781
:1040A0007F1312370F7FF47E011251447A45792332
:1040B0001250D57F1312370FE4FFFE124FD178BE96
:1040C0007C137D017BFF7A4579397E007F0E1221BA
:1040D0007890135B1250E0E4FFFE124E117FE87EF1
:1040E00003125144124FF77A4579481250D57F3167
:0B40F00012370F7FF47E0112514422B2
:10355F0020323430302000203438303020002039F1
:10356F0036303020003134343030200031393230B1
:10357F0030200033383430302000353630303020B2
:10358F0000353736303020003131353230300039A8
:10359F00323136303000B4F2BFAA00B9D8B1D500FD
:1035AF00C7EBCAE4C8EBC3DCC2EB00C7EBCAE4C885
:1035BF00EBD0C2C3DCC2EB00C7EBC8B7C8CFD0C2D9
:1035CF00C3DCC2EB0053544F500052554E00B9D8D4
:1035DF00B1D5CEDECFDFC4A3BFE900B4F2BFAACE10
:1035EF00DECFDFC4A3BFE900D2D4CCABCDF800CE81
:1035FF00DECFDFCDF800C0A9D5B9CDF800C4DAB25F
:10360F00BFCDF800CAC7B7F1BBD6B8B4B3F6B3A7EE
:10361F00C9E8D6C300CAC700B7F100C8C8B5E300F0
:0F362F00415020494400504C4331315F4150001D
:10312E00603C130A00FB80FF355F01FDC0FF356672
:10313E0002FEE0FF356D03FF40FF357404FF70FFA4
:10314E00357B05FFB8FF358206FFCFFF358907FFB8
:10315E00D0FF359008FFE8FF359709FFFDFF359E3C
:10316E004113460A4C1347FF35A5FF51AFFF35AA51
:07317E00FF51C84112E702F6
:103A74009013657408F07A0B79247BFFA312242336
:103A84007B0522E075F006A4240DF582E43413F5D9
:103A94008312240390135E7401F0227BFFE49013DD
:103AA4005EF022E075F006A4240BF582E43413F5ED
:103AB40083E0FEA3E0227BFFE490135EF0227BFF11
:103AC400E490135EF0227408901365F07BFF227B70
:103AD400FFE490135EF0227BFFE490135EF02290EB
:103AE4001356122403E92403F9E43AFA22740C90DD
:103AF4001365F07BFF227BFFE490135EF0229013AA
:073B04005612240302219E6A
:0E523200E49013BDF0124DB71252700200034B
:080003009013C7E0FF025259FF
:095270009013C6E024FF9287228E
:104DB7009013C2123AA7F58BEEF58D9013C3123AF2
:104DC700A7F5D7EEF5D69013C4123AA7F5D5EEF5A9
:0D4DD700D49013C5123AA7F5D3EEF5D22201
:10442500901356122423123AE3C003C002C00112AE
:104435003B027C00D001D002D00329F9EC3AFA12F4
:10444500219EF47003122206EF6401700304800CB0
:1044550012219E7005740A12220674FF1221E412BD
:10446500219E75F00A84E5F0122206123AE3C00394
:10447500C002C001123B027E00D001D002D0032948
:09448500F9EE3AFA12219EFF2221
:10501D007B017A13796A90137B12242390137EE41B
:10502D00F0A37404F07A137959123EF8EF70037FF0
:05503D0001227F0022AA
:100026009013561224237E007F047DFF123AE912B4
:0C003600246E901356122403E4022206EC
:1051E10074011221E412219EFF640470059013BC26
:0851F10004F0EF540302220652
:1051F900124FF77440123ACC7A1A79A8A3122423D1
:085209007BC0E4FDFF022C450F
:104EEA00124FF77432123AF37A0C7931A31224234F
:104EFA007B517D08E4FF122C457A3579AF123A9F2F
:074F0A007D0F7F6402370FE9
:103E7100124FF79013BDE06062E4901356F0901377
:103E810056E0FFC3940474809480503B74EB2FF58B
:103E910082E43412F583E0FF7E007B017A137957C7
:103EA10090135EE4F0A3740AF0122F89901356E088
:103EB10075F014A42464FF123A987D1212370F9002
:103EC1001356E004F080B7123AF17A0A79FFA3128F
:103ED10024237B107D107FAF122C457A3579BA12DD
:103EE1003A9F7D0F7F0F12370F7A3579C7123ABA91
:073EF1007D237F0F02370F54
:10487400124FF77BFF7A3579D4123A987D187F0F5F
:1048840012370F7BFF7A3579D9123A987D187F96C3
:1048940012370F9013C6E0901365700B7438F07BD9
:1048A400FF7A0E796880097438F07BFF7A11798871
:0E48B400A31224237B64E4FD7F2D122C4522E9
:104A5600124FF79013C7E075F01EA4240BFD123A0F
:104A6600F17A0A79DFA31224237B107F0A122C45E0
:104A76007A3579DD123ABA7D0A7F1E12370F7A35FA
:0C4A860079EA123AC27D287F1E02370F29
:104A9200124FF77A3579F7123AC27D1D7F0A123723
:104AA2000F9013C2123A877D1F7F6912370F123A95
:104AB200747D1F7F95122C459013657408F07A0B54
:0C4AC200791F123A7E7D1F7F61022C4597
:104B0800124FF77A3579FE123AD37D1D7F0A123794
:104B18000F9013C3123A877D1F7F6912370F123A1D
:104B2800747D1F7F95122C45123ACA7A0B791F1291
:094B38003A807D1F7F61022C45CB
:104B4100124FF77A367905123AD37D1D7F0A123753
:104B51000F9013C4123A877D1F7F6912370F123AE3
:104B6100747D1F7F95122C45123ACA7A0B791F1258
:094B71003A807D1F7F61022C4592
:104B7A00124FF77A36790C123ADB7D1D7F0A12370B
:104B8A000F9013C5123A877D1F7F6912370F123AA9
:104B9A00747D1F7F95122C45123ACA7A0B791F121F
:094BAA003A807D1F7F61022C4559
:104DE400124FF77A367913123ADB7D147F3012377B
:104DF4000F7A367924123AFA7D307F0A12370F7A05
:0D4E0400367927123AFA7D307FAC02370F65
:10434B00124FF77BFF7A36792AE490135EF07D0AE1
:10435B007F0A12370F9013C9E075F006A42447F5B6
:10436B0082E43413F583122403E490135EF07D0A88
:10437B007F7312370F123A747D0D7F95122C4512F5
:10438B003ACA7A0B791F123A807D0D7F61122C4548
:10439B007BFF7A36792F123A987D2B7F0A12370FD3
:1043AB007BFF7A367935123A987D2B7F6102370F76
:104BB3007B017A1379BE74FF90135AF0A3F07D0C36
:104BC3001239DC9013CAEEF0A3EFF0C2AFE4FFFE9C
:104BD300124FD17B017A1379BE90135B740EF0E40C
:084BE300FFFE124E11D2AF22B9
:103185004F00010305FF26C30105FF26C30405FF04
:0631950026C3410000000A
:1040FB009013551224039004811221B775F048A434
:10410B0029F9EA35F0FA22EF75F048A4FF9013581D
:10411B00122403E92FF9EA22901355122403900479
:10412B00810221B73EFAE92404F9E43AFA22E0FFCE
:10413B0075F048A4F58285F08322900044E4F5F0F5
:10414B001223887E007F4022122403E94A4B223E31
:10415B00FA900044122303901368F02275F048A4E0
:0B416B00FFAEF022FA9000010221B725
:0640040090135312242367
:10400A00E4901356F0F0901356E0C39410E4940031
:10401A005050901353122403901356124139E4124C
:10402A002218EF124107900001E4122218900002B0
:10403A00E4122218900003E4122218900044E4F5D6
:10404A00F0122388900046E475F00112414BC00734
:10405A001241317D00D00712246E901356E004F00D
:10406A0080A4901353122403900481E4122218901E
:06407A000480E40222189C
:10477D00E4900000F0900000E0FEC3940374809478
:10478D00805041E0FD75F005A42401F582E434006C
:10479D00F583E0FFED75F005A42402F582E4340005
:1047AD00F583E0FDEE75F005A42403F582E43400F5
:1047BD00F58312240389828A8312246C900000E011
:0447CD0004F080B1C3
:0147D10022C5
:104C8E007B007A007900EE702AEF24FD601114602B
:104C9E00151460192404701B7B017A007910227B95
:104CAE00017A047992227B017A097914227B017AA6
:034CBE000D7996D7
:014CC10022D0
:104CC2007B007A007900EE702AEF24FD60111460F7
:104CD200151460192404701B7B017A13798F227BCF
:104CE200017A13799A227B017A1379A5227B017AC0
:034CF2001379B083
:014CF500229C
:0A26C300901354EDF0901353EFF064
:1026CD007E00124C8E901355122423901354E0FF6C
:1026DD00124C8E901358122423901353E0FF124C7A
:1026ED00C290135B122423901354E0FF124CC2903E
:1026FD00135E122423E4901361F09013551241538D
:10270D0070030228AF90135812415370030228AF83
:10271D0090135B12415370030228AF90135E124168
:10272D005370030228AF1240FB9000021221B770C4
:10273D00030227FB901355122403C003C002C001EE
:10274D0012412312413AD001D002D0031221B7FE1B
:10275D00901353E06E60030227FB90135512240370
:10276D00EF12416729F9EA3E12416FFD901354E0D3
:10277D006D707BA312411B3EFA900002E4122218E9
:10278D00901354E064047010D2A7A31240FE900081
:10279D0044E475F00112233B12412312416729F9DC
:1027AD00EA12412F90136512242390135512411BE9
:1027BD0012415A90135E1224031247D21240FB129B
:1027CD004145C006C0077D001240FB124131D007C4
:1027DD00D00612246E901354E064047002C2A71246
:1027ED0041232401FFEF540F900481122218E4902D
:1027FD001361F0901361E0FFC39410E49400400363
:10280D000228AF12411235F0FA9000021221B77072
:10281D00030228A690135812240390136112413914
:10282D001221B7FE901354E06E707712411235F0FD
:10283D0012416FFF901353E06F70679000021222E8
:10284D0018901353E06404700BD2A790004475F0F8
:10285D000112233B901361E012416712411812419E
:10286D002F90136512242312411812415A90135BB5
:10287D001224031247D2901361E012411335F0FA7E
:10288D00124145C0071241317D00D00712246E90D0
:10289D001353E064047002C2A7901361E004F002C8
:0228AD00280001
:0128AF002206
:0B39DC00901356122423901359EDF0B5
:1039E700E490135CF0FDFC90135AE0FFA3E0901302
:1039F7005DCFF0A3EFF0E490135CF0901359E0FF74
:103A070090135CE0C39F505C901356E475F001126D
:103A1700240C12219EFF90135DE0F0A3E06FF0E409
:103A2700FCFD90135DE0FEA3E0FF30E019EEC31349
:103A3700FEEF13FFEE64A0FEEF6401FF90135DEE4F
:103A4700F0A3EFF0800B90135DE0C313F0A3E01336
:103A5700F00DBD00010CED64084C70C690135CE0DE
:0C3A670004F0809790135DE0FEA3E0FFE8
:013A73002230
:10338900C6F4CDA3BFAAB9D800CDA8D0C5B7BDCAC8
:10339900BD00C3DCC2EBD0DEB8C400B2A8CCD8C231
:1033A900CAC9E8D6C300B1BEBBFAC8C8B5E300BBF9
:1033B900D6B8B4B3F6B3A7C9E8D6C300D2D4CCAB58
:1033C900CDF800CEDECFDFCDF800C0A9D5B9CDF854
:1033D90000C4DAB2BFCDF800FFFFFFFF0077726FBC
:1033E9006E672070617373776F7264202100496E74
:1033F90076616C69642070617373776F7264210000
:1034090043757272656E7420636F756E747320698B
:103419007320312E0043757272656E7420636F7567
:103429006E747320697320322E00D0DEB8C4B3C91C
:10343900B9A600D0DEB8C4CAA7B0DC00506C65617B
:10344900736520776169742061206D6F6D656E7495
:1034590000FFFFFFFF0808020801010000487E0085
:0C34690000000000000000000000000057
:10319B004212180107602A121AFF338901FF487483
:1031AB00FF339203FF4A56FF339B05FF3E71FF33FC
:1031BB00A402FF5282FF33AF0CFF434BFF33B80621
:1031CB00FF4DE45C12BAFF33C508FF4A92FF33CCC4
:1031DB0009FF4B08FF33D30AFF4B41FF33DA0BFFD9
:1031EB004B7A52124400000000010201121A000037
:1031FB00000001020112BA606412561E01FF4ACE92
:10320B001B01FF4A191701FF41761D01FF51600F8A
:10321B0001FF4F5F1E00FF46CF1B00FF4726170025
:10322B00FF50EA1D00FF52220F00FF00421E02FF5B
:10323B00363E1B02FF34751702FF24AC1D02FF4FF5
:10324B00110F02FF517B1E03FF46171B03FF455750
:0F325B001703FF42661D03FF52110F03FF00917F
:1028B00078547C137D017BFF7E007F02122178908B
:1028C00013537A137954E0FF7E007B0190135EE48A
:1028D000F0A3740AF0229012E8E075F014A42464C6
:1028E000FF90135E7401F02278677C137D017B01F9
:1028F0007E007F110221789013C2E0FD901346E024
:10290000FB7A002278547C137D017BFF7E007F02DE
:10291000022178E090130B75F0060223F7E024FE05
:10292000901247F0901245E014901248F090124532
:10293000E022E024FE901250F090124EE01490122B
:1029400051F090124EE0229013C9EFF090134775AA
:10295000F0061223F7022403E075F014A42406FD08
:10296000901365740CF07A0A79DF7BFFA31224239D
:102970007B10221224039000031221B7901219F049
:102980009000040224387B017A1279D622901245F5
:10299000E075F007A4241AF9741235F0FA7B01905F
:1029A000124A2290124EE075F007A424BAF974126C
:1029B00035F0FA7B0190125322F583122403EF7550
:1029C000F014A42405FDE490135EF07F4622E01489
:1029D000901247F0901245E0901248F00422E490E3
:1029E0001218F07BFF22E014901250F090124EE08B
:1029F000901251F00422901353E0FF7E007B0122DD
:102A0000901219E06404229012187401F0A3740764
:102A1000F07BFF227B017A1279E8229013C9E0FD56
:102A20009012E7E0FB7A002278BE7C137D017E00E5
:102A30000221789012D6E075F014A424612290133C
:102A4000D27417F0A37470F022901245E0FD7B065B
:102A50007A0022901245E0901247F004227B017A1E
:102A60001279F9229013BDE07B01229013C7E06434
:102A700001F07BFF2290124EE0FD7B047A00229051
:102A8000124EE0901250F00422E490135EF07D0AA2
:0A2A90007F7322901219E024F72250
:1041F100123D57901354EFF0124CF6901354E064B3
:104201001F6061E4901353F0901353E0FFC39414C3
:1042110074809480504EEF75F005A42456F582E425
:104221003412F583E0FF901354E0B5072F90135338
:10423100E0FF75F005A42457F582E43412F583E01C
:10424100FE901218E0B50614EF75F005A42458F598
:1042510082E43412F583122403022468901353E09C
:0442610004F080A441
:014265002236
:095279007BFF7A5179F902008EE5
:03008E00022468E1
:10417600122A00707578567C137D01122986FE7FFF
:10418600111221787A1379BB1228E812501DEF70AC
:10419600217BFF7A3379E190137B12242390137EDF
:1041A600E4F0A37404F07B017A1379BE123EF8EFB3
:1041B600700F7BFF7A00794612008EE4901218F099
:1041C60022122986120026124FF77BFF7A3379E6F0
:1041D6001228E17D1F7F3112370F7FE87E031251CF
:0B41E600447BFF7A4E79EA12008E2223
:054ACE00122A00703403
:104AD3001229867F01124425901353EFF078547CFA
:104AE300137D017BFF7A34796912290C9013537A71
:104AF3001379541228C6122F89122A331228E07D03
:044B03002612370F30
:014B0700228B
:104F5F00901219E024FC601724FD70199012197437
:104F6F0004F07BFF7A4E79EA12008E122A3E22124B
:064F7F0029861251E12217
:10516000122A0070157BFF7A5179F912008E901285
:0B517000197407F01229861200262295
:054A1900122A007037B5
:104A1E001229867F02124425901353EFF078547CAE
:104A2E00137D017BFF7A34796B12290C901353128C
:104A3E0029F97A1379541228CC122F89122A33129B
:074A4E0028E07D2612370F5E
:014A5500223E
:1050EA0090124A122403122980E94A4B600F901247
:0E50FA00187402F090124A12297312008E22CE
:1046CF00901246E0FF14F0EF7001F0122A497F01BB
:1046DF00125196901245EFF064057004A37402F026
:1046EF00901246E0FD7C00700A122A5312292924E9
:1046FF00028011ED64014C90124570051229CE8095
:10470F000312291D901249F07BFF7A00794612009F
:07471F008E12298D022423F4
:01004200229B
:10522200122A077A5179F912008E12298602002673
:10472600901246E0FF04F0EF640270037402F01288
:104736002A49E4FF125196901245EFF07002A3F059
:10474600901246E0FD7C00700A122A531229292491
:10475600028011ED64014C90124570051229CE803D
:104766000312291D901249F07BFF7A007946120048
:074776008E12298D0224239D
:10448E009013BCE07055124FF79013BDE07BFF7A8E
:10449E003379F790135E7017041244EC7A3479096D
:1044AE001228E17D207F0512370F122A1480167410
:1044BE00011244EC7A34791E1228E17D207F051218
:1044CE00370F122A5D1200267FE87E031251447BBD
:1044DE00FF7A3E797112008E7F00227F0122F07DDD
:0944EE00147F0512370F7BFF2239
:1024AC00901219E01470030225A91470030225EF91
:1024BC001470030225C024FD700302263824FA7020
:1024CC000302260C2407600302267812448EEF7058
:0A24DC00030226789013BDE070594A
:1024E600901353F0901353E0FFC3940474809480C8
:1024F600502A74EB2FF582E43412F5831229F97A07
:102506001379541228CC122F899013531228D97D8F
:102516001212370F901353E004F080C890136574BD
:102526000CF07A0A79FF12296A7D107FAF122C45CA
:062536009013BD7401F0DA
:10253C000225A378567C137D01122A141228F07AF6
:10254C001279F91228E812501DEF602A7B017A12D9
:10255C0079FC7F04122A28124BB3122A141200267B
:10256C00122A5D120026E4901218F01226997BFFB5
:10257C007A0079468019124FF77BFF7A34793CE464
:10258C0090135EF07F461226B67BFF7A3E7971126D
:10259C00008EE49013BDF0E49013BCF0229013C6AF
:1025AC00E06401F024FF9287124BB37BFF7A4879E9
:1025BC00740226759013C7E07006FF1252598016EC
:1025CC007F01125259124FF77BFF7A34794512284A
:1025DC00E17F1E1226B61226791229DE7A00794680
:1025EC00022675901253122403122980E94A4B607B
:1025FC007B9012187403F0901253122973022675F3
:10260C009013C9E0FF90134A122917122403E94AC8
:10261C004B600D75F006EF90134A12295212246884
:10262C001226791229DE7A007946803DC2AFE4FF8A
:10263C00FE124FD17BFF7A34795A7F10122A287BF5
:10264C00017A1379BE90135B7410F0E4FFFE124E06
:10265C0011D2AF124DB7125270120003124BEB1283
:10266C0026991229DE7A00794612008E22124BB37B
:10267C00124FF77BFF7A347933E490135EF07D16BA
:10268C007F4612370F7FF47E0112514422124FF70E
:10269C007BFF7A347933E490135EF07D167F46121B
:1026AC00370F7FF47E01125144227D1612370F7FB3
:0726BC00F47E0112514422DB
:10517B00901219E024FB7012122A6470067A1279CD
:0B518B00E880047A1279F91251E12249
:104F1100901219E024FB7015122A14120026122A8D
:104F21005D120026E49013BDF09013BCF01229DE4F
:074F31007A00794602008EB0
:10363E00901219E024FE605514604824F7700302BE
:0E364E0036F224076003023703122A64701953
:10365C007A1279E81237047A34796D1228B0122F65
:06366C00891228D67D1230
:033672000237001C
:103675007A1279F91237047A34796F1228B0122F39
:09368500899012F91228D97D2662
:10368E00023700122A6B7A4A795602008E90124F38
:10369E00E0FF14F0EF7001F0122A757F01125196BF
:1036AE0090124EEFF064037004A37402F090124F68
:1036BE00E0FD7C00700A122A7F12293E240280113E
:1036CE00ED64014C90124E70051229E6800312290A
:1036DE0032901252F07BFF7A49795012008E1229E5
:1036EE00A3022423122A1BE4FF1251961229471219
:1036FE002A8912370F227F01124425901353EFF0BF
:01370E002298
:10347500901219E024FE606914605C24F770030261
:0E348500354224076003023553122A64702377
:103493007A1279E81235547A34797112290412298F
:1034A300F67A1379541228CC122F891228D67D125A
:0334B3000235508F
:1034B6007A1279F91235547A347973122904122959
:1034C600F67A1379541228CC122F899012F9122801
:0334D600D97D2677
:1034D900023550122A6B7A4A795602008E90124FA1
:1034E900E0FF04F0C3EF94027480948040037402F7
:1034F900F0122A75E4FF12519690124EEFF0700205
:10350900A3F090124FE0FD7C00700A122A7F122965
:103519003E24028011ED64014C90124E700512296F
:10352900E68003122932901252F07BFF7A497950D2
:1035390012008E1229A3022423122A1B7F01125181
:1035490096122947122A8912370F227F021244251F
:06355900901353EFF02275
:10461700122A9360171460241460312403704D121A
:1046270028F7E4FF1251969013C2802E9013C312FD
:1046370028FAE4FF1251969013C3801E9013C412F8
:1046470028FAE4FF1251969013C4800E9013C512F6
:1046570028FAE4FF1251969013C5EFF090130D124C
:0D466700294F1228E17D1F7F6912370F22B5
:10455700122A9360171460241460312403705012D8
:1045670028F77F011251969013C2802E9013C31221
:1045770028FA7F011251969013C3801E9013C4121C
:1045870028FA7F011251969013C4800E9013C5121A
:1045970028FA7F011251969013C5EFF075F0069037
:1045A700130D1229521228E17D1F7F6912370F223E
:10426600122A93601B14602914603724037064902B
:1042760013C2122913E0FEA3E0F58BEEF58D803113
:104286009013C3122913E0FEA3E0F5D7EEF5D6800E
:10429600209013C4122913E0FEA3E0F5D5EEF5D461
:1042A600800F9013C5122913E0FEA3E0F5D3EEF5B7
:1042B600D2124BB3124FF77BFF7A347933E4901363
:1042C6005EF07D167F4612370F7FF47E0112514451
:0442D600125211224D
:105211009012187402F0A3F07BFF7A4979500200D2
:015221008EFE
:01009100224C
:10004600E4901356F0124FF7901356E0C3940374DE
:100056008094805025E0FF2447F582E43412F5832E
:10006600E075F007A4241AF582E434121229B912B5
:10007600370F901356E004F080CE9012461229589E
:050086007F32022C4551
:10495000E4901356F0124FF7901356E0C39403E41B
:1049600094005025E0FF2450F582E43412F583E0F2
:1049700075F007A424BAF582E434121229B912376B
:104980000F901356E004F080CF90124F1229587FF9
:0449900032022C457E
:095282007BFF7A49795002008E8D
:104CF600901218E064017006A3E064076022EF6476
:104D06001F701A9013D1E030E01654FEF0122A07F5
:104D16007A5179F912008E122986020026122A3E4D
:014D2600226A
:1050420030313233343536373839414243444546BC
:105052004748494A4B4C4D4E4F5051525354555666
:055062005758595A00E7
:104EC00090135B122403901388E475F0011222ED15
:104ED00085F082F58322901389E024FFFF901388E8
:0A4EE000E034FF2290135B0224036C
:0C2F8900901359EEF0A3EFF0A3122423E4
:102F950078607C137D017BFF7A5079427E007F2526
:102FA500122178E4901388F0A3F090135EE070048A
:102FB500A3E0640A7027901359E0FEA3E0FFC3EE77
:102FC500648094805017C3E49FFFE49E901385F0BE
:102FD500A3EFF0124EC0742D122218800F901359D2
:102FE500E0FFA3E0901385CFF0A3EFF090135EE030
:102FF500FEA3E0FDAC06901385E0FEA3E0FF1222E0
:103005004C74602DF58274133CF583E0FF124EC0BD
:10301500EF122218901385E0FEA3E0FF90135EE007
:10302500FCA3E0FD12224C901385EEF0A3EFF04EC9
:1030350070BA124EE4901388E0FEA3E0F5828E8309
:10304500E412221812219EB42D0A90138CE4F0A3E9
:1030550004F08007E490138CF0A3F090138CE0FF4C
:10306500A3E090138ACFF0A3EFF0124ED6FE7C00BA
:103075007D021222A1D390138BE09FEE6480F8901D
:10308500138AE06480984003023114124EE49013D1
:103095008AE0FEA3E0F5828E831221B7901387F0B4
:1030A500124ED6FE90138DE02FFF90138CE03EFE5E
:1030B50090138AE0FCA3E0FDC3EF9DFFEE9C8F8299
:1030C500F5831221B78D828C83122218901387E025
:1030D500FF901389E024FFFD124EDDFC90138DE077
:1030E5002DFD90138CE03CFC90138AE0FAA3E0FBE5
:1030F500C3ED9BFDEC9AFC124EE48D828C83EF129E
:10310500221890138AE475F0011222D702306F90CD
:05311500135B0224031E
:10519600A905EF7003098006E97002A90319AF0398
:0951A600E98FF084A9F0AF0122A9
:104F85009013D2E07002A3E0601B9013D274FFF57A
:104F9500F01222D79013D2E07002A3E070079013AD
:064FA500D1E04401F022FE
:1051440090135CEEF0A3EFF090135C74FFF5F01293
:0B51540022ED45F0600512528B80ED4B
:01515F00222D
:08528B007F0B7EBEDEFEDFFC9E
:0152930022F8
:04326A0041138E007E
:1037D400ADF0FCEF75F0480223F7FF75F0480223C3
:1037E400F7EF75F0480223F7EF75F0480223F7FF6F
:1037F40075F0480223F7ADF0FCEF75F0480223F7AB
:10380400901365E475F00112240C02219EEF75F00B
:10381400480223F7FF75F0480223F7E0FEA3E0C354
:103824009440EE940022E5822DF582E5833CF583F5
:1038340022A3F0E4A3F0A374FFF0A374E8F0A3E0E0
:103844004401F0A37401F0A322EF75F0480223F7BA
:10385400900003122303AEF022E475F0010222ED7E
:10386400FF75F0480223F7EF75F0480223F7900044
:10387400010221B7A3F0A374FEF0A374E0F0229038
:0B38840000020221B79000060221B7ED
:1050670090138F7401F074501238357440F054FE69
:10507700F090139874EFF0A3F07B017A13798F0205
:02508700388F60
:03002300023CC7D5
:103CC700C0E0C0F0C083C082C0D075D01030990961
:103CD700C299901397E054FEF0309869C298900407
:103CE70090E0FF9000131237D87401F09000121281
:103CF70037E5E0704A900490E09000561237DEE412
:103D0700F0A304F09000541237EC12381F50309093
:103D17000490E09000541237DE12385D90001412C0
:103D270037D412382AE599F0900490E0FF900010FC
:103D37001237E67401F09000111238117405F090F3
:103D4700138E7401F0D0D0D082D083D0F0D0E0327F
:1050AB0090139A7402F074101238357414F0901334
:1050BB00A37401F0A374FEF07B017A13799A023882
:0150CB008F55
:03004300023B0B72
:103B0B00C0E0C0F0C083C082C0D075D010E59A3041
:103B1B00E10A539AFD9013A2E054FEF0E59A30E0CF
:103B2B006B539AFE900912E0FF9004951237ED74D7
:103B3B0001F0900494123811E0704B900912E09050
:103B4B0004D81237F3E4F0A304F09004D61237E54F
:103B5B0012381F5031900912E0FF9004D61237FE35
:103B6B0012385D9004961237D412382AE59BF090E8
:103B7B000912E0FF9004921238127403F090049330
:103B8B0012384D7405F090138E7403F0D0D0D082A0
:073B9B00D083D0F0D0E0322E
:105108009013A57403F0A37450F0740A12387890C1
:0E51180013AB7408F07B017A1379A502388F6F
:03008B00023BA293
:103BA200C0E0C0F0C083C082C0D075D010E5AC3098
:103BB200E10A53ACFD9013ADE054FEF0E5AC30E009
:103BC2006953ACFE900D94E09009171238187401F5
:103BD200F090091612384DE0704A900D94E0900969
:103BE2005A123818E4F0A304F09009581237EC1274
:103BF200381F5030900D94E0FF90095812384E1241
:103C0200385D9009181237FA12382AE5ADF0900D96
:103C120094E09009141238647404F0900915123873
:103C22006B7405F090138E7404F0D0D0D082D083E0
:053C3200D0F0D0E032EB
:105126009013B07404F0A37450F074A01238789001
:0E51360013B67410F07B017A1379B002388F33
:0300930002393DF2
:10393D00C0E0C0F0C083C082C0D075D008E584302F
:10394D00E10A5384FD9013B8E054FEF0E58430E0B5
:10395D00735384FE901216E0900D99123864740121
:10396D00F0900D9812386BE0705A901216E0FF909F
:10397D000DDC12386CE4F0A304F075F048EF900DF7
:10398D00DA1223F712381F503B901216E0900DDA21
:10399D001237F312385D900D9A1237FA12382AE564
:1039AD0085F0901216E0FF75F048900D961223F7F2
:1039BD007405F090138EE0FE75F048EF900D9712A0
:0F39CD0023F7EEF0D0D0D082D083D0F0D0E0320C
:10388F0012219EFD6401703B123872F59812388335
:10389F004289123854F58BEEF58D9000051221B741
:1038AF0013928E9000071221B7428E9000091221B9
:1038BF00B752B890000A1221B752B712388924FFB5
:1038CF0092AC227C00ED6402702B123872F59A12C2
:1038DF003854F5D7EEF5D69000071221B7428E1265
:1038EF00388942AF9000091221B752B590000A12E1
:1038FF0021B752B622ED64034C7014123872F5AC36
:10390F00123883F5D1123854F5D5EEF5D48019124B
:10391F00219E64047017123872F58412388342D1D5
:0E392F00123854F5D3EEF5D212388942AF2289
:105089009000081221B730E00AED1DAE0470011C32
:105099004E70EDE92408F9E43AFA12219E4401021E
:0250A9002206DD
:1047D200901362122423901368E0FF14F0EF6040FC
:1047E2009013621224037D887C1312508990136205
:1047F20012240312219E24FE601114601514601904
:10480200240370D2123804F59980CB123804F59B38
:1048120080C4123804F5AD80BD123804F58580B627
:014822002273
:0C524D00C2AC8F993099FDC299D2AC22FE
:1048C20090001375F0480223F790049575F04802A2
:1048D20023F7FF75F0481223F77401F0EF2401FF6C
:1048E200EF540F2275F048EF1223F7E0FEA3E04EDB
:1048F2002275F0481223F774FFF5F00222D79009CF
:074902001775F0480223F7CE
:104F3800E49013D4F0A3F0A3F0A374DCF0A3E4F09E
:104F4800A3E04401F04402F0A37420F0A3F07B0135
:074F58007A1379D402499499
:1049940012219E703D9000011221B7F58E90000205
:1049A4001221B7F589900003122303AEF0F58AEEC5
:1049B400F58C9000051221B7FF13928CEFC31313EB
:1049C40092A99000061221B742B89000071221B7AD
:0349D40042B722C5
:03000B000232734B
:10327300C0E0C0F0C083C082C0D075D000C000C021
:1032830001C002C003C004C005C006C007124F85B9
:10329300900490E0FF1248C2E0602B900056124861
:1032A300E6900490600CE09000561248C51248F96D
:1032B3008014E0FF9000121248CE1248DB90049075
:1032C300F01248C2E4F0900912E0FF1248CBE0602C
:1032D300249004D81248E69009126009E09004D8BB
:1032E3001248F38010E09004941248D4900912F02D
:1032F3001248CBE4F0900D94E0FF124900E06028FF
:1033030075F048EF90095A1248EA900D946009E06D
:1033130090095A1248F38010E09009161248D4908D
:103323000D94F0124900E4F0901216E0FF900D990D
:10333300124903E0603575F048EF900DDC1248EA5E
:10334300901216600CE075F048900DDC1248F68080
:103353001AE0FF75F048900D981248D8901216F0B5
:1033630075F048900D991223F7E4F0D007D006D0FA
:1033730005D004D003D002D001D000D0D0D082D069
:0633830083D0F0D0E0321F
:102A9A002B2B2B0061002B4F6B0041542B574D4FB2
:102AAA0044453D41505354410D0A002B4F4B0041C0
:102ABA00542B5741503D504C4331315F41502C4EBD
:102ACA004F4E450D0A0041542B4845415254445437
:102ADA003D37373737373732453739364537303666
:102AEA0031373832453633364636440D0A004154BA
:102AFA002B575354413D756E696F6E2C2A21796E9E
:102B0A007A666B6A3230303931323135212A0D0A10
:102B1A000041542B524547454E413D434C4F554485
:102B2A002C46495253540D0A0041542B534F434BE0
:102B3A00413D544350432C636C6F75642E75737218
:102B4A002E636E2C31353030300D0A0041542B5330
:102B5A0045415243483D31353030302C636C6F75F6
:102B6A00642E7573722E636E0D0A0041542B524502
:102B7A0047434C4F55443D30303031393633393084
:102B8A0030303030303030303035312C536B644790
:102B9A00417A796C0D0A0041542B57414E4E3D44FF
:102BAA004843500D0A0041542B5A0D0A0041542B38
:102BBA00454E544D0D0A00FF2A9AFF2A9E03E8004B
:102BCA000000FF2A9EFF2AA000C8000000FF2AA4D6
:102BDA00FF2AB500C8000000FF2AB9FF2AB500C8BD
:102BEA00000000FF2AD0FF2AB500C8000000FF2A13
:102BFA00F8FF2AB500C8000000FF2B1BFF2AB5000A
:102C0A00C8000000FF2B33FF2AB500C8000000FFF0
:102C1A002B56FF2AB500C8000000FF2B75FF2AB506
:102C2A0000C8000000FF2BA1FF2AB500C800000061
:0B2C3A00FF2BB0FF2AB500C80000000F
:1049D7007A2A79A47BFF7DC87C002275F00BA4247A
:1049E700C7F582E4342BF583E493FC740193FD222D
:1049F70075F00BA424C1F582E4342BF58302242C33
:104A07007A2B79B07BFF7DC87C0022F09013570288
:024A1700240376
:0C525900EF6006147005D29422C294226B
:104BEB00E4901356F0D294D2957FF47E0112514487
:104BFB00E4901356F0901356E0C3940C7480948099
:104C0B005014E0FF1249F7EF1249E21249099013D1
:064C1B0056E004F080DF0A
:014C21002270
:1049090090135712242390135AECF0A3ED124A1274
:10491900E94A4B603190135AE07002A3E060271214
:104929004A1312000E901368EF124A12901365127F
:1049390024237B017A13799A1247D290135AE0FE05
:07494900A3E0FF125144221C
:104D2700E4901353F0F0901353E0FFC39402E4941C
:104D370000501DEF1249F7E94A600D901353E01236
:104D470049E24C6003124909901353E004F080D6FE
:014D57002239
:1051AF00124D271249D71249097A2B79B71249DBC9
:0951BF00124909124A07024909CC
:1051C800124D271249D71249097A2B79B7124A0B7F
:0951D800124909124A07024909B3
:10009600B1EAB6A8BFAAB9D8B2CECA00C5E4D6C3DB
:1000A600CAB1BCE4D0D0C4A3C4E2C7EBCAE4C8EB6F
:1000B600C3DCC2EBD0C2C8B7C8CFD0DEB8C4B3C9A0
:1000C600B9A6CAA7B0DCD6F7BDE7C3E6B1BEB5D8B8
:1000D600C1ACBDD3D4B6B3CCCDA8D0C5B7BDCABD0F
:1000E600C6F4CDA3B2A8CCD8C2CAC9E8B4AEBFDAAA
:1000F600BBD6B8B4B3F6B3A7CAC7B7F1B5C8C4DAA6
:10010600B2BFCFB5CDB3D2BBB6FEC800CBC4B3F534
:10011600CABCBBAFD2D4CCABCDF8CEDECFDFC0A944
:10012600D5B9B4F2BFAAB9D8B1D5C4A3BFE9B1BE97
:10013600BBFAC8C8B5E38868FF48109212F212925B
:10014600100000000F000201080F000003002C241D
:10015600A42425E6242424242C0008040304080FE0
:10016600090909090800404242FE424242FE424253
:100176004000000806010000000F00000000404893
:10018600494A48F8484A494840000808040201001C
:100196000102040808009054B6955C543494365411
:1001A6009000000A0A0A0A09050404020000482A07
:1001B600987F284A10EF08F80800090B05050B0080
:1001C600080502050800FA4A3E0A3E4AFA00E222FB
:1001D6003E000F05050505050F0007080E00101760
:1001E600D555577D5755D517100008080F08080E26
:1001F60008080F080800FE2222FE0008488808FFAB
:1002060008000702020700000009080F000000F9B5
:1002160002F849494949F901FF00000F00030202AB
:1002260002020B080F004824F20910121212F212F1
:10023600100000000F00000008080F00000088688A
:10024600FF4802FAAFAAAFFA020000000F000A0A3E
:100256000603060A0A0088FF4800FE00820CE01F1B
:100266000000080F00000309040300030C0011F24C
:100276000022EAAABFAAAAEA2200000F04000F027F
:1002860002020A0F0000342CF7A4E8A4EA09CA0403
:10029600E80001010F000F020F0003080F00000025
:1002A6000181720C70800000000008040201000049
:1002B600000102040800463282B2466B524A6212BC
:1002C6006600000E0808080F0808080E000042F233
:1002D6002EE2013D2121213FE00000070207010136
:1002E60001010908070020AAB2E3B2AA00FE12F231
:1002F60011000402080F000A0403000F000042F276
:100306002EE200F453F25A56F000000702070807DF
:10031600010701090F001011F2000000C03FC000E4
:10032600000000000702090601000106080010FC93
:1003360003F810948B4A2A961000000F0003080A4F
:100346000A0905040200E222223E2010EF088878FE
:1003560008000F040201080402010204080000FC60
:100366002424E404FF0485660400080700020B0445
:10037600020102040F000404FC040408FF08080834
:10038600F800020201090503000008080700A09012
:100396008E8888FF8888888080000808040201000B
:1003A600010204080800FE02FA02FE10EC0B08F82F
:1003B6000800090403040908050205080800008866
:1003C600888889FA88888888000008080808080F3D
:1003D600080808080800809F9555553F5555959F74
:1003E6008000000804030000000F0000000002F275
:1003F6001212FA5652F21212F200000F0404070506
:10040600050704040F000404846414FF14648404C0
:10041600040002010202020F020202010200101091
:10042600FF1020FC10FF0884FC00040403020007F0
:10043600080908080E0021E20004342C27F42424BD
:100446000400080708090909090F0909090088882D
:10045600FF48A4ACB5E6B4ACA40000080F00080A37
:100466000B04040B080021E2001012F21212F21221
:1004760010000807080A09080808090A0B0012D222
:10048600FE51802F29E9292F000001000F000809DD
:10049600090F0909080011F200F9A9ABFDADABF887
:1004A60000000807080B08080B080A0B080010FCD8
:1004B60003045454555654540400000F00000F050D
:1004C6000505050F0000040404FC2526242424E465
:1004D6000400080403000000080808070000084894
:1004E60048C8484808FF08090A000808080704041D
:1004F600040003040E000000FCA4A4A5A6A4A4A462
:10050600BC000806010F0404040404040F002010B4
:10051600FC0382BAAAABAABA820000000F0001024D
:100526000A0E02020100224400FC24E4243F24E4D3
:100536000C000402080708080502050808009C8844
:10054600FF481054545FF454500000000F0000019F
:100556000A080F000000028A529AD6B3D28A528A3B
:10056600020002020202020F02020202020010113F
:10057600F20050CF41414FD010000000070208089A
:10058600050205080800C05E525252FF5252525EE2
:10059600C00007020202020F02020202070000FE6A
:1005A60002020202020202FE00000007020202022A
:1005B6000202020700007800FF08C43FC404F444A6
:1005C600240000000F0403080402010608000402C8
:1005D6007DD555555555557D0100000A090B050574
:1005E60005050B090800801E101010FF1010101EC4
:1005F6008000070404040407040404040F0000FE3A
:1006060002020202020202020200080700000000C3
:1006160000000000000040405F5555D555555F402D
:10062600400008040304080F09090909080011918C
:10063600898985BF818585891100000F040404041A
:100646000404040F000044535256527C53D25652AF
:100656004200010103050109090F0101010000FC27
:100666000484641F24C404FC0000000F0000000082
:100676000008080F000020AAB2A3B2AA20FE023288
:10068600CE00000F0404040F000F020201000082D6
:1006960092DAD6B2B19189C1800008040200080F2F
:1006A60000000204090098D4B3880064D44DC654EF
:1006B600E400040402020804030007080C0040409A
:1006C60040404040404040404000000000000000E4
:1006D60000000000000000040404040404040404F0
:1006E60000000404040404040404040404000002D6
:1006F60042424242424242020000080808080808F4
:1007060008080808080000FE02827E02027E828235
:10071600FE00000F05040404040404040F008445CD
:10072600F64CA002FE020202FE0000000F000806C0
:1007360001000808070088780FF800D8545350D8ED
:1007460030000805020D000F0404040F00002010FD
:10075600FC030080FF201008040000000F000100C9
:10076600070808080E0000FE0080420C00807F008B
:100776000000000309080404020102040800080836
:100786000888681FE808080808000804020102042F
:10079600000304080800FF0991619109916191091C
:1007A600FF000F0100000001000008090F002022D1
:1007B6002222E23EE2222222200008040201000058
:1007C600070808080E0098D4B388004848FF24A5F7
:1007D6002600040402020808040305080E0088889F
:1007E600FF4800FC04050604040000080F00080783
:1007F60000000000000000FF45D57D55D5557D550C
:1008060047000807000F08040102040A0900888847
:10081600FF4848020202FE02020000080F00000024
:1008260008080F000000404242FE424242FE424299
:100836004000000806010000000F000000004048CC
:10084600494A48F8484A4948400008080402010055
:1008560001020408080000F9022020A2FA2222025E
:10086600FE00000F00020104070008080F00886858
:10087600FF4802FAAFAAAFFA020000000F000A0A08
:100886000603060A0A0008FF08404444FF44447C65
:1008960040000203010804030003040808000404DE
:1008A600846414FF14648404040002010202020F2B
:1008B6000202020102008868FF2840FE0202FE00D2
:1008C600000000000F080403000007080E0024249F
:1008D600FF1400D43F447C80E000080501040900B1
:1008E60004080004090000F01010101F121212F282
:1008F60002000805010509010509010508000000B7
:1009060000000000004F00000007000700147F14DD
:100916007F14242A7F2A122313086462364955223B
:10092600500005070000001C2241000041221C0067
:1009360014083E081408083E080800503000000855
:1009460008080808006060000020100804023E51F4
:1009560049453E00427F400042615149462141459A
:100966004B311814127F1027454545393C4A4949F1
:100976003001710905033649494936064949291E98
:1009860000363600000056360000081422410014D6
:1009960014141414004122140802015109063249A4
:1009A60079413E7E1111117E7F494949363E4141CA
:1009B60041227F4141221C7F494949417F0909095A
:1009C600013E4149497A7F0808087F00417F41007E
:1009D6002040413F017F081422417F404040407F34
:1009E600020C027F7F0408107F3E4141413E7F0991
:1009F6000909063E4151215E7F09192946464949A2
:100A0600493101017F01013F4040403F1F20402006
:100A16001F3F4038403F63140814630708700807F7
:100A26006151494543007F414100020408102000FE
:100A360041417F000402010204404040404001025F
:100A460004000020545454787F48484830384444C1
:100A56004444304848487F385454545800087E0966
:100A660002485454543C7F0808087000007A00007D
:100A76002040403D007F2028440000417F40007C0C
:100A86000438047C7C0804047838444444387C14D4
:100A9600141408081414147C7C08040408485454DC
:100AA600542404043F44243C4040403C1C20402045
:100AB6001C3C4030403C442810284404483008047C
:100AC6004464544C4408364141000000770000005D
:100AD600414136080402020201F8F8101008040425
:100AE600024AC94D4A484868300303010101010121
:100AF60001010000000000000000000000F0F8FC0A
:100B0600FCFCFCF8F00000000000000000000103FF
:100B1600030303010000000000081C3E7F00007F65
:100B26003E1C08000000000000000000000000005D
:100B360000000000000000000000000000000000AF
:100B4600000000000000000000000000000000009F
:100B5600000000000000000000000000000000008F
:100B6600000000000000000000000000000000007F
:100B7600000000000000000000000000000000006F
:100B8600000000000000000000000000000000005F
:100B9600000000000000000000000000000000004F
:100BA60000000000000000FFFFFFFFFFFFFFFFFF48
:100BB600FFFFFFFFFFFFFFFFFFFFFFFFFFFFFFFF3F
:100BC600FFFFFFFFFFFFFFFFFFFFFFFFFFFFFFFF2F
:100BD600FFFFFFFFFFFFFFFFFFFFFFFFFFFFFFFF1F
:100BE600FFFFFFFFFFFFFFFFFFFFFFFFFFFFFFFF0F
:100BF600FFFFFFFFFFFFFFFFFFFFFFFFFFFFFFFFFF
:100C0600FFFFFFFFFFFFFFFFFFFFFFFFFFFFFFFFEE
:100C1600FFFFFFFFFFFFFFFFFFFFFFFFFFFFFFFFDE
:100C2600FFFFFFFFFFFFFFFFFFFFFF0000000000C9
:100C360000000000000000000000000000000000AE
:100C460000000000008080C0C0E0E0E0F0F0F0F8B6
:100C5600F8F8F8FCFCFCFCFCFCFCFEFEFEFCFCFCD4
:100C6600FCFCF8F8F8F0E0C000000000000000000E
:100C7600000000000000000000000000000000006E
:100C8600000000000000008080C0E0E0F0F0F8FC0A
:100C9600FCFCFEFEFFFF7F7F7F7F7F7F3F3F3F3F66
:100CA6003F3F3F3F3F3F3F1F1F3F3F3F3F3F3F3F8E
:100CB6003F7F7F7FFFFFFFFFFFFF3C00000000003C
:100CC600000000000000000000000000000080405E
:100CD60020203018180C0E0F0F0707070303030117
:100CE6000101010000000080C0E0E0F0F0F0F8F83B
:100CF600F8F8FCFCFCFCFCFCFCFCFCFCF8F8F8F04E
:100D0600F0E0000000000001071F030000000000E3
:100D160000000000000000000000000000000000CD
:100D260000000000000000000000000000000000BD
:100D36000080E0C00000043F3F3F7F7FFFFFFFFFD2
:100D4600FFFFFFFFFFFFFFFF7F7F7F7F3F3F3F1FCD
:100D56000F07030000000000000000008080808074
:100D6600C0C0C0C0E0E0703030180C0000000000C9
:100D7600000000000000000000000000000000006D
:100D86000000FFFFFFFFFEFEFCFCFCF8F8F8F8F899
:100D9600F8F8F8F8F8F8F8F8F8F8F8F8F8F8F8FCC9
:100DA600FCFCFCFCFCFEFEFEFEFFFF7F3F3F1F1F20
:100DB6000F0707030101000000000000000000000B
:100DC600000000000000000000000000000000001D
:100DD60000000001070F1F3F3F3F7F7F7F7F7F7F20
:100DE6007F7F7F7F7F7F7F7F7F3F3F3F3F1F1F1F2D
:100DF6000F0F0707070303010100000000000000B2
:100E060000000000000000000000000000000000DC
:100E160000000000000000000000000000000000CC
:100E260000000000000000000000000000000000BC
:100E360000000000000000000000000000000000AC
:100E4600000000000000000000000000000000009C
:100E5600000000000000000000000000000000008C
:100E66000000000000C0C0C0C0C0C0C0C0C0C0C03C
:100E7600C0C0C0C0C0C0C0C0C0C0C0C0C0C0C0C06C
:100E8600C0C0C0C0C0C0C0C0C0C0C0C0C0C0C0C05C
:100E9600C0C0C0C0C0C0C0C0C0C0C0C0C0C0C0C04C
:100EA600C0C0C0C0C0C0C0C0C0C0C0C0C0C0C0C03C
:100EB600C0C0C0C0C0C0C0C0C0C0C0C0C0C0C0C02C
:100EC600C0C0C0000000000000FFFF00000000805E
:100ED6008080C0C0E0E0E0E020206060606060608C
:100EE60060606060606060606060606060C0C0C0DC
:100EF600C0C0C0C0C0C0C0C0C0C0C0C0C0C0C0C0EC
:100F0600C0C0C0C0C0C0C0C0C0C0C0C0C0C0C0C0DB
:100F1600C0C0C0C0C0C0C0C0C0C0C0C0C0C0C0C0CB
:100F2600C0C0000000FFFF000000000000FFFF003F
:100F36000000FFFFFFFFFFFFFFFFFFFF00000000B5
:100F4600000000000000000000000000000000009B
:100F5600000000000000000000000000000000008B
:100F6600000000000000000000000000000000007B
:100F7600000000000000000000000000000000006B
:100F860000000000FFFF000000FFFF00000000005F
:100F960000FFFF000000FFFFFFFFFFFFFFFFFFFF57
:100FA600000000007EE6C38383C3EE7C00000000E1
:100FB600000000000000000000000000000000002B
:100FC600000000000000000000000000000000001B
:100FD600000000000000181818181818181818181B
:100FE6001818180000000000FFFF000000FFFF00B7
:100FF6000000000000FFFF000000FFFFFFFFFFFFF3
:10100600FFFFFFFF000000000000000101000000DC
:1010160000000000000000000000000000000000CA
:1010260000000000000000000000000000000000BA
:1010360000000000000000000000000000000000AA
:10104600000000000000000000000000FFFF00009C
:1010560000FFFF000000000000FFFF00000000008E
:101066000101030307070F0F0C0C0C0C0C0C0C0CE6
:10107600060606060606060606060606060606060A
:101086000606060606060606060602020202020212
:10109600020202020202020202020202020202022A
:1010A600020202020202020202020202020202021A
:1010B6000303000000FFFF00000000000007070612
:1010C60006060606060606060606060606060606BA
:1010D60006060606060606060606060606060606AA
:1010E600060606060606060606060606060606069A
:1010F600060606060606060606060606060606068A
:101106000606060606060606060606060606060679
:101116000606060606060606060707000000000085
:1011260000000000000000000000000000000000B9
:1011360000000000000000000000000000000000A9
:101146000000000000000000000000000000000099
:101156000000000000000000000000000000000089
:101166000000000000000000000000000000000079
:101176000000000000000000000000000000000069
:101186000000000000C0C0C0C0C0C0C0C0C0C0C019
:10119600C0C0C0C0C0C0C0C0C0C0C0C0C0C0C0C049
:1011A600C0C0C0C0C0C0C0C0C0C0C0C0C0C0C0C039
:1011B600C0C0C0C0C0C0C0C0C0C0C0C0C0C0C0C029
:1011C600C0C0C0C0C0C0C0C0C0C0C0C0C0C0C0C019
:1011D600C0C0C0C0C0C0C0C0C0C0C0C0C0C0C0C009
:1011E600C0C0C0000000000000FFFF000000C0C03B
:1011F60040404040404040404040404040404040E9
:1012060040404040404040404040404040404040D8
:1012160040404040404040404040404040404040C8
:10122600404040404040406060606060606060E018
:10123600E0E0E0E0E0E0E06060E0C0C0C0C08080E8
:101246000000000000FFFF000000000000FFFF009C
:101256000000FFFF0000000000000080808080008A
:101266000000000000000000000000000000000078
:101276000000000000000000000000000000000068
:101286000000000000000000000000000000000058
:1012960000000000000000000000000000FFFFFF4B
:1012A600FFFFFFFFFFFC000000FFFF000000000043
:1012B60000FFFF000000FFFF00000000003F71611B
:1012C600C1C161773E000000000000000000000080
:1012D6000000000000000000000000000000000008
:1012E60000000000000000000000000000000000F8
:1012F60000000000181818181818181818180000F8
:1013060000FFFFFFFFFFFFFFFFFF000000FFFF00E2
:101316000000000000FFFF000000FFFF00000000CB
:1013260000000000000000000000000000000000B7
:1013360000000000000000000000000000000000A7
:101346000000000000000000000000000000000097
:101356000000000000000000000000000000000087
:101366000000000000FFFFFFFFFFFFFF7F3F0000C0
:1013760000FFFF000000000000FFFF000000030365
:101386000202020202020202020202020202020237
:101396000202020202020202020202020202020227
:1013A6000202020202020202020202020202020217
:1013B60002020202020202020202020606060606F3
:1013C60006060E0E0E0E0E0E0E0F0F0F0703010071
:1013D6000000000000FFFF000000000000070706F5
:1013E6000606060606060606060606060606060697
:1013F6000606060606060606060606060606060687
:101406000606060606060606060606060606060676
:101416000606060606060606060606060606060666
:101426000606060606060606060606060606060656
:101436000606060606060606060707000000000062
:101446000000000000000000000000000000000096
:101456000000000000000000000000000000000086
:101466000000000000000000000000000000000076
:101476000000000000000000000000000000000066
:101486000000000000000000000000000000000056
:101496000000000000000000000000000000000046
:1014A60000008080808080808080808080808000B6
:1014B600000000000000000000000000FFFFFFFF2A
:1014C600FF00000000000000000000000000000017
:1014D6000000000000000000000000000000000006
:1014E60000000000000000000000000000000000F6
:1014F60000000000000000000000000000000000E6
:1015060000000000000000000000000000000000D5
:1015160000000000000000000000000000000000C5
:1015260000000000000000000000000000000000B5
:1015360000000000000000000000000000000000A5
:101546000000000000000000000000000000000095
:101556000000000000000000000000000000000085
:1015660000007F7F7F7F7F7F7F7F7F7F7F7F7FFF03
:10157600FFFFFFFFFEFEFEFCFCF8F8F8FFFFFFFF93
:10158600FF00000000000000000000000000000056
:101596000000000000000000000000000000000045
:1015A60000C0C0C0000000000000000000000000F5
:1015B6000000000000000000000000000000000025
:1015C6000000000000000000000000000000000015
:1015D600C0C0C000000000000000000000000000C5
:1015E6000000000000000000C0C0C00000000000B5
:1015F600000000000000000000000000000000C025
:10160600C0C0000000000000000000000000000054
:1016160000000000000000000000000000000000C4
:101626000000F0F0F0F0F0F0F0F0F0F0F0E0E0E0C4
:10163600E0E0E0E0C1C181838307071FFFFFFFFFF2
:10164600FFFFFFFFFFFFFFFFFFFFFFFFFFFFFF00A3
:10165600000000000000000000E0E0E0E0E0E0E064
:10166600E0FFFFFFE0E0E0E0E0E0E0E00000000097
:10167600FFFFFF07C7C7C7C7C7C7C7C7C7C7C7C70C
:1016860007FFFFFF0000003C3C3C3C3C3C3C3C3C34
:10169600FFFFFF3C3C3C3C3C3C3C3C3C000000F03B
:1016A600F0F0F0F0F0F0F0F0FFFFFFF0F0F0F0F007
:1016B600F0F0F0F000000000F8F87878787878FF1D
:1016C600FFFF78787878F8F8F8000000000000FF4F
:1016D600FFFF1F1F1FDFDFDF1F1F1FDFDFDF1FFFF4
:1016E600FFFF0F0F0F0F0F0F0F0F0F0F0F1F1F1FF4
:1016F6001F1F1F3F3F3F3F7F7FFFFFFEFFFFFFFF95
:10170600FFE0E0E0E0E0E0E0E0E0E0E0E0E0E00094
:10171600000000000000000000FFFFFF03030303BA
:1017260003FFFFFF0303030303FFFFFF00000000A7
:10173600FFFFFF0003E3E3E3E3FFFFFFE3E3E3E38E
:1017460000FFFFFF00000000FEFEFE1E1E1EFEFE46
:10175600FF1F1FFEFEFE1E1EFEFEFE000000000016
:10176600000000000000FFFFFFFFE0E0E0E0E0E037
:10177600E000000000000000FFFF7878787878FF2E
:10178600FFFF78787878FFFFFF000000000000FF79
:10179600FFFF0E1EFEFFFF1F0C3CFCFFFF0700FFB6
:1017A600FFFFFEFEFEFEFEFEFEFCFCFCFCFCFCFC5F
:1017B600FCFCF8F8F8F8F0F0E0E0C0C3FFFFFFFF2C
:1017C600FF1F1F1F1F1F1F1F1F1F1F1F1F1F1F0062
:1017D6000000000000000000001F1F1F1F1F1F1F2A
:1017E6001FFFFFFF1F1F1F1F1F1F1F1F00000000DF
:1017F600FFFFFFC0C0C1C1C1C1FFFFFFC1F9F9F9B9
:10180600C0FFFFFF00000000FFFFFF00CFCFCFCFDC
:10181600FFFFFFFFCFCFCF00FFFFFF00000000005C
:1018260000000000C0F8FFFF0F0101010101FFFFEA
:10183600FF000000000000007F7F7878787878FF4E
:10184600FFFF787878787F7F7F000000000000FF38
:10185600FFFFF0F8FF3F3F3FF8F8FF3F7FFEF0FF46
:10186600FFFF010101010101010101010103030360
:101876000303070707070F0F1F1F3F7FFFFFFFFF2A
:10188600FFF8F8F8F8F8F8F8F8F8F8F8F8F8F800C3
:101896000000000000000000000000000000000042
:1018A60000FFFFFF00000000000000000000000035
:1018B600FFFFFFF1F1F1F1F1F1F1F1F1F1F1F1F1E8
:1018C600F1FFFFFF00000000FFFFFF00030303031B
:1018D600FFFFFF030303F3F0FFFF7F00000000009C
:1018E600F8F8FC3F1F0F03000000707070707F7FD8
:1018F6007F0000000000000000000000000000FF64
:10190600FFFFE0E0E0E0E0E0FCFCFC00000000FFA0
:10191600FFFF0000000000000707070000F0F0FFCF
:10192600FFFF0000000000000000000000000000B3
:10193600000000000000000000000000FFFFFFFFA5
:10194600FF07070707070707070707070707070030
:101956000000000000000000000080C0C080000001
:10196600800101810000800080800000800000006E
:101976008080000000000000C0C0C000000080C0E1
:10198600C0800000C00000C0C000C0C0C0C0008051
:10199600800000800000C1C1C1C00000C0C0C0807E
:1019A6000000800000008000000080C0C0C08000F1
:1019B6000080C0C08000C0000000000000C000C160
:1019C600C1C1C10101C1C1C181010100000080C0C6
:1019D600C080000080C0C0C08000808000C0C0C041
:1019E600C0800000000000000000000000000000B1
:1019F600000000000000000000000000FFFFFFFFE5
:101A0600FFFFFFFFFFFFFFFFFFFFFFFFFFFFFF00DF
:101A16000000000000000000003FFFC0C0610000A1
:101A2600FF0404FF0000FF00FF0F0E78FF00E07EBA
:101A360067677CE000000063C7CCFD71003FE1C032
:101A4600C07F1E007FC0C0FF3F0000FFFF0000FFF9
:101A5600FF0C0CFF0000FFCCCCCC007FFF181CFF56
:101A6600C000FF071CF8FF000000FFFF180F07006B
:101A76003EF3E1E1F33F07FEF80707FCFE0300FF34
:101A8600CCCCCC0000FF181CFFC00000003FFFC0FC
:101A9600C8F93000FF0C0C3CE700FFFF00FFC0C098
:101AA600F37F0000000000000000000000000000BE
:101AB6000000000000000000000000000000000020
:101AC6000000000000000000000000000000000010
:101AD6000000000000000000000000000000000000
:101AE60000000000000000000000000000000000F0
:101AF60000000000000000000000000000000000E0
:101B060000000000000000000000000000000000CF
:101B160000000000000000000000000000000000BF
:101B260000000000000000000000000000000000AF
:101B3600000000000000000000000000000000009F
:101B4600000000000000000000000000000000008F
:101B560000000000000080F000000000000000808F
:101B6600000000000000000000000080808080C0AF
:101B7600C06060303010B8F8780000000000000047
:101B8600000000000000000000000000000000004F
:101B960000000000003030180C0402E3FE1C0000B8
:101BA600000000000000000000000000000000002F
:101BB60000000000000000000000008080C0E0E09F
:101BC600800000000000000000000000000000008F
:101BD60000000000000000000000000000000000FF
:101BE60000000000000000000000000000000000EF
:101BF600000000000000C0FEFF1C00000000000006
:101C0600000000000000000000000000000000804E
:101C160000000080E07C4761F060000804C27F1F7E
:101C2600070000000000000000F8F001010101C1FA
:101C36008080C070380C0701000000000000000022
:101C46000000000000000000C0C0606030180CFCFE
:101C56000800000CF8000000F0F0FC1F0000000077
:101C66000000000000000000000000000080C0E04E
:101C7600E0000000E020100804E60301C0F81F079A
:101C8600010000000000000000000000000000004D
:101C9600000060E0C0C0C0C0C0C04040E0C000005E
:101CA600000000000000000000000000000000002E
:101CB6000000000000F8FF3F030090F0C0000000A5
:101CC600000000000000000000000000000000838B
:101CD600FE38068378F0CC07010080E09E83800002
:101CE6000000000000000000E0FF7F000060380FE9
:101CF6000703010080000000000000000000000053
:101D06000000000000000000E000001E1800F07F48
:101D1600000000FE1F000080FFFF0700000000001B
:101D26000000000000000000000002070301FF3F62
:101D36000100001C3F0088CC7F73380F03000000B1
:101D4600000000000000000000000000000000008D
:101D56000000000103030301C0F0F87E1F07010025
:101D66000000000000000000000000C0C0C0C0C0AD
:101D7600C0E0E0F0FF7F391C0E07070100000000FD
:101D8600000000000000000000000000070781803E
:101D9600C76021111888846432190D0703010100F8
:101DA60000000000000000808101000000000080AB
:101DB600C00000F8FF0088F0E0000000000000000E
:101DC60000000000000000060701000001030300F8
:101DD60000F07F0300000C0700FF00000000000079
:101DE60000000000000000000040606078FECFC0E8
:101DF600000000000002CF83C08000000000000049
:101E060000000000000000000000000000000000CC
:101E160000000080E0F8FEBF9F8781800000000080
:101E26000000000000000000000000010101018127
:101E3600C1791F03008000000000000000000000C0
:101E4600000000000000C0E0E070380C060301004E
:101E560000000000E0190780C0C00000000000007C
:101E6600000000000000F8FF3F0400000383C343A6
:101E7600213018FFFFE6C38180C0C080000000004B
:101E8600000000000000000000000000000000E06C
:101E9600FE07000000000000FFFF00000000000039
:101EA60000000000000000000000C0F07C1F0300DE
:101EB6000000000000E3BF07018080000000000072
:101EC60000000000000000000020F0F0F0F8F878B4
:101ED6007C3C1E1F0F0F07030303010000000000D8
:101EE60000000000000000000000008060381E07AF
:101EF6000100000000001FFCF0C080000000000090
:101F060000000000000001010000000060E0E07039
:101F160070381C1CFF0703070701000000000000C3
:101F2600000000103C7F3F38180C06060301000035
:101F36000000000001010101010101000000000094
:101F460000000000000000000000000000E07E0F1E
:101F560000000000000000000F0F0000000000005D
:101F66000000000000000000000001010000000069
:101F76000000000000030303030307030000000042
:101F86000000000000000000000000010100000049
:101F9600000000000000000000000000000000003B
:101FA600000000000000000406020100000000001E
:101FB600000000000000000003070F0707030100F0
:101FC600000000000000000000000000000000000B
:101FD6000830E0F07F000000000000000000000074
:101FE60000000000000000000000000000000000EB
:101FF60000000000000000000000000000000000DB
:1020060000000000000000000000180C070100009E
:1020160000000000000000000000000000000000BA
:1020260000000000000000000000000000000000AA
:10203600000000000000000000000000000000009A
:10204600000000000000000000000000000000008A
:10205600000000000000000000000000000000007A
:10206600000000000000000000000000000000006A
:10207600000000000000000000000000000000005A
:10208600000000000000000000000000000000004A
:102096000000000100000000000000000000000039
:0220A600000038
:03000000023DE5D9
:0C3DE500787FE4F6D8FD758117023E2CB3
:065294009000010221B7A9
:102DF000EFD394057480948040037F012212219EBA
:102E0000FED394037480948040037F0222EF7038D5
:102E1000EE7008125294F45293529412219E64015F
:102E200070081252944293F4529412219EFE64024E
:102E3000700712529442934294EE6403700A125245
:102E400094FEF45293EE4294EF6401703A12219E84
:102E5000FE7008125294F452915292EE640170087E
:102E60001252944291F4529212219E6402700712FF
:102E700052944291429212219E6403700A1252941B
:102E8000FEF45291EE4292EF6402703A12219EFEDD
:102E90007008125294F452955296EE640170081222
:102EA00052944295F4529612219E64027007125277
:102EB000944295429612219E6403700A125294FE27
:102EC000F45295EE4296EF6403703A12219EFE7022
:102ED00008125294F452B152B2EE640170081252C8
:102EE0009442B1F452B212219E64027007125294BD
:102EF00042B142B212219E6403700A125294FEF44F
:102F000052B1EE42B2EF6404703A12219EFE700894
:102F1000125294F452B352B4EE64017008125294F7
:102F200042B3F452B412219E6402700712529442CA
:102F3000B342B412219E6403700A125294FEF452FA
:102F4000B3EE42B4EF6405703D12219EFF7E007027
:102F500008125294F452C952CAEF64014E7008121A
:102F6000529442C9F452CA12219E6402700712524E
:102F70009442C942CA12219E6403700A125294FFFD
:092F8000F452C9EF42CA7F00229D
:104C2200E4FEFDFC90135FE0F8A3E0F9A3E0FAA331
:104C3200E0FBC30223B5E0FBA3E475F0010222ED21
:104C4200EEF0A3EFF0A3EBF0A3EAF0A3E9F02275F4
:064C5200C65A75C6A5223A
:1045B70090135F1223C60000000B7F1E124C22408F
:1045C7000475C780227F18124C22400475C78122C8
:1045D700E47F14124C23400475C78222E47F0C1237
:1045E7004C23400475C78322E47F06124C23400402
:1045F70075C78422E47F03124C23400475C78522C4
:0F460700E47F02124C23400475C7862275C787D3
:014616002281
:0D524000E4F5C7F5C5F5C675C380F5C422B9
:054D8800901359EFF04B
:104D8D00E4FF1245B775C501901359E0F5C4E0FF76
:104D9D007808A2E713D8FBF5C3124C51AFC2E5C793
:094DAD0030E40653C7EF7F332206
:014DB60022DA
:104FAB0090135CEEF0A3EFF0A3EDF01245B775C5CF
:104FBB000290135CA3E0FFF5C475C300A3E0F5C238
:064FCB00124C510252409D
:104FD100901356EEF0A3EFF01245B775C503901389
:104FE10056A3E0FFF5C475C300124C511252407F25
:064FF100047E00025144A1
:104E1100901356124C4290135BE0FF14F0EF601BAD
:104E2100901356124C3BAFF0FE901358124C38A918
:0C4E3100F0FA12219EFD124FAB80DB2234
:104E9500901353124C42901358E0FF14F0EF601A30
:104EA500901353124C3BAFF0124D88901355124C92
:0B4EB50038A9F0FAEF12220680DC2280
:04326E004113E50320
:103D5700A2A6E43325E0FFA2A4E4334FFFA2A3E425
:103D67003325E025E04FFFA2A5E43333333354F87E
:103D77004FFFA2A2E433C454F04F901355F09013B1
:103D8700E5E0601814604314602D14704E901355CD
:103D9700E0641F6046E49013E5F0803F7F0A7E00F1
:103DA700125144901355E0FF641F602F9013E4EF06
:103DB700F0A37402F08024901355E0641F701C90E8
:103DC70013E504F09013E4E0FF229013E4741FF06E
:0D3DD700A37403F07F0A7E001251447F1F89
:013DE40022BC
:1042DA00901362E02EFD124C64901366E0FBA3E09B
:1042EA00FAA3E022901361F9E0F5827583000221B6
:1042FA00B72FF9EA3EFA901366EBF0A3EAF0A3E9C6
:10430A00F0901359E0FFA3E0FD90136522F9901392
:10431A006FE0FF7E00E92FF9EE3AFA90136EE02281
:10432A0034FFFE901364E0FD7C0002223AFA122167
:10433A009EFF90136AE0FE22EEC394087480948074
:01434A002250
:104E3D00C2B4C2B6E4FE124342501EC2B3EF30E715
:104E4D0004D2B28002C2B2D2B37D017801EF0880E4
:0B4E5D0002C333D8FCFF0E80DDD2B48E
:014E68002227
:104E6900C2B4D2B6E4FE124342501EC2B3EF30E7D9
:104E790004D2B28002C2B2D2B37D017801EF0880B8
:0B4E890002C333D8FCFF0E80DDD2B462
:014E940022FB
:104FF700E4FCEC124343501DEC24B0FF124E3DE499
:10500700FBEBC394C0E494005008E4FF124E690B15
:0550170080EF0C80DDBC
:01501C002271
:0C4C5800FF90136FE0FE901362E02EFD51
:104C6400AE07AC05EEC3940274809480EE50042425
:104C7400B6800224AEFF124E3DECC4540F2410FF44
:0A4C8400124E3DEC540FFF024E3DAE
:1043BB00C2B57F647E00125144D2B57F327E0012AB
:1043CB0051447FE2124E3D7F327E001251447F2FCB
:1043DB0012441A7FA01244037F811244037FEB1215
:1043EB00441A7FC4124E3D7F147E001251447FAF9E
:1043FB00124E3DC2B7024FF7124E3D7F147E001294
:10440B0051447F70124E3D7F147E00125144221294
:0A441B004E3D7F147E001251442232
:10467400EF14602B04704E9013DC7418F09013DE6A
:104684007410F09013DD740CF09013E174FFF0A338
:104694007401F0A3743CF09013E0740CF080299042
:1046A40013DC7405F09013DE7408F09013DD7405C8
:1046B400F09013E07407F0A374FFF0A37409F0A35F
:0B46C4007404F080037F00227F0122BD
:08482300901362EEF0A3EFF028
:10482B00E4FDFCED25E0FFEC33FE74962FF582746E
:10483B00003EF583E493FAED25E0FFEC33FE74972D
:10484B002FF58274003EF583E493FFEAFE9013622A
:10485B00E06E7003A3E06F600B0DBD00010CED6407
:08486B00644C70BFAE04AF0500
:014873002222
:10370F00901359EFF0A3EDF0A3EBF0A3EAF0A3E9C8
:01371F00F0B9
:10372000A3E0FF124674E4901361F090135B124221
:10373000E61242EEFF7E00C3948074809480502C89
:10374000EF24E0FFEE34FFFE90135FF0A3EFF07C78
:10375000007D0512223A9013E11242E61242FB74F8
:1037600008F07B051237C104F00237B290135B12E8
:1037700042E61242EEFE901361E0FD7C00E92DF975
:10378000EC3AFA9000011221B7FDEDFF12482390A8
:10379000135FEEF0A3EFF07C007D1812223A901335
:1037A000E11242E61242FB7410F07B0C1237C12486
:1037B00002F090135B1242E61242EE600302372BD6
:1037C00022122C459013E0E0FF901359E02FF09067
:0437D0001361E0227F
:0C2C4500901362EFF0901364EBF0AA050E
:102C5100A3E0FF54076008EF54F82408FF800590B3
:102C61001365E0FF901365EFF0E0FDFFEA2FFFE44D
:102C710033FEEF7803CEC313CE13D8F990136BF064
:102C8100FCED2A5407A3F0EA131313541FFF90130A
:102C910069F0EA5407A3F0C3EC9F0490136DF0E4CC
:102CA100A3F090136DE0FFA3E0C39F4003022DEF5B
:102CB100901369E0FF90136BE09F5003022DA9E48C
:102CC10090136FF0901364E0FF90136FE0FEC39FC9
:102CD1004003022DE690136EE0701D901369E0FF32
:102CE1001242DA90136F1242F112433BF8EF08805F
:102CF10002C333D8FC022D9C90136DE014FFA3E0B6
:102D01006F703F90136BE0124C5890136EE024FFEC
:102D1100FFE412432A1242E32FF9EA3EFA90136FBD
:102D2100E07E0029F9EE3AFA12219EFF90136CE041
:102D3100FEC374089EFEF8EF088002C313D8FC029C
:102D41002D9C1242E312431724FFFFEE12432AE99E
:102D51002FF9EA3E124337C374089EFEF8EF08804C
:102D610002C313D8FC901370F01242E3124317FF11
:102D7100901364E08FF0A429F9EA35F0124337F893
:102D8100EF088002C333D8FCFB90136EE0FF901371
:102D910069E02F124C58901370E04BFF124E69906E
:102DA100136FE004F0022CC5901369E0FF90136FDC
:102DB100E0FE1242DAF990136F1242F2FF90136CA7
:102DC100E004FEF87401088002C333D8FC14FE90BD
:102DD100136AE0FDF87401088002C333D8FC146E55
:0E2DE1005FFF124E6990136EE004F0022CA307
:012DEF0022C1
:103DF100025265E493A3F8E493A34003F68001F231
:103E010008DFF48029E493A3F85407240CC8C333D2
:103E1100C4540F4420C8834004F456800146F6DFA1
:103E2100E4800B010204081020408090311AE47EE6
:103E3100019360BCA3FF543F30E509541FFEE49396
:103E4100A360010ECF54C025E060A840B8E493A35D
:103E5100FAE493A3F8E493A3C8C582C8CAC583CA88
:103E6100F0A3C8C582C8CAC583CADFE9DEE780BE40
:01327200005B
:1020A800E709F608DFFA8046E709F208DFFA803E1A
:1020B80088828C83E709F0A3DFFA8032E309F60807
:1020C800DFFA8078E309F208DFFA807088828C836F
:1020D800E309F0A3DFFA806489828A83E0A3F60823
:1020E800DFFA805889828A83E0A3F208DFFA804CFD
:1020F80080D280FA80C680D4806980F280338010D4
:1021080080A680EA809A80A880DA80E280CA80333C
:1021180089828A83ECFAE493A3C8C582C8CCC583B4
:10212800CCF0A3C8C582C8CCC583CCDFE9DEE78084
:102138000D89828A83E493A3F608DFF9ECFAA9F003
:10214800EDFB2289828A83ECFAE0A3C8C582C8CC59
:10215800C583CCF0A3C8C582C8CCC583CCDFEADE72
:10216800E880DB89828A83E493A3F208DFF980CCD4
:1021780088F0EF60010E4E60C388F0ED2402B404CD
:102188000050B9F582EB2402B4040050AF23234574
:0621980082239020F87381
:10219E00BB010689828A83E0225002E722BBFE023F
:0921AE00E32289828A83E4932272
:1021B700BB010CE58229F582E5833AF583E02250DD
:1021C70006E92582F8E622BBFE06E92582F8E22227
:0D21D700E58229F582E5833AF583E4932241
:1021E400BB010989828A83F8E028F022500327F78B
:1021F40022BBFE05F8E328F3228A838982F8E4935C
:0222040028228E
:10220600BB010689828A83F0225002F722BBFE01B7
:02221600F322B1
:10221800F8BB010DE58229F582E5833AF583E8F0FC
:10222800225006E92582C8F622BBFE05E92582C8A8
:02223800F22290
:10223A00EF8DF0A4A8F0CF8CF0A428CE8DF0A42EB8
:02224A00FE2272
:10224C00BC000BBE0029EF8DF084FFADF022E4CC76
:10225C00F875F008EF2FFFEE33FEEC33FCEE9DEC3F
:10226C00984005FCEE9DFE0FD5F0E9E4CEFD22ED85
:10227C00F8F5F0EE8420D21CFEADF075F008EF2FCF
:10228C00FFED33FD4007985006D5F0F222C398FDC0
:05229C000FD5F0EA225D
:1022A100C2D5EC30E709B2D5E4C39DFDE49CFCEE58
:1022B10030E715B2D5E4C39FFFE49EFE12224CC362
:1022C100E49DFDE49CFC800312224C30D507C3E45D
:0622D1009FFFE49EFE22C7
:1022D700C5F0F8A3E028F0C5F0F8E5821582700292
:0622E7001583E038F0222F
:1022ED00A3F8E0C5F025F0F0E582158270021583A4
:0622FD00E0C838F0E82201
:10230300BB0110E58229F582E5833AF583E0F5F018
:10231300A3E0225009E92582F886F008E622BBFEF5
:102323000AE92582F8E2F5F008E222E5832AF5833B
:08233300E993F5F0A3E9932200
:10233B00BB010DC58229C582C5833AC5830222D74D
:10234B005011C58229F808E5F026F618F5F0E5825C
:10235B0036F622BBFE11C58229F808E225F0F5F00E
:10236B00F218E23582F222F8E58229F582E5832A1A
:0D237B00F58374019325F0F5F0E49338220A
:10238800F8BB0111E58229F582E5833AF583E8F087
:10239800E5F0A3F0225009E92582C8F608A6F02244
:0D23A800BBFE09E92582C8F2E5F008F2222B
:1023B500EB9FF5F0EA9E42F0E99D42F0E89C45F07E
:0123C50022F5
:1023C600A8828583F0D083D0821223DD1223DD120A
:1023D60023DD1223DDE473E493A3C583C5F0C5832F
:1023E600C8C582C8F0A3C583C5F0C583C8C582C861
:0123F60022C4
:0C23F700A42582F582E5F03583F58322F1
:09240300E0FBA3E0FAA3E0F922DA
:10240C00F8E0FBA3A3E0F925F0F0E5821582700259
:07241C001583E0FA38F022FD
:09242300EBF0A3EAF0A3E9F022BA
:0C242C00E493FB740193FA740293F9220C
:10243800BB010DE58229F582E5833AF58302240381
:102448005007E92582F802249ABBFE07E92582F89D
:102458000224A3E58229F582E5833AF58302242C38
:062468008A838982E473FF
:103EF800901378EBF0A3EAF0A3E9F090137BE0FBD2
:103F0800A3E0FAA3E0F912219EFE901378E0FBA348
:103F1800E0FAA3E0F912219EFF6E702AEF600E907E
:103F2800137E74FFF5F01222D745F070037F00224C
:103F3800901379E475F0011222D790137CE475F0A0
:103F4800011222D780B5901378E0FBA3E0FAA3E032
:103F5800F912219EFDD3EE6480F8ED648098400349
:103F68007F012290137BE0FBA3E0FAA3E0F9122182
:073F78009EFFC3ED9FFF2235
:10000E00E4FFFE12219E600C0FEF70010E09E970E5
:05001E00F20A80EF2250
:10246E00EF4E6012EF60010EEDBB010B89828A8385
:10247E00F0A3DFFCDEFA2289F05007F709DFFCA992
:0C248E00F022BBFEFCF309DFFCA9F022E9
:09249A00E6FB08E6FA08E6F92267
:0924A300E2FB08E2FA08E2F9226A
:00000001FF
