:1045DB00706172616D6574657273206172652063C1
:1045EB006F7272656374202100706172616D657406
:1045FB00657273206572726F72202100726573741D
:10460B006F726520706172616D65746572732E2EA9
:10461B002E00FFFFFFFF0808020801010000487E83
:10462B00007375636365737366756C6C7920210019
:102F2D00510C5B000000FFFFFFFF080802080101C4
:042F3D000000487ECA
:1051B800A3F07B017A0B79F3227BFF900BFE74013D
:0E51C800F07D1F227B017A0C795E740EF022BE
:0B535100123D991242D512533980F82A
:103D99001240DC7A007910123E0D7A007910122453
:103DA9006E7A0279BA123E0D7A0279BA12246E7AC3
:103DB900057964123E1B7A05796412246E7A0879B2
:103DC9000E123E1B7A08790E12246E12449F12417C
:103DD900DF125024900C71E054FEF012515312512D
:103DE900971251F4125212C2A712531ED2AF125394
:103DF90065900C68E0700C124CD7900C687401F057
:103E0900124C9F227B011241617E027FAA7D007BB9
:103E190001227B011241617E027FAA7D007B012282
:1040DC0075BA8090FE0374C0F090FE03E030E0F9F6
:1040EC0090FE017401F090FE00F0E4F5BA900BF331
:1040FC00F074051251B8E4FF122C03900BF3740307
:10410C00F0740A1251B8E4FF124154FF124146A355
:10411C0074321251B97F01122C03900BF37401F01D
:10412C00A3747C1251B97F021241547F0312414691
:0A413C00A3141251B97F03022C03F3
:104146007A0B79F3122C03900BF37403F022122CE2
:0B41560003E4900BF3F0A304F0FB2245
:104E4400E4FFFE900BF81251CCE4124F817B017AFF
:104E54000C795E74FF900BFAF0A3F07D0C123C6A9F
:0F4E6400900C6AE0B50607A3E0B50702D322C39E
:014E7300221C
:1041DF00124E447BFF50127A4579DB1251C37F0E8A
:1041EF001236D07FE87E03805E7A4579F41251C390
:1041FF007F131236D07FF47E011252307A46790740
:10420F001251C17F131236D0E4FFFE1250BD785EFB
:10421F007C0C7D017BFF7A46791D7E007F0E12217B
:10422F0078900BFB1251CCE4FFFE124EFD7FE87E1F
:10423F00031252301250E37A46792C1251C17F315A
:0B424F001236D07FF47E0112523022A4
:1034560020323430302000203438303020002039FB
:1034660036303020003134343030200031393230BB
:1034760030200033383430302000353630303020BC
:1034860000353736303020003131353230300039B2
:10349600323136303000B4F2BFAA00B9D8B1D50007
:1034A600C7EBCAE4C8EBC3DCC2EB00C7EBCAE4C88F
:1034B600EBD0C2C3DCC2EB00C7EBC8B7C8CFD0C2E3
:1034C600C3DCC2EB0053544F500052554E00B9D8DE
:1034D600B1D5CEDECFDFC4A3BFE900B4F2BFAACE1A
:1034E600DECFDFC4A3BFE900D2D4CCABCDF800CE8B
:1034F600DECFDFCDF800C0A9D5B9CDF800C4DAB269
:10350600BFCDF800CAC7B7F1BBD6B8B4B3F6B3A7F8
:10351600C9E8D6C300CAC700B7F100C8C8B5E300FA
:0F352600415020494400504C4331315F41500027
:102F4100603C0BAA00FB80FF345601FDC0FF345DDD
:102F510002FEE0FF346403FF40FF346B04FF70FFA7
:102F6100347205FFB8FF347906FFCFFF348007FFC5
:102F7100D0FF348708FFE8FF348E09FFFDFF349549
:102F8100410BE60A4C0BE7FF349CFF529BFF34A137
:072F9100FF52B4410B87025F
:103D0200900C057408F07A0B79247BFFA31224230C
:103D12007B0522E075F006A424ADF582E4340BF5B0
:103D220083122403900BFE7401F0227BFFE4900BBC
:103D3200FEF022E075F006A424ABF582E4340BF524
:103D420083E0FEA3E0227BFFE4900BFEF0227BFFE8
:103D5200E4900BFEF0227408900C05F07BFF227BAE
:103D6200FFE4900BFEF0227BFFE4900BFEF022902A
:103D72000BF6122403E92403F9E43AFA22740C90B4
:103D82000C05F07BFF227BFFE4900BFEF022900BF0
:073D9200F612240302219E3A
:0E531E00E4900C5DF0124EA312535C020003EB
:08000300900C67E0FF02534579
:09535C00900C66E024FF92872208
:104EA300900C62123D35F58BEEF58D900C63123D3F
:104EB30035F5D7EEF5D6900C64123D35F5D5EEF504
:0D4EC300D4900C65123D35F5D3EEF5D222EA
:10450900900BF6122423123D71C003C002C00112A0
:104519003D907C00D001D002D00329F9EC3AFA127F
:10452900219EF47003122206EF6401700304800CCB
:1045390012219E7005740A12220674FF1221E412D8
:10454900219E75F00A84E5F0122206123D71C0031E
:10455900C002C001123D907E00D001D002D00329D3
:09456900F9EE3AFA12219EFF223C
:105109007B017A0C790A900C1B122423900C1EE463
:10511900F0A37404F07A0B79F9124055EF70037F0C
:0551290001227F0022BD
:10002600900BF61224237E007F047DFF123D77128B
:0C003600246E900BF6122403E402220654
:1052CD0074011221E412219EFF64047005900C5CA0
:0852DD0004F0EF540302220665
:1052E5001250E37440123D5A7A1A79A8A312242366
:0852F5007BC0E4FDFF022A5812
:104FD6001250E37432123D817A0C7931A3122423E4
:104FE6007B517D08E4FF122A587A3479A6123D2DAA
:074FF6007D0F7F640236D03D
:103FCE001250E3900C5DE06062E4900BF6F0900B03
:103FDE00F6E0FFC3940474809480503B748B2FF5ED
:103FEE0082E4340BF583E0FF7E007B017A0B79F7D8
:103FFE00900BFEE4F0A3740AF0122D9C900BF6E0E9
:10400E0075F014A42464FF123D267D121236D09052
:10401E000BF6E004F080B7123D7F7A0A79FFA31207
:10402E0024237B107D107FAF122A587A3479B11277
:10403E003D2D7D0F7F0F1236D07A3479BE123D485A
:07404E007D237F0F0236D035
:1049A7001250E37BFF7A3479CB123D267D187F0FB7
:1049B7001236D07BFF7A3479D0123D267D187F9648
:1049C7001236D0900C66E0900C05700B7438F07BB3
:1049D700FF7A0E796880097438F07BFF7A1179883D
:0E49E700A31224237B64E4FD7F2D122A5822A4
:104B42001250E3900C67E075F01EA4240BFD123D99
:104B52007F7A0A79DFA31224237B107F0A122A5854
:104B62007A3479D4123D487D0A7F1E1236D07A34C7
:0C4B720079E1123D507D287F1E0236D0F4
:104B7E001250E37A3479EE123D507D1D7F0A1236C3
:104B8E00D0900C62123D157D1F7F691236D0123DFA
:104B9E00027D1F7F95122A58900C057408F07A0B2F
:0C4BAE00791F123D0C7D1F7F61022A5808
:104BF4001250E37A3479F5123D617D1D7F0A123635
:104C0400D0900C63123D157D1F7F691236D0123D82
:104C1400027D1F7F95122A58123D587A0B791F1274
:094C24003D0E7D1F7F61022A583C
:104C2D001250E37A3479FC123D617D1D7F0A1236F4
:104C3D00D0900C64123D157D1F7F691236D0123D48
:104C4D00027D1F7F95122A58123D587A0B791F123B
:094C5D003D0E7D1F7F61022A5803
:104C66001250E37A357903123D697D1D7F0A1236AB
:104C7600D0900C65123D157D1F7F691236D0123D0E
:104C8600027D1F7F95122A58123D587A0B791F1202
:094C96003D0E7D1F7F61022A58CA
:104ED0001250E37A35790A123D697D147F3012361B
:104EE000D07A35791B123D887D307F0A1236D07A10
:0D4EF00035791E123D887D307FAC0236D032
:10442F001250E37BFF7A357921E4900BFEF07D0A81
:10443F007F0A1236D0900C69E075F006A424E7F5D8
:10444F0082E4340BF583122403E4900BFEF07D0A13
:10445F007F731236D0123D027D0D7F95122A5812AE
:10446F003D587A0B791F123D0E7D0D7F61122A5830
:10447F007BFF7A357926123D267D2B7F0A1236D0A7
:10448F007BFF7A35792C123D267D2B7F610236D04A
:104C9F007B017A0C795E74FF900BFAF0A3F07D0C18
:104CAF00123C6A900C6AEEF0A3EFF0C2AFE4FFFE85
:104CBF001250BD7B017A0C795E900BFB740EF0E401
:084CCF00FFFE124EFDD2AF22E0
:102F98004F00010305FF48B40105FF48B40405FFCD
:062FA80048B441000000E6
:10337300900BF51224039002A91221B775F088A4CB
:10338300221224039002A91221B72401FFE433FE81
:103393007C007D0502224C900BF5122403E92FF9E2
:1033A300EA3EFA22900001FFAEF029F9EA3EFA0262
:1033B30021B790056675F0880223F7FFAEF029F96F
:1033C300EA3EFAE92404F9E43AFA2229F9EA35F063
:1033D300FA900084E4F5F01223887E007F80229027
:1033E300081075F0880223F735F0FA7B01900BFF84
:1033F30002242329F9EA35F0FA900001221224036A
:10340300ED9002A9022218122403E94A4B229000EC
:1034130002E4022218900084E475F00102233B9039
:103423000084122303900C02F022EF75F088A42489
:1034330068F9740522EF75F088A42412F974082240
:10344300E4F0A3F0F5837582802275F088900892EA
:033453000223F75A
:06416100900BF312242371
:10416700E4900BF6F0F0900BF6E0C39405E49400AE
:104177005055900BF3122403900BF6E0FF75F0886F
:10418700A4F58285F083E4122218EF75F088A41253
:1041970033F6E4122218123411900003E4122218A5
:1041A700900084E4F5F0122388900086E475F0020D
:1041B7001233DAC0071233C67D00D00712246E907F
:1041C7000BF6E004F0809F900BF3122403E4123403
:0841D700049002A8E402221882
:0C533900E4900C2EF07D057F040248B4C7
:104D7A007B007A007900EE702AEF24FD601114603E
:104D8A00151460192404701B7B017A007910227BA8
:104D9A00017A0279BA227B017A057964227B017A47
:034DAA0008790E77
:014DAD0022E3
:104DAE007B007A007900EE702AEF24FD601114600A
:104DBE00151460192404701B7B017A0C792F227B49
:104DCE00017A0C793A227B017A0C7945227B017AA1
:034DDE000C7950FD
:014DE10022AF
:103F4300900BF5122423900BF512340A607C900B2E
:103F5300F812340A60741233739000021233AA60A9
:103F63006912339A1234111233731233A764047033
:103F730008D2A712339A1234181233731233BE12B3
:103F830033F012339A123422900BF812240312499D
:103F9300051233731233CEC006C0077D001233738C
:103FA30029F9EA35F01233C5D007D00612246E1270
:103FB30033731233F61221B764047002C2A7900B55
:0B3FC300F5123384900BF5123400223D
:10391000900BF5122423900BF512340A7003023930
:10392000C6900BF812340A70030239C6900BF512D8
:103930003376FFAEF029F9EA3EFA9000021221B781
:1039400070030239C6900BF512339D123411900B9F
:10395000F51233761233A76404700BD2A7900BF5DF
:1039600012339D123418900BF51233761233BE12B7
:1039700033F0900BF512339D123422900BF8122481
:1039800003124905900BF51233761233CEC006C0F0
:10399000077D00900BF512337629F9EA35F01233E2
:1039A000C5D007D00612246E900BF5123376123371
:1039B000F61221B764047002C2A7900BF51233848B
:0739C000900BF51234002208
:1048B400900BF4EDF0900BF3EFF07E00124D7AC004
:1048C40003C002C001A3E0FF124DAE900BF8122406
:1048D40023D001D002D003123F43900BF4E0FF7EBB
:1048E40000124D7AC003C002C001900BF3E0FF1226
:1048F4004DAE900BF8122423D001D002D00302391C
:0149040010A2
:1038540090080DE01233B5E0700302390F90080DA3
:10386400E0FF1233B5E4F012342D1233EB90080D5F
:10387400E09005E81233B8A3E004900C02F07A0C4F
:10388400795012490590080DE0FF9005E81233E5E0
:10389400123443C083C082FD12342D35F0FA7B010B
:1038A400D007D00612246E90080DE012338DEDF08F
:1038B400900AB7E01233E2E06051900AB7E0FF12D9
:1038C40033E2E4F0D2A71234381233EB900AB7E0B3
:1038D40012344DA3E004900C02F07A0C794512499D
:1038E40005900AB7E0FF12344D123443C083C082FE
:1038F400FD12343835F0FA7B01D007D00612246E5D
:0C390400C2A7900AB7E012338DEDF0224C
:0B3C6A00900BF6122423900BF9EDF0F4
:103C7500E4900BFCF0FDFC900BFAE0FFA3E0900B49
:103C8500FDCFF0A3EFF0E4900BFCF0900BF9E0FF13
:103C9500900BFCE0C39F505C900BF6E475F00112AD
:103CA500240C12219EFF900BFDE0F0A3E06FF0E4E1
:103CB500FCFD900BFDE0FEA3E0FF30E019EEC31321
:103CC500FEEF13FFEE64A0FEEF6401FF900BFDEE27
:103CD500F0A3EFF0800B900BFDE0C313F0A3E0130E
:103CE500F00DBD00010CED64084C70C6900BFCE0B6
:0C3CF50004F08097900BFDE0FEA3E0FFC0
:013D0100229F
:10319D00C6F4CDA3BFAAB9D800CDA8D0C5B7BDCAB6
:1031AD00BD00C3DCC2EBD0DEB8C400B2A8CCD8C21F
:1031BD00CAC9E8D6C300B1BEBBFAC8C8B5E300BBE7
:1031CD00D6B8B4B3F6B3A7C9E8D6C300D2D4CCAB46
:1031DD00CDF800CEDECFDFCDF800C0A9D5B9CDF842
:1031ED0000C4DAB2BFCDF800FFFFFFFF0077726FAA
:1031FD006E672070617373776F7264202100496E62
:10320D0076616C69642070617373776F72642100ED
:10321D0043757272656E7420636F756E7473206979
:10322D007320312E0043757272656E7420636F7555
:10323D006E747320697320322E00D0DEB8C4B3C90A
:10324D00B9A600D0DEB8C4CAA7B0DC00506C656169
:10325D00736520776169742061206D6F6D656E7483
:10326D0000FFFFFFFF0808020801010000487E0073
:0C327D0000000000000000000000000045
:102FAE00420AB80107602A0ABAFF319D01FF49A7FC
:102FBE00FF31A603FF4B42FF31AF05FF3FCEFF317E
:102FCE00B802FF536EFF31C30CFF442FFF31CC0606
:102FDE00FF4ED05C0B5AFF31D908FF4B7EFF31E01C
:102FEE0009FF4BF4FF31E70AFF4C2DFF31EE0BFFCB
:102FFE004C66520AE4000000000102010ABA000009
:10300E0000000102010B5A60640AF61E01FF4BBA62
:10301E001B01FF4B051701FF425A1D01FF524C0FBA
:10302E0001FF504B1E00FF47B31B00FF480A17005D
:10303E00FF51D61D00FF530E0F00FF00421E02FF70
:10304E0035351B02FF32891702FF24AC1D02FF4FDC
:10305E00FD0F02FF52671E03FF46FB1B03FF463B9D
:0F306E001703FF434A1D03FF52FD0F03FF00919D
:1026C30078F47C0B7D017BFF7E007F0212217890E2
:1026D3000BF37A0B79F4E0FF7E007B01900BFEE4B1
:1026E300F0A3740AF022900B88E075F014A424641C
:1026F300FF900BFE7401F02278077C0C7D017B01B7
:102703007E007F11022178900C62E0FD900BE6E0E1
:10271300FB7A002278F47C0B7D017BFF7E007F0235
:10272300022178E0900BAB75F0060223F7E024FE5C
:10273300900AE7F0900AE5E014900AE8F0900AE5C1
:10274300E022E024FE900AF0F0900AEEE014900AF2
:10275300F1F0900AEEE022900C69EFF0900BE77530
:10276300F0061223F7022403E075F014A42406FDF7
:10277300900C05740CF07A0A79DF7BFFA3122423F3
:102783007B10221224039000031221B7900AB9F0A0
:102793009000040224387B017A0B797622900AE5B3
:1027A300E075F007A424BAF9740A35F0FA7B0190B6
:1027B3000AEA22900AEEE075F007A4245AF9740B92
:1027C30035F0FA7B01900AF322F583122403EF75A7
:1027D300F014A42405FDE4900BFEF07F4622E014E0
:1027E300900AE7F0900AE5E0900AE8F00422E4900A
:1027F3000AB8F07BFF22E014900AF0F0900AEEE0B2
:10280300900AF1F00422900BF3E0FF7E007B01229B
:10281300900AB9E0640422900AB87401F0A3740723
:10282300F07BFF227B017A0B798822900C69E0FD13
:10283300900B87E0FB7A0022785E7C0C7D017E00A2
:10284300022178900B76E075F014A4246122900C99
:10285300727417F0A37470F022900AE5E0FD7B0612
:102863007A0022900AE5E0900AE7F004227B017ADD
:102873000B799922900C5DE07B0122900C67E06458
:1028830001F07BFF22900AEEE0FD7B047A002290A8
:102893000AEEE0900AF0F00422E4900BFEF07D0AC9
:0A28A3007F7322900AB9E024F722A7
:1042D500123E29900BF4EFF0124DE2900BF4E064DE
:1042E5001F6061E4900BF3F0900BF3E0FFC39414AF
:1042F50074809480504EEF75F005A424F6F582E4A1
:10430500340AF583E0FF900BF4E0B5072F900BF32B
:10431500E0FF75F005A424F7F582E4340AF583E09F
:10432500FE900AB8E0B50614EF75F005A424F8F57B
:1043350082E4340AF583122403022468900BF3E027
:0443450004F080A45C
:014349002251
:095365007BFF7A5279E502008E0B
:03008E00022468E1
:10425A00122813707578F67C0B7D01122799FE7F60
:10426A00111221787A0C795B1226FB125109EF7030
:10427A00217BFF7A3179F5900C1B122423900C1EB6
:10428A00E4F0A37404F07B017A0C795E124055EFD6
:10429A00700F7BFF7A00794612008EE4900AB8F01C
:1042AA00221227991200261250E37BFF7A3179FAFB
:1042BA001226F47D1F7F311236D07FE87E03125218
:0B42CA00307BFF7A4F79D612008E2265
:054BBA00122813703405
:104BBF001227997F01124509900BF3EFF078F47CDF
:104BCF000B7D017BFF7A32797D12271F900BF37AD1
:104BDF000B79F41226D9122D9C1228461226F37D3A
:044BEF00261236D084
:014BF300229F
:10504B00900AB9E024FC601724FD7019900AB9741A
:10505B0004F07BFF7A4F79D612008E122851221260
:06506B0027991252CD222C
:10524C0012281370157BFF7A5279E512008E900AA2
:0B525C00B97407F012279912002622F7
:054B05001228137037B7
:104B0A001227997F02124509900BF3EFF078F47C93
:104B1A000B7D017BFF7A32797F12271F900BF312EC
:104B2A00280C7A0B79F41226DF122D9C12284612D1
:074B3A0026F37D261236D0A0
:014B41002251
:1051D600900AEA122403122793E94A4B600F900AB9
:0E51E600B87402F0900AEA12278612008E2298
:1047B300900AE6E0FF14F0EF7001F012285C7F012D
:1047C300125282900AE5EFF064057004A37402F0BC
:1047D300900AE6E0FD7C00700A12286612273C244A
:1047E300028011ED64014C900AE570051227E18007
:1047F30003122730900AE9F07BFF7A007946120012
:074803008E1227A0022423FE
:01004200229B
:10530E0012281A7A5279E512008E12279902002677
:10480A00900AE6E0FF04F0EF640270037402F0120B
:10481A00285CE4FF125282900AE5EFF07002A3F0DE
:10482A00900AE6E0FD7C00700A12286612273C24F2
:10483A00028011ED64014C900AE570051227E180AF
:10484A0003122730900AE9F07BFF7A0079461200BA
:07485A008E1227A0022423A7
:10457200900C5CE070551250E3900C5DE07BFF7A8A
:1045820032790B900BFE7017041245D07A32791DE6
:104592001226F47D207F051236D012282780167449
:1045A200011245D07A3279321226F47D207F05122B
:1045B20036D01228701200267FE87E031252307B1A
:1045C200FF7A3F79CE12008E7F00227F0122F07D9A
:0945D200147F051236D07BFF2294
:1024AC00900AB9E01470030225A91470030225EFF9
:1024BC001470030225C024FD700302263824FA7020
:1024CC000302260C24076003022678124572EF7073
:0A24DC0003022678900C5DE07059B1
:1024E600900BF3F0900BF3E0FFC394047480948098
:1024F600502A748B2FF582E4340BF58312280C7A5C
:102506000B79F41226DF122D9C900BF31226EC7D2C
:10251600121236D0900BF3E004F080C8900C0574CC
:102526000CF07A0A79FF12277D7D107FAF122A58A8
:06253600900C5D7401F041
:10253C000225A378F67C0B7D011228271227037A3B
:10254C000B79991226FB125109EF602A7B017A0B49
:10255C00799C7F0412283B124C9F122827120026CC
:10256C00122870120026E4900AB8F01226997BFF0C
:10257C007A00794680191250E37BFF7A327950E465
:10258C00900BFEF07F461226B67BFF7A3F79CE1277
:10259C00008EE4900C5DF0E4900C5CF022900C66E4
:1025AC00E06401F024FF9287124C9F7BFF7A4979FB
:1025BC00A7022675900C67E07006FF125345801633
:1025CC007F011253451250E37BFF7A327959122660
:1025DC00F47F1E1226B61226791227F17A0079465C
:1025EC00022675900AF3122403122793E94A4B60D2
:1025FC007B900AB87403F0900AF3122786022675B2
:10260C00900C69E0FF900BEA12272A122403E94A86
:10261C004B600D75F006EF900BEA122765122468DB
:10262C001226791227F17A007946803DC2AFE4FF79
:10263C00FE1250BD7BFF7A32796E7F1012283B7BE5
:10264C00017A0C795E900BFB7410F0E4FFFE124ED5
:10265C00FDD2AF124EA312535C120003124CD712D0
:10266C0026991227F17A00794612008E22124C9F7D
:10267C001250E37BFF7A327947E4900BFEF07D1623
:10268C007F461236D07FF47E01125230221250E374
:10269C007BFF7A327947E4900BFEF07D167F461271
:1026AC0036D07FF47E01125230227D161236D07F46
:0726BC00F47E0112523022EE
:10526700900AB9E024FB701212287770067A0B793E
:0B5277008880047A0B79991252CD2236
:104FFD00900AB9E024FB70151228271200261228FA
:10500D0070120026E4900C5DF0900C5CF01227F10C
:07501D007A00794602008EC3
:10353500900AB9E024FE605514604824F770030230
:0E35450035E9240760030235FA122877701961
:103553007A0B79881235FB7A3279811226C3122DC0
:063563009C1226E97D1216
:033569000235F731
:10356C007A0B79991235FB7A3279831226C3122D94
:09357C009C900B991226EC7D26AF
:103585000235F712287E7A4B794202008E900AEFB7
:10359500E0FF14F0EF7001F01228887F01125282CB
:1035A500900AEEEFF064037004A37402F0900AEF42
:1035B500E0FD7C00700A1228921227512402801126
:1035C500ED64014C900AEE70051227F9800312276D
:1035D50045900AF2F07BFF7A4A793C12008E122759
:1035E500B602242312282EE4FF12528212275A1201
:1035F500289C1236D0227F01124509900BF3EFF07B
:0136050022A2
:10328900900AB9E024FE606914605C24F7700302B7
:0E329900335624076003023367122877702330
:1032A7007A0B79881233687A3279851227171228B0
:1032B700097A0B79F41226DF122D9C1226E97D126A
:0332C7000233646B
:1032CA007A0B79991233687A32798712271712287A
:1032DA00097A0B79F41226DF122D9C900B9912268B
:0332EA00EC7D2652
:1032ED0002336412287E7A4B794202008E900AEFE7
:1032FD00E0FF04F0C3EF94027480948040037402E5
:10330D00F0122888E4FF125282900AEEEFF070025C
:10331D00A3F0900AEFE0FD7C00700A1228921227AC
:10332D005124028011ED64014C900AEE70051227B4
:10333D00F98003122745900AF2F07BFF7A4A793C17
:10334D0012008E1227B602242312282E7F0112524C
:10335D008212275A12289C1236D0227F021245095A
:06336D00900BF3EFF022CB
:1046FB001228A660171460241460312403704D1225
:10470B00270AE4FF125282900C62802E900C6312E7
:10471B00270DE4FF125282900C63801E900C6412E2
:10472B00270DE4FF125282900C64800E900C6512E0
:10473B00270DE4FF125282900C65EFF0900BAD1237
:0D474B0027621226F47D1F7F691236D022EE
:10463B001228A660171460241460312403705012E2
:10464B00270A7F01125282900C62802E900C63120B
:10465B00270D7F01125282900C63801E900C641206
:10466B00270D7F01125282900C64800E900C651204
:10467B00270D7F01125282900C65EFF075F00690BA
:10468B000BAD1227651226F47D1F7F691236D022DF
:10434A001228A6601B146029146037240370649035
:10435A000C62122726E0FEA3E0F58BEEF58D803184
:10436A00900C63122726E0FEA3E0F5D7EEF5D6807F
:10437A0020900C64122726E0FEA3E0F5D5EEF5D4D2
:10438A00800F900C65122726E0FEA3E0F5D3EEF528
:10439A00D2124C9F1250E37BFF7A327947E4900B9A
:1043AA00FEF07D167F461236D07FF47E011252301F
:0443BA001252FD227C
:1052FD00900AB87402F0A3F07BFF7A4A793C020061
:01530D008E11
:01009100224C
:10004600E4900BF6F01250E3900BF6E0C3940374C1
:100056008094805025E0FF24E7F582E4340AF58396
:10006600E075F007A424BAF582E4340A1227CC120C
:1000760036D0900BF6E004F080CE900AE612276B9D
:050086007F32022A5840
:104A3C00E4900BF6F01250E3900BF6E0C39403E411
:104A4C0094005025E0FF24F0F582E4340AF583E06D
:104A5C0075F007A4245AF582E4340B1227CC1236D5
:104A6C00D0900BF6E004F080CF900AEF12276B7F0A
:044A7C0032022A5880
:09536E007BFF7A4A793C02008EB3
:104DE200900AB8E064017006A3E064076022EF64F1
:104DF2001F701A900C71E030E01654FEF012281A5F
:104E02007A5279E512008E12279902002612285151
:014E1200227D
:10512E0030313233343536373839414243444546CF
:10513E004748494A4B4C4D4E4F5051525354555679
:05514E005758595A00FA
:104FAC00900BFB122403900C28E475F0011222EDF7
:104FBC0085F082F58322900C29E024FFFF900C28C9
:0A4FCC00E034FF22900BFB022403E7
:0C2D9C00900BF9EEF0A3EFF0A31224233B
:102DA80078007C0C7D017BFF7A51792E7E007F258F
:102DB800122178E4900C28F0A3F0900BFEE0700448
:102DC800A3E0640A7027900BF9E0FEA3E0FFC3EECE
:102DD800648094805017C3E49FFFE49E900C25F014
:102DE800A3EFF0124FAC742D122218800F900BF93C
:102DF800E0FFA3E0900C25CFF0A3EFF0900BFEE0EE
:102E0800FEA3E0FDAC06900C25E0FEA3E0FF122235
:102E18004C74002DF582740C3CF583E0FF124FAC26
:102E2800EF122218900C25E0FEA3E0FF900BFEE0C5
:102E3800FCA3E0FD12224C900C25EEF0A3EFF04E1F
:102E480070BA124FD0900C28E0FEA3E0F5828E8372
:102E5800E412221812219EB42D0A900C2CE4F0A33F
:102E680004F08007E4900C2CF0A3F0900C2CE0FF09
:102E7800A3E0900C2ACFF0A3EFF0124FC2FE7C0023
:102E88007D021222A1D3900C2BE09FEE6480F89073
:102E98000C2AE06480984003022F27124FD0900C30
:102EA8002AE0FEA3E0F5828E831221B7900C27F06A
:102EB800124FC2FE900C2DE02FFF900C2CE03EFE2E
:102EC800900C2AE0FCA3E0FDC3EF9DFFEE9C8F82EF
:102ED800F5831221B78D828C83122218900C27E07B
:102EE800FF900C29E024FFFD124FC9FC900C2DE047
:102EF8002DFD900C2CE03CFC900C2AE0FAA3E0FBA2
:102F0800C3ED9BFDEC9AFC124FD08D828C83EF129F
:102F18002218900C2AE475F0011222D7022E829012
:052F28000BFB02240375
:10528200A905EF7003098006E97002A90319AF03AB
:09529200E98FF084A9F0AF0122BC
:10507100900C72E07002A3E0601B900C7274FFF55B
:10508100F01222D7900C72E07002A3E07007900C2E
:0650910071E04401F02271
:10523000900BFCEEF0A3EFF0900BFC74FFF5F01276
:0B52400022ED45F0600512537780ED71
:01524B002240
:085377007F0B7EBEDEFEDFFCB1
:01537F00220B
:04307D00410C2E00D4
:10379500ADF0FCEF75F0880223F7FF75F088022382
:1037A500F7EF75F0880223F7EF75F0880223F7FF2E
:1037B50075F0880223F7EF75F0880223F7900BFF69
:1037C500E475F00112240C02219EFF75F088022396
:1037D500F7EF75F0880223F7E0FEA3E0C39480EECF
:1037E500940022A3F0E4A3F0A374FFF0A374E8F01F
:1037F500A3E04401F0A37401F0A322EF75F0880261
:1038050023F7900003122303AEF022E5822DF58203
:10381500E5833CF58322E475F0010222EDFF75F0A6
:10382500880223F7EF75F0880223F7E4F0A374020A
:10383500F0229000010221B7A3F0A374FEF0A37457
:0F384500E0F0229000020221B79000060221B7A6
:10515300900C2F7401F074501237E87440F054FE31
:10516300F0900C3874EFF0A3F07B017A0C792F02E6
:0251730039C73A
:03002300023BC8D5
:103BC800C0E0C0F0C083C082C0D075D000C000C0C3
:103BD80004C005C006C007309909C299900C37E0A7
:103BE80054FEF0309867C298900C2E7401F0900241
:103BF800B8E0FF9000131237997401F09000121288
:103C080037A6E070489002B8E090009612379F12ED
:103C180038309000941237AD1237DD50309002B82A
:103C2800E090009412379F12381B900014123795B9
:103C3800123810E599F09002B8E0FF9000101237A2
:103C4800A77401F09000111237BB7405F0D007D0AB
:103C580006D005D004D000D0D0D082D083D0F0D008
:023C6800E03248
:10519700900C3A7402F074101237E87414F0900C03
:1051A700437401F0A374FEF07B017A0C793A02395B
:0151B700C730
:03004300023B205D
:103B2000C0E0C0F0C083C082C0D075D000C000C06B
:103B300004C005C006C007E59A30E10A539AFD901B
:103B40000C42E054FEF0E59A30E068539AFE900C87
:103B50002E7403F0900562E0FF9002BD1237AE7440
:103B600001F09002BC1237BBE07048900562E09013
:103B700003401237B412383090033E1237A6123782
:103B8000DD5030900562E0FF90033E1237BC1238E2
:103B90001B9002BE123795123810E59BF09005621B
:103BA000E09002BA1237CF7403F09002BB1237D6FE
:103BB0007405F0D007D006D005D004D000D0D0D006
:083BC00082D083D0F0D0E03286
:1051F400900C457403F0A37450F0740A12383D9077
:0E5204000C4B7408F07B017A0C79450239C717
:03008B00023A75C1
:103A7500C0E0C0F0C083C082C0D075D000C000C017
:103A850004C005C006C007E5AC30E10A53ACFD90A3
:103A95000C4DE054FEF0E5AC30E06B53ACFE900C01
:103AA5002E7404F090080CE09005671237CF74016E
:103AB500F09005661237D6E0704C90080CE0FF9048
:103AC50005EA1237D71238309005E81237AD1237AC
:103AD500DD503390080CE0FF9005E81238011238EC
:103AE5001BADF0FC900568123800123810E5ADF0FA
:103AF50090080CE09005641238227404F090056576
:103B05001238007405F0D007D006D005D004D000D7
:0B3B1500D0D0D082D083D0F0D0E032BE
:10521200900C507404F0A37450F074A012383D90B6
:0E5222000C567410F07B017A0C79500239C7DB
:030093000236062C
:10360600C0E0C0F0C083C082C0D075D000C000C08A
:0936160002C003C005C006C00794
:10361F00E58430E10A5384FD900C58E054FEF0E548
:10362F008420E0030236B95384FE900C2EE0FF6035
:10363F00047D048002AD07900AB6E090081112389D
:10364F00227401F0900810123829E0705D900AB6CC
:10365F00E0FF90089412382A1238309008921238EE
:10366F00291237DD5044900AB6E09008921237B411
:10367F0012381BABF0FA75F088EF9008121223F78F
:10368F00E5822BF582E5833AF583E585F0900AB65E
:10369F00E0FF75F08890080E1223F77405F075F0AF
:0A36AF0088EF90080F1223F7EDF0EA
:1036B900D007D006D005D003D002D000D0D0D08218
:0736C900D083D0F0D0E03205
:1039C70012219EFD6401703B123837F59812384872
:1039D7004289123807F58BEEF58D9000051221B755
:1039E70013928E9000071221B7428E900009122180
:1039F700B752B890000A1221B752B712384E24FFB7
:103A070092AC227C00ED6402702B123837F59A12C3
:103A17003807F5D7EEF5D69000071221B7428E1278
:103A2700384E42AF9000091221B752B590000A12E2
:103A370021B752B622ED64034C7014123837F5AC37
:103A4700123848F5D1123807F5D5EEF5D48019129A
:103A5700219E64047017123837F58412384842D112
:0E3A6700123807F5D3EEF5D212384E42AF22D8
:105175009000081221B730E00AED1DAE0470011C45
:105185004E70EDE92408F9E43AFA12219E44010231
:025195002206F0
:10490500900BFC122423900C02E0FF14F0EF6040A2
:10491500900BFC1224037D887C13125175900BFCBF
:1049250012240312219E24FE6011146015146019CF
:10493500240370D21237C2F59980CB1237C2F59B8A
:1049450080C41237C2F5AD80BD1237C2F58580B679
:01495500223F
:10486100FF75F0881223F77401F0EF2401FFE433A0
:10487100FE7C007D0512224CAF052290001375F0DD
:10488100880223F79002BD75F0880223F775F0883E
:10489100EF1223F7E0FEA3E04E2290056775F08842
:1048A1000223F774FFF5F00222D790081175F08802
:0348B1000223F7E8
:10502400E4900C74F0A3F0A3F0A374DCF0A3E4F018
:10503400A3E04401F04402F0A37420F0A3F07B0148
:075044007A0C7974024A8026
:104A800012219E703D9000011221B7F58E90000218
:104A90001221B7F589900003122303AEF0F58AEED8
:104AA000F58C9000051221B7FF13928CEFC31313FE
:104AB00092A99000061221B742B89000071221B7C0
:034AC00042B722D8
:03000B000230863A
:10308600C0E0C0F0C083C082C0D075D000C000C010
:1030960001C002C003C004C005C006C007125071BB
:1030A6009002B8E0FF12487CE06028900096124833
:1030B6008E9002B8600CE090009612487F1248A4E9
:1030C6008011E09000121248619002B8EFF01248A9
:1030D6007CE4F0900562E0FF124885E060289003EA
:1030E6004012488E900562600CE0900340124888BA
:1030F6001248A48011E09002BC124861900562EF6C
:10310600F0124885E4F090080CE0FF12489BE0605E
:103116003075F088EF9005EA12489290080C600C22
:10312600E09005EA12489E1248A48015E0FF75F06B
:103136008890056612486590080CEFF012489BE4EB
:10314600F0900AB6E0FF1248ABE0603075F088EF09
:10315600900894124892900AB6600CE09008941277
:1031660048AE1248A48015E0FF75F088900810124A
:103176004865900AB6EFF01248ABE4F0D007D006E7
:10318600D005D004D003D002D001D000D0D0D08258
:07319600D083D0F0D0E0323D
:1028AD002B2B2B0061002B4F6B0041542B574D4FA1
:1028BD0044453D41505354410D0A002B4F4B0041AF
:1028CD00542B5741503D504C4331315F41502C4EAC
:1028DD004F4E450D0A0041542B4845415254445426
:1028ED003D37373737373732453739364537303655
:1028FD0031373832453633364636440D0A004154A9
:10290D002B575354413D756E696F6E2C2A21796E8C
:10291D007A666B6A3230303931323135212A0D0AFF
:10292D000041542B524547454E413D434C4F554474
:10293D002C46495253540D0A0041542B534F434BCF
:10294D00413D544350432C636C6F75642E75737207
:10295D002E636E2C31353030300D0A0041542B531F
:10296D0045415243483D31353030302C636C6F75E5
:10297D00642E7573722E636E0D0A0041542B5245F1
:10298D0047434C4F55443D30303031393633393073
:10299D0030303030303030303035312C536B64477F
:1029AD00417A796C0D0A0041542B57414E4E3D44EE
:1029BD004843500D0A0041542B5A0D0A0041542B27
:1029CD00454E544D0D0A00FF28ADFF28B103E80018
:1029DD000000FF28B1FF28B300C8000000FF28B792
:1029ED00FF28C800C8000000FF28CCFF28C800C879
:1029FD00000000FF28E3FF28C800C8000000FF29E1
:102A0D000BFF28C800C8000000FF292EFF28C800B2
:102A1D00C8000000FF2946FF28C800C8000000FFBD
:102A2D002969FF28C800C8000000FF2988FF28C8B1
:102A3D0000C8000000FF29B4FF28C800C80000002E
:0B2A4D00FF29C3FF28C800C8000000DC
:104AC3007A2879B77BFF7DC87C002275F00BA4247C
:104AD300DAF582E43429F583E493FC740193FD222F
:104AE30075F00BA424D4F582E43429F58302242C35
:104AF3007A2979C37BFF7DC87C0022F0900BF702F3
:024B0300240389
:0C534500EF6006147005D29422C294227E
:104CD700E4900BF6F0D294D2957FF47E0112523015
:104CE700E4900BF6F0900BF6E0C3940C748094807C
:104CF7005014E0FF124AE3EF124ACE1249F5900B27
:064D0700F6E004F080DF7D
:014D0D002283
:1049F500900BF7122423900BFAECF0A3ED124AFE6C
:104A0500E94A4B6031900BFAE07002A3E06027128F
:104A15004AFF12000E900C02EF124AFE900BFF1295
:104A250024237B017A0C793A124905900BFAE0FEB2
:074A3500A3E0FF1252302242
:104E1300E4900BF3F0F0900BF3E0FFC39402E494FF
:104E230000501DEF124AE3E94A600D900BF3E012C4
:104E33004ACE4C60031249F5900BF3E004F080D6A0
:014E4300224C
:10529B00124E13124AC31249F57A2979CA124AC718
:0952AB001249F5124AF30249F51B
:1052B400124E13124AC31249F57A2979CA124AF7CF
:0952C4001249F5124AF30249F502
:10009600B1EAB6A8BFAAB9D8B2CECA00C5E4D6C3DB
:1000A600CAB1BCE4D0D0C4A3C4E2C7EBCAE4C8EB6F
:1000B600C3DCC2EBD0C2C8B7C8CFD0DEB8C4B3C9A0
:1000C600B9A6CAA7B0DCD6F7BDE7C3E6B1BEB5D8B8
:1000D600C1ACBDD3D4B6B3CCCDA8D0C5B7BDCABD0F
:1000E600C6F4CDA3B2A8CCD8C2CAC9E8B4AEBFDAAA
:1000F600BBD6B8B4B3F6B3A7CAC7B7F1B5C8C4DAA6
:10010600B2BFCFB5CDB3D2BBB6FEC800CBC4B3F534
:10011600CABCBBAFD2D4CCABCDF8CEDECFDFC0A944
:10012600D5B9B4F2BFAAB9D8B1D5C4A3BFE9B1BE97
:10013600BBFAC8C8B5E38868FF48109212F212925B
:10014600100000000F000201080F000003002C241D
:10015600A42425E6242424242C0008040304080FE0
:10016600090909090800404242FE424242FE424253
:100176004000000806010000000F00000000404893
:10018600494A48F8484A494840000808040201001C
:100196000102040808009054B6955C543494365411
:1001A6009000000A0A0A0A09050404020000482A07
:1001B600987F284A10EF08F80800090B05050B0080
:1001C600080502050800FA4A3E0A3E4AFA00E222FB
:1001D6003E000F05050505050F0007080E00101760
:1001E600D555577D5755D517100008080F08080E26
:1001F60008080F080800FE2222FE0008488808FFAB
:1002060008000702020700000009080F000000F9B5
:1002160002F849494949F901FF00000F00030202AB
:1002260002020B080F004824F20910121212F212F1
:10023600100000000F00000008080F00000088688A
:10024600FF4802FAAFAAAFFA020000000F000A0A3E
:100256000603060A0A0088FF4800FE00820CE01F1B
:100266000000080F00000309040300030C0011F24C
:100276000022EAAABFAAAAEA2200000F04000F027F
:1002860002020A0F0000342CF7A4E8A4EA09CA0403
:10029600E80001010F000F020F0003080F00000025
:1002A6000181720C70800000000008040201000049
:1002B600000102040800463282B2466B524A6212BC
:1002C6006600000E0808080F0808080E000042F233
:1002D6002EE2013D2121213FE00000070207010136
:1002E60001010908070020AAB2E3B2AA00FE12F231
:1002F60011000402080F000A0403000F000042F276
:100306002EE200F453F25A56F000000702070807DF
:10031600010701090F001011F2000000C03FC000E4
:10032600000000000702090601000106080010FC93
:1003360003F810948B4A2A961000000F0003080A4F
:100346000A0905040200E222223E2010EF088878FE
:1003560008000F040201080402010204080000FC60
:100366002424E404FF0485660400080700020B0445
:10037600020102040F000404FC040408FF08080834
:10038600F800020201090503000008080700A09012
:100396008E8888FF8888888080000808040201000B
:1003A600010204080800FE02FA02FE10EC0B08F82F
:1003B6000800090403040908050205080800008866
:1003C600888889FA88888888000008080808080F3D
:1003D600080808080800809F9555553F5555959F74
:1003E6008000000804030000000F0000000002F275
:1003F6001212FA5652F21212F200000F0404070506
:10040600050704040F000404846414FF14648404C0
:10041600040002010202020F020202010200101091
:10042600FF1020FC10FF0884FC00040403020007F0
:10043600080908080E0021E20004342C27F42424BD
:100446000400080708090909090F0909090088882D
:10045600FF48A4ACB5E6B4ACA40000080F00080A37
:100466000B04040B080021E2001012F21212F21221
:1004760010000807080A09080808090A0B0012D222
:10048600FE51802F29E9292F000001000F000809DD
:10049600090F0909080011F200F9A9ABFDADABF887
:1004A60000000807080B08080B080A0B080010FCD8
:1004B60003045454555654540400000F00000F050D
:1004C6000505050F0000040404FC2526242424E465
:1004D6000400080403000000080808070000084894
:1004E60048C8484808FF08090A000808080704041D
:1004F600040003040E000000FCA4A4A5A6A4A4A462
:10050600BC000806010F0404040404040F002010B4
:10051600FC0382BAAAABAABA820000000F0001024D
:100526000A0E02020100224400FC24E4243F24E4D3
:100536000C000402080708080502050808009C8844
:10054600FF481054545FF454500000000F0000019F
:100556000A080F000000028A529AD6B3D28A528A3B
:10056600020002020202020F02020202020010113F
:10057600F20050CF41414FD010000000070208089A
:10058600050205080800C05E525252FF5252525EE2
:10059600C00007020202020F02020202070000FE6A
:1005A60002020202020202FE00000007020202022A
:1005B6000202020700007800FF08C43FC404F444A6
:1005C600240000000F0403080402010608000402C8
:1005D6007DD555555555557D0100000A090B050574
:1005E60005050B090800801E101010FF1010101EC4
:1005F6008000070404040407040404040F0000FE3A
:1006060002020202020202020200080700000000C3
:1006160000000000000040405F5555D555555F402D
:10062600400008040304080F09090909080011918C
:10063600898985BF818585891100000F040404041A
:100646000404040F000044535256527C53D25652AF
:100656004200010103050109090F0101010000FC27
:100666000484641F24C404FC0000000F0000000082
:100676000008080F000020AAB2A3B2AA20FE023288
:10068600CE00000F0404040F000F020201000082D6
:1006960092DAD6B2B19189C1800008040200080F2F
:1006A60000000204090098D4B3880064D44DC654EF
:1006B600E400040402020804030007080C0040409A
:1006C60040404040404040404000000000000000E4
:1006D60000000000000000040404040404040404F0
:1006E60000000404040404040404040404000002D6
:1006F60042424242424242020000080808080808F4
:1007060008080808080000FE02827E02027E828235
:10071600FE00000F05040404040404040F008445CD
:10072600F64CA002FE020202FE0000000F000806C0
:1007360001000808070088780FF800D8545350D8ED
:1007460030000805020D000F0404040F00002010FD
:10075600FC030080FF201008040000000F000100C9
:10076600070808080E0000FE0080420C00807F008B
:100776000000000309080404020102040800080836
:100786000888681FE808080808000804020102042F
:10079600000304080800FF0991619109916191091C
:1007A600FF000F0100000001000008090F002022D1
:1007B6002222E23EE2222222200008040201000058
:1007C600070808080E0098D4B388004848FF24A5F7
:1007D6002600040402020808040305080E0088889F
:1007E600FF4800FC04050604040000080F00080783
:1007F60000000000000000FF45D57D55D5557D550C
:1008060047000807000F08040102040A0900888847
:10081600FF4848020202FE02020000080F00000024
:1008260008080F000000404242FE424242FE424299
:100836004000000806010000000F000000004048CC
:10084600494A48F8484A4948400008080402010055
:1008560001020408080000F9022020A2FA2222025E
:10086600FE00000F00020104070008080F00886858
:10087600FF4802FAAFAAAFFA020000000F000A0A08
:100886000603060A0A0008FF08404444FF44447C65
:1008960040000203010804030003040808000404DE
:1008A600846414FF14648404040002010202020F2B
:1008B6000202020102008868FF2840FE0202FE00D2
:1008C600000000000F080403000007080E0024249F
:1008D600FF1400D43F447C80E000080501040900B1
:1008E60004080004090000F01010101F121212F282
:1008F60002000805010509010509010508000000B7
:1009060000000000004F00000007000700147F14DD
:100916007F14242A7F2A122313086462364955223B
:10092600500005070000001C2241000041221C0067
:1009360014083E081408083E080800503000000855
:1009460008080808006060000020100804023E51F4
:1009560049453E00427F400042615149462141459A
:100966004B311814127F1027454545393C4A4949F1
:100976003001710905033649494936064949291E98
:1009860000363600000056360000081422410014D6
:1009960014141414004122140802015109063249A4
:1009A60079413E7E1111117E7F494949363E4141CA
:1009B60041227F4141221C7F494949417F0909095A
:1009C600013E4149497A7F0808087F00417F41007E
:1009D6002040413F017F081422417F404040407F34
:1009E600020C027F7F0408107F3E4141413E7F0991
:1009F6000909063E4151215E7F09192946464949A2
:100A0600493101017F01013F4040403F1F20402006
:100A16001F3F4038403F63140814630708700807F7
:100A26006151494543007F414100020408102000FE
:100A360041417F000402010204404040404001025F
:100A460004000020545454787F48484830384444C1
:100A56004444304848487F385454545800087E0966
:100A660002485454543C7F0808087000007A00007D
:100A76002040403D007F2028440000417F40007C0C
:100A86000438047C7C0804047838444444387C14D4
:100A9600141408081414147C7C08040408485454DC
:100AA600542404043F44243C4040403C1C20402045
:100AB6001C3C4030403C442810284404483008047C
:100AC6004464544C4408364141000000770000005D
:100AD600414136080402020201F8F8101008040425
:100AE600024AC94D4A484868300303010101010121
:100AF60001010000000000000000000000F0F8FC0A
:100B0600FCFCFCF8F00000000000000000000103FF
:100B1600030303010000000000081C3E7F00007F65
:100B26003E1C08000000000000000000000000005D
:100B360000000000000000000000000000000000AF
:100B4600000000000000000000000000000000009F
:100B5600000000000000000000000000000000008F
:100B6600000000000000000000000000000000007F
:100B7600000000000000000000000000000000006F
:100B8600000000000000000000000000000000005F
:100B9600000000000000000000000000000000004F
:100BA60000000000000000FFFFFFFFFFFFFFFFFF48
:100BB600FFFFFFFFFFFFFFFFFFFFFFFFFFFFFFFF3F
:100BC600FFFFFFFFFFFFFFFFFFFFFFFFFFFFFFFF2F
:100BD600FFFFFFFFFFFFFFFFFFFFFFFFFFFFFFFF1F
:100BE600FFFFFFFFFFFFFFFFFFFFFFFFFFFFFFFF0F
:100BF600FFFFFFFFFFFFFFFFFFFFFFFFFFFFFFFFFF
:100C0600FFFFFFFFFFFFFFFFFFFFFFFFFFFFFFFFEE
:100C1600FFFFFFFFFFFFFFFFFFFFFFFFFFFFFFFFDE
:100C2600FFFFFFFFFFFFFFFFFFFFFF0000000000C9
:100C360000000000000000000000000000000000AE
:100C460000000000008080C0C0E0E0E0F0F0F0F8B6
:100C5600F8F8F8FCFCFCFCFCFCFCFEFEFEFCFCFCD4
:100C6600FCFCF8F8F8F0E0C000000000000000000E
:100C7600000000000000000000000000000000006E
:100C8600000000000000008080C0E0E0F0F0F8FC0A
:100C9600FCFCFEFEFFFF7F7F7F7F7F7F3F3F3F3F66
:100CA6003F3F3F3F3F3F3F1F1F3F3F3F3F3F3F3F8E
:100CB6003F7F7F7FFFFFFFFFFFFF3C00000000003C
:100CC600000000000000000000000000000080405E
:100CD60020203018180C0E0F0F0707070303030117
:100CE6000101010000000080C0E0E0F0F0F0F8F83B
:100CF600F8F8FCFCFCFCFCFCFCFCFCFCF8F8F8F04E
:100D0600F0E0000000000001071F030000000000E3
:100D160000000000000000000000000000000000CD
:100D260000000000000000000000000000000000BD
:100D36000080E0C00000043F3F3F7F7FFFFFFFFFD2
:100D4600FFFFFFFFFFFFFFFF7F7F7F7F3F3F3F1FCD
:100D56000F07030000000000000000008080808074
:100D6600C0C0C0C0E0E0703030180C0000000000C9
:100D7600000000000000000000000000000000006D
:100D86000000FFFFFFFFFEFEFCFCFCF8F8F8F8F899
:100D9600F8F8F8F8F8F8F8F8F8F8F8F8F8F8F8FCC9
:100DA600FCFCFCFCFCFEFEFEFEFFFF7F3F3F1F1F20
:100DB6000F0707030101000000000000000000000B
:100DC600000000000000000000000000000000001D
:100DD60000000001070F1F3F3F3F7F7F7F7F7F7F20
:100DE6007F7F7F7F7F7F7F7F7F3F3F3F3F1F1F1F2D
:100DF6000F0F0707070303010100000000000000B2
:100E060000000000000000000000000000000000DC
:100E160000000000000000000000000000000000CC
:100E260000000000000000000000000000000000BC
:100E360000000000000000000000000000000000AC
:100E4600000000000000000000000000000000009C
:100E5600000000000000000000000000000000008C
:100E66000000000000C0C0C0C0C0C0C0C0C0C0C03C
:100E7600C0C0C0C0C0C0C0C0C0C0C0C0C0C0C0C06C
:100E8600C0C0C0C0C0C0C0C0C0C0C0C0C0C0C0C05C
:100E9600C0C0C0C0C0C0C0C0C0C0C0C0C0C0C0C04C
:100EA600C0C0C0C0C0C0C0C0C0C0C0C0C0C0C0C03C
:100EB600C0C0C0C0C0C0C0C0C0C0C0C0C0C0C0C02C
:100EC600C0C0C0000000000000FFFF00000000805E
:100ED6008080C0C0E0E0E0E020206060606060608C
:100EE60060606060606060606060606060C0C0C0DC
:100EF600C0C0C0C0C0C0C0C0C0C0C0C0C0C0C0C0EC
:100F0600C0C0C0C0C0C0C0C0C0C0C0C0C0C0C0C0DB
:100F1600C0C0C0C0C0C0C0C0C0C0C0C0C0C0C0C0CB
:100F2600C0C0000000FFFF000000000000FFFF003F
:100F36000000FFFFFFFFFFFFFFFFFFFF00000000B5
:100F4600000000000000000000000000000000009B
:100F5600000000000000000000000000000000008B
:100F6600000000000000000000000000000000007B
:100F7600000000000000000000000000000000006B
:100F860000000000FFFF000000FFFF00000000005F
:100F960000FFFF000000FFFFFFFFFFFFFFFFFFFF57
:100FA600000000007EE6C38383C3EE7C00000000E1
:100FB600000000000000000000000000000000002B
:100FC600000000000000000000000000000000001B
:100FD600000000000000181818181818181818181B
:100FE6001818180000000000FFFF000000FFFF00B7
:100FF6000000000000FFFF000000FFFFFFFFFFFFF3
:10100600FFFFFFFF000000000000000101000000DC
:1010160000000000000000000000000000000000CA
:1010260000000000000000000000000000000000BA
:1010360000000000000000000000000000000000AA
:10104600000000000000000000000000FFFF00009C
:1010560000FFFF000000000000FFFF00000000008E
:101066000101030307070F0F0C0C0C0C0C0C0C0CE6
:10107600060606060606060606060606060606060A
:101086000606060606060606060602020202020212
:10109600020202020202020202020202020202022A
:1010A600020202020202020202020202020202021A
:1010B6000303000000FFFF00000000000007070612
:1010C60006060606060606060606060606060606BA
:1010D60006060606060606060606060606060606AA
:1010E600060606060606060606060606060606069A
:1010F600060606060606060606060606060606068A
:101106000606060606060606060606060606060679
:101116000606060606060606060707000000000085
:1011260000000000000000000000000000000000B9
:1011360000000000000000000000000000000000A9
:101146000000000000000000000000000000000099
:101156000000000000000000000000000000000089
:101166000000000000000000000000000000000079
:101176000000000000000000000000000000000069
:101186000000000000C0C0C0C0C0C0C0C0C0C0C019
:10119600C0C0C0C0C0C0C0C0C0C0C0C0C0C0C0C049
:1011A600C0C0C0C0C0C0C0C0C0C0C0C0C0C0C0C039
:1011B600C0C0C0C0C0C0C0C0C0C0C0C0C0C0C0C029
:1011C600C0C0C0C0C0C0C0C0C0C0C0C0C0C0C0C019
:1011D600C0C0C0C0C0C0C0C0C0C0C0C0C0C0C0C009
:1011E600C0C0C0000000000000FFFF000000C0C03B
:1011F60040404040404040404040404040404040E9
:1012060040404040404040404040404040404040D8
:1012160040404040404040404040404040404040C8
:10122600404040404040406060606060606060E018
:10123600E0E0E0E0E0E0E06060E0C0C0C0C08080E8
:101246000000000000FFFF000000000000FFFF009C
:101256000000FFFF0000000000000080808080008A
:101266000000000000000000000000000000000078
:101276000000000000000000000000000000000068
:101286000000000000000000000000000000000058
:1012960000000000000000000000000000FFFFFF4B
:1012A600FFFFFFFFFFFC000000FFFF000000000043
:1012B60000FFFF000000FFFF00000000003F71611B
:1012C600C1C161773E000000000000000000000080
:1012D6000000000000000000000000000000000008
:1012E60000000000000000000000000000000000F8
:1012F60000000000181818181818181818180000F8
:1013060000FFFFFFFFFFFFFFFFFF000000FFFF00E2
:101316000000000000FFFF000000FFFF00000000CB
:1013260000000000000000000000000000000000B7
:1013360000000000000000000000000000000000A7
:101346000000000000000000000000000000000097
:101356000000000000000000000000000000000087
:101366000000000000FFFFFFFFFFFFFF7F3F0000C0
:1013760000FFFF000000000000FFFF000000030365
:101386000202020202020202020202020202020237
:101396000202020202020202020202020202020227
:1013A6000202020202020202020202020202020217
:1013B60002020202020202020202020606060606F3
:1013C60006060E0E0E0E0E0E0E0F0F0F0703010071
:1013D6000000000000FFFF000000000000070706F5
:1013E6000606060606060606060606060606060697
:1013F6000606060606060606060606060606060687
:101406000606060606060606060606060606060676
:101416000606060606060606060606060606060666
:101426000606060606060606060606060606060656
:101436000606060606060606060707000000000062
:101446000000000000000000000000000000000096
:101456000000000000000000000000000000000086
:101466000000000000000000000000000000000076
:101476000000000000000000000000000000000066
:101486000000000000000000000000000000000056
:101496000000000000000000000000000000000046
:1014A60000008080808080808080808080808000B6
:1014B600000000000000000000000000FFFFFFFF2A
:1014C600FF00000000000000000000000000000017
:1014D6000000000000000000000000000000000006
:1014E60000000000000000000000000000000000F6
:1014F60000000000000000000000000000000000E6
:1015060000000000000000000000000000000000D5
:1015160000000000000000000000000000000000C5
:1015260000000000000000000000000000000000B5
:1015360000000000000000000000000000000000A5
:101546000000000000000000000000000000000095
:101556000000000000000000000000000000000085
:1015660000007F7F7F7F7F7F7F7F7F7F7F7F7FFF03
:10157600FFFFFFFFFEFEFEFCFCF8F8F8FFFFFFFF93
:10158600FF00000000000000000000000000000056
:101596000000000000000000000000000000000045
:1015A60000C0C0C0000000000000000000000000F5
:1015B6000000000000000000000000000000000025
:1015C6000000000000000000000000000000000015
:1015D600C0C0C000000000000000000000000000C5
:1015E6000000000000000000C0C0C00000000000B5
:1015F600000000000000000000000000000000C025
:10160600C0C0000000000000000000000000000054
:1016160000000000000000000000000000000000C4
:101626000000F0F0F0F0F0F0F0F0F0F0F0E0E0E0C4
:10163600E0E0E0E0C1C181838307071FFFFFFFFFF2
:10164600FFFFFFFFFFFFFFFFFFFFFFFFFFFFFF00A3
:10165600000000000000000000E0E0E0E0E0E0E064
:10166600E0FFFFFFE0E0E0E0E0E0E0E00000000097
:10167600FFFFFF07C7C7C7C7C7C7C7C7C7C7C7C70C
:1016860007FFFFFF0000003C3C3C3C3C3C3C3C3C34
:10169600FFFFFF3C3C3C3C3C3C3C3C3C000000F03B
:1016A600F0F0F0F0F0F0F0F0FFFFFFF0F0F0F0F007
:1016B600F0F0F0F000000000F8F87878787878FF1D
:1016C600FFFF78787878F8F8F8000000000000FF4F
:1016D600FFFF1F1F1FDFDFDF1F1F1FDFDFDF1FFFF4
:1016E600FFFF0F0F0F0F0F0F0F0F0F0F0F1F1F1FF4
:1016F6001F1F1F3F3F3F3F7F7FFFFFFEFFFFFFFF95
:10170600FFE0E0E0E0E0E0E0E0E0E0E0E0E0E00094
:10171600000000000000000000FFFFFF03030303BA
:1017260003FFFFFF0303030303FFFFFF00000000A7
:10173600FFFFFF0003E3E3E3E3FFFFFFE3E3E3E38E
:1017460000FFFFFF00000000FEFEFE1E1E1EFEFE46
:10175600FF1F1FFEFEFE1E1EFEFEFE000000000016
:10176600000000000000FFFFFFFFE0E0E0E0E0E037
:10177600E000000000000000FFFF7878787878FF2E
:10178600FFFF78787878FFFFFF000000000000FF79
:10179600FFFF0E1EFEFFFF1F0C3CFCFFFF0700FFB6
:1017A600FFFFFEFEFEFEFEFEFEFCFCFCFCFCFCFC5F
:1017B600FCFCF8F8F8F8F0F0E0E0C0C3FFFFFFFF2C
:1017C600FF1F1F1F1F1F1F1F1F1F1F1F1F1F1F0062
:1017D6000000000000000000001F1F1F1F1F1F1F2A
:1017E6001FFFFFFF1F1F1F1F1F1F1F1F00000000DF
:1017F600FFFFFFC0C0C1C1C1C1FFFFFFC1F9F9F9B9
:10180600C0FFFFFF00000000FFFFFF00CFCFCFCFDC
:10181600FFFFFFFFCFCFCF00FFFFFF00000000005C
:1018260000000000C0F8FFFF0F0101010101FFFFEA
:10183600FF000000000000007F7F7878787878FF4E
:10184600FFFF787878787F7F7F000000000000FF38
:10185600FFFFF0F8FF3F3F3FF8F8FF3F7FFEF0FF46
:10186600FFFF010101010101010101010103030360
:101876000303070707070F0F1F1F3F7FFFFFFFFF2A
:10188600FFF8F8F8F8F8F8F8F8F8F8F8F8F8F800C3
:101896000000000000000000000000000000000042
:1018A60000FFFFFF00000000000000000000000035
:1018B600FFFFFFF1F1F1F1F1F1F1F1F1F1F1F1F1E8
:1018C600F1FFFFFF00000000FFFFFF00030303031B
:1018D600FFFFFF030303F3F0FFFF7F00000000009C
:1018E600F8F8FC3F1F0F03000000707070707F7FD8
:1018F6007F0000000000000000000000000000FF64
:10190600FFFFE0E0E0E0E0E0FCFCFC00000000FFA0
:10191600FFFF0000000000000707070000F0F0FFCF
:10192600FFFF0000000000000000000000000000B3
:10193600000000000000000000000000FFFFFFFFA5
:10194600FF07070707070707070707070707070030
:101956000000000000000000000080C0C080000001
:10196600800101810000800080800000800000006E
:101976008080000000000000C0C0C000000080C0E1
:10198600C0800000C00000C0C000C0C0C0C0008051
:10199600800000800000C1C1C1C00000C0C0C0807E
:1019A6000000800000008000000080C0C0C08000F1
:1019B6000080C0C08000C0000000000000C000C160
:1019C600C1C1C10101C1C1C181010100000080C0C6
:1019D600C080000080C0C0C08000808000C0C0C041
:1019E600C0800000000000000000000000000000B1
:1019F600000000000000000000000000FFFFFFFFE5
:101A0600FFFFFFFFFFFFFFFFFFFFFFFFFFFFFF00DF
:101A16000000000000000000003FFFC0C0610000A1
:101A2600FF0404FF0000FF00FF0F0E78FF00E07EBA
:101A360067677CE000000063C7CCFD71003FE1C032
:101A4600C07F1E007FC0C0FF3F0000FFFF0000FFF9
:101A5600FF0C0CFF0000FFCCCCCC007FFF181CFF56
:101A6600C000FF071CF8FF000000FFFF180F07006B
:101A76003EF3E1E1F33F07FEF80707FCFE0300FF34
:101A8600CCCCCC0000FF181CFFC00000003FFFC0FC
:101A9600C8F93000FF0C0C3CE700FFFF00FFC0C098
:101AA600F37F0000000000000000000000000000BE
:101AB6000000000000000000000000000000000020
:101AC6000000000000000000000000000000000010
:101AD6000000000000000000000000000000000000
:101AE60000000000000000000000000000000000F0
:101AF60000000000000000000000000000000000E0
:101B060000000000000000000000000000000000CF
:101B160000000000000000000000000000000000BF
:101B260000000000000000000000000000000000AF
:101B3600000000000000000000000000000000009F
:101B4600000000000000000000000000000000008F
:101B560000000000000080F000000000000000808F
:101B6600000000000000000000000080808080C0AF
:101B7600C06060303010B8F8780000000000000047
:101B8600000000000000000000000000000000004F
:101B960000000000003030180C0402E3FE1C0000B8
:101BA600000000000000000000000000000000002F
:101BB60000000000000000000000008080C0E0E09F
:101BC600800000000000000000000000000000008F
:101BD60000000000000000000000000000000000FF
:101BE60000000000000000000000000000000000EF
:101BF600000000000000C0FEFF1C00000000000006
:101C0600000000000000000000000000000000804E
:101C160000000080E07C4761F060000804C27F1F7E
:101C2600070000000000000000F8F001010101C1FA
:101C36008080C070380C0701000000000000000022
:101C46000000000000000000C0C0606030180CFCFE
:101C56000800000CF8000000F0F0FC1F0000000077
:101C66000000000000000000000000000080C0E04E
:101C7600E0000000E020100804E60301C0F81F079A
:101C8600010000000000000000000000000000004D
:101C9600000060E0C0C0C0C0C0C04040E0C000005E
:101CA600000000000000000000000000000000002E
:101CB6000000000000F8FF3F030090F0C0000000A5
:101CC600000000000000000000000000000000838B
:101CD600FE38068378F0CC07010080E09E83800002
:101CE6000000000000000000E0FF7F000060380FE9
:101CF6000703010080000000000000000000000053
:101D06000000000000000000E000001E1800F07F48
:101D1600000000FE1F000080FFFF0700000000001B
:101D26000000000000000000000002070301FF3F62
:101D36000100001C3F0088CC7F73380F03000000B1
:101D4600000000000000000000000000000000008D
:101D56000000000103030301C0F0F87E1F07010025
:101D66000000000000000000000000C0C0C0C0C0AD
:101D7600C0E0E0F0FF7F391C0E07070100000000FD
:101D8600000000000000000000000000070781803E
:101D9600C76021111888846432190D0703010100F8
:101DA60000000000000000808101000000000080AB
:101DB600C00000F8FF0088F0E0000000000000000E
:101DC60000000000000000060701000001030300F8
:101DD60000F07F0300000C0700FF00000000000079
:101DE60000000000000000000040606078FECFC0E8
:101DF600000000000002CF83C08000000000000049
:101E060000000000000000000000000000000000CC
:101E160000000080E0F8FEBF9F8781800000000080
:101E26000000000000000000000000010101018127
:101E3600C1791F03008000000000000000000000C0
:101E4600000000000000C0E0E070380C060301004E
:101E560000000000E0190780C0C00000000000007C
:101E6600000000000000F8FF3F0400000383C343A6
:101E7600213018FFFFE6C38180C0C080000000004B
:101E8600000000000000000000000000000000E06C
:101E9600FE07000000000000FFFF00000000000039
:101EA60000000000000000000000C0F07C1F0300DE
:101EB6000000000000E3BF07018080000000000072
:101EC60000000000000000000020F0F0F0F8F878B4
:101ED6007C3C1E1F0F0F07030303010000000000D8
:101EE60000000000000000000000008060381E07AF
:101EF6000100000000001FFCF0C080000000000090
:101F060000000000000001010000000060E0E07039
:101F160070381C1CFF0703070701000000000000C3
:101F2600000000103C7F3F38180C06060301000035
:101F36000000000001010101010101000000000094
:101F460000000000000000000000000000E07E0F1E
:101F560000000000000000000F0F0000000000005D
:101F66000000000000000000000001010000000069
:101F76000000000000030303030307030000000042
:101F86000000000000000000000000010100000049
:101F9600000000000000000000000000000000003B
:101FA600000000000000000406020100000000001E
:101FB600000000000000000003070F0707030100F0
:101FC600000000000000000000000000000000000B
:101FD6000830E0F07F000000000000000000000074
:101FE60000000000000000000000000000000000EB
:101FF60000000000000000000000000000000000DB
:1020060000000000000000000000180C070100009E
:1020160000000000000000000000000000000000BA
:1020260000000000000000000000000000000000AA
:10203600000000000000000000000000000000009A
:10204600000000000000000000000000000000008A
:10205600000000000000000000000000000000007A
:10206600000000000000000000000000000000006A
:10207600000000000000000000000000000000005A
:10208600000000000000000000000000000000004A
:102096000000000100000000000000000000000039
:0220A600000038
:03000000023EB706
:0C3EB700787FE4F6D8FD758107023EFE1E
:065380009000010221B7BC
:102C0300EFD394057480948040037F012212219EA8
:102C1300FED394037480948040037F0222EF7038C4
:102C2300EE7008125380F45293529412219E640161
:102C330070081253804293F4529412219EFE640250
:102C4300700712538042934294EE6403700A125346
:102C530080FEF45293EE4294EF6401703A12219E87
:102C6300FE7008125380F452915292EE6401700880
:102C73001253804291F4529212219E640270071201
:102C830053804291429212219E6403700A12538030
:102C9300FEF45291EE4292EF6402703A12219EFECC
:102CA3007008125380F452955296EE640170081224
:102CB30053804295F4529612219E64027007125378
:102CC300804295429612219E6403700A125380FE3D
:102CD300F45295EE4296EF6403703A12219EFE7011
:102CE30008125380F452B152B2EE640170081253C9
:102CF3008042B1F452B212219E64027007125380D3
:102D030042B142B212219E6403700A125380FEF450
:102D130052B1EE42B2EF6404703A12219EFE700883
:102D2300125380F452B352B4EE640170081253800C
:102D330042B3F452B412219E6402700712538042CC
:102D4300B342B412219E6403700A125380FEF452FC
:102D5300B3EE42B4EF6405703D12219EFF7E007016
:102D630008125380F452C952CAEF64014E7008121C
:102D7300538042C9F452CA12219E6402700712534F
:102D83008042C942CA12219E6403700A125380FF13
:092D9300F452C9EF42CA7F00228C
:104D0E00E4FEFDFC900BFFE0F8A3E0F9A3E0FAA3AC
:104D1E00E0FBC30223B5E0FBA3E475F0010222ED34
:104D2E00EEF0A3EFF0A3EBF0A3EAF0A3E9F0227507
:064D3E00C65A75C6A5224D
:10469B00900BFF1223C60000000B7F1E124D0E4025
:1046AB000475C780227F18124D0E400475C78122F6
:1046BB00E47F14124D0F400475C78222E47F0C1265
:1046CB004D0F400475C78322E47F06124D0F400443
:1046DB0075C78422E47F03124D0F400475C78522F2
:0F46EB00E47F02124D0F400475C7862275C78702
:0146FA00229D
:0D532C00E4F5C7F5C5F5C675C380F5C422CC
:054E7400900BF9EFF0C6
:104E7900E4FF12469B75C501900BF9E0F5C4E0FF0C
:104E89007808A2E713D8FBF5C3124D3DAFC2E5C7B9
:094E990030E40653C7EF7F332219
:014EA20022ED
:10509700900BFCEEF0A3EFF0A3EDF012469B75C565
:1050A70002900BFCA3E0FFF5C475C300A3E0F5C2B3
:0650B700124D3D02532CD6
:1050BD00900BF6EEF0A3EFF012469B75C503900B27
:1050CD00F6A3E0FFF5C475C300124D3D12532C7FBE
:0650DD00047E00025230C7
:104EFD00900BF6124D2E900BFBE0FF14F0EF601BA4
:104F0D00900BF6124D27AFF0FE900BF8124D24A921
:0C4F1D00F0FA12219EFD12509780DB225A
:104F8100900BF3124D2E900BF8E0FF14F0EF601A26
:104F9100900BF3124D27AFF0124E74900BF5124D9A
:0B4FA10024A9F0FAEF12220680DC22A7
:04308100410C850376
:103E2900A2A6E43325E0FFA2A4E4334FFFA2A3E452
:103E39003325E025E04FFFA2A5E43333333354F8AB
:103E49004FFFA2A2E433C454F04F900BF5F0900C4D
:103E590085E0601814604314602D14704E900BF5C2
:103E6900E0641F6046E4900C85F0803F7F0A7E0085
:103E7900125230900BF5E0FF641F602F900C84EF15
:103E8900F0A37402F08024900BF5E0641F701C907D
:103E99000C8504F0900C84E0FF22900C84741FF0D0
:0D3EA900A37403F07F0A7E001252307F1FC9
:013EB60022E9
:1043BE00900C02E02EFD124D50900C06E0FBA3E097
:1043CE00FAA3E022900C01F9E0F582758300022138
:1043DE00B72FF9EA3EFA900C06EBF0A3EAF0A3E948
:1043EE00F0900BF9E0FFA3E0FD900C0522F9900C84
:1043FE000FE0FF7E00E92FF9EE3AFA900C0EE02264
:10440E0034FFFE900C04E0FD7C0002223AFA1221E9
:10441E009EFF900C0AE0FE22EEC3940874809480F6
:01442E00226B
:104F2900C2B4C2B6E4FE124426501EC2B3EF30E743
:104F390004D2B28002C2B2D2B37D017801EF0880F7
:0B4F490002C333D8FCFF0E80DDD2B4A1
:014F5400223A
:104F5500C2B4D2B6E4FE124426501EC2B3EF30E707
:104F650004D2B28002C2B2D2B37D017801EF0880CB
:0B4F750002C333D8FCFF0E80DDD2B475
:014F8000220E
:1050E300E4FCEC124427501DEC24B0FF124F29E4DA
:1050F300FBEBC394C0E494005008E4FF124F550B3C
:0551030080EF0C80DDCF
:015108002284
:0C4D4400FF900C0FE0FE900C02E02EFD32
:104D5000AE07AC05EEC3940274809480EE50042438
:104D6000B6800224AEFF124F29ECC4540F2410FF6A
:0A4D7000124F29EC540FFF024F29E7
:10449F00C2B57F647E00125230D2B57F327E0012D9
:1044AF0052307FE2124F297F327E001252307F2F1F
:1044BF001244FE7FA01244E77F811244E77FEB1284
:1044CF0044FE7FC4124F297F147E001252307FAFFB
:1044DF00124F29C2B70250E3124F297F147E0012E8
:1044EF0052307F70124F297F147E001252302212E9
:0A44FF004F297F147E001252302274
:10475800EF14602B04704E900C7C7418F0900C7E53
:104768007410F0900C7D740CF0900C8174FFF0A321
:104778007401F0A3743CF0900C80740CF0802990C4
:104788000C7C7405F0900C7E7408F0900C7D740518
:10479800F0900C807407F0A374FFF0A37409F0A3E1
:0B47A8007404F080037F00227F0122D8
:08495600900C02EEF0A3EFF05B
:10495E00E4FDFCED25E0FFEC33FE74962FF582743A
:10496E00003EF583E493FAED25E0FFEC33FE7497F9
:10497E002FF58274003EF583E493FFEAFE900C025D
:10498E00E06E7003A3E06F600B0DBD00010CED64D3
:08499E00644C70BFAE04AF05CC
:0149A60022EE
:1036D000900BF9EFF0A3EDF0A3EBF0A3EAF0A3E970
:0136E000F0F9
:1036E100A3E0FF124758E4900C01F0900BFB12434A
:1036F100CA1243D2FF7E00C3948074809480502C00
:10370100EF24E0FFEE34FFFE900BFFF0A3EFF07C1F
:10371100007D0512223A900C811243CA1243DF74D4
:1037210008F07B0512378204F0023773900BFB120D
:1037310043CA1243D2FE900C01E0FD7C00E92DF951
:10374100EC3AFA9000011221B7FDEDFF12495690B3
:103751000BFFEEF0A3EFF07C007D1812223A900CE3
:10376100811243CA1243DF7410F07B0C123782249A
:1037710002F0900BFB1243CA1243D260030236ECF3
:1037810022122A58900C80E0FF900BF9E02FF09064
:043791000C01E02225
:0C2A5800900C02EFF0900C04EBF0AA05CB
:102A6400A3E0FF54076008EF54F82408FF800590A2
:102A74000C05E0FF900C05EFF0E0FDFFEA2FFFE40A
:102A840033FEEF7803CEC313CE13D8F9900C0BF0BA
:102A9400FCED2A5407A3F0EA131313541FFF900C00
:102AA40009F0EA5407A3F0C3EC9F04900C0DF0E482
:102AB400A3F0900C0DE0FFA3E0C39F4003022C029F
:102AC400900C09E0FF900C0BE09F5003022BBCE438
:102AD400900C0FF0900C04E0FF900C0FE0FEC39FED
:102AE4004003022BF9900C0EE0701D900C09E0FFDE
:102AF4001243BE900C0F1243D512441FF8EF088006
:102B040002C333D8FC022BAF900C0DE014FFA3E0FA
:102B14006F703F900C0BE0124D44900C0EE024FFBC
:102B2400FFE412440E1243C72FF9EA3EFA900C0F49
:102B3400E07E0029F9EE3AFA12219EFF900C0CE097
:102B4400FEC374089EFEF8EF088002C313D8FC028B
:102B54002BAF1243C71243FB24FFFFEE12440EE9CE
:102B64002FF9EA3E12441BC374089EFEF8EF088056
:102B740002C313D8FC900C10F01243C71243FBFF9E
:102B8400900C04E08FF0A429F9EA35F012441BF804
:102B9400EF088002C333D8FCFB900C0EE0FF900CCE
:102BA40009E02F124D44900C10E04BFF124F55904A
:102BB4000C0FE004F0022AD8900C09E0FF900C0FEF
:102BC400E0FE1243BEF9900C0F1243D6FF900C0C9A
:102BD400E004FEF87401088002C333D8FC14FE90AC
:102BE4000C0AE0FDF87401088002C333D8FC146EAB
:0E2BF4005FFF124F55900C0EE004F0022AB65F
:012C020022AF
:103EC300025351E493A3F8E493A34003F68001F271
:103ED30008DFF48029E493A3F85407240CC8C33300
:103EE300C4540F4420C8834004F456800146F6DFCF
:103EF300E4800B0102040810204080902F2DE47E03
:103F0300019360BCA3FF543F30E509541FFEE493C3
:103F1300A360010ECF54C025E060A840B8E493A38A
:103F2300FAE493A3F8E493A3C8C582C8CAC583CAB5
:103F3300F0A3C8C582C8CAC583CADFE9DEE780BE6D
:01308500004A
:1020A800E709F608DFFA8046E709F208DFFA803E1A
:1020B80088828C83E709F0A3DFFA8032E309F60807
:1020C800DFFA8078E309F208DFFA807088828C836F
:1020D800E309F0A3DFFA806489828A83E0A3F60823
:1020E800DFFA805889828A83E0A3F208DFFA804CFD
:1020F80080D280FA80C680D4806980F280338010D4
:1021080080A680EA809A80A880DA80E280CA80333C
:1021180089828A83ECFAE493A3C8C582C8CCC583B4
:10212800CCF0A3C8C582C8CCC583CCDFE9DEE78084
:102138000D89828A83E493A3F608DFF9ECFAA9F003
:10214800EDFB2289828A83ECFAE0A3C8C582C8CC59
:10215800C583CCF0A3C8C582C8CCC583CCDFEADE72
:10216800E880DB89828A83E493A3F208DFF980CCD4
:1021780088F0EF60010E4E60C388F0ED2402B404CD
:102188000050B9F582EB2402B4040050AF23234574
:0621980082239020F87381
:10219E00BB010689828A83E0225002E722BBFE023F
:0921AE00E32289828A83E4932272
:1021B700BB010CE58229F582E5833AF583E02250DD
:1021C70006E92582F8E622BBFE06E92582F8E22227
:0D21D700E58229F582E5833AF583E4932241
:1021E400BB010989828A83F8E028F022500327F78B
:1021F40022BBFE05F8E328F3228A838982F8E4935C
:0222040028228E
:10220600BB010689828A83F0225002F722BBFE01B7
:02221600F322B1
:10221800F8BB010DE58229F582E5833AF583E8F0FC
:10222800225006E92582C8F622BBFE05E92582C8A8
:02223800F22290
:10223A00EF8DF0A4A8F0CF8CF0A428CE8DF0A42EB8
:02224A00FE2272
:10224C00BC000BBE0029EF8DF084FFADF022E4CC76
:10225C00F875F008EF2FFFEE33FEEC33FCEE9DEC3F
:10226C00984005FCEE9DFE0FD5F0E9E4CEFD22ED85
:10227C00F8F5F0EE8420D21CFEADF075F008EF2FCF
:10228C00FFED33FD4007985006D5F0F222C398FDC0
:05229C000FD5F0EA225D
:1022A100C2D5EC30E709B2D5E4C39DFDE49CFCEE58
:1022B10030E715B2D5E4C39FFFE49EFE12224CC362
:1022C100E49DFDE49CFC800312224C30D507C3E45D
:0622D1009FFFE49EFE22C7
:1022D700C5F0F8A3E028F0C5F0F8E5821582700292
:0622E7001583E038F0222F
:1022ED00A3F8E0C5F025F0F0E582158270021583A4
:0622FD00E0C838F0E82201
:10230300BB0110E58229F582E5833AF583E0F5F018
:10231300A3E0225009E92582F886F008E622BBFEF5
:102323000AE92582F8E2F5F008E222E5832AF5833B
:08233300E993F5F0A3E9932200
:10233B00BB010DC58229C582C5833AC5830222D74D
:10234B005011C58229F808E5F026F618F5F0E5825C
:10235B0036F622BBFE11C58229F808E225F0F5F00E
:10236B00F218E23582F222F8E58229F582E5832A1A
:0D237B00F58374019325F0F5F0E49338220A
:10238800F8BB0111E58229F582E5833AF583E8F087
:10239800E5F0A3F0225009E92582C8F608A6F02244
:0D23A800BBFE09E92582C8F2E5F008F2222B
:1023B500EB9FF5F0EA9E42F0E99D42F0E89C45F07E
:0123C50022F5
:1023C600A8828583F0D083D0821223DD1223DD120A
:1023D60023DD1223DDE473E493A3C583C5F0C5832F
:1023E600C8C582C8F0A3C583C5F0C583C8C582C861
:0123F60022C4
:0C23F700A42582F582E5F03583F58322F1
:09240300E0FBA3E0FAA3E0F922DA
:10240C00F8E0FBA3A3E0F925F0F0E5821582700259
:07241C001583E0FA38F022FD
:09242300EBF0A3EAF0A3E9F022BA
:0C242C00E493FB740193FA740293F9220C
:10243800BB010DE58229F582E5833AF58302240381
:102448005007E92582F802249ABBFE07E92582F89D
:102458000224A3E58229F582E5833AF58302242C38
:062468008A838982E473FF
:10405500900C18EBF0A3EAF0A3E9F0900C1BE0FB41
:10406500A3E0FAA3E0F912219EFE900C18E0FBA351
:10407500E0FAA3E0F912219EFF6E702AEF600E9020
:104085000C1E74FFF5F01222D745F070037F002255
:10409500900C19E475F0011222D7900C1CE475F010
:1040A500011222D780B5900C18E0FBA3E0FAA3E03B
:1040B500F912219EFDD3EE6480F8ED6480984003EB
:1040C5007F0122900C1BE0FBA3E0FAA3E0F912218B
:0740D5009EFFC3ED9FFF22D7
:10000E00E4FFFE12219E600C0FEF70010E09E970E5
:05001E00F20A80EF2250
:10246E00EF4E6012EF60010EEDBB010B89828A8385
:10247E00F0A3DFFCDEFA2289F05007F709DFFCA992
:0C248E00F022BBFEFCF309DFFCA9F022E9
:09249A00E6FB08E6FA08E6F92267
:0924A300E2FB08E2FA08E2F9226A
:00000001FF
