:103CE100706172616D6574657273206172652063C4
:103CF1006F7272656374202100706172616D657409
:103D0100657273206572726F72202100726573741F
:103D11006F726520706172616D65746572732E2EAC
:103D21002E00FFFFFFFF08080208010100A988001B
:0F3D31007375636365737366756C6C792021001D
:10291400500F5D000000FFFFFFFF080802080101DF
:0329240000A9887F
:10428C007E037F727D007B01121D4B7E037F727D4E
:10429C00007B0122A3F07B017A0E79F6227BFF9042
:1042AC000F017401F07D1F227B017A0F7960740D70
:0242BC00F022EE
:0B485200123D9B12398C12482B80F89D
:103D9B001237917A00790A12428C7A03797C121DC0
:103DAB004B7A0679EE12428C7A0A7960121D4B120D
:103DBB003B4A1238961245A5900F72E054FEF01252
:103DCB0046AC124711124732124750C2A712481D78
:103DDB00D2AF124866900F6AE0700C123816900F33
:083DEB006A7401F01241B322D9
:1037910075BA8090FE0374C0F090FE03E030E0F94A
:1037A10090FE017401F090FE00F0E4F5BA900EF67F
:1037B100F074051242A0E4FF122640900EF6740345
:1037C100F0740A1242A0E4FF123809FF1237FBA37A
:1037D10074321242A17F01122640900EF67401F05C
:1037E100A3747C1242A17F021238097F031237FBB6
:0A37F100A3141242A17F0302264038
:1037FB007A0E79F6122640900EF67403F0221226FA
:0B380B0040E4900EF6F0A304F0FB2256
:1042EF00E4FFFE900EFB1242B4E41244897B017A84
:1042FF000F796074FF900EFDF0A3F07D0B1233A8C1
:0F430F00900F6BE0B50607A3E0B50702D322C3FA
:01431E00227C
:103896001242EF7BFF50127A3C79E11242AB7F0E67
:1038A600122CD67FE87E03805E7A3C79FA1242AB10
:1038B6007F13122CD67FF47E011200267A3D790DF5
:1038C6001242A97F13122CD6E4FFFE124618786026
:1038D6007C0F7D017BFF7A3D79237E007F0D121BD5
:1038E60010900EFE1242B4E4FFFE1244057FE87EFD
:1038F6000312002612463E7A3D79311242A97F31E3
:0B390600122CD67FF47E011200262256
:102D9B0020323430302000203438303020002039BD
:102DAB00363030200031343430302000313932307D
:102DBB00302000333834303020003536303030207E
:102DCB000035373630302000313135323030003974
:102DDB00323136303000C7EBCAE4C8EBC3DCC2EB90
:102DEB0000C7EBCAE4C8EBD0C2C3DCC2EB00C7EB35
:102DFB00C8B7C8CFD0C2C3DCC2EB0053544F50008E
:102E0B0052554E00B9D8B1D5CEDECFDFC4A3BFE942
:102E1B0000B4F2BFAACEDECFDFC4A3BFE900D2D489
:102E2B00CCABCDF800CEDECFDFCDF800C0A9D5B945
:102E3B00CDF800C4DAB2BFCDF800CAC7B7F1BBD624
:102E4B00B8B4B3F6B3A7C9E8D6C300CAC700B7F185
:012E5B000076
:10292700603C0EB900FB80FF2D9B01FDC0FF2DA26F
:1029370002FEE0FF2DA903FF40FF2DB004FF70FF4B
:102947002DB705FFB8FF2DBE06FFCFFF2DC507FF2B
:10295700D0FF2DCC08FFE8FF2DD309FFFDFF2DDAAF
:04296700410EF50A1E
:102F1A00E075F006A424BCF582E4340EF583E0FBE8
:102F2A00A3E0FAA3E0F9900F017401F07D1F7F6915
:102F3A00227408900F08F0A374FFF0A322E075F042
:102F4A0006A424BAF582E4340EF583E0FEA3E02257
:102F5A007BFFE4900F01F0227BFFE4900F01F02247
:102F6A00740AF074BCA3F07B057D1F227BFFE490FA
:102F7A000F01F0227BFFE4900F01F022740AF0A304
:102F8A0074B7F07B057D1F7F6122900EF9E0FBA3E9
:102F9A00E0FAA3E02403F9E43AFA227BFFE4900F73
:102FAA0001F022900EF9A3E0FAA3E0F9227BFF9048
:102FBA000F017401F0227BFFE4900F01F07D3022B3
:0E481D00E4900F5FF01243D812485D020003D2
:08000300900F69E0FF0248467E
:09485D00900F68E024FF9287220D
:1043D800900F64122F47F58BEEF58D900F65122F15
:1043E80047F5D7EEF5D6900F66122F47F5D5EEF5BF
:0D43F800D4900F67122F47F5D3EEF5D222B7
:103A7200900EF9EBF0A3EAF0A3E9F0122F94C00242
:103A8200C001122FAD121B367C00D001D00229F9E1
:103A9200EC3AFA121B36F47003121B9EEF640170AB
:103AA2000304800C121B367005740A121B9E74FFED
:103AB200121B7C121B3675F00A84E5F0121B9E1253
:103AC2002F94C002C001122FAD121B367E00D0010E
:0C3AD200D00229F9EE3AFA121B36FF224E
:10453000900F1C7401F0A3740FF0A3740CF0A3E4AB
:10454000F0A37404F07B017A0E79FC12370AEF7045
:07455000037F01227F00221E
:10468900900EF9EBF0A3EAF0A3E9F07E007F047D38
:10469900FF122F9E121D4B900EF9E0FB122FB0E472
:0346A900021B9E53
:1047BD007401121B7C121B36FF64047005900F5E92
:0847CD0004F0EF5403021B9EEF
:1047D50012463E7440122F3D7414F0A37440F07BD2
:0747E500C0E4FDFF022157B3
:1044DE0012463E900F087432122F40740BF0A374E4
:1044EE00C9F07B517D08E4FF1221577A2D79E11234
:0944FE002F5A7D0F7F64022CD6B9
:1035F60012463E900F5FE06066E4900EF9F0900E82
:10360600F9E0FFC3940474809480503B749C2FF5BA
:1036160082E4340EF583E0FF7E007B017A0E79FAB0
:10362600900F01E4F0A3740AF01224A2900EF9E0C0
:1036360075F014A42464FF122FB97D12122CD690B3
:103646000EF9E004F080B7900F08740C122F407446
:103656000AF0A37497F07B107D107FAF1221577A82
:103666002D79EC122F5A7D0F7F0F122CD67A2D79D9
:0B367600F9122F627D237F0F022CD67B
:103FEF0012463E7A2E7906122FB77D187F0F122CAC
:103FFF00D67A2E790B122FB77D187F96122CD6906A
:10400F000F68E0900F08700D7438122F40740EF087
:10401F00A37400800B7438122F407411F0A3742016
:0B402F00F07B64E4FD7F2D122157227E
:1040C10012463E900F69E075F01EA4240BFD900F7F
:1040D10008740C122F40740AF0A37477F07B107FE0
:1040E1000A1221577A2E790F122F627D0A7F1E1232
:1040F1002CD67A2E791C122F767D287F1E022CD683
:1042570012463E7A2E7929122F767D1D7F0A122C5F
:10426700D6900F64122F1A122CD6122F3B122F6AD8
:104277007F95122157122F3B740AF074B7122F6FD4
:054287007F61022157D8
:10434E0012463E7A2E7930122F7E7D1D7F0A122C58
:10435E00D6900F65122F1A122CD6122F3B122F6ADF
:0E436E007F95122157122F3B122F86022157E6
:10437C0012463E7A2E7937122F7E7D1D7F0A122C23
:10438C00D6900F66122F1A122CD6122F3B122F6AB0
:0E439C007F95122157122F3B122F86022157B8
:1043AA0012463E7A2E793E122FA57D1D7F0A122CC7
:1043BA00D6900F67122F1A122CD6122F3B122F6A81
:0E43CA007F95122157122F3B122F860221578A
:1045070012463E7A2E7945122FA57D147F30122C44
:10451700D67A2E7956122FC07F0A122CD67A2E7988
:0945270059122FC07FAC022CD602
:1041B3007B017A0F796074FF900EFDF0A3F07D0B05
:1041C3001233A8900F6BEEF0A3EFF0C2AFE4FFFE43
:1041D3001246187B017A0F7960900EFE740DF0E49D
:0841E300FFFE124405D2AF22D9
:0D296B004A00000504FF30780305FF311E0F
:102C0100EF75F016A42462F9740A35F0FA900EFA01
:102C11007401F0A3EAF0A3E9F0900DD1E075F0168C
:102C2100A42472F582E5F0340AF58322900DD1E0F7
:102C31002401FFE433FE7C007D28121BE4EDF02229
:102C4100900DD1E0FF75F016A42460F582E5F03413
:102C51000AF58322F583E4F0A3F0F583758210224F
:102C610035F0FA900EFA7401F0A3EAF0A3E9F0222C
:102C710075F016EFA42462F582E5F0340AF583E0DD
:102C8100640222F583A3E0900EFDF07B0122FDEFAB
:102C910075F016A42462F9740A35F0FA7B012290CA
:102CA1000A5FE0FF75F016A42224EEF582E5F03408
:102CB10006F58322EF75F016A424F0F97406222498
:102CC1007CF582E5F03403F58322EF75F016A42438
:052CD1007EF9740322EE
:083ADE00900EF6EFF0A3EDF0ED
:103AE600E4A3F0F0900EF8E0FFC394027480948093
:103AF6005051EF75F005A42400F582E43400F583F7
:103B0600E0FF900EF6E0B50732900EF8E0FF75F094
:103B160005A42401F582E43400F583E0FE900EF757
:103B2600E0B50617EF75F005A42402F582E434002B
:103B3600F583A3E0FAA3E0F9121D45900EF8E00420
:033B4600F080A16B
:013B49002259
:0E482B007D047F05123ADE7D057F03023ADE32
:10307800122C41E0700302311D122C716039900D41
:10308800D1E0122C46E4F0D2A7122C01A3E00412DE
:103098002C887A0F7947123F4D900DD1E0FF122C02
:1030A8001E122C57C083C082122C8FD007D0061254
:1030B8001D4BC2A7122C2D900A5FE075F016A412C2
:1030C8002CAAE06050122CA0122CAAE4F0122CB505
:1030D800122C61900A5FE075F016A42400F582E5D1
:1030E800F03407122C847A0F7952123F4D122CA01B
:1030F8002400F582E5F03407122C55C083C082FD08
:10310800122CB535F0FA7B01D007D006121D4B9072
:063118000A5F122C3022B8
:10311E009006EDE075F016A4122CC0E0700302319B
:10312E00C29006ED122CA3122CC0E4F0122CCB127E
:10313E002C619006EDE075F016A4248EF582E5F074
:10314E003403122C847A0F7952123F4D9006ED12F1
:10315E002CA3248EF582E5F03403122C55C083C0C7
:10316E0082FD122CCB35F0FA7B01D007D006121D52
:10317E004B9006ED122C30122C41E06037122C7160
:10318E007032900DD1E0122C46E4F0122C01122C6C
:10319E00867A0F793C123F4D900DD1E0FF122C1E16
:1031AE00122C57C083C082122C8FD007D006121D4E
:0531BE004B122C2D2234
:0A33A800900EF9EB122C69A3EDF072
:1033B200E4900EFFF0900EFDE0FFA3E0900F00CF2F
:1033C200F0A3EFF0E4900EFFF0900EFCE0FF900E01
:1033D200FFE0C39F5062900EF9E0FBA3E475F00199
:1033E200121C85A9F0FA121B36FF900F00E0F0A321
:1033F200E06FF0E4FCFD900F00E0FEA3E0FF30E0A0
:1034020019EEC313FEEF13FFEE64A0FEEF6401FF9B
:10341200900F00EEF0A3EFF0800B900F00E0C313CB
:10342200F0A3E013F00DBD00010CED64084C70C672
:10343200900EFFE004F08091900F00E0FEA3E0FF09
:013442002267
:102A4500C6F4CDA3BFAAB9D800CDA8D0C5B7BDCA15
:102A5500BD00C3DCC2EBD0DEB8C400B2A8CCD8C27E
:102A6500CAC9E8D6C300BBD6B8B4B3F6B3A7C9E89C
:102A7500D6C300D2D4CCABCDF800CEDECFDFCDF8B7
:102A850000C0A9D5B9CDF800C4DAB2BFCDF800FFB2
:102A9500FFFFFF0077726F6E672070617373776F4A
:102AA5007264202100496E76616C696420706173DF
:102AB50073776F7264210043757272656E7420635B
:102AC5006F756E747320697320312E0043757272B1
:102AD500656E7420636F756E747320697320322E72
:102AE50000D0DEB8C4B3C9B9A600D0DEB8C4CAA741
:102AF500B0DC00506C656173652077616974206195
:102B0500206D6F6D656E7400FFFFFFFF08080208FA
:102B1500010100A98800000000000000000000007D
:022B25000000AE
:10297800420DD2010760230DD4FF2A4501FF3FEF26
:10298800FF2A4E03FF40C1FF2A5705FF35F6FF2AED
:102998006002FF486FFF2A6B06FF45075C0E6DFF5C
:1029A8002A7808FF4257FF2A7F09FF434EFF2A86ED
:1029B8000AFF437CFF2A8D0BFF43AA520DF7000044
:1029C80000000102010DD4000000000102010E6D9B
:1029D80060640E091E01FF41791B01FF41011701C7
:1029E800FF39111D01FF476E0F01FF45CC1E00FF87
:1029F8003EA31B00FF3EF81700FF46F01D00FF47EF
:102A0800FD0F00FF00421E02FF2E5C1B02FF2B275A
:102A18001702FF1F7B1D02FF45570F02FF47891E44
:102A280003FF3DF31B03FF3E4B1703FF3C1D1D0334
:082A3800FF47EC0F03FF0089CA
:101D9E0078F77C0E7D017BFF7E007F02121B109078
:101DAE000EF67A0E79F7E0FF7E007B01900F01E4CC
:101DBE00F0A3740AF022900E99E075F014A4246436
:101DCE00FF900F017401F022EFF075F006A424BC11
:101DDE00F582E5F0340EF583E0FBA3E0FAA3E0F91B
:101DEE002278097C0F7D017B017E007F10021B1083
:101DFE00E075F006A424BAF582E5F0340EF583E022
:101E0E00FEA3E022900F64E0FD900EF5E0FB7A0059
:101E1E0022900DF8E075F007A424D4F9740D900DFE
:101E2E00FD35F0FA7401F0A3EAF0A3E9F02278F799
:101E3E007C0E7D017BFF7E007F02021B10E024FEE4
:101E4E00900DFAF0900DF8E014900DFBF0900DF857
:101E5E00E022E024FE900E03F0900E01E014900EAE
:101E6E0004F0900E01E022E075F014A42406FD901B
:101E7E000F08740CF0A374FFF0A3740AF0A3747728
:101E8E00F07B107F32227B017A0E7989229000033B
:101E9E00121B4F900DD3F0900004021D15E014900C
:101EAE000DFAF0900DF8E0900DFBF00422E0149086
:101EBE000E03F0900E01E0900E04F00422900EF648
:101ECE00E0FF7E007B0122EF75F014A42405FDE4F3
:101EDE00900F01F07F4622900E01E075F007A424CA
:101EEE006D22900DD3E0640422900DD27401F0A304
:101EFE007407F07BFF227B017A0E79992278607C41
:101F0E000F7D017E00021B10E4900DD2F07BFF22AC
:101F1E00900E89E075F014A4246122900F7374174B
:101F2E00F0A37470F022900DF8E0FD7B057A00228C
:101F3E00900DF8E0900DFAF004227B017A0E79A94B
:101F4E0022900F5FE07B0122900F69E06401F07B2D
:101F5E00FF22900E01E0FD7B047A0022900E01E03C
:0D1F6E00900E03F00422900DD3E024F72222
:10398C001234DC900EF7EFF01242BE900EF7E064AA
:10399C001F6061E4900EF6F0900EF6E0FFC39414F5
:1039AC0074809480504EEF75F005A42409F582E4E0
:1039BC00340EF583E0FF900EF7E0B5072F900EF66E
:1039CC00E0FF75F005A4240AF582E4340EF583E0DB
:1039DC00FE900DD2E0B50614EF75F005A4240BF59E
:1039EC0082E4340EF583121DE8021D45900EF6E0BC
:0439FC0004F080A4AF
:013A000022A3
:094866007BFF7A4779D502008E30
:03008E00021D450B
:10391100121EF0707578F97C0E7D01121E94FE7FE7
:1039210010121B107A0F795D121DEF124530EF70E6
:1039310021900F1C74FFF0A3742AF0A37494F0A3D8
:10394100E4F0A37404F07B017A0F796012370AEF77
:10395100700F7BFF7A40793A12008EE4900DD2F01D
:1039610022121E9412468912463E7BFF7A2A7999C9
:10397100121DCF7D1F7F31122CD67FE87E031200EE
:0B398100267BFF7A4479DE12008E22C4
:05417900121EF070347D
:10417E00121E947F01123A72900EF6EFF078F77CD1
:10418E000E7D017BFF7A2B791B121E44900EF67A60
:10419E000E79F7121DB41224A2121F1E121DCE7D0F
:0441AE0026122CD6D3
:0141B20022EA
:1045CC00900DD3E024FC601724FD7019900DD3746A
:1045DC0004F07BFF7A4479DE12008E121F2922121E
:0645EC001E941247BD22DF
:10476E00121EF070157BFF7A4779D512008E900DD0
:0B477E00D37407F0121E94124689222B
:05410100121EF07037F2
:10410600121E947F02123A72900EF6EFF078F77C48
:104116000E7D017BFF7A2B791D121E44900EF6123E
:104126001ECE7A0E79F7121DBA1224A2121F1E1283
:074136001DCE7D26122CD6E0
:01413D00225F
:1046F000900DFD121DE6121EA5E94A4B6012900DA9
:10470000D27402F0900DFD121DE6121E9B12008E57
:014710002286
:103EA300900DF9E0FF14F0EF7001F0121F347F0161
:103EB3001247A4900DF8EFF064047004A37402F0A9
:103EC300900DF9E0FD7C00700A121F3E121E57246C
:103ED300028011ED64014C900DF87005121EAB8049
:103EE30003121E4B900DFCF07BFF7A40793A1200CF
:053EF3008E121E1F22CB
:01004200229B
:1047FD00121EF77A4779D512008E121E9402468941
:103EF800900DF9E0FF04F0EF640270037402F01211
:103F08001F34E4FF1247A4900DF8EFF07002A3F0FD
:103F1800900DF9E0FD7C00700A121F3E121E572416
:103F2800028011ED64014C900DF87005121EAB80F3
:103F380003121E4B900DFCF07BFF7A40793A120079
:053F48008E121E1F2275
:103BB400900F5EE0705512463E900F5FE07BFF7AF7
:103BC4002A79AA900F01701704123C127A2A79BC40
:103BD400121DCF7D207F05122CD6121F048016746F
:103BE40001123C127A2A79D1121DCF7D207F051251
:103BF4002CD6121F481246897FE87E031200267BCA
:103C0400FF7A3579F612008E7F00227F0122F07D43
:093C1400147F05122CD67BFF225F
:101F7B00900DD3E014700302206E1470030220C086
:101F8B0014700302208524FD70030220DF0460031C
:101F9B00022123123BB4EF7003022123900F5FE069
:021FAB00706064
:101FAD00900EF6F0900EF6E0FFC3940474809480CA
:101FBD00502A749C2FF582E4340EF583121ECE7ACE
:101FCD000E79F7121DBA1224A2900EF6121DC77DBE
:101FDD0012122CD6900EF6E004F080C8900F087403
:101FED000CF0A374FFF0A3740AF0A37497F07B10A8
:0D1FFD007D107FAF122157900F5F7401F02F
:10200A0002206878F97C0E7D01121F04121DF77AEE
:10201A000E79A9121DEF124530EF602A7B017A0E64
:10202A0079AC7F04121F0B1241B3121F04124689A6
:10203A00121F48124689E4900DD2F01221247BFF28
:10204A007A40793A801012463E7A2A79EF12214173
:10205A007BFF7A3579F612008EE4900F5FF0E490F8
:10206A000F5EF022900F68E06401F024FF9287125D
:10207A0041B37BFF7A3F79EF022120900F69E0702C
:10208A0006FF124846801F7F0112484612463E7BD1
:10209A00FF7A2A79F8121DCF7D167F1E122CD67F61
:1020AA00F47E011200261241B3122124121F167A5D
:1020BA0040793A022120900E06121DE6121EA5E969
:1020CA004A4B6055900DD27403F0900E06121DE62D
:1020DA00121E9B8041C2AFE4FFFE1246187BFF7AB4
:1020EA002B790D7F0F121F0B7B017A0F7960900EEF
:1020FA00FE740FF0E4FFFE124405D2AF1243D81269
:10210A00485D12000312463E7A2A79E612214112EC
:10211A001F167A40793A12008E2212463E7BFF7AC7
:10212A002A79E6E4900F01F07D167F46122CD67FBD
:10213A00F47E01120026227BFFE4900F01F07D1647
:0D214A007F46122CD67FF47E011200262263
:10478900900DD3E024FB7012121F4F70067A0E7938
:0B4799009980047A0E79A91247BD2216
:10455700900DD3E024FB7015121F04124689121F19
:1045670048124689E4900F5FF0900F5EF0121F1615
:074577007A40793A02008E40
:102E5C00900DD3E024FE604D14604024FE6003020C
:072E6C002F0E121F4F70181A
:102E73007A0E7999122F0F7A2B791F121D9E122425
:062E8300A2121DC47D1225
:022E89008019AE
:102E8B007A0E79A9122F0F7A2B7921121D9E1224FB
:0C2E9B00A2900EA9121DC77D26022CD6A5
:102EA700121F567A4079C102008E900E02E0FF147D
:102EB700F0EF7001F0121F607F011247A4900E011E
:102EC700EFF064037004A37402F0900E02E0FD7C3F
:102ED70000700A121F6A121E6C24028011ED640131
:102EE7004C900E017005121EBB8003121E60900EDF
:102EF70005F07BFF7A40798012008E121EE5F97487
:102F07000E900E06121E2F227F01123A72900EF6B5
:032F1700EFF022B6
:102B2700900DD3E024FE606114605424FE6003021C
:072B37002BF5121F4F702265
:102B3E007A0E7999122BF67A2B7923121E3C121EDD
:102B4E00CB7A0E79F7121DBA1224A2121DC47D1271
:022B5E008023D2
:102B60007A0E79A9122BF67A2B7925121E3C121EA9
:102B7000CB7A0E79F7121DBA1224A2900EA9121D5B
:062B8000C77D26022CD6E1
:102B8600121F567A4079C102008E900E02E0FF04B1
:102B9600F0C3EF94027480948040037402F0121F15
:102BA60060E4FF1247A4900E01EFF07002A3F090CC
:102BB6000E02E0FD7C00700A121F6A121E6C2402CF
:102BC6008011ED64014C900E017005121EBB80034E
:102BD600121E60900E05F07BFF7A40798012008EFF
:102BE600121EE5F9740E35F0FA900E06121E322208
:0B2BF6007F02123A72900EF6EFF02200
:103DF300121F746017146024146031240370481276
:103E03001E12E4FF1247A4900F64802E900F6512D8
:103E13001E15E4FF1247A4900F65801E900F6612D3
:103E23001E15E4FF1247A4900F66800E900F6712D1
:103E33001E15E4FF1247A4900F67121DD6121DCF63
:083E43007D1F7F69122CD622BD
:103E4B00121F74601714602414603124037048121D
:103E5B001E127F011247A4900F64802E900F6512E3
:103E6B001E157F011247A4900F65801E900F6612DE
:103E7B001E157F011247A4900F66800E900F6712DC
:103E8B001E157F011247A4900F67121DD6121DCF6E
:083E9B007D1F7F69122CD62265
:103C1D00121F74601714602114602B2403705490CC
:103C2D000F64121DFEF58BEEF58D8025900F65123C
:103C3D001DFEF5D7EEF5D68018900F66121DFEF518
:103C4D00D5EEF5D4800B900F67121DFEF5D3EEF572
:103C5D00D21241B312463E7BFF7A2A79E6E4900FE9
:103C6D0001F07D167F46122CD67FF47E01120026C0
:043C7D001247EC22DC
:1047EC00900DD27402F0A3F07BFF7A407980020026
:0147FC008E2E
:010089002254
:10403A00E4900EF9F012463E900EF9E0C394037430
:10404A008094805028E0FF24FAF582E4340DF58349
:10405A00E075F007A424D4F582E4340D121DE412AD
:10406A001ED5122CD6900EF9E004F080CB900DF9F3
:06407A00121E7502215721
:10408000E4900EF9F012463E900EF9E0C39403E47A
:1040900094005024E0FF2403F582E4340EF58312EB
:1040A0001EE8F582E4340E121DE4121ED5122CD641
:1040B000900EF9E004F080D0900E02121E750221DD
:0140C00057A8
:09486F007BFF7A40798002008E83
:1042BE00900DD2E064017006A3E064076022EF6403
:1042CE001F701A900F72E030E01654FEF0121EF7B7
:1042DE007A4779D512008E121E94024689121F2932
:0142EE0022AD
:1046640030313233343536373839414243444546A4
:104674004748494A4B4C4D4E4F505152535455564E
:054684005758595A00CF
:1044B400900EFEE0FBA3E0FAA3E0F922900F2CE0BB
:1044C40024FFFF900F2BE034FF22900F2BE475F0B4
:0A44D40001121C8585F082F5832299
:1024A200900EFCEEF0A3EFF0A3EBF0A3EAF0A3E9A9
:0124B200F039
:1024B30078037C0F7D017BFF7A4679647E007F255C
:1024C300121B10E4900F2BF0A3F0900F01E07004A7
:1024D300A3E0640A702A900EFCE0FEA3E0FFC3EEC3
:1024E30064809480501AC3E49FFFE49E900F28F009
:1024F300A3EFF01244B41244CE742D121BB0800F1C
:10250300900EFCE0FFA3E0900F28CFF0A3EFF09034
:102513000F01E0FEA3E0FDAC06900F28E0FEA3E070
:10252300FF121BE474032DF582740F3CF583E0FF67
:102533001244B41244CEEF121BB0900F28E0FEA356
:10254300E0FF900F01E0FCA3E0FD121BE4900F28D5
:10255300EEF0A3EFF04E70B71244B4900F2BE0FEF1
:10256300A3E0F5828E83E4121BB0121B36B42D0A4E
:10257300900F2FE4F0A304F08007E4900F2FF0A353
:10258300F0900F2FE0FFA3E0900F2DCFF0A3EFF01B
:102593001244C0FE7C007D02121C39D3900F2EE042
:1025A3009FEE6480F8900F2DE0648098400302262C
:1025B3003C1244B4900F2DE0FEA3E0F5828E83120B
:1025C3001B4F900F2AF01244C0FE900F30E02FFFF4
:1025D300900F2FE03EFE900F2DE0FCA3E0FDC3EF34
:1025E3009DFFEE9C8F82F583121B4F8D828C83128D
:1025F3001BB0900F2AE0FF900F2CE024FFFD124444
:10260300C7FC900F30E02DFD900F2FE03CFC900FA6
:102613002DE0FAA3E0FBC3ED9BFDEC9AFC1244B45E
:102623008D828C83EF121BB0900F2EE004F07006A6
:0C263300900F2DE004F00225931244B437
:01263F002278
:1047A400A905EF7003098006E97002A90319AF0394
:0947B400E98FF084A9F0AF0122A5
:10457E00900F73E07002A3E0601C900F74E024FFB4
:10458E00F0900F73E034FFF0E07002A3E07007903C
:07459E000F72E04401F0225E
:10002600900EFBEEF0A3EFF0900EFB74FFF5F012CE
:0B0036001C8545F0600512487880ED45
:01004100229C
:084878007F0B7EBEDEFEDFFCBB
:014880002215
:10330700900EFAE0FBA3E475F001121C85A9F0FA10
:10331700021B369006ECE0FF75F016A422F583E455
:10332700F0A37402F075F016EFA422F583E475F0AC
:1033370001121C85ADF0FC75F016EFA422A3F0E492
:10334700A3F0A374FFF0A374E8F0A3E04401F0A393
:103357007401F0A322F583E0FEA3E0C39410EE947A
:103367000022F583E5822DF582E5833CF5832290E3
:103377000003121C9BAEF022900001021B4F900E1F
:10338700F7E0FBA3E0FAA3E0F922A3F0A374FEF0B1
:10339700A374E0F022900002021B4F900006021B6C
:0133A7004FD6
:1046AC00900F317401F074501233447440F054FE86
:1046BC00F0900F3A74EFF0A3F07B017A0F7931028E
:0246CC002FCAF3
:0300230002413E59
:10413E00C0E0C0F0C083C082C0D0309909C299904F
:10414E000F39E054FEF0309817C29890037AE0755C
:10415E00F016A4240BF582E5F03400F5837401F01B
:0B416E00D0D0D082D083D0F0D0E0325F
:10471100900F3C7402F074101233447414F0900F33
:10472100457401F0A374FEF07B017A0F793C022FEE
:01473100CABD
:0300430002344341
:10344300C0E0C0F0C083C082C0D075D000C000C04F
:1034530004C005C006C007E59A30E10A539AFD90FF
:103463000F44E054FEF0E59A30E059539AFE1233CC
:103473001A247DF582E5F03403F583740112332BAE
:10348300247CF582E5F03403F583E0703712331AB8
:103493002490F582E5F03403123324248EF582E57B
:1034A300F0340312335C501C12331A248EF582E578
:1034B300F03403123332247EF582E5F03403123301
:1034C30069E59BF0D007D006D005D004D000D0D05A
:0934D300D082D083D0F0D0E032A9
:10473200900F477403F0A37450F0740A12339190EF
:0E4742000F4D7408F07B017A0F7947022FCAE1
:03008B000231C37C
:1031C300C0E0C0F0C083C082C0D075D000C000C0D2
:1031D30004C005C006C007E5AC30E10A53ACFD905E
:1031E3000F4FE054FEF0E5AC30E06253ACFE900AC2
:1031F3005E12331D24EFF582E5F03406F583740186
:1032030012332B24EEF582E5F03406F583E0703DAE
:10321300900A5E12331D2402F582E5F0340712335F
:10322300242400F582E5F0340712335C501F900A22
:103233005E12331D2400F582E5F034071233322485
:10324300F0F582E5F03406123369E5ADF0D007D02E
:1032530006D005D004D000D0D0D082D083D0F0D017
:02326300E03257
:10475000900F527404F0A37450F074A0123391902F
:0E4760000F587410F07B017A0F7952022FCAA5
:03009300023265D1
:10326500C0E0C0F0C083C082C0D075D000C000C02F
:1032750004C005C006C007E58430E10A5384FD900B
:103285000F5AE054FEF0E58430E0625384FE900D61
:10329500D012331D2461F582E5F0340AF5837401FB
:1032A50012332B2460F582E5F0340AF583E0703D96
:1032B500900DD012331D2474F582E5F0340A1233D3
:1032C500242472F582E5F0340A12335C501F900D08
:1032D500D012331D2472F582E5F0340A12333224FC
:1032E50062F582E5F0340A123369E585F0D007D03E
:1032F50006D005D004D000D0D0D082D083D0F0D075
:02330500E032B4
:102FCA00121B36FD6401703B12337FF59812339C55
:102FDA004289123376F58BEEF58D900005121B4F60
:102FEA0013928E900007121B4F428E900009121BFB
:102FFA004F52B890000A121B4F52B71233A224FF45
:10300A0092AC227C00ED6402702B12337FF59A1287
:10301A003376F5D7EEF5D6900007121B4F428E1283
:10302A0033A242AF900009121B4F52B590000A1208
:10303A001B4F52B622ED64034C701412337FF5AC69
:10304A0012339CF5D1123376F5D5EEF5D4801912E8
:10305A001B366404701712337FF58412339C42D1F5
:0E306A00123376F5D3EEF5D21233A242AF2226
:1046CE00900008121B4F30E00AED1DAE0470011C65
:1046DE004E70EDE92408F9E43AFA121B3644010251
:0246EE001B9E11
:103F4D00900EF7EBF0A3EAF0A3E9F0900EFDE0FF81
:103F5D0014F0EF603B1233857D887C131246CE1230
:103F6D003385121B3624FE6011146015146019245C
:103F7D000370D8123307F59980D1123307F59B8062
:103F8D00CA123307F5AD80C3123307F585023F58CA
:013F9D002201
:10368100F5837401F0EF2401FFE433FE7C007D2813
:10369100121BE4AF0522E0FF75F016A422F5837436
:1036A100FFF5F0021C6FF583E0FEA3E04E22EFF080
:1036B10075F016A422240BF582E5F03400F583227F
:1036C100247DF582E5F03403F5832224EFF582E5CC
:1036D100F03406F583222461F582E5F0340AF5839E
:1036E10022A4241EF582E5F0340022A42490F58260
:1036F100E5F0340322A42402F582E5F0340722A484
:093701002474F582E5F0340A227B
:1045A500E4900F75F0A3F0A3F0A374DCF0A3E4F09E
:1045B500A3E04401F04402F0A37420F0A3F07B01D2
:0745C5007A0F797502004630
:10004600121B36703D900001121B4FF58E90000278
:10005600121B4FF589900003121C9BAEF0F58AEE39
:10006600F58C900005121B4FFF13928CEFC31313F0
:1000760092A9900006121B4F42B8900007121B4F20
:0300860042B7225C
:03000B000227D9F0
:1027D900C0E0C0F0C083C082C0D075D000C000C0C6
:1027E90001C002C003C004C005C006C00712457E6F
:1027F90090037A1236971236B6E0603475F016EF08
:102809001236E21236A790037A600CE075F01612C0
:1028190036E212369E8019123697240AF582E5F0BF
:10282900340012368190037A1236AF1236B6E4F0CC
:102839009006EC1236971236C1E0603475F016EF47
:102849001236EC1236A79006EC600CE075F0161201
:1028590036EC12369E8019123697247CF582E5F003
:1028690034031236819006EC1236AF1236C1E4F009
:10287900900A5E1236971236CCE0603475F016EF86
:102889001236F61236A7900A5E600CE075F0161241
:1028990036F612369E801912369724EEF582E5F047
:1028A9003406123681900A5E1236AF1236CCE4F045
:1028B900900DD01236971236D7E0603475F016EFC6
:1028C9001237001236A7900DD0600CE075F0161281
:1028D900370012369E80191236972460F582E5F08A
:1028E900340A123681900DD01236AF1236D7E4F081
:1028F900D007D006D005D004D003D002D001D00033
:0B290900D0D0D082D083D0F0D0E032DC
:102302002B2B2B0061002B4F6B0041542B574D4F51
:1023120044453D41505354410D0A002B4F4B00415F
:10232200542B5741503D504C43315F41502C4E4F3E
:102332004E450D0A0041542B484541525444543DE8
:102342003737373737373245373936453730363111
:10235200373832453633364636440D0A0041542B5F
:10236200575354413D756E696F6E2C2A21796E7AEE
:10237200666B6A3230303931323135212A0D0A002A
:1023820041542B524547454E413D434C4F55442CF9
:1023920046495253540D0A0041542B534F434B416B
:1023A2003D544350432C636C6F75642E7573722ECB
:1023B200636E2C31353030300D0A0041542B5345B9
:1023C200415243483D31353030302C636C6F756477
:1023D2002E7573722E636E0D0A0041542B524547BF
:1023E200434C4F55443D303030313936333930303B
:1023F200303030303030303034312C536B64474120
:102402007A796C0D0A0041542B57414E4E3D444897
:1024120043500D0A0041542B5A0D0A00FF2302FFBC
:10242200230603E8000000FF2306FF230800C8007C
:102432000000FF230CFF231D00C8000000FF232122
:10244200FF231D00C8000000FF2337FF231D00C823
:10245200000000FF235FFF231D00C8000000FF23D0
:1024620082FF231D00C8000000FF239AFF231D00E6
:10247200C8000000FF23BDFF231D00C8000000FFAD
:1024820023DCFF231D00C8000000FF2408FF231DDA
:1024920000C8000000FF2417FF231D00C800000031
:10480D0075F00BA4241EF582E43424F583E4932281
:0C484600EF6006147005D29422C2942288
:10381600E4900EF6F0D294D2957FF47E0112002643
:10382600E4900EF6F0900EF6E0FFC3940C748094CC
:1038360080505CEF12480DFB740193FA740293F901
:1038460012000E900EFDEFF0900EF6E012480DF904
:10385600740193FA740293900EFAC9F0A3EAF0A3E6
:10386600E9F07B017A0F793C123F4D900EF6E07538
:10387600F00BA42424F582E43424F583E493FE7447
:0F3886000193FF120026900EF6E004F002382B9B
:013895002210
:10009600B1EAB6A8BFAAB9D8B2CECA00C5E4D6C3DB
:1000A600CAB1BCE4D0D0C4A3C4E2C7EBCAE4C8EB6F
:1000B600C3DCC2EBD0C2C8B7C8CFD0DEB8C4B3C9A0
:1000C600B9A6CAA7B0DCD6F7BDE7C3E6B1BEB5D8B8
:1000D600C1ACBDD3D4B6B3CCCDA8D0C5B7BDCABD0F
:1000E600C6F4CDA3B2A8CCD8C2CAC9E8B4AEBFDAAA
:1000F600BBD6B8B4B3F6B3A7CAC7B7F1B5C8C4DAA6
:10010600B2BFCFB5CDB3D2BBB6FEC800CBC4B3F534
:10011600CABCBBAFD2D4CCABCDF8CEDECFDFC0A944
:10012600D5B9B4F2BFAAB9D8B1D5C4A3BFE9886816
:10013600FF48109212F21292100000000F00020106
:10014600080F000003002C24A42425E624242424DC
:100156002C0008040304080F090909090800404295
:1001660042FE424242FE42424000000806010000B2
:10017600000F000000004048494A48F8484A4948EC
:100186004000080804020100010204080800905417
:10019600B6955C54349436549000000A0A0A0A094B
:1001A600050404020000482A987F284A10EF08F840
:1001B6000800090B05050B00080502050800FA4AA8
:1001C6003E0A3E4AFA00E2223E000F0505050505F5
:1001D6000F0007080E001017D555577D5755D51730
:1001E600100008080F08080E08080F080800FE226D
:1001F60022FE0008488808FF0800070202070000E0
:100206000009080F000000F902F849494949F901B7
:10021600FF00000F0003020202020B080F00482431
:10022600F20910121212F212100000000F00000064
:1002360008080F0000008868FF4802FAAFAAAFFA64
:10024600020000000F000A0A0603060A0A0088FFD9
:100256004800FE00820CE01F0000080F00000309A2
:10026600040300030C0011F20022EAAABFAAAAEABC
:100276002200000F04000F0202020A0F0000342CB5
:10028600F7A4E8A4EA09CA04E80001010F000F0276
:100296000F0003080F0000000181720C708000003F
:1002A60000000804020100000001020408004632B2
:1002B60082B2466B524A62126600000E0808080FA8
:1002C6000808080E000042F22EE2013D2121213FDE
:1002D600E00000070207010101010908070020AA42
:1002E600B2E3B2AA00FE12F211000402080F000ADD
:1002F6000403000F000042F22EE200F453F25A56B5
:10030600F000000702070807010701090F00101196
:10031600F2000000C03FC00000000000070209060E
:1003260001000106080010FC03F810948B4A2A9677
:100336001000000F0003080A0A0905040200E22261
:10034600223E2010EF08887808000F0402010804F6
:1003560002010204080000FC2424E404FF0485666C
:100366000400080700020B04020102040F00040443
:10037600FC040408FF080808F80002020109050346
:10038600000008080700A0908E8888FF888888806B
:100396008000080804020100010204080800FE02A9
:1003A600FA02FE10EC0B08F8080009040304090819
:1003B6000502050808000088888889FA88888888E0
:1003C600000008080808080F080808080800809FA9
:1003D6009555553F5555959F80000008040300002C
:1003E600000F0000000002F21212FA5652F2121228
:1003F600F200000F04040705050704040F000404B7
:10040600846414FF14648404040002010202020FCF
:100416000202020102001010FF1020FC10FF0884E7
:10042600FC00040403020007080908080E0021E284
:100436000004342C27F424240400080708090909B9
:10044600090F090909008888FF48A4ACB5E6B4ACD1
:10045600A40000080F00080A0B04040B080021E2A0
:10046600001012F21212F21210000807080A090808
:100476000808090A0B0012D2FE51802F29E9292FFC
:10048600000001000F000809090F0909080011F210
:1004960000F9A9ABFDADABF800000807080B08088A
:1004A6000B080A0B080010FC030454545556545408
:1004B6000400000F00000F050505050F00000404E9
:1004C60004FC2526242424E4040008040300000078
:1004D600080808070000084848C8484808FF0809EF
:1004E6000A00080808070404040003040E000000BC
:1004F600FCA4A4A5A6A4A4A4BC000806010F040499
:10050600040404040F002010FC0382BAAAABAABAA2
:10051600820000000F0001020A0E020201002244BE
:1005260000FC24E4243F24E40C0004020807080825
:100536000502050808009C88FF481054545FF454CF
:10054600500000000F0000010A080F000000028A98
:10055600529AD6B3D28A528A020002020202020FCD
:100566000202020202001011F20050CF41414FD0A8
:100576001000000007020808050205080800C05E12
:10058600525252FF5252525EC00007020202020F3E
:1005960002020202070000FE02020202020202FE3C
:1005A60000000007020202020202020700007800B1
:1005B600FF08C43FC404F444240000000F040308E9
:1005C60004020106080004027DD555555555557D92
:1005D6000100000A090B050505050B090800801E28
:1005E600101010FF1010101E8000070404040407EA
:1005F600040404040F0000FE0202020202020202C8
:100606000200080700000000000000000000404053
:100616005F5555D555555F40400008040304080F43
:100626000909090908001191898985BF818585898C
:100636001100000F040404040404040F00004453D2
:100646005256527C53D2565242000101030501090B
:10065600090F0101010000FC0484641F24C404FC8A
:100666000000000F000000000008080F000020AA8C
:10067600B2A3B2AA20FE0232CE00000F0404040F79
:10068600000F02020100008292DAD6B2B19189C14E
:10069600800008040200080F00000204090098D434
:1006A600B3880064D44DC654E4000404020208046E
:1006B600030007080C004040404040404040404096
:1006C60040000000000000000000000000000004E0
:1006D60004040404040404040000040404040404DC
:1006E600040404040400000242424242424242021E
:1006F600000008080808080808080808080000FE9E
:1007060002827E02027E8282FE00000F050404043D
:10071600040404040F008445F64CA002FE02020203
:10072600FE0000000F000806010008080700887890
:100736000FF800D8545350D830000805020D000FAA
:100746000404040F00002010FC030080FF201008A2
:10075600040000000F000100070808080E0000FE54
:100766000080420C00807F0000000003090804049A
:1007760002010204080008080888681FE80808083B
:100786000800080402010204000304080800FF0927
:100796009161910991619109FF000F01000000012B
:1007A600000008090F0020222222E23EE222222235
:1007B6002000080402010000070808080E0098D46B
:1007C600B388004848FF24A526000404020208084E
:1007D600040305080E008888FF4800FC040506048B
:1007E600040000080F00080700000000000000FFDA
:1007F60045D57D55D5557D5547000807000F08049A
:100806000102040A09008888FF4848020202FE0223
:10081600020000080F00000008080F000000404218
:1008260042FE424242FE42424000000806010000EB
:10083600000F000000004048494A48F8484A494825
:10084600400008080402010001020408080000F93B
:10085600022020A2FA222202FE00000F000201045A
:10086600070008080F008868FF4802FAAFAAAFFA27
:10087600020000000F000A0A0603060A0A0008FF23
:1008860008404444FF44447C40000203010804033A
:10089600000304080800000000000000004F0000EC
:1008A6000007000700147F147F14242A7F2A1223CE
:1008B6001308646236495522500005070000001CE3
:1008C6002241000041221C0014083E081408083E7C
:1008D600080800503000000808080808006060009A
:1008E6000020100804023E5149453E00427F400068
:1008F60042615149462141454B311814127F102758
:10090600454545393C4A494930017109050336498F
:10091600494936064949291E003636000000563632
:100926000000081422410014141414140041221467
:10093600080201510906324979413E7E1111117EA4
:100946007F494949363E414141227F4141221C7F30
:10095600494949417F090909013E4149497A7F08C8
:1009660008087F00417F41002040413F017F081475
:1009760022417F404040407F020C027F7F040810E6
:100986007F3E4141413E7F090909063E4151215EB4
:100996007F09192946464949493101017F01013F2D
:1009A6004040403F1F2040201F3F4038403F6314D7
:1009B60008146307087008076151494543007F41E1
:1009C600410002040810200041417F000402010298
:1009D6000440404040400102040000205454547832
:1009E6007F484848303844444444304848487F3873
:1009F6005454545800087E0902485454543C7F0805
:100A060008087000007A00002040403D007F202842
:100A1600440000417F40007C0438047C7C080404C8
:100A26007838444444387C14141408081414147C8C
:100A36007C08040408485454542404043F44243CC9
:100A46004040403C1C2040201C3C4030403C442858
:100A560010284404483008044464544C4408364181
:100A660041000000770000004141360804020202FE
:100A760001F8F81010080404024AC94D4A484868AB
:100A86003003030101010101010100000000000023
:100A96000000000000F0F8FCFCFCFCF8F000000090
:100AA6000000000000000103030303010000000032
:100AB60000081C3E7F00007F3E1C0800000000006E
:100AC6000000000000000000000000000000000020
:100AD6000000000000000000000000000000000010
:100AE6000000000000000000000000000000000000
:100AF60000000000000000000000000000000000F0
:100B060000000000000000000000000000000000DF
:100B160000000000000000000000000000000000CF
:100B260000000000000000000000000000000000BF
:100B3600000000000000000000000000000000FFB0
:100B4600FFFFFFFFFFFFFFFFFFFFFFFFFFFFFFFFAF
:100B5600FFFFFFFFFFFFFFFFFFFFFFFFFFFFFFFF9F
:100B6600FFFFFFFFFFFFFFFFFFFFFFFFFFFFFFFF8F
:100B7600FFFFFFFFFFFFFFFFFFFFFFFFFFFFFFFF7F
:100B8600FFFFFFFFFFFFFFFFFFFFFFFFFFFFFFFF6F
:100B9600FFFFFFFFFFFFFFFFFFFFFFFFFFFFFFFF5F
:100BA600FFFFFFFFFFFFFFFFFFFFFFFFFFFFFFFF4F
:100BB600FFFFFFFFFFFFFFFFFFFFFFFFFFFFFFFF3F
:100BC600FFFFFF0000000000000000000000000022
:100BD600000000000000000000000000008080C04F
:100BE600C0E0E0E0F0F0F0F8F8F8F8FCFCFCFCFC03
:100BF600FCFCFEFEFEFCFCFCFCFCF8F8F8F0E0C099
:100C060000000000000000000000000000000000DE
:100C1600000000000000000000000000000000804E
:100C260080C0E0E0F0F0F8FCFCFCFEFEFFFF7F7FFA
:100C36007F7F7F7F3F3F3F3F3F3F3F3F3F3F3F1FDE
:100C46001F3F3F3F3F3F3F3F3F7F7F7FFFFFFFFF0E
:100C5600FFFF3C0000000000000000000000000054
:100C6600000000000000804020203018180C0E0FF5
:100C76000F070707030303010101010000000080BD
:100C8600C0E0E0F0F0F0F8F8F8F8FCFCFCFCFCFC46
:100C9600FCFCFCFCF8F8F8F0F0E0000000000001B5
:100CA600071F030000000000000000000000000015
:100CB600000000000000000000000000000000002E
:100CC60000000000000000000080E0C00000043FBB
:100CD6003F3F7F7FFFFFFFFFFFFFFFFFFFFFFFFF9E
:100CE6007F7F7F7F3F3F3F1F0F070300000000000D
:100CF6000000000080808080C0C0C0C0E0E070308E
:100D060030180C0000000000000000000000000089
:100D160000000000000000000000FFFFFFFFFEFED5
:100D2600FCFCFCF8F8F8F8F8F8F8F8F8F8F8F8F831
:100D3600F8F8F8F8F8F8F8FCFCFCFCFCFCFEFEFE03
:100D4600FEFFFF7F3F3F1F1F0F0707030101000044
:100D5600000000000000000000000000000000008D
:100D6600000000000000000000000001070F1F3F08
:100D76003F3F7F7F7F7F7F7F7F7F7F7F7F7F7F7FFD
:100D86007F3F3F3F3F1F1F1F0F0F0707070303014B
:100D9600010000000000000000000000000000004C
:100DA600000000000000000000000000000000003D
:100DB600000000000000000000000000000000002D
:100DC600000000000000000000000000000000001D
:100DD600000000000000000000000000000000000D
:100DE60000000000000000000000000000000000FD
:100DF60000000000000000000000000000C0C0C0AD
:100E0600C0C0C0C0C0C0C0C0C0C0C0C0C0C0C0C0DC
:100E1600C0C0C0C0C0C0C0C0C0C0C0C0C0C0C0C0CC
:100E2600C0C0C0C0C0C0C0C0C0C0C0C0C0C0C0C0BC
:100E3600C0C0C0C0C0C0C0C0C0C0C0C0C0C0C0C0AC
:100E4600C0C0C0C0C0C0C0C0C0C0C0C0C0C0C0C09C
:100E5600C0C0C0C0C0C0C0C0C0C0C000000000004C
:100E660000FFFF00000000808080C0C0E0E0E0E0FE
:100E760020206060606060606060606060606060EC
:100E86006060606060C0C0C0C0C0C0C0C0C0C0C03C
:100E9600C0C0C0C0C0C0C0C0C0C0C0C0C0C0C0C04C
:100EA600C0C0C0C0C0C0C0C0C0C0C0C0C0C0C0C03C
:100EB600C0C0C0C0C0C0C0C0C0C0000000FFFF00AE
:100EC6000000000000FFFF000000FFFFFFFFFFFF24
:100ED600FFFFFFFF00000000000000000000000010
:100EE60000000000000000000000000000000000FC
:100EF60000000000000000000000000000000000EC
:100F060000000000000000000000000000000000DB
:100F1600000000000000000000000000FFFF0000CD
:100F260000FFFF000000000000FFFF000000FFFFC1
:100F3600FFFFFFFFFFFFFFFF000000007EE6C38309
:100F460083C3EE7C000000000000000000000000EB
:100F5600000000000000000000000000000000008B
:100F6600000000000000000000000000000018184B
:100F76001818181818181818181818000000000063
:100F8600FFFF000000FFFF000000000000FFFF0061
:100F96000000FFFFFFFFFFFFFFFFFFFF0000000055
:100FA6000000000101000000000000000000000039
:100FB600000000000000000000000000000000002B
:100FC600000000000000000000000000000000001B
:100FD600000000000000000000000000000000000B
:100FE60000000000FFFF000000FFFF0000000000FF
:100FF60000FFFF00000000000101030307070F0FB9
:101006000C0C0C0C0C0C0C0C06060606060606064A
:10101600060606060606060606060606060606066A
:101026000606020202020202020202020202020292
:10103600020202020202020202020202020202028A
:1010460002020202020202020303000000FFFF0086
:101056000000000000070706060606060606060646
:10106600060606060606060606060606060606061A
:10107600060606060606060606060606060606060A
:1010860006060606060606060606060606060606FA
:1010960006060606060606060606060606060606EA
:1010A60006060606060606060606060606060606DA
:1010B6000607070000000000000000000000000016
:1010C600000000000000000000000000000000001A
:1010D600000000000000000000000000000000000A
:1010E60000000000000000000000000000000000FA
:1010F60000000000000000000000000000000000EA
:1011060000000000000000000000000000000000D9
:1011160000000000000000000000000000C0C0C089
:10112600C0C0C0C0C0C0C0C0C0C0C0C0C0C0C0C0B9
:10113600C0C0C0C0C0C0C0C0C0C0C0C0C0C0C0C0A9
:10114600C0C0C0C0C0C0C0C0C0C0C0C0C0C0C0C099
:10115600C0C0C0C0C0C0C0C0C0C0C0C0C0C0C0C089
:10116600C0C0C0C0C0C0C0C0C0C0C0C0C0C0C0C079
:10117600C0C0C0C0C0C0C0C0C0C0C0000000000029
:1011860000FFFF000000C0C04040404040404040DB
:101196004040404040404040404040404040404049
:1011A6004040404040404040404040404040404039
:1011B6004040404040404040404040404040406009
:1011C60060606060606060E0E0E0E0E0E0E0E06019
:1011D60060E0C0C0C0C080800000000000FFFF00CB
:1011E6000000000000FFFF000000FFFF00000000FD
:1011F60000000080808080000000000000000000E9
:1012060000000000000000000000000000000000D8
:1012160000000000000000000000000000000000C8
:1012260000000000000000000000000000000000B8
:101236000000000000FFFFFFFFFFFFFFFFFC0000B4
:1012460000FFFF000000000000FFFF000000FFFF9E
:1012560000000000003F7161C1C161773E000000DF
:101266000000000000000000000000000000000078
:101276000000000000000000000000000000000068
:1012860000000000000000000000000018181818F8
:10129600181818181818000000FFFFFFFFFFFFFFBF
:1012A600FFFF000000FFFF000000000000FFFF003E
:1012B6000000FFFF0000000000000000000000002A
:1012C6000000000000000000000000000000000018
:1012D6000000000000000000000000000000000008
:1012E60000000000000000000000000000000000F8
:1012F60000000000000000000000000000FFFFFFEB
:10130600FFFFFFFF7F3F000000FFFF00000000001F
:1013160000FFFF00000003030202020202020202B3
:101326000202020202020202020202020202020297
:101336000202020202020202020202020202020287
:101346000202020202020202020202020202020277
:10135600020202060606060606060E0E0E0E0E0E03
:101366000E0F0F0F070301000000000000FFFF0033
:101376000000000000070706060606060606060623
:1013860006060606060606060606060606060606F7
:1013960006060606060606060606060606060606E7
:1013A60006060606060606060606060606060606D7
:1013B60006060606060606060606060606060606C7
:1013C60006060606060606060606060606060606B7
:1013D60006070700000000000000000000000000F3
:1013E60000000000000000000000000000000000F7
:1013F60000000000000000000000000000000000E7
:1014060000000000000000000000000000000000D6
:1014160000000000000000000000000000000000C6
:1014260000000000000000000000000000000000B6
:1014360000000000000000000000808080808080A6
:101446008080808080808000000000000000000016
:1014560000000000FFFFFFFFFF000000000000008B
:101466000000000000000000000000000000000076
:101476000000000000000000000000000000000066
:101486000000000000000000000000000000000056
:101496000000000000000000000000000000000046
:1014A6000000000000000000000000000000000036
:1014B6000000000000000000000000000000000026
:1014C6000000000000000000000000000000000016
:1014D6000000000000000000000000000000000006
:1014E60000000000000000000000000000000000F6
:1014F600000000000000000000007F7F7F7F7F7FEC
:101506007F7F7F7F7F7F7FFFFFFFFFFFFEFEFEFC6B
:10151600FCF8F8F8FFFFFFFFFF00000000000000E6
:1015260000000000000000000000000000000000B5
:10153600000000000000000000C0C0C00000000065
:101546000000000000000000000000000000000095
:101556000000000000000000000000000000000085
:101566000000000000000000C0C0C0000000000035
:101576000000000000000000000000000000000065
:10158600C0C0C00000000000000000000000000015
:1015960000000000000000C0C0C000000000000005
:1015A6000000000000000000000000000000000035
:1015B60000000000000000000000F0F0F0F0F0F085
:1015C600F0F0F0F0F0E0E0E0E0E0E0E0C1C18183BF
:1015D6008307071FFFFFFFFFFFFFFFFFFFFFFFFF61
:1015E600FFFFFFFFFFFFFF000000000000000000FC
:1015F60000E0E0E0E0E0E0E0E0FFFFFFE0E0E0E068
:10160600E0E0E0E000000000FFFFFF07C7C7C7C734
:10161600C7C7C7C7C7C7C7C707FFFFFF0000003C4C
:101626003C3C3C3C3C3C3C3CFFFFFF3C3C3C3C3CAB
:101636003C3C3C3C000000F0F0F0F0F0F0F0F0F044
:10164600FFFFFFF0F0F0F0F0F0F0F0F00000000027
:10165600F8F87878787878FFFFFF78787878F8F86F
:10166600F8000000000000FFFFFF1F1F1FDFDFDF85
:101676001F1F1FDFDFDF1FFFFFFF0F0F0F0F0F0FF4
:101686000F0F0F0F0F1F1F1F1F1F1F3F3F3F3F7FD4
:101696007FFFFFFEFFFFFFFFFFE0E0E0E0E0E0E0AE
:1016A600E0E0E0E0E0E0E000000000000000000014
:1016B60000FFFFFF0303030303FFFFFF030303030F
:1016C60003FFFFFF00000000FFFFFF0003E3E3E36B
:1016D600E3FFFFFFE3E3E3E300FFFFFF000000009B
:1016E600FEFEFE1E1E1EFEFEFF1F1FFEFEFE1E1E31
:1016F600FEFEFE0000000000000000000000FFFFEC
:10170600FFFFE0E0E0E0E0E0E000000000000000B5
:10171600FFFF7878787878FFFFFF78787878FFFF92
:10172600FF000000000000FFFFFF0E1EFEFFFF1F70
:101736000C3CFCFFFF0700FFFFFFFEFEFEFEFEFE69
:10174600FEFCFCFCFCFCFCFCFCFCF8F8F8F8F0F0F9
:10175600E0E0C0C3FFFFFFFFFF1F1F1F1F1F1F1F6C
:101766001F1F1F1F1F1F1F0000000000000000009A
:10177600001F1F1F1F1F1F1F1FFFFFFF1F1F1F1FF2
:101786001F1F1F1F00000000FFFFFFC0C0C1C1C117
:10179600C1FFFFFFC1F9F9F9C0FFFFFF000000001C
:1017A600FFFFFF00CFCFCFCFFFFFFFFFCFCFCF0091
:1017B600FFFFFF000000000000000000C0F8FFFF70
:1017C6000F0101010101FFFFFF0000000000000002
:1017D6007F7F7878787878FFFFFF787878787F7FD2
:1017E6007F000000000000FFFFFFF0F8FF3F3F3FD3
:1017F600F8F8FF3F7FFEF0FFFFFF01010101010145
:1018060001010101010303030303070707070F0F84
:101816001F1F3F7FFFFFFFFFFFF8F8F8F8F8F8F803
:10182600F8F8F8F8F8F8F8000000000000000000EA
:10183600000000000000000000FFFFFF00000000A5
:101846000000000000000000FFFFFFF1F1F1F1F1E0
:10185600F1F1F1F1F1F1F1F1F1FFFFFF000000000C
:10186600FFFFFF0003030303FFFFFF030303F3F080
:10187600FFFF7F0000000000F8F8FC3F1F0F030089
:101886000000707070707F7F7F0000000000000015
:1018960000000000000000FFFFFFE0E0E0E0E0E005
:1018A600FCFCFC00000000FFFFFF00000000000041
:1018B6000707070000F0F0FFFFFF00000000000030
:1018C6000000000000000000000000000000000012
:1018D60000000000FFFFFFFFFF07070707070707D6
:1018E60007070707070707000000000000000000C1
:1018F600000080C0C08000008001018100008000DF
:101906008080000080000000808000000000000051
:10191600C0C0C000000080C0C0800000C00000C081
:10192600C000C0C0C0C00080800000800000C1C1EF
:10193600C1C00000C0C0C080000080000000800060
:10194600000080C0C0C080000080C0C08000C00011
:101956000000000000C000C1C1C1C10101C1C1C178
:1019660081010100000080C0C080000080C0C0C0AE
:101976008000808000C0C0C0C08000000000000061
:101986000000000000000000000000000000000051
:1019960000000000FFFFFFFFFFFFFFFFFFFFFFFF4D
:1019A600FFFFFFFFFFFFFF00000000000000000038
:1019B600003FFFC0C0610000FF0404FF0000FF00FD
:1019C600FF0F0E78FF00E07E67677CE00000006393
:1019D600C7CCFD71003FE1C0C07F1E007FC0C0FFC5
:1019E6003F0000FFFF0000FFFF0C0CFF0000FFCCD4
:1019F600CCCC007FFF181CFFC000FF071CF8FF00BF
:101A06000000FFFF180F07003EF3E1E1F33F07FE7A
:101A1600F80707FCFE0300FFCCCCCC0000FF181C27
:101A2600FFC00000003FFFC0C8F93000FF0C0C3CAF
:0A1A3600E700FFFF00FFC0C0F37FD0
:0300000002356A5C
:0C356A00787FE4F6D8FD7581070235B1CA
:06488100900001021B4F34
:10264000EFD394057480948040037F0122121B36DF
:10265000FED394037480948040037F0222EF70388D
:10266000EE7008124881F452935294121B366401A2
:1026700070081248814293F45294121B36FE640291
:10268000700712488142934294EE6403700A124824
:1026900081FEF45293EE4294EF6401703A121B36BD
:1026A000FE7008124881F452915292EE6401700853
:1026B0001248814291F45292121B36640270071242
:1026C000488142914292121B366403700A1248817B
:1026D000FEF45291EE4292EF6402703A121B36FE03
:1026E0007008124881F452955296EE6401700812F7
:1026F00048814295F45296121B36640270071248C4
:102700008142954296121B366403700A124881FE7C
:10271000F45295EE4296EF6403703A121B36FE7047
:1027200008124881F452B152B2EE640170081248A6
:102730008142B1F452B2121B366402700712488112
:1027400042B142B2121B366403700A124881FEF491
:1027500052B1EE42B2EF6404703A121B36FE7008BA
:10276000124881F452B352B4EE64017008124881E9
:1027700042B3F452B4121B3664027007124881420D
:10278000B342B4121B366403700A124881FEF4523D
:10279000B3EE42B4EF6405703D121B36FF7E00704D
:1027A00008124881F452C952CAEF64014E700812EF
:1027B000488142C9F452CA121B366402700712489B
:1027C0008142C942CA121B366403700A124881FF53
:0927D000F452C9EF42CA7F002255
:1041EB00E4FEFDFC900F02E0F8A3E0F9A3E0FAA3D4
:1041FB00E0FBC3021CD3E0FBA3E475F001021C85BA
:10420B00EEF0A3EFF0A3EBF0A3EAF0A3E9F0227535
:06421B00C65A75C6A5227B
:103C8100900F02121CE40000000B7F1E1241EB405A
:103C91000475C780227F181241EB400475C7812249
:103CA100E47F141241EC400475C78222E47F0C12B8
:103CB10041EC400475C78322E47F061241EC4004C5
:103CC10075C78422E47F031241EC400475C7852245
:0F3CD100E47F021241EC400475C7862275C78755
:013CE00022C1
:0D483900E4F5C7F5C5F5C675C380F5C422CA
:05431F00900EFCEFF020
:10432400E4FF123C8175C501900EFCE0F5C4E0FF8A
:104334007808A2E713D8FBF5C312421AAFC2E5C747
:0943440030E40653C7EF7F332279
:01434D00224D
:1045F200900EFFEEF0A3EFF0A3EDF0123C8175C533
:1046020002900EFFA3E0FFF5C475C300A3E0F5C25C
:0646120012421A024839B1
:10461800900EF9EEF0A3EFF0123C8175C503900EF1
:10462800F9A3E0FFF5C475C30012421A1248397F96
:06463800047E00020026D2
:10440500900EF912420B900EFEE0FF14F0EF601BC8
:10441500900EF9124204AFF0FE900EFB124201A974
:0C442500F0FA121B36FD1245F280DB227B
:10448900900EF612420B900EFBE0FF14F0EF601A4B
:10449900900EF6124204AFF012431F900EF812422A
:0B44A90001A9F0FAEF121B9E80DC223C
:042A4000410F8603B9
:1034DC00A2A6E43325E0FFA2A4E4334FFFA2A3E4A9
:1034EC003325E025E04FFFA2A5E43333333354F802
:1034FC004FFFA2A2E433C454F04F900EF8F0900F9B
:10350C0086E0601814604314602D14704E900EF811
:10351C00E0641F6046E4900F86F0803F7F0A7E00D7
:10352C00120026900EF8E0FF641F602F900F85EFBD
:10353C00F0A37402F08024900EF8E0641F701C90CD
:10354C000F8604F0900F85E0FF22900F85741FF01A
:0D355C00A37403F07F0A7E001200267F1F7B
:01356900223F
:103A0100900F05E02EFD12422D900F09E0FBA3E07F
:103A1100FAA3E022900F04F9E0F582758300021BFE
:103A21004F2FF9EA3EFA900F09EBF0A3EAF0A3E970
:103A3100F0900EFCE0FFA3E0FD900F0822F9900F3B
:103A410012E0FF7E00E92FF9EE3AFA900F11E02221
:103A510034FFFE900F07E0FD7C00021BD2FA121B1F
:103A610036FF900F0DE0FE22EEC39408748094801F
:013A71002232
:10443100C2B4C2B6E4FE123A69501EC2B3EF30E70D
:1044410004D2B28002C2B2D2B37D017801EF0880FA
:0B44510002C333D8FCFF0E80DDD2B4A4
:01445C00223D
:10445D00C2B4D2B6E4FE123A69501EC2B3EF30E7D1
:10446D0004D2B28002C2B2D2B37D017801EF0880CE
:0B447D0002C333D8FCFF0E80DDD2B478
:014488002211
:10463E00E4FCEC123A6A501DEC24B0FF124431E453
:10464E00FBEBC394C0E494005008E4FF12445D0BEE
:05465E0080EF0C80DD7F
:014663002234
:0C422100FF900F12E0FE900F05E02EFD54
:10422D00AE07AC05EEC3940274809480EE50042466
:10423D00B6800224AEFF124431ECC4540F2410FF9B
:0A424D00124431EC540FFF0244311B
:103B4A00C2B57F647E00120026D2B57F327E001293
:103B5A0000267FE21244317F327E001200267F2F38
:103B6A00123BA97FA0123B927F81123B927FEB12FC
:103B7A003BA97FC41244317F147E001200267FAF16
:103B8A00124431C2B702463E1244317F147E0012FB
:103B9A0000267F701244317F147E00120026221202
:0A3BAA0044317F147E001200262231
:103D4000EF14602B04704E900F7D7418F0900F7F6D
:103D50007410F0900F7E740CF0900F8274FFF0A33B
:103D60007401F0A37434F0900F81740CF0802990EA
:103D70000F7D7405F0900F7F7408F0900F7E74052E
:103D8000F0900F817407F0A374FFF0A37408F0A300
:0B3D9000749CF080037F00227F012262
:083F9E00900F05EEF0A3EFF017
:103FA600E4FDFCED25E0FFEC33FE74962FF58274FC
:103FB600003EF583E493FAED25E0FFEC33FE7497BB
:103FC6002FF58274003EF583E493FFEAFE900F0519
:103FD600E06E7003A3E06F600B0DBD00010CED6495
:083FE600644C70BFAE04AF058E
:013FEE0022B0
:102CD600900EFCEFF0A3EDF0A3EBF0A3EAF0A3E96E
:012CE600F0FD
:102CE700A3E0FF123D40E4900F04F0900EFE123A6D
:102CF7000D123A15FF7E00C3948074809480502C87
:102D0700EF24E0FFEE34FFFE900F02F0A3EFF07C1C
:102D1700007D05121BD2900F82123A0D123A2274CF
:102D270008F07B05122D8804F0022D79900EFE1213
:102D37003A0D123A15FE900F04E0FD7C00E92DF9DB
:102D4700EC3AFA900001121B4FFDEDFF123F9E90E7
:102D57000F02EEF0A3EFF07C007D18121BD2900F4C
:102D670082123A0D123A227410F07B0C122D88242D
:102D770002F0900EFE123A0D123A156003022CF281
:102D870022122157900F81E0FF900EFCE02FF09068
:042D97000F04E02223
:0C215700900F05EFF0900F07EBF0AA05C9
:10216300A3E0FF54076008EF54F82408FF800590AC
:102173000F08E0FF900F08EFF0E0FDFFEA2FFFE408
:1021830033FEEF7803CEC313CE13D8F9900F0EF0BE
:10219300FCED2A5407A3F0EA131313541FFF900F07
:1021A3000CF0EA5407A3F0C3EC9F04900F10F0E483
:1021B300A3F0900F10E0FFA3E0C39F4003022301AD
:1021C300900F0CE0FF900F0EE09F50030222BBE440
:1021D300900F12F0900F07E0FF900F12E0FEC39FE5
:1021E30040030222F8900F11E0701D900F0CE0FFE6
:1021F300123A01900F12123A18123A62F8EF08805D
:1022030002C333D8FC0222AE900F10E014FFA3E008
:102213006F703F900F0EE0124221900F11E024FFE8
:10222300FFE4123A51123A0A2FF9EA3EFA900F12DA
:10223300E07E0029F9EE3AFA121B36FF900F0FE009
:10224300FEC374089EFEF8EF088002C313D8FC0295
:1022530022AE123A0A123A3E24FFFFEE123A51E935
:102263002FF9EA3E123A5EC374089EFEF8EF088027
:1022730002C313D8FC900F13F0123A0A123A3EFF2E
:10228300900F07E08FF0A429F9EA35F0123A5EF8CF
:10229300EF088002C333D8FCFB900F11E0FF900FCF
:1022A3000CE02F124221900F13E04BFF12445D907C
:1022B3000F12E004F00221D7900F0CE0FF900F12F1
:1022C300E0FE123A01F9900F12123A19FF900F0F24
:1022D300E004FEF87401088002C333D8FC14FE90B6
:1022E3000F0DE0FDF87401088002C333D8FC146EAF
:0E22F3005FFF12445D900F11E004F00221B570
:0123010022B9
:10357600024852E493A3F8E493A34003F68001F2D1
:1035860008DFF48029E493A3F85407240CC8C33356
:10359600C4540F4420C8834004F456800146F6DF25
:1035A600E4800B0102040810204080902914E47E78
:1035B600019360BCA3FF543F30E509541FFEE4931A
:1035C600A360010ECF54C025E060A840B8E493A3E1
:1035D600FAE493A3F8E493A3C8C582C8CAC583CA0C
:1035E600F0A3C8C582C8CAC583CADFE9DEE780BEC4
:012A44000091
:101A4000E709F608DFFA8046E709F208DFFA803E88
:101A500088828C83E709F0A3DFFA8032E309F60875
:101A6000DFFA8078E309F208DFFA807088828C83DD
:101A7000E309F0A3DFFA806489828A83E0A3F60891
:101A8000DFFA805889828A83E0A3F208DFFA804C6B
:101A900080D280FA80C680D4806980F28033801042
:101AA00080A680EA809A80A880DA80E280CA8033AB
:101AB00089828A83ECFAE493A3C8C582C8CCC58323
:101AC000CCF0A3C8C582C8CCC583CCDFE9DEE780F3
:101AD0000D89828A83E493A3F608DFF9ECFAA9F072
:101AE000EDFB2289828A83ECFAE0A3C8C582C8CCC8
:101AF000C583CCF0A3C8C582C8CCC583CCDFEADEE1
:101B0000E880DB89828A83E493A3F208DFF980CC42
:101B100088F0EF60010E4E60C388F0ED2402B4043B
:101B20000050B9F582EB2402B4040050AF232345E2
:061B30008223901A90735D
:101B3600BB010689828A83E0225002E722BBFE02AD
:091B4600E32289828A83E49322E0
:101B4F00BB010CE58229F582E5833AF583E022504B
:101B5F0006E92582F8E622BBFE06E92582F8E22295
:0D1B6F00E58229F582E5833AF583E49322AF
:101B7C00BB010989828A83F8E028F022500327F7F9
:101B8C0022BBFE05F8E328F3228A838982F8E493CA
:021B9C002822FD
:101B9E00BB010689828A83F0225002F722BBFE0126
:021BAE00F32220
:101BB000F8BB010DE58229F582E5833AF583E8F06B
:101BC000225006E92582C8F622BBFE05E92582C817
:021BD000F222FF
:101BD200EF8DF0A4A8F0CF8CF0A428CE8DF0A42E27
:021BE200FE22E1
:101BE400BC000BBE0029EF8DF084FFADF022E4CCE5
:101BF400F875F008EF2FFFEE33FEEC33FCEE9DECAE
:101C0400984005FCEE9DFE0FD5F0E9E4CEFD22EDF3
:101C1400F8F5F0EE8420D21CFEADF075F008EF2F3D
:101C2400FFED33FD4007985006D5F0F222C398FD2E
:051C34000FD5F0EA22CB
:101C3900C2D5EC30E709B2D5E4C39DFDE49CFCEEC6
:101C490030E715B2D5E4C39FFFE49EFE121BE4C33F
:101C5900E49DFDE49CFC8003121BE430D507C3E43A
:061C69009FFFE49EFE2235
:101C6F00C5F0F8A3E028F0C5F0F8E5821582700200
:061C7F001583E038F0229D
:101C8500A3F8E0C5F025F0F0E58215827002158312
:061C9500E0C838F0E8226F
:101C9B00BB0110E58229F582E5833AF583E0F5F087
:101CAB00A3E0225009E92582F886F008E622BBFE64
:101CBB000AE92582F8E2F5F008E222E5832AF583AA
:081CCB00E993F5F0A3E993226F
:101CD300EB9FF5F0EA9E42F0E99D42F0E89C45F067
:011CE30022DE
:101CE400A8828583F0D083D082121CFB121CFB12C5
:101CF4001CFB121CFBE473E493A3C583C5F0C583EA
:101D0400C8C582C8F0A3C583C5F0C583C8C582C849
:011D140022AC
:101D1500BB010DE58229F582E5833AF583021D8035
:101D25005007E92582F8021D77BBFE07E92582F8F1
:101D3500021D89E58229F582E5833AF583021D9224
:061D45008A838982E47329
:10370A00900F19EBF0A3EAF0A3E9F0900F1CE0FB8D
:10371A00A3E0FAA3E0F9121B36FE900F19E0FBA30F
:10372A00E0FAA3E0F9121B36FF6E702AEF600E90E2
:10373A000F1F74FFF5F0121C6F45F070037F002213
:10374A00900F1AE475F001121C6F900F1DE475F0CA
:10375A0001121C6F80B5900F19E0FBA3E0FAA3E0F9
:10376A00F9121B36FDD3EE6480F8ED6480984003AD
:10377A007F0122900F1CE0FBA3E0FAA3E0F9121BE1
:07378A0036FFC3ED9FFF2293
:10000E00E4FFFE121B36600C0FEF70010E09E97053
:05001E00F20A80EF2250
:101D4B00EF4E6012EF60010EEDBB010B89828A83AF
:101D5B00F0A3DFFCDEFA2289F05007F709DFFCA9BC
:0C1D6B00F022BBFEFCF309DFFCA9F02213
:091D7700E6FB08E6FA08E6F92291
:091D8000E0FBA3E0FAA3E0F92264
:091D8900E2FB08E2FA08E2F9228B
:0C1D9200E493FB740193FA740293F922AD
:00000001FF
