:1056E200706172616D6574657273206172652063A9
:1056F2006F7272656374202100706172616D6574EE
:10570200657273206572726F722021007265737404
:105712006F726520706172616D65746572732E2E91
:105722002E00FFFFFFFF0808020801010000487E6B
:10573200007375636365737366756C6C7920210001
:1020A8005113AD000000FFFFFFFF080802080101FF
:0420B8000000487E5E
:10629300A3F07B017A137945227BFF90135074019D
:0E62A300F07D1F227B017A1379B0740EF02279
:0B643B00124E231253DC1258BA80F8F6
:104E230012516B7A007902124E977A007902123787
:104E3300C57A047984124E977A0479841237C57A35
:104E4300097906124EA57A0979061237C57A0D79C2
:104E530088124EA57A0D79881237C51255A61252BB
:104E63006D1261259013CBE054FEF012622E126294
:104E7300721262CF1262EDC2A7126408D2AF12643B
:104E83004F9013BAE0700C125DD89013BA7401F00E
:104E9300125DA0227B011253637E047F827D007B1F
:104EA30001227B011253637E047F827D007B0122FA
:10516B0075BA8090FE0374C0F090FE03E030E0F956
:10517B0090FE017401F090FE00F0E4F5BA90134537
:10518B00F07405126293E4FF1241379013457403D8
:10519B00F0740A126293E4FF1251E3FF1251D5A38C
:1051AB0074321262947F011241379013457401F0EF
:1051BB00A3747C1262947F021251E37F031251D5C8
:0A51CB00A3141262947F030241371F
:1051D5007A1379451241379013457403F022124131
:0B51E50037E4901345F0A304F0FB2218
:105F4500E4FFFE90134A1262A7E41260827B017A95
:105F55001379B074FF90134CF0A3F07D0C124BC86D
:0F5F65009013BCE0B50607A3E0B50702D322C333
:015F7400220A
:10526D00125F457BFF50127A5679E212629E7F0ED5
:10527D001248FB7FE87E03805E7A5679FB12629EB0
:10528D007F131248FB7FF47E0112630B7A57790E60
:10529D0012629C7F131248FBE4FFFE12619878B0F6
:1052AD007C137D017BFF7A5779247E007F0E1234AB
:1052BD00CF90134D1262A7E4FFFE125FFE7FE87ED2
:1052CD000312630B1261BE7A57793312629C7F31E0
:0B52DD001248FB7FF47E0112630B22DD
:10474B0020323430302000203438303020002039F3
:10475B0036303020003134343030200031393230B3
:10476B0030200033383430302000353630303020B4
:10477B0000353736303020003131353230300039AA
:10478B00323136303000B4F2BFAA00B9D8B1D500FF
:10479B00C7EBCAE4C8EBC3DCC2EB00C7EBCAE4C887
:1047AB00EBD0C2C3DCC2EB00C7EBC8B7C8CFD0C2DB
:1047BB00C3DCC2EB0053544F500052554E00B9D8D6
:1047CB00B1D5CEDECFDFC4A3BFE900B4F2BFAACE12
:1047DB00DECFDFC4A3BFE900D2D4CCABCDF800CE83
:1047EB00DECFDFCDF800C0A9D5B9CDF800C4DAB261
:1047FB00BFCDF800CAC7B7F1BBD6B8B4B3F6B3A7F1
:10480B00C9E8D6C300CAC700B7F100C8C8B5E300F2
:0F481B00415020494400504C4331365F4150001A
:1020BC00603C12FC00FB80FF474B01FDC0FF475208
:1020CC0002FEE0FF475903FF40FF476004FF70FF2B
:1020DC00476705FFB8FF476E06FFCFFF477507FF41
:1020EC00D0FF477C08FFE8FF478309FFFDFF478AC5
:1020FC004113380A4C1339FF4791FF6376FF47961B
:07210C00FF638F4112D902AD
:104C60009013577408F07A0B79247BFFA312377ADC
:104C70007B0522E075F006A424FFF582E43412F5EA
:104C80008312375A9013507401F0227BFFE4901383
:104C900050F022E075F006A424FDF582E43412F50C
:104CA00083E0FEA3E0227BFFE4901350F0227BFF21
:104CB000E4901350F0227408901357F07BFF227B8E
:104CC000FFE4901350F0227BFFE4901350F0229009
:104CD000134812375AE92403F9E43AFA22740C9083
:104CE0001357F07BFF227BFFE4901350F0229013C8
:074CF0004812375A0234F5A7
:0E640800E49013AFF0125FA41264460200038A
:080003009013B9E0FF02642F25
:096446009013B8E024FF928722B4
:105FA4009013B4124C93F58BEEF58D9013B5124CFF
:105FB40093F5D7EEF5D69013B6124C93F5D5EEF5CE
:0D5FC400D49013B7124C93F5D3EEF5D22212
:1056100090134812377A124CCFC003C002C0011257
:105620004CEE7C00D001D002D00329F9EC3AFA12FA
:1056300034F5F4700312355DEF6401700304800CDF
:105640001234F57005740A12355D74FF12353B1281
:1056500034F575F00A84E5F012355D124CCFC003C5
:10566000C002C001124CEE7E00D001D002D003294E
:09567000F9EE3AFA1234F5FF22BA
:1061E4007B017A13795C90136D12377A901370E403
:1061F400F0A37404F07A13794B1250E4EF70037F28
:0562040001227F0022D1
:1000260090134812377A7E007F047DFF124CD5125A
:0C00360037C590134812375AE402355DBC
:1063A800740112353B1234F5FF640470059013AE86
:0863B80004F0EF540302355D0F
:1063C0001261BE7440124CB87A1A79A8A312377AB7
:0863D0007BC0E4FDFF023F8CDD
:1060D7001261BE7432124CDF7A0C7931A312377A0F
:1060E7007B517D08E4FF123F8C7A47799B124C8BDA
:0760F7007D0F7F640248FBEE
:10505D001261BE9013AFE06062E4901348F09013BC
:10506D0048E0FFC3940474809480503B74DD2FF5A9
:10507D0082E43412F583E0FF7E007B017A137949D7
:10508D00901350E4F0A3740AF01242D0901348E04C
:10509D0075F014A42464FF124C847D121248FB9009
:1050AD001348E004F080B7124CDD7A0A79FFA312A1
:1050BD00377A7B107D107FAF123F8C7A4779A6121D
:1050CD004C8B7D0F7F0F1248FB7A4779B3124CA69C
:0750DD007D237F0F0248FB59
:105A61001261BE7BFF7A4779C0124C847D187F0F8B
:105A71001248FB7BFF7A4779C5124C847D187F96CB
:105A81001248FB9013B8E0901357700B7438F07BF9
:105A9100FF7A0E796880097438F07BFF7A11798872
:0E5AA100A312377A7B64E4FD7F2D123F8C2226
:105C43001261BE9013B9E075F01EA4240BFD124C33
:105C5300DD7A0A79DFA312377A7B107F0A123F8C31
:105C63007A4779C9124CA67D0A7F1E1248FB7A47F0
:0C5C730079D6124CAE7D287F1E0248FB43
:105C7F001261BE7A4779E3124CAE7D1D7F0A12483E
:105C8F00FB9013B4124C737D1F7F691248FB124CAB
:105C9F00607D1F7F95123F8C9013577408F07A0B1D
:0C5CAF00791F124C6A7D1F7F61023F8C40
:105CF5001261BE7A4779EA124CBF7D1D7F0A1248B0
:105D0500FB9013B5124C737D1F7F691248FB124C33
:105D1500607D1F7F95123F8C124CB67A0B791F124E
:095D25004C6C7D1F7F61023F8C74
:105D2E001261BE7A4779F1124CBF7D1D7F0A12486F
:105D3E00FB9013B6124C737D1F7F691248FB124CF9
:105D4E00607D1F7F95123F8C124CB67A0B791F1215
:095D5E004C6C7D1F7F61023F8C3B
:105D67001261BE7A4779F8124CC77D1D7F0A124827
:105D7700FB9013B7124C737D1F7F691248FB124CBF
:105D8700607D1F7F95123F8C124CB67A0B791F12DC
:095D97004C6C7D1F7F61023F8C02
:105FD1001261BE7A4779FF124CC77D147F30124897
:105FE100FB7A487910124CE67D307F0A1248FB7A21
:0D5FF100487913124CE67D307FAC0248FB6E
:105536001261BE7BFF7A487916E4901350F07D0A1B
:105546007F0A1248FB9013BBE075F006A42439F5D8
:1055560082E43413F58312375AE4901350F07D0A2F
:105566007F731248FB124C607D0D7F95123F8C12A3
:105576004CB67A0B791F124C6C7D0D7F61123F8CF5
:105586007BFF7A48791B124C847D2B7F0A1248FBDD
:105596007BFF7A487921124C847D2B7F610248FB80
:105DA0007B017A1379B074FF90134CF0A3F07D0C53
:105DB000124BC89013BCEEF0A3EFF0C2AFE4FFFEAD
:105DC0001261987B017A1379B090134D740EF0E450
:085DD000FFFE125FFED2AF22BC
:0F63F9000305FF3C040105FF3C040405FF3C04C1
:102113007208000200000000000000000000000040
:1021230000000000000000000000000000000000AC
:10213300000000000000000000000000000000009C
:10214300000000000000000000000000000000008C
:10215300000000000000000000000000000000007C
:103313000000000000000000000000004100000069
:043323004100010064
:1051F00090134712375A90048112350E75F048A467
:1052000029F9EA35F0FA22900001E075F048A4FF90
:1052100090134A12375AE92FF9EA229013471237AE
:105220005A90048102350E3EFAE92404F9E43AFA70
:1052300022900044E4F5F01236DF7E007F4022FF2A
:1052400075F048A4F58285F0832212375AE94A4B5B
:10525000223EFA90004412365A901359F0229000E0
:0D52600002E402356F75F048A4FFAEF022A5
:0653630090134512377A99
:10536900E4901348F0F0901348E0C39410E49400DB
:10537900504D90134512375A901348E012523FE4AA
:1053890012356FEF1251FC900001E412356F125281
:105399005E900003E412356F900044E4F5F0123694
:1053A900DF900046E475F001125237C00712522906
:1053B9007D00D0071237C5901348E004F080A7900C
:1053C900134512375A900481E412356F900480E432
:0353D90002356F2B
:1058BA00E4900000F0900000E0FEC394037480942A
:1058CA00805043E0FD75F005A424F9F582E43463C1
:1058DA00F583E493FFED75F005A424FAF582E43428
:1058EA0063F583E493FDEE75F005A424FBF582E4E9
:1058FA003463F58312378389828A831237C390000F
:06590A0000E004F080AF94
:015910002274
:105E7B007B007A007900EE702AEF24FD601114602C
:105E8B00151460192404701B7B017A007902227BA4
:105E9B00017A047984227B017A097906227B017AC3
:035EAB000D7988E6
:015EAE0022D1
:105EAF007B007A007900EE702AEF24FD60111460F8
:105EBF00151460192404701B7B017A137981227BDE
:105ECF00017A13798C227B017A137997227B017ADD
:035EDF001379A292
:015EE200229D
:0A3C0400901346EDF0901345EFF029
:103C0E007E00125E7B90134712377A901346E0FFC8
:103C1E00125E7B90134A12377A901345E0FF125EC4
:103C2E00AF90134D12377A901346E0FF125EAF90AD
:103C3E00135012377A90134712524A7003023DE026
:103C4E0090134A12524A7003023DE090134D1252E5
:103C5E004A7003023DE090135012524A7003023D27
:103C6E00E090134712375AC003C002C00112521B14
:103C7E0012523FD001D002D00312350EFE901345E2
:103C8E00E06E6003023D3790134712375AEF12521F
:103C9E006529F9EA3EFA90000112350EFD901346A1
:103CAE00E06D6003023D37A31252133EFA900002FC
:103CBE0012350E60741251F012525E901346E0648B
:103CCE00047010D2A7A31251F3900044E475F001D2
:103CDE0012369212521B12526529F9EA125227908D
:103CEE00135612377A9013471252131252519013E1
:103CFE005012375A1259BF1251F0125231C006C02B
:103D0E00077D001251F0125229D007D0061237C586
:103D1E00901346E064047002C2A712521B2401FFE6
:103D2E00EF540F90048112356FE4900001F0900073
:103D3E0001E0FFC39410E494004003023DE09013B1
:103D4E004A12375A75F048EF12524312350EFF9051
:103D5E001346E06F707312520735F0FA900001129D
:103D6E00350EFF901345E06F705F90000212350E16
:103D7E00605712525E901345E06404700BD2A79008
:103D8E00004475F001123692900001E01252651255
:103D9E00521012522790135612377A125210125294
:103DAE005190134D12375A1259BF12520735F0FA6D
:103DBE00125231C0071252297D00D0071237C5901A
:103DCE001345E064047002C2A7900001E004F00203
:023DDE003D3C6A
:013DE00022C0
:0B4BC80090134812377A90134BEDF069
:104BD300E490134EF0FDFC90134CE0FFA3E0901320
:104BE3004FCFF0A3EFF0E490134EF090134BE0FFA0
:104BF30090134EE0C39F505C901348E475F001128C
:104C030037631234F5FF90134FE0F0A3E06FF0E445
:104C1300FCFD90134FE0FEA3E0FF30E019EEC31359
:104C2300FEEF13FFEE64A0FEEF6401FF90134FEE5F
:104C3300F0A3EFF0800B90134FE0C313F0A3E01346
:104C4300F00DBD00010CED64084C70C690134EE0EE
:0C4C530004F0809790134FE0FEA3E0FFF8
:014C5F002232
:10457500C6F4CDA3BFAAB9D800CDA8D0C5B7BDCACA
:10458500BD00C3DCC2EBD0DEB8C400B2A8CCD8C233
:10459500CAC9E8D6C300B1BEBBFAC8C8B5E300BBFB
:1045A500D6B8B4B3F6B3A7C9E8D6C300D2D4CCAB5A
:1045B500CDF800CEDECFDFCDF800C0A9D5B9CDF856
:1045C50000C4DAB2BFCDF800FFFFFFFF0077726FBE
:1045D5006E672070617373776F7264202100496E76
:1045E50076616C69642070617373776F7264210002
:1045F50043757272656E7420636F756E747320698E
:104605007320312E0043757272656E7420636F7569
:104615006E747320697320322E00D0DEB8C4B3C91E
:10462500B9A600D0DEB8C4CAA7B0DC00506C65617D
:10463500736520776169742061206D6F6D656E7497
:1046450000FFFFFFFF0808020801010000487E0087
:0C46550000000000000000000000000059
:1033270042120A0107602A120CFF457501FF5A6114
:10333700FF457E03FF5C43FF458705FF505DFF4563
:103347009002FF6458FF459B0CFF5536FF45A406C6
:10335700FF5FD15C12ACFF45B108FF5C7FFF45B84A
:1033670009FF5CF5FF45BF0AFF5D2EFF45C60BFF52
:103377005D6752123600000000010201120C0000C6
:10338700000001020112AC606412481E01FF5CBB21
:103397001B01FF5C061701FF52E81D01FF63270FA2
:1033A70001FF614C1E00FF59111B00FF59681700F0
:1033B700FF62B11D00FF63E90F00FF00421E02FF1D
:1033C700482A1B02FF46611702FF38031D02FF60F0
:1033D700FE0F02FF63421E03FF58021B03FF574203
:0F33E7001703FF54511D03FF63D80F03FF00911D
:103A1A0078467C137D017BFF7E007F021234CF90B3
:103A2A0013457A137946E0FF7E007B01901350E438
:103A3A00F0A3740AF0229012DAE075F014A4246458
:103A4A00FF9013507401F02278597C137D017B0199
:103A5A007E007F110234CF9013B4E0FD901338E05A
:103A6A00FB7A002278467C137D017BFF7E007F0271
:103A7A000234CFE09012FD75F00602374EE024FEC4
:103A8A00901239F0901237E01490123AF0901237EF
:103A9A00E022E024FE901242F0901240E0149012CC
:103AAA0043F0901240E0229013BBEFF09013397567
:103ABA00F00612374E02375AE075F014A42406FDB8
:103ACA00901357740CF07A0A79DF7BFFA312377AC6
:103ADA007B102212375A90000312350E90120BF007
:103AEA0090000402378F7B017A1279C8229012372C
:103AFA00E075F007A4240CF9741235F0FA7B0190F2
:103B0A00123C22901240E075F007A424ACF974121A
:103B1A0035F0FA7B0190124522F58312375AEF7578
:103B2A00F014A42405FDE4901350F07F4622E0141B
:103B3A00901239F0901237E090123AF00422E49091
:103B4A00120AF07BFF22E014901242F0901240E039
:103B5A00901243F00422901345E0FF7E007B01227D
:103B6A0090120BE064042290120A7401F0A3740705
:103B7A00F07BFF227B017A1279DA229013BBE0FDF7
:103B8A009012D9E0FB7A002278B07C137D017E0086
:103B9A000234CF9012C8E075F014A4246122901365
:103BAA00CC7417F0A37470F022901237E0FD7B06F4
:103BBA007A0022901237E0901239F004227B017ABF
:103BCA001279EB229013AFE07B01229013B9E064E3
:103BDA0001F07BFF22901240E0FD7B047A002290E4
:103BEA001240E0901242F00422E4901350F07D0A51
:0A3BFA007F732290120BE024F722E3
:1053DC00124F43901346EFF0125EE3901346E064D5
:1053EC001F6061E4901345F0901345E0FFC39414E3
:1053FC0074809480504EEF75F005A42448F582E437
:10540C003412F583E0FF901346E0B5072F90134557
:10541C00E0FF75F005A42449F582E43412F583E02D
:10542C00FE90120AE0B50614EF75F005A4244AF5B7
:10543C0082E43412F58312375A0237BF901345E0D9
:04544C0004F080A444
:015450002239
:09644F007BFF7A6379C002008E24
:03008E000237BF77
:1052E800123B6A707578487C137D01123AF0FE7F94
:1052F800111234CF7A1379AD123A521261E4EF7079
:10530800217BFF7A4579CD90136D12377A9013700F
:10531800E4F0A37404F07B017A1379B01250E4EF3F
:10532800700F7BFF7A00794612008EE490120AF023
:1053380022123AF01200261261BE7BFF7A4579D21A
:10534800123A4B7D1F7F311248FB7FE87E031263C0
:0B5358000B7BFF7A6079D712008E22D9
:055CBB00123B6A703489
:105CC000123AF07F01125610901345EFF078467C9F
:105CD000137D017BFF7A467955123A769013457A07
:105CE000137946123A301242D0123B9D123A4A7D45
:045CF000261248FB35
:015CF400228D
:10614C0090120BE024FC601724FD701990120B7454
:10615C0004F07BFF7A6079D712008E123BA82212D2
:06616C003AF01263A822C4
:10632700123B6A70157BFF7A6379C012008E901258
:0B6337000B7407F0123AF0120026224F
:055C0600123B6A70373B
:105C0B00123AF07F02125610901345EFF078467C53
:105C1B00137D017BFF7A467957123A769013451222
:105C2B003B637A137946123A361242D0123B9D12DD
:075C3B003A4A7D261248FBE6
:015C4200223F
:1062B10090123C12375A123AEAE94A4B600F901297
:0E62C1000A7402F090123C123ADD12008E2296
:10591100901238E0FF14F0EF7001F0123BB37F01F9
:1059210012635D901237EFF064057004A37402F006
:10593100901238E0FD7C00700A123BBD123A9324AC
:10594100028011ED64014C9012377005123B3880D2
:1059510003123A8790123BF07BFF7A0079461200DE
:075961008E123AF702377ABB
:01004200229B
:1063E900123B717A6379C012008E123AF0020026CC
:10596800901238E0FF04F0EF640270037402F01242
:105978003BB3E4FF12635D901237EFF07002A3F0BF
:10598800901238E0FD7C00700A123BBD123A932455
:10599800028011ED64014C9012377005123B38807B
:1059A80003123A8790123BF07BFF7A007946120087
:0759B8008E123AF702377A64
:105679009013AEE070551261BE9013AFE07BFF7AD4
:105689004579E39013507017041256D77A4579F586
:10569900123A4B7D207F051248FB123B7E8016741F
:1056A900011256D77A46790A123A4B7D207F0512A4
:1056B90048FB123BC71200267FE87E0312630B7B6F
:1056C900FF7A50795D12008E7F00227F0122F07DE2
:0956D900147F051248FB7BFF223F
:1038030090120BE01470030239001470030239465E
:1038130014700302391724FD700302398F24FA70E0
:1038230003023963240760030239CF125679EF701C
:0A383300030239CF9013AFE0705983
:10383D00901345F0901345E0FFC394047480948079
:10384D00502A74DD2FF582E43412F583123B637A2E
:10385D00137946123A361242D0901345123A437DEF
:10386D00121248FB901345E004F080C89013577472
:10387D000CF07A0A79FF123AD47D107FAF123F8C8B
:06388D009013AF7401F07E
:103893000238FA78487C137D01123B7E123A5A7A39
:1038A3001279EB123A521261E4EF602A7B017A1229
:1038B30079EE7F04123B92125DA0123B7E1200262A
:1038C300123BC7120026E490120AF01239F07BFF74
:1038D3007A00794680191261BE7BFF7A467928E423
:1038E300901350F07F46123A0D7BFF7A50795D12A8
:1038F300008EE49013AFF0E49013AEF0229013B86F
:10390300E06401F024FF9287125DA07BFF7A5A796D
:10391300610239CC9013B9E07006FF12642F801650
:103923007F0112642F1261BE7BFF7A467931123A0E
:103933004B7F1E123A0D1239D0123B487A0079465A
:103943000239CC90124512375A123AEAE94A4B60CF
:103953007B90120A7403F0901245123ADD0239CCBF
:103963009013BBE0FF90133C123A8112375AE94A95
:103973004B600D75F006EF90133C123ABC1237BF43
:103983001239D0123B487A007946803DC2AFE4FF3A
:10399300FE1261987BFF7A4679467F10123B927B39
:1039A300017A1379B090134D7410F0E4FFFE125FA7
:1039B300FED2AF125FA4126446120003125DD81246
:1039C30039F0123B487A00794612008E22125DA02C
:1039D3001261BE7BFF7A46791FE4901350F07D1687
:1039E3007F461248FB7FF47E0112630B221261BEF5
:1039F3007BFF7A46791FE4901350F07D167F4612C1
:103A030048FB7FF47E0112630B227D161248FB7F75
:073A1300F47E0112630B2297
:1063420090120BE024FB7012123BCE70067A127987
:0B635200DA80047A1279EB1263A822B3
:1060FE0090120BE024FB7015123B7E120026123B11
:10610E00C7120026E49013AFF09013AEF0123B4886
:07611E007A00794602008EB1
:10482A0090120BE024FE605514604824F7700302CE
:0E483A0048DE240760030248EF123BCE7019DF
:104848007A1279DA1248F07A467959123A1A1242EB
:06485800D0123A407D126F
:03485E000248EC21
:104861007A1279EB1248F07A46795B123A1A1242BF
:09487100D09012EB123A437D26AF
:10487A000248EC123BD57A5C794302008E901241D1
:10488A00E0FF14F0EF7001F0123BDF7F0112635D6D
:10489A00901240EFF064037004A37402F090124186
:1048AA00E0FD7C00700A123BE9123AA8240280114A
:1048BA00ED64014C9012407005123B508003123A8D
:1048CA009C901244F07BFF7A5B793D12008E123B7A
:1048DA000D02377A123B85E4FF12635D123AB11278
:1048EA003BF31248FB227F01125610901345EFF05A
:0148FA00229B
:1046610090120BE024FE606914605C24F770030271
:0E467100472E2407600302473F123BCE702302
:10467F007A1279DA1247407A46795D123A6E123B16
:10468F00607A137946123A361242D0123A407D12AE
:03469F0002473C93
:1046A2007A1279EB1247407A46795F123A6E123BE0
:1046B200607A137946123A361242D09012EB123ACD
:0346C200437D260F
:1046C50002473C123BD57A5C794302008E90124139
:1046D500E0FF04F0C3EF94027480948040037402F9
:1046E500F0123BDFE4FF12635D901240EFF07002C1
:1046F500A3F0901241E0FD7C00700A123BE9123AEA
:10470500A824028011ED64014C9012407005123B03
:10471500508003123A9C901244F07BFF7A5B793DFE
:1047250012008E123B0D02377A123B857F01126310
:104735005D123AB1123BF31248FB227F021256106A
:06474500901345EFF02285
:10580200123BFD60171460241460312403704D12A2
:105812003A61E4FF12635D9013B4802E9013B512C7
:105822003A64E4FF12635D9013B5801E9013B612C2
:105832003A64E4FF12635D9013B6800E9013B712C0
:105842003A64E4FF12635D9013B7EFF09012FF1217
:0D5852003AB9123A4B7D1F7F691248FB22C4
:10574200123BFD6017146024146031240370501260
:105752003A617F0112635D9013B4802E9013B512EB
:105762003A647F0112635D9013B5801E9013B612E6
:105772003A647F0112635D9013B6800E9013B712E4
:105782003A647F0112635D9013B7EFF075F00690F3
:1057920012FF123ABC123A4B7D1F7F691248FB225C
:10545100123BFD601B1460291460372403706490B3
:1054610013B4123A7DE0FEA3E0F58BEEF58D8031A9
:105471009013B5123A7DE0FEA3E0F5D7EEF5D680A4
:10548100209013B6123A7DE0FEA3E0F5D5EEF5D4F7
:10549100800F9013B7123A7DE0FEA3E0F5D3EEF54D
:1054A100D2125DA01261BE7BFF7A46791FE4901390
:1054B10050F07D167F461248FB7FF47E0112630B8C
:0454C1001263D82278
:1063D80090120A7402F0A3F07BFF7A5B793D020009
:0163E8008E26
:01009100224C
:10004600E4901348F01261BE901348E0C394037421
:100056008094805025E0FF2439F582E43412F5833C
:10006600E075F007A4240CF582E43412123B231247
:1000760048FB901348E004F080CE901238123AC242
:050086007F32023F8CF7
:105B3D00E4901348F01261BE901348E0C39403E45F
:105B4D0094005025E0FF2442F582E43412F583E001
:105B5D0075F007A424ACF582E43412123B231248ED
:105B6D00FB901348E004F080CF901241123AC27FAF
:045B7D0032023F8C25
:096458007BFF7A5B793D02008EA6
:105EE30090120AE064017006A3E064076022EF6485
:105EF3001F701A9013CBE030E01654FEF0123B7182
:105F03007A6379C012008E123AF0020026123BA87F
:015F1300226B
:1062090030313233343536373839414243444546E3
:106219004748494A4B4C4D4E4F505152535455568D
:056229005758595A000E
:1060AD0090134D12375A90137AE475F0011236445D
:1060BD0085F082F5832290137BE024FFFF90137A05
:0A60CD00E034FF2290134D02375A11
:0C42D00090134BEEF0A3EFF0A312377A2E
:1042DC0078527C137D017BFF7A6279097E007F2501
:1042EC001234CFE490137AF0A3F0901350E07004E2
:1042FC00A3E0640A702790134BE0FEA3E0FFC3EE2B
:10430C00648094805017C3E49FFFE49E901377F071
:10431C00A3EFF01260AD742D12356F800F90134B1C
:10432C00E0FFA3E0901377CFF0A3EFF0901350E0F1
:10433C00FEA3E0FDAC06901377E0FEA3E0FF123580
:10434C00A374522DF58274133CF583E0FF1260AD1B
:10435C00EF12356F901377E0FEA3E0FF901350E05F
:10436C00FCA3E0FD1235A3901377EEF0A3EFF04E13
:10437C0070BA1260D190137AE0FEA3E0F5828E83BE
:10438C00E412356F1234F5B42D0A90137EE4F0A3C9
:10439C0004F08007E490137EF0A3F090137EE0FF0E
:1043AC00A3E090137CCFF0A3EFF01260C3FE7C006F
:1043BC007D021235F8D390137DE09FEE6480F89067
:1043CC00137CE0648098400302445B1260D190132C
:1043DC007CE0FEA3E0F5828E8312350E901379F00B
:1043EC001260C3FE90137FE02FFF90137EE03EFE21
:1043FC0090137CE0FCA3E0FDC3EF9DFFEE9C8F824D
:10440C00F58312350E8D828C8312356F901379E003
:10441C00FF90137BE024FFFD1260CAFC90137FE039
:10442C002DFD90137EE03CFC90137CE0FAA3E0FBA6
:10443C00C3ED9BFDEC9AFC1260D18D828C83EF1244
:10444C00356F90137CE475F00112362E0243B69052
:05445C00134D02375A68
:10635D00A905EF7003098006E97002A90319AF03BF
:09636D00E98FF084A9F0AF0122D0
:0433F60041138000FF
:1049C000ADF0FCEF75F04802374EFF75F048023746
:1049D0004EEF75F04802374EEF75F04802374EFF44
:1049E00075F04802374EADF0FCEF75F04802374ED7
:1049F000901356E475F0011237630234F5EF75F049
:104A00004802374EFF75F04802374EE0FEA3E0C380
:104A10009440EE940022E5822DF582E5833CF583F7
:104A200022A3F0E4A3F0A374FFF0A374E8F0A3E0E2
:104A30004401F0A37401F0A322EF75F04802374E51
:104A400090000312365AAEF022E475F001023644AB
:104A5000FF75F04802374EEF75F04802374E900070
:104A60000102350EA3F0A374FEF0A374E0F02290CF
:0B4A7000000202350E90000602350E19
:10622E009013817401F07450124A217440F054FEA0
:10623E00F090138A74EFF0A3F07B017A1379810248
:02624E004A7B89
:03002300024EB3D7
:104EB300C0E0C0F0C083C082C0D075D01030990963
:104EC300C299901389E054FEF0309869C298900417
:104ED30082E0FF9000051249C47401F090000412AF
:104EE30049D1E0704A900482E09000481249CAE434
:104EF300F0A304F09000461249D8124A0B503090A8
:104F03000482E09000461249CA124A4990000612F0
:104F130049C0124A16E599F0900482E0FF9000021E
:104F23001249D27401F09000031249FD7405F09008
:104F330013807401F0D0D0D082D083D0F0D0E0328F
:1062720090138C7402F07410124A217414F090136B
:10628200957401F0A374FEF07B017A13798C024AB3
:016292007B90
:03004300024CF775
:104CF700C0E0C0F0C083C082C0D075D010E59A3044
:104D0700E10A539AFD901394E054FEF0E59A30E0DF
:104D17006B539AFE900904E0FF9004871249D974F7
:104D270001F09004861249FDE0704B900904E09071
:104D370004CA1249DFE4F0A304F09004C81249D171
:104D4700124A0B5031900904E0FF9004C81249EA57
:104D5700124A499004881249C0124A16E59BF090FE
:104D67000904E0FF9004841249FE7403F09004855F
:104D7700124A397405F09013807403F0D0D0D082B2
:074D8700D083D0F0D0E03230
:1062CF009013977403F0A37450F0740A124A6490F9
:0E62DF00139D7408F07B017A137997024A7BB5
:03008B00024D8E95
:104D8E00C0E0C0F0C083C082C0D075D010E5AC309A
:104D9E00E10A53ACFD90139FE054FEF0E5AC30E019
:104DAE006953ACFE900D86E0900909124A04740115
:104DBE00F0900908124A39E0704A900D86E0900989
:104DCE004C124A04E4F0A304F090094A1249D81296
:104DDE004A0B5030900D86E0FF90094A124A3A1263
:104DEE004A4990090A1249E6124A16E5ADF0900DAD
:104DFE0086E0900906124A507404F0900907124A90
:104E0E00577405F09013807404F0D0D0D082D08304
:054E1E00D0F0D0E032ED
:1062ED009013A27404F0A37450F074A0124A649039
:0E62FD0013A87410F07B017A1379A2024A7B79
:03009300024B29F4
:104B2900C0E0C0F0C083C082C0D075D010E5843029
:104B3900E10A5384FD9013AAE054FEF0E58430E0C5
:104B4900735384FE901208E0900D8B124A50740141
:104B5900F0900D8A124A57E0705A901208E0FF90BF
:104B69000DCE124A58E4F0A304F075F048EF900D09
:104B7900CC12374E124A0B503B901208E0900DCCE4
:104B89001249DF124A49900D8C1249E6124A16E57C
:104B990085F0901208E0FF75F048900D8812374EA5
:104BA9007405F0901380E0FE75F048EF900D8912BE
:0F4BB900374EEEF0D0D0D082D083D0F0D0E032A3
:104A7B001234F5FD6401703B124A5EF598124A6FD1
:104A8B004289124A40F58BEEF58D90000512350EDA
:104A9B0013928E90000712350E428E90000912353C
:104AAB000E52B890000A12350E52B7124A7524FFF7
:104ABB0092AC227C00ED6402702B124A5EF59A12C6
:104ACB004A40F5D7EEF5D690000712350E428E12FE
:104ADB004A7542AF90000912350E52B590000A127A
:104AEB00350E52B622ED64034C7014124A5EF5ACCF
:104AFB00124A6FF5D1124A40F5D5EEF5D480191252
:104B0B0034F564047017124A5EF584124A6F42D171
:0E4B1B00124A40F5D3EEF5D2124A7542AF228F
:1062500090000812350E30E00AED1DAE0470011CEE
:106260004E70EDE92408F9E43AFA1234F5440102DB
:02627000355D9A
:1059BF0090135312377A901359E0FF14F0EF6040B1
:1059CF0090135312375A7D887C13126250901353E1
:1059DF0012375A1234F524FE601114601514601931
:1059EF00240370D21249F0F59980CB1249F0F59B40
:1059FF0080C41249F0F5AD80BD1249F0F58580B62F
:015A0F002274
:0C642300C2AC8F993099FDC299D2AC2216
:105AAF0090000575F04802374E90048775F0480254
:105ABF00374EFF75F04812374E7401F0EF2401FF97
:105ACF00EF540F2275F04812374E74FFF5F002367F
:105ADF002E75F048EF12374EE0FEA3E04E229009EC
:075AEF000975F04802374E73
:10612500E49013BEF0A3F0A3F0A374DCF0A3E4F0B5
:10613500A3E04401F04402F0A37420F0A3F07B0136
:076145007A1379BE025B81B1
:105B81001234F5703D90000112350EF58E90000231
:105B910012350EF58990000312365AAEF0F58AEEF1
:105BA100F58C90000512350EFF13928CEFC3131381
:105BB10092A990000612350E42B890000712350ED8
:035BC10042B722C6
:03000B000244614B
:10446100C0E0C0F0C083C082C0D075D0089013CC2A
:10447100E07002A3E060179013CC125AD99013CCCC
:10448100E07002A3E070079013CBE04401F09004C8
:1044910082E0FF125AAFE0602B900048125AE09080
:1044A1000482600CE0900048125AB2125AD980146A
:1044B100E0FF900004125ABB125AC8900482F01215
:1044C1005AAFE4F0900904E0FF125AB8E06024907A
:1044D10004CA125AE09009046009E09004CA125A11
:1044E100D38010E0900486125AC1900904F0125A48
:1044F100B8E4F0900D86E0FF125AEDE0602875F007
:1045010048EF90094C125AE4900D866009E0900939
:104511004C125AD38010E0900908125AC1900D86AE
:10452100F0125AEDE4F0901208E0FF900D8B125A50
:10453100F0E0603575F048EF900DCE125AE490121C
:1045410008600CE075F048900DCE125AD6801AE042
:10455100FF75F048900D8A125AC5901208F075F057
:1045610048900D8B12374EE4F0D0D0D082D083D05A
:04457100F0D0E03274
:10630B0090134EEEF0A3EFF090134E74FFF5F012D6
:0B631B00364445F0600512646180ED1F
:016326002254
:086461007F0B7EBEDEFEDFFCB6
:016469002210
:103DE1002B2B2B0061002B4F6B0041542B574D4F58
:103DF10044453D41505354410D0A002B4F4B004166
:103E0100542B5741503D504C4331365F41502C4E5D
:103E11004F4E450D0A0041542B48454152544454DC
:103E21003D3737373737373245373936453730360B
:103E310031373832453633364636440D0A0041545F
:103E41002B575354413D756E696F6E2C2A21796E43
:103E51007A666B6A3230303931323135212A0D0AB6
:103E61000041542B524547454E413D434C4F55442B
:103E71002C46495253540D0A0041542B534F434B86
:103E8100413D544350432C636C6F75642E757372BE
:103E91002E636E2C31353030300D0A0041542B53D6
:103EA10045415243483D31353030302C636C6F759C
:103EB100642E7573722E636E0D0A0041542B5245A8
:103EC10047434C4F55443D3030303139363339302A
:103ED10030303030303030303035362C536B644731
:103EE100417A796C0D0A0041542B57414E4E3D44A5
:103EF1004843500D0A0041542B5A0D0A0041542BDE
:103F0100454E544D0D0A00FF3DE1FF3DE503E8003C
:103F11000000FF3DE5FF3DE700C8000000FF3DEB6D
:103F2100FF3DFC00C8000000FF3E00FF3DFC00C853
:103F3100000000FF3E17FF3DFC00C8000000FF3EEF
:103F41003FFF3DFC00C8000000FF3E62FF3DFC005A
:103F5100C8000000FF3E7AFF3DFC00C8000000FFE2
:103F61003E9DFF3DFC00C8000000FF3EBCFF3DFC44
:103F710000C8000000FF3EE8FF3DFC00C800000053
:0B3F8100FF3EF7FF3DFC00C800000001
:105BC4007A3D79EB7BFF7DC87C002275F00BA42421
:105BD4000EF582E4343FF583E493FC740193FD22D3
:105BE40075F00BA42408F582E4343FF5830237836F
:105BF4007A3E79F77BFF7DC87C0022F0901349023E
:025C0400375A0D
:0C642F00EF6006147005D29422C2942283
:105DD800E4901348F0D294D2957FF47E0112630BBD
:105DE800E4901348F0901348E0C3940C74809480B6
:105DF8005014E0FF125BE4EF125BCF125AF69013D7
:065E080048E004F080DF19
:015E0E002271
:105AF60090134912377A90134CECF0A3ED125BFF2A
:105B0600E94A4B603190134CE07002A3E060271223
:105B16005C0012000E901359EF125BFF90135612A1
:105B2600377A7B017A13798C1259BF90134CE0FEB9
:075B3600A3E0FF12630B2244
:105F1400E4901345F0F0901345E0FFC39402E49439
:105F240000501DEF125BE4E94A600D901345E01246
:105F34005BCF4C6003125AF6901345E004F080D610
:015F4400223A
:10637600125F14125BC4125AF67A3E79FE125BC89B
:09638600125AF6125BF4025AF6F9
:10638F00125F14125BC4125AF67A3E79FE125BF852
:09639F00125AF6125BF4025AF6E0
:10009600B1EAB6A8BFAAB9D8B2CECA00C5E4D6C3DB
:1000A600CAB1BCE4D0D0C4A3C4E2C7EBCAE4C8EB6F
:1000B600C3DCC2EBD0C2C8B7C8CFD0DEB8C4B3C9A0
:1000C600B9A6CAA7B0DCD6F7BDE7C3E6B1BEB5D8B8
:1000D600C1ACBDD3D4B6B3CCCDA8D0C5B7BDCABD0F
:1000E600C6F4CDA3B2A8CCD8C2CAC9E8B4AEBFDAAA
:1000F600BBD6B8B4B3F6B3A7CAC7B7F1B5C8C4DAA6
:10010600B2BFCFB5CDB3D2BBB6FEC800CBC4B3F534
:10011600CABCBBAFD2D4CCABCDF8CEDECFDFC0A944
:10012600D5B9B4F2BFAAB9D8B1D5C4A3BFE9B1BE97
:10013600BBFAC8C8B5E38868FF48109212F212925B
:10014600100000000F000201080F000003002C241D
:10015600A42425E6242424242C0008040304080FE0
:10016600090909090800404242FE424242FE424253
:100176004000000806010000000F00000000404893
:10018600494A48F8484A494840000808040201001C
:100196000102040808009054B6955C543494365411
:1001A6009000000A0A0A0A09050404020000482A07
:1001B600987F284A10EF08F80800090B05050B0080
:1001C600080502050800FA4A3E0A3E4AFA00E222FB
:1001D6003E000F05050505050F0007080E00101760
:1001E600D555577D5755D517100008080F08080E26
:1001F60008080F080800FE2222FE0008488808FFAB
:1002060008000702020700000009080F000000F9B5
:1002160002F849494949F901FF00000F00030202AB
:1002260002020B080F004824F20910121212F212F1
:10023600100000000F00000008080F00000088688A
:10024600FF4802FAAFAAAFFA020000000F000A0A3E
:100256000603060A0A0088FF4800FE00820CE01F1B
:100266000000080F00000309040300030C0011F24C
:100276000022EAAABFAAAAEA2200000F04000F027F
:1002860002020A0F0000342CF7A4E8A4EA09CA0403
:10029600E80001010F000F020F0003080F00000025
:1002A6000181720C70800000000008040201000049
:1002B600000102040800463282B2466B524A6212BC
:1002C6006600000E0808080F0808080E000042F233
:1002D6002EE2013D2121213FE00000070207010136
:1002E60001010908070020AAB2E3B2AA00FE12F231
:1002F60011000402080F000A0403000F000042F276
:100306002EE200F453F25A56F000000702070807DF
:10031600010701090F001011F2000000C03FC000E4
:10032600000000000702090601000106080010FC93
:1003360003F810948B4A2A961000000F0003080A4F
:100346000A0905040200E222223E2010EF088878FE
:1003560008000F040201080402010204080000FC60
:100366002424E404FF0485660400080700020B0445
:10037600020102040F000404FC040408FF08080834
:10038600F800020201090503000008080700A09012
:100396008E8888FF8888888080000808040201000B
:1003A600010204080800FE02FA02FE10EC0B08F82F
:1003B6000800090403040908050205080800008866
:1003C600888889FA88888888000008080808080F3D
:1003D600080808080800809F9555553F5555959F74
:1003E6008000000804030000000F0000000002F275
:1003F6001212FA5652F21212F200000F0404070506
:10040600050704040F000404846414FF14648404C0
:10041600040002010202020F020202010200101091
:10042600FF1020FC10FF0884FC00040403020007F0
:10043600080908080E0021E20004342C27F42424BD
:100446000400080708090909090F0909090088882D
:10045600FF48A4ACB5E6B4ACA40000080F00080A37
:100466000B04040B080021E2001012F21212F21221
:1004760010000807080A09080808090A0B0012D222
:10048600FE51802F29E9292F000001000F000809DD
:10049600090F0909080011F200F9A9ABFDADABF887
:1004A60000000807080B08080B080A0B080010FCD8
:1004B60003045454555654540400000F00000F050D
:1004C6000505050F0000040404FC2526242424E465
:1004D6000400080403000000080808070000084894
:1004E60048C8484808FF08090A000808080704041D
:1004F600040003040E000000FCA4A4A5A6A4A4A462
:10050600BC000806010F0404040404040F002010B4
:10051600FC0382BAAAABAABA820000000F0001024D
:100526000A0E02020100224400FC24E4243F24E4D3
:100536000C000402080708080502050808009C8844
:10054600FF481054545FF454500000000F0000019F
:100556000A080F000000028A529AD6B3D28A528A3B
:10056600020002020202020F02020202020010113F
:10057600F20050CF41414FD010000000070208089A
:10058600050205080800C05E525252FF5252525EE2
:10059600C00007020202020F02020202070000FE6A
:1005A60002020202020202FE00000007020202022A
:1005B6000202020700007800FF08C43FC404F444A6
:1005C600240000000F0403080402010608000402C8
:1005D6007DD555555555557D0100000A090B050574
:1005E60005050B090800801E101010FF1010101EC4
:1005F6008000070404040407040404040F0000FE3A
:1006060002020202020202020200080700000000C3
:1006160000000000000040405F5555D555555F402D
:10062600400008040304080F09090909080011918C
:10063600898985BF818585891100000F040404041A
:100646000404040F000044535256527C53D25652AF
:100656004200010103050109090F0101010000FC27
:100666000484641F24C404FC0000000F0000000082
:100676000008080F000020AAB2A3B2AA20FE023288
:10068600CE00000F0404040F000F020201000082D6
:1006960092DAD6B2B19189C1800008040200080F2F
:1006A60000000204090098D4B3880064D44DC654EF
:1006B600E400040402020804030007080C0040409A
:1006C60040404040404040404000000000000000E4
:1006D60000000000000000040404040404040404F0
:1006E60000000404040404040404040404000002D6
:1006F60042424242424242020000080808080808F4
:1007060008080808080000FE02827E02027E828235
:10071600FE00000F05040404040404040F008445CD
:10072600F64CA002FE020202FE0000000F000806C0
:1007360001000808070088780FF800D8545350D8ED
:1007460030000805020D000F0404040F00002010FD
:10075600FC030080FF201008040000000F000100C9
:10076600070808080E0000FE0080420C00807F008B
:100776000000000309080404020102040800080836
:100786000888681FE808080808000804020102042F
:10079600000304080800FF0991619109916191091C
:1007A600FF000F0100000001000008090F002022D1
:1007B6002222E23EE2222222200008040201000058
:1007C600070808080E0098D4B388004848FF24A5F7
:1007D6002600040402020808040305080E0088889F
:1007E600FF4800FC04050604040000080F00080783
:1007F60000000000000000FF45D57D55D5557D550C
:1008060047000807000F08040102040A0900888847
:10081600FF4848020202FE02020000080F00000024
:1008260008080F000000404242FE424242FE424299
:100836004000000806010000000F000000004048CC
:10084600494A48F8484A4948400008080402010055
:1008560001020408080000F9022020A2FA2222025E
:10086600FE00000F00020104070008080F00886858
:10087600FF4802FAAFAAAFFA020000000F000A0A08
:100886000603060A0A0008FF08404444FF44447C65
:1008960040000203010804030003040808000404DE
:1008A600846414FF14648404040002010202020F2B
:1008B6000202020102008868FF2840FE0202FE00D2
:1008C600000000000F080403000007080E0024249F
:1008D600FF1400D43F447C80E000080501040900B1
:1008E60004080004090000F01010101F121212F282
:1008F60002000805010509010509010508000000B7
:1009060000000000004F00000007000700147F14DD
:100916007F14242A7F2A122313086462364955223B
:10092600500005070000001C2241000041221C0067
:1009360014083E081408083E080800503000000855
:1009460008080808006060000020100804023E51F4
:1009560049453E00427F400042615149462141459A
:100966004B311814127F1027454545393C4A4949F1
:100976003001710905033649494936064949291E98
:1009860000363600000056360000081422410014D6
:1009960014141414004122140802015109063249A4
:1009A60079413E7E1111117E7F494949363E4141CA
:1009B60041227F4141221C7F494949417F0909095A
:1009C600013E4149497A7F0808087F00417F41007E
:1009D6002040413F017F081422417F404040407F34
:1009E600020C027F7F0408107F3E4141413E7F0991
:1009F6000909063E4151215E7F09192946464949A2
:100A0600493101017F01013F4040403F1F20402006
:100A16001F3F4038403F63140814630708700807F7
:100A26006151494543007F414100020408102000FE
:100A360041417F000402010204404040404001025F
:100A460004000020545454787F48484830384444C1
:100A56004444304848487F385454545800087E0966
:100A660002485454543C7F0808087000007A00007D
:100A76002040403D007F2028440000417F40007C0C
:100A86000438047C7C0804047838444444387C14D4
:100A9600141408081414147C7C08040408485454DC
:100AA600542404043F44243C4040403C1C20402045
:100AB6001C3C4030403C442810284404483008047C
:100AC6004464544C4408364141000000770000005D
:100AD600414136080402020201F8F8101008040425
:100AE600024AC94D4A484868300303010101010121
:100AF60001010000000000000000000000F0F8FC0A
:100B0600FCFCFCF8F00000000000000000000103FF
:100B1600030303010000000000081C3E7F00007F65
:100B26003E1C08000000000000000000000000005D
:100B360000000000000000000000000000000000AF
:100B4600000000000000000000000000000000009F
:100B5600000000000000000000000000000000008F
:100B6600000000000000000000000000000000007F
:100B7600000000000000000000000000000000006F
:100B8600000000000000000000000000000000005F
:100B9600000000000000000000000000000000004F
:100BA60000000000000000FFFFFFFFFFFFFFFFFF48
:100BB600FFFFFFFFFFFFFFFFFFFFFFFFFFFFFFFF3F
:100BC600FFFFFFFFFFFFFFFFFFFFFFFFFFFFFFFF2F
:100BD600FFFFFFFFFFFFFFFFFFFFFFFFFFFFFFFF1F
:100BE600FFFFFFFFFFFFFFFFFFFFFFFFFFFFFFFF0F
:100BF600FFFFFFFFFFFFFFFFFFFFFFFFFFFFFFFFFF
:100C0600FFFFFFFFFFFFFFFFFFFFFFFFFFFFFFFFEE
:100C1600FFFFFFFFFFFFFFFFFFFFFFFFFFFFFFFFDE
:100C2600FFFFFFFFFFFFFFFFFFFFFF0000000000C9
:100C360000000000000000000000000000000000AE
:100C460000000000008080C0C0E0E0E0F0F0F0F8B6
:100C5600F8F8F8FCFCFCFCFCFCFCFEFEFEFCFCFCD4
:100C6600FCFCF8F8F8F0E0C000000000000000000E
:100C7600000000000000000000000000000000006E
:100C8600000000000000008080C0E0E0F0F0F8FC0A
:100C9600FCFCFEFEFFFF7F7F7F7F7F7F3F3F3F3F66
:100CA6003F3F3F3F3F3F3F1F1F3F3F3F3F3F3F3F8E
:100CB6003F7F7F7FFFFFFFFFFFFF3C00000000003C
:100CC600000000000000000000000000000080405E
:100CD60020203018180C0E0F0F0707070303030117
:100CE6000101010000000080C0E0E0F0F0F0F8F83B
:100CF600F8F8FCFCFCFCFCFCFCFCFCFCF8F8F8F04E
:100D0600F0E0000000000001071F030000000000E3
:100D160000000000000000000000000000000000CD
:100D260000000000000000000000000000000000BD
:100D36000080E0C00000043F3F3F7F7FFFFFFFFFD2
:100D4600FFFFFFFFFFFFFFFF7F7F7F7F3F3F3F1FCD
:100D56000F07030000000000000000008080808074
:100D6600C0C0C0C0E0E0703030180C0000000000C9
:100D7600000000000000000000000000000000006D
:100D86000000FFFFFFFFFEFEFCFCFCF8F8F8F8F899
:100D9600F8F8F8F8F8F8F8F8F8F8F8F8F8F8F8FCC9
:100DA600FCFCFCFCFCFEFEFEFEFFFF7F3F3F1F1F20
:100DB6000F0707030101000000000000000000000B
:100DC600000000000000000000000000000000001D
:100DD60000000001070F1F3F3F3F7F7F7F7F7F7F20
:100DE6007F7F7F7F7F7F7F7F7F3F3F3F3F1F1F1F2D
:100DF6000F0F0707070303010100000000000000B2
:100E060000000000000000000000000000000000DC
:100E160000000000000000000000000000000000CC
:100E260000000000000000000000000000000000BC
:100E360000000000000000000000000000000000AC
:100E4600000000000000000000000000000000009C
:100E5600000000000000000000000000000000008C
:100E66000000000000C0C0C0C0C0C0C0C0C0C0C03C
:100E7600C0C0C0C0C0C0C0C0C0C0C0C0C0C0C0C06C
:100E8600C0C0C0C0C0C0C0C0C0C0C0C0C0C0C0C05C
:100E9600C0C0C0C0C0C0C0C0C0C0C0C0C0C0C0C04C
:100EA600C0C0C0C0C0C0C0C0C0C0C0C0C0C0C0C03C
:100EB600C0C0C0C0C0C0C0C0C0C0C0C0C0C0C0C02C
:100EC600C0C0C0000000000000FFFF00000000805E
:100ED6008080C0C0E0E0E0E020206060606060608C
:100EE60060606060606060606060606060C0C0C0DC
:100EF600C0C0C0C0C0C0C0C0C0C0C0C0C0C0C0C0EC
:100F0600C0C0C0C0C0C0C0C0C0C0C0C0C0C0C0C0DB
:100F1600C0C0C0C0C0C0C0C0C0C0C0C0C0C0C0C0CB
:100F2600C0C0000000FFFF000000000000FFFF003F
:100F36000000FFFFFFFFFFFFFFFFFFFF00000000B5
:100F4600000000000000000000000000000000009B
:100F5600000000000000000000000000000000008B
:100F6600000000000000000000000000000000007B
:100F7600000000000000000000000000000000006B
:100F860000000000FFFF000000FFFF00000000005F
:100F960000FFFF000000FFFFFFFFFFFFFFFFFFFF57
:100FA600000000007EE6C38383C3EE7C00000000E1
:100FB600000000000000000000000000000000002B
:100FC600000000000000000000000000000000001B
:100FD600000000000000181818181818181818181B
:100FE6001818180000000000FFFF000000FFFF00B7
:100FF6000000000000FFFF000000FFFFFFFFFFFFF3
:10100600FFFFFFFF000000000000000101000000DC
:1010160000000000000000000000000000000000CA
:1010260000000000000000000000000000000000BA
:1010360000000000000000000000000000000000AA
:10104600000000000000000000000000FFFF00009C
:1010560000FFFF000000000000FFFF00000000008E
:101066000101030307070F0F0C0C0C0C0C0C0C0CE6
:10107600060606060606060606060606060606060A
:101086000606060606060606060602020202020212
:10109600020202020202020202020202020202022A
:1010A600020202020202020202020202020202021A
:1010B6000303000000FFFF00000000000007070612
:1010C60006060606060606060606060606060606BA
:1010D60006060606060606060606060606060606AA
:1010E600060606060606060606060606060606069A
:1010F600060606060606060606060606060606068A
:101106000606060606060606060606060606060679
:101116000606060606060606060707000000000085
:1011260000000000000000000000000000000000B9
:1011360000000000000000000000000000000000A9
:101146000000000000000000000000000000000099
:101156000000000000000000000000000000000089
:101166000000000000000000000000000000000079
:101176000000000000000000000000000000000069
:101186000000000000C0C0C0C0C0C0C0C0C0C0C019
:10119600C0C0C0C0C0C0C0C0C0C0C0C0C0C0C0C049
:1011A600C0C0C0C0C0C0C0C0C0C0C0C0C0C0C0C039
:1011B600C0C0C0C0C0C0C0C0C0C0C0C0C0C0C0C029
:1011C600C0C0C0C0C0C0C0C0C0C0C0C0C0C0C0C019
:1011D600C0C0C0C0C0C0C0C0C0C0C0C0C0C0C0C009
:1011E600C0C0C0000000000000FFFF000000C0C03B
:1011F60040404040404040404040404040404040E9
:1012060040404040404040404040404040404040D8
:1012160040404040404040404040404040404040C8
:10122600404040404040406060606060606060E018
:10123600E0E0E0E0E0E0E06060E0C0C0C0C08080E8
:101246000000000000FFFF000000000000FFFF009C
:101256000000FFFF0000000000000080808080008A
:101266000000000000000000000000000000000078
:101276000000000000000000000000000000000068
:101286000000000000000000000000000000000058
:1012960000000000000000000000000000FFFFFF4B
:1012A600FFFFFFFFFFFC000000FFFF000000000043
:1012B60000FFFF000000FFFF00000000003F71611B
:1012C600C1C161773E000000000000000000000080
:1012D6000000000000000000000000000000000008
:1012E60000000000000000000000000000000000F8
:1012F60000000000181818181818181818180000F8
:1013060000FFFFFFFFFFFFFFFFFF000000FFFF00E2
:101316000000000000FFFF000000FFFF00000000CB
:1013260000000000000000000000000000000000B7
:1013360000000000000000000000000000000000A7
:101346000000000000000000000000000000000097
:101356000000000000000000000000000000000087
:101366000000000000FFFFFFFFFFFFFF7F3F0000C0
:1013760000FFFF000000000000FFFF000000030365
:101386000202020202020202020202020202020237
:101396000202020202020202020202020202020227
:1013A6000202020202020202020202020202020217
:1013B60002020202020202020202020606060606F3
:1013C60006060E0E0E0E0E0E0E0F0F0F0703010071
:1013D6000000000000FFFF000000000000070706F5
:1013E6000606060606060606060606060606060697
:1013F6000606060606060606060606060606060687
:101406000606060606060606060606060606060676
:101416000606060606060606060606060606060666
:101426000606060606060606060606060606060656
:101436000606060606060606060707000000000062
:101446000000000000000000000000000000000096
:101456000000000000000000000000000000000086
:101466000000000000000000000000000000000076
:101476000000000000000000000000000000000066
:101486000000000000000000000000000000000056
:101496000000000000000000000000000000000046
:1014A60000008080808080808080808080808000B6
:1014B600000000000000000000000000FFFFFFFF2A
:1014C600FF00000000000000000000000000000017
:1014D6000000000000000000000000000000000006
:1014E60000000000000000000000000000000000F6
:1014F60000000000000000000000000000000000E6
:1015060000000000000000000000000000000000D5
:1015160000000000000000000000000000000000C5
:1015260000000000000000000000000000000000B5
:1015360000000000000000000000000000000000A5
:101546000000000000000000000000000000000095
:101556000000000000000000000000000000000085
:1015660000007F7F7F7F7F7F7F7F7F7F7F7F7FFF03
:10157600FFFFFFFFFEFEFEFCFCF8F8F8FFFFFFFF93
:10158600FF00000000000000000000000000000056
:101596000000000000000000000000000000000045
:1015A60000C0C0C0000000000000000000000000F5
:1015B6000000000000000000000000000000000025
:1015C6000000000000000000000000000000000015
:1015D600C0C0C000000000000000000000000000C5
:1015E6000000000000000000C0C0C00000000000B5
:1015F600000000000000000000000000000000C025
:10160600C0C0000000000000000000000000000054
:1016160000000000000000000000000000000000C4
:101626000000F0F0F0F0F0F0F0F0F0F0F0E0E0E0C4
:10163600E0E0E0E0C1C181838307071FFFFFFFFFF2
:10164600FFFFFFFFFFFFFFFFFFFFFFFFFFFFFF00A3
:10165600000000000000000000E0E0E0E0E0E0E064
:10166600E0FFFFFFE0E0E0E0E0E0E0E00000000097
:10167600FFFFFF07C7C7C7C7C7C7C7C7C7C7C7C70C
:1016860007FFFFFF0000003C3C3C3C3C3C3C3C3C34
:10169600FFFFFF3C3C3C3C3C3C3C3C3C000000F03B
:1016A600F0F0F0F0F0F0F0F0FFFFFFF0F0F0F0F007
:1016B600F0F0F0F000000000F8F87878787878FF1D
:1016C600FFFF78787878F8F8F8000000000000FF4F
:1016D600FFFF1F1F1FDFDFDF1F1F1FDFDFDF1FFFF4
:1016E600FFFF0F0F0F0F0F0F0F0F0F0F0F1F1F1FF4
:1016F6001F1F1F3F3F3F3F7F7FFFFFFEFFFFFFFF95
:10170600FFE0E0E0E0E0E0E0E0E0E0E0E0E0E00094
:10171600000000000000000000FFFFFF03030303BA
:1017260003FFFFFF0303030303FFFFFF00000000A7
:10173600FFFFFF0003E3E3E3E3FFFFFFE3E3E3E38E
:1017460000FFFFFF00000000FEFEFE1E1E1EFEFE46
:10175600FF1F1FFEFEFE1E1EFEFEFE000000000016
:10176600000000000000FFFFFFFFE0E0E0E0E0E037
:10177600E000000000000000FFFF7878787878FF2E
:10178600FFFF78787878FFFFFF000000000000FF79
:10179600FFFF0E1EFEFFFF1F0C3CFCFFFF0700FFB6
:1017A600FFFFFEFEFEFEFEFEFEFCFCFCFCFCFCFC5F
:1017B600FCFCF8F8F8F8F0F0E0E0C0C3FFFFFFFF2C
:1017C600FF1F1F1F1F1F1F1F1F1F1F1F1F1F1F0062
:1017D6000000000000000000001F1F1F1F1F1F1F2A
:1017E6001FFFFFFF1F1F1F1F1F1F1F1F00000000DF
:1017F600FFFFFFC0C0C1C1C1C1FFFFFFC1F9F9F9B9
:10180600C0FFFFFF00000000FFFFFF00CFCFCFCFDC
:10181600FFFFFFFFCFCFCF00FFFFFF00000000005C
:1018260000000000C0F8FFFF0F0101010101FFFFEA
:10183600FF000000000000007F7F7878787878FF4E
:10184600FFFF787878787F7F7F000000000000FF38
:10185600FFFFF0F8FF3F3F3FF8F8FF3F7FFEF0FF46
:10186600FFFF010101010101010101010103030360
:101876000303070707070F0F1F1F3F7FFFFFFFFF2A
:10188600FFF8F8F8F8F8F8F8F8F8F8F8F8F8F800C3
:101896000000000000000000000000000000000042
:1018A60000FFFFFF00000000000000000000000035
:1018B600FFFFFFF1F1F1F1F1F1F1F1F1F1F1F1F1E8
:1018C600F1FFFFFF00000000FFFFFF00030303031B
:1018D600FFFFFF030303F3F0FFFF7F00000000009C
:1018E600F8F8FC3F1F0F03000000707070707F7FD8
:1018F6007F0000000000000000000000000000FF64
:10190600FFFFE0E0E0E0E0E0FCFCFC00000000FFA0
:10191600FFFF0000000000000707070000F0F0FFCF
:10192600FFFF0000000000000000000000000000B3
:10193600000000000000000000000000FFFFFFFFA5
:10194600FF07070707070707070707070707070030
:101956000000000000000000000080C0C080000001
:10196600800101810000800080800000800000006E
:101976008080000000000000C0C0C000000080C0E1
:10198600C0800000C00000C0C000C0C0C0C0008051
:10199600800000800000C1C1C1C00000C0C0C0807E
:1019A6000000800000008000000080C0C0C08000F1
:1019B6000080C0C08000C0000000000000C000C160
:1019C600C1C1C10101C1C1C181010100000080C0C6
:1019D600C080000080C0C0C08000808000C0C0C041
:1019E600C0800000000000000000000000000000B1
:1019F600000000000000000000000000FFFFFFFFE5
:101A0600FFFFFFFFFFFFFFFFFFFFFFFFFFFFFF00DF
:101A16000000000000000000003FFFC0C0610000A1
:101A2600FF0404FF0000FF00FF0F0E78FF00E07EBA
:101A360067677CE000000063C7CCFD71003FE1C032
:101A4600C07F1E007FC0C0FF3F0000FFFF0000FFF9
:101A5600FF0C0CFF0000FFCCCCCC007FFF181CFF56
:101A6600C000FF071CF8FF000000FFFF180F07006B
:101A76003EF3E1E1F33F07FEF80707FCFE0300FF34
:101A8600CCCCCC0000FF181CFFC00000003FFFC0FC
:101A9600C8F93000FF0C0C3CE700FFFF00FFC0C098
:101AA600F37F0000000000000000000000000000BE
:101AB6000000000000000000000000000000000020
:101AC6000000000000000000000000000000000010
:101AD6000000000000000000000000000000000000
:101AE60000000000000000000000000000000000F0
:101AF60000000000000000000000000000000000E0
:101B060000000000000000000000000000000000CF
:101B160000000000000000000000000000000000BF
:101B260000000000000000000000000000000000AF
:101B3600000000000000000000000000000000009F
:101B4600000000000000000000000000000000008F
:101B560000000000000080F000000000000000808F
:101B6600000000000000000000000080808080C0AF
:101B7600C06060303010B8F8780000000000000047
:101B8600000000000000000000000000000000004F
:101B960000000000003030180C0402E3FE1C0000B8
:101BA600000000000000000000000000000000002F
:101BB60000000000000000000000008080C0E0E09F
:101BC600800000000000000000000000000000008F
:101BD60000000000000000000000000000000000FF
:101BE60000000000000000000000000000000000EF
:101BF600000000000000C0FEFF1C00000000000006
:101C0600000000000000000000000000000000804E
:101C160000000080E07C4761F060000804C27F1F7E
:101C2600070000000000000000F8F001010101C1FA
:101C36008080C070380C0701000000000000000022
:101C46000000000000000000C0C0606030180CFCFE
:101C56000800000CF8000000F0F0FC1F0000000077
:101C66000000000000000000000000000080C0E04E
:101C7600E0000000E020100804E60301C0F81F079A
:101C8600010000000000000000000000000000004D
:101C9600000060E0C0C0C0C0C0C04040E0C000005E
:101CA600000000000000000000000000000000002E
:101CB6000000000000F8FF3F030090F0C0000000A5
:101CC600000000000000000000000000000000838B
:101CD600FE38068378F0CC07010080E09E83800002
:101CE6000000000000000000E0FF7F000060380FE9
:101CF6000703010080000000000000000000000053
:101D06000000000000000000E000001E1800F07F48
:101D1600000000FE1F000080FFFF0700000000001B
:101D26000000000000000000000002070301FF3F62
:101D36000100001C3F0088CC7F73380F03000000B1
:101D4600000000000000000000000000000000008D
:101D56000000000103030301C0F0F87E1F07010025
:101D66000000000000000000000000C0C0C0C0C0AD
:101D7600C0E0E0F0FF7F391C0E07070100000000FD
:101D8600000000000000000000000000070781803E
:101D9600C76021111888846432190D0703010100F8
:101DA60000000000000000808101000000000080AB
:101DB600C00000F8FF0088F0E0000000000000000E
:101DC60000000000000000060701000001030300F8
:101DD60000F07F0300000C0700FF00000000000079
:101DE60000000000000000000040606078FECFC0E8
:101DF600000000000002CF83C08000000000000049
:101E060000000000000000000000000000000000CC
:101E160000000080E0F8FEBF9F8781800000000080
:101E26000000000000000000000000010101018127
:101E3600C1791F03008000000000000000000000C0
:101E4600000000000000C0E0E070380C060301004E
:101E560000000000E0190780C0C00000000000007C
:101E6600000000000000F8FF3F0400000383C343A6
:101E7600213018FFFFE6C38180C0C080000000004B
:101E8600000000000000000000000000000000E06C
:101E9600FE07000000000000FFFF00000000000039
:101EA60000000000000000000000C0F07C1F0300DE
:101EB6000000000000E3BF07018080000000000072
:101EC60000000000000000000020F0F0F0F8F878B4
:101ED6007C3C1E1F0F0F07030303010000000000D8
:101EE60000000000000000000000008060381E07AF
:101EF6000100000000001FFCF0C080000000000090
:101F060000000000000001010000000060E0E07039
:101F160070381C1CFF0703070701000000000000C3
:101F2600000000103C7F3F38180C06060301000035
:101F36000000000001010101010101000000000094
:101F460000000000000000000000000000E07E0F1E
:101F560000000000000000000F0F0000000000005D
:101F66000000000000000000000001010000000069
:101F76000000000000030303030307030000000042
:101F86000000000000000000000000010100000049
:101F9600000000000000000000000000000000003B
:101FA600000000000000000406020100000000001E
:101FB600000000000000000003070F0707030100F0
:101FC600000000000000000000000000000000000B
:101FD6000830E0F07F000000000000000000000074
:101FE60000000000000000000000000000000000EB
:101FF60000000000000000000000000000000000DB
:1020060000000000000000000000180C070100009E
:1020160000000000000000000000000000000000BA
:1020260000000000000000000000000000000000AA
:10203600000000000000000000000000000000009A
:10204600000000000000000000000000000000008A
:10205600000000000000000000000000000000007A
:10206600000000000000000000000000000000006A
:10207600000000000000000000000000000000005A
:10208600000000000000000000000000000000004A
:102096000000000100000000000000000000000039
:0220A600000038
:03000000024FD1DB
:0C4FD100787FE4F6D8FD758117025018B7
:06646A0090000102350E56
:10413700EFD394057480948040037F01221234F5F5
:10414700FED394037480948040037F0222EF70387B
:10415700EE700812646AF4529352941234F56401B3
:10416700700812646A4293F452941234F5FE6402A2
:10417700700712646A42934294EE6403700A1264F1
:104187006AFEF45293EE4294EF6401703A1234F5EA
:10419700FE700812646AF452915292EE640170083C
:1041A70012646A4291F452921234F5640270071253
:1041B700646A429142921234F56403700A12646A87
:1041C700FEF45291EE4292EF6402703A1234F5FE19
:1041D700700812646AF452955296EE6401700812E0
:1041E700646A4295F452961234F5640270071264B9
:1041F7006A429542961234F56403700A12646AFEA5
:10420700F45295EE4296EF6403703A1234F5FE705D
:104217000812646AF452B152B2EE64017008126473
:104227006A42B1F452B21234F56402700712646A3A
:1042370042B142B21234F56403700A12646AFEF4A2
:1042470052B1EE42B2EF6404703A1234F5FE7008D0
:1042570012646AF452B352B4EE6401700812646ACD
:1042670042B3F452B41234F56402700712646A421E
:10427700B342B41234F56403700A12646AFEF4524E
:10428700B3EE42B4EF6405703D1234F5FF7E007063
:104297000812646AF452C952CAEF64014E700812D8
:1042A700646A42C9F452CA1234F564027007126490
:1042B7006A42C942CA1234F56403700A12646AFF7B
:0942C700F452C9EF42CA7F002243
:105E0F00E4FEFDFC901351E0F8A3E0F9A3E0FAA340
:105E1F00E0FBC302370CE0FBA3E475F0010236444C
:105E2F00EEF0A3EFF0A3EBF0A3EAF0A3E9F02275F5
:065E3F00C65A75C6A5223B
:1057A20090135112371D0000000B7F1E125E0F4036
:1057B2000475C780227F18125E0F400475C78122CC
:1057C200E47F14125E10400475C78222E47F0C123B
:1057D2005E10400475C78322E47F06125E10400407
:1057E20075C78422E47F03125E10400475C78522C8
:0F57F200E47F02125E10400475C7862275C787D8
:015801002284
:0D641600E4F5C7F5C5F5C675C380F5C422D1
:055F750090134BEFF05A
:105F7A00E4FF1257A275C50190134BE0F5C4E0FF88
:105F8A007808A2E713D8FBF5C3125E3EAFC2E5C795
:095F9A0030E40653C7EF7F332207
:015FA30022DB
:1061720090134EEEF0A3EFF0A3EDF01257A275C507
:106182000290134EA3E0FFF5C475C300A3E0F5C26D
:06619200125E3E026416DD
:10619800901348EEF0A3EFF01257A275C5039013C1
:1061A80048A3E0FFF5C475C300125E3E1264167F73
:0661B800047E0002630BEF
:105FFE00901348125E2F90134DE0FF14F0EF601BCC
:10600E00901348125E28AFF0FE90134A125E25A937
:0C601E00F0FA1234F5FD12617280DB22F2
:10608200901345125E2F90134AE0FF14F0EF601A4E
:10609200901345125E28AFF0125F75901347125E9F
:0B60A20025A9F0FAEF12355D80DC222A
:0433FA004113D703A1
:104F4300A2A6E43325E0FFA2A4E4334FFFA2A3E427
:104F53003325E025E04FFFA2A5E43333333354F880
:104F63004FFFA2A2E433C454F04F901347F09013C1
:104F7300D7E0601814604314602D14704E901347EB
:104F8300E0641F6046E49013D7F0803F7F0A7E0001
:104F930012630B901347E0FF641F602F9013D6EF4B
:104FA300F0A37402F08024901347E0641F701C90F8
:104FB30013D704F09013D6E0FF229013D6741FF09A
:0D4FC300A37403F07F0A7E0012630B7F1FB2
:014FD00022BE
:1054C500901354E02EFD125E51901358E0FBA3E0BB
:1054D500FAA3E022901353F9E0F5827583000235B3
:1054E5000E2FF9EA3EFA901358EBF0A3EAF0A3E980
:1054F500F090134BE0FFA3E0FD90135722F99013B2
:1055050061E0FF7E00E92FF9EE3AFA901360E022A0
:1055150034FFFE901356E0FD7C00023591FA1234FB
:10552500F5FF90135CE0FE22EEC39408748094802E
:015535002253
:10602A00C2B4C2B6E4FE12552D501EC2B3EF30E719
:10603A0004D2B28002C2B2D2B37D017801EF0880E5
:0B604A0002C333D8FCFF0E80DDD2B48F
:016055002228
:10605600C2B4D2B6E4FE12552D501EC2B3EF30E7DD
:1060660004D2B28002C2B2D2B37D017801EF0880B9
:0B60760002C333D8FCFF0E80DDD2B463
:0160810022FC
:1061BE00E4FCEC12552E501DEC24B0FF12602AE4C4
:1061CE00FBEBC394C0E494005008E4FF1260560B3E
:0561DE0080EF0C80DDE4
:0161E3002299
:0C5E4500FF901361E0FE901354E02EFD6E
:105E5100AE07AC05EEC3940274809480EE50042426
:105E6100B6800224AEFF12602AECC4540F2410FF46
:0A5E710012602AEC540FFF02602AB1
:1055A600C2B57F647E0012630BD2B57F327E0012D5
:1055B600630B7FE212602A7F327E0012630B7F2F1D
:1055C6001256057FA01255EE7F811255EE7FEB1223
:1055D60056057FC412602A7F147E0012630B7FAFCC
:1055E60012602AC2B70261BE12602A7F147E0012C0
:1055F600630B7F7012602A7F147E0012630B2212E7
:0A560600602A7F147E0012630B225D
:10585F00EF14602B04704E9013CE7418F09013D089
:10586F007410F09013CF740CF09013D374FFF0A357
:10587F007401F0A3743CF09013D2740CF080299053
:10588F0013CE7405F09013D07408F09013CF7405F5
:10589F00F09013D27407F0A374FFF0A37409F0A370
:0B58AF007404F080037F00227F0122C0
:085A1000901354EEF0A3EFF037
:105A1800E4FDFCED25E0FFEC33FE74962FF582746F
:105A2800003EF583E493FAED25E0FFEC33FE74972E
:105A38002FF58274003EF583E493FFEAFE90135439
:105A4800E06E7003A3E06F600B0DBD00010CED6408
:085A5800644C70BFAE04AF0501
:015A60002223
:1048FB0090134BEFF0A3EDF0A3EBF0A3EAF0A3E9D9
:01490B00F0BB
:10490C00A3E0FF12585FE4901353F090134D125430
:10491C00D11254D9FF7E00C3948074809480502CA3
:10492C00EF24E0FFEE34FFFE901351F0A3EFF07C88
:10493C00007D051235919013D31254D11254E674A4
:10494C0008F07B051249AD04F002499E90134D12FC
:10495C0054D11254D9FE901353E0FD7C00E92DF98B
:10496C00EC3AFA90000112350EFDEDFF125A109040
:10497C001351EEF0A3EFF07C007D181235919013DB
:10498C00D31254D11254E67410F07B0C1249AD249E
:10499C0002F090134D1254D11254D96003024917EE
:1049AC0022123F8C9013D2E0FF90134BE02FF0902B
:0449BC001353E0228F
:0C3F8C00901354EFF0901356EBF0AA05D0
:103F9800A3E0FF54076008EF54F82408FF80059059
:103FA8001357E0FF901357EFF0E0FDFFEA2FFFE40F
:103FB80033FEEF7803CEC313CE13D8F990135DF018
:103FC800FCED2A5407A3F0EA131313541FFF9013B0
:103FD8005BF0EA5407A3F0C3EC9F0490135FF0E48E
:103FE800A3F090135FE0FFA3E0C39F4003024136B4
:103FF80090135BE0FF90135DE09F50030240F0E4F4
:10400800901361F0901356E0FF901361E0FEC39F98
:10401800400302412D901360E0701D90135BE0FF98
:104028001254C59013611254DC125526F8EF08801B
:1040380002C333D8FC0240E390135FE014FFA3E00F
:104048006F703F90135DE0125E45901360E024FFAF
:10405800FFE41255151254CE2FF9EA3EFA90136177
:10406800E07E0029F9EE3AFA1234F5FF90135EE08B
:10407800FEC374089EFEF8EF088002C313D8FC0242
:1040880040E31254CE12550224FFFFEE125515E9F3
:104098002FF9EA3E125522C374089EFEF8EF0880F5
:1040A80002C313D8FC901362F01254CE125502FFCB
:1040B800901356E08FF0A429F9EA35F0125522F84A
:1040C800EF088002C333D8FCFB901360E0FF901325
:1040D8005BE02F125E45901362E04BFF1260569032
:1040E8001361E004F002400C90135BE0FF90136151
:1040F800E0FE1254C5F99013611254DDFF90135E6F
:10410800E004FEF87401088002C333D8FC14FE9062
:10411800135CE0FDF87401088002C333D8FC146E08
:0E4128005FFF126056901360E004F0023FEA61
:014136002266
:104FDD0002643BE493A3F8E493A34003F68001F24B
:104FED0008DFF48029E493A3F85407240CC8C333D5
:104FFD00C4540F4420C8834004F456800146F6DFA4
:10500D00E4800B01020408102040809020A8E47E6B
:10501D00019360BCA3FF543F30E509541FFEE49398
:10502D00A360010ECF54C025E060A840B8E493A35F
:10503D00FAE493A3F8E493A3C8C582C8CAC583CA8A
:10504D00F0A3C8C582C8CAC583CADFE9DEE780BE42
:0133FE0000CE
:1033FF00E709F608DFFA8046E709F208DFFA803EB0
:10340F0088828C83E709F0A3DFFA8032E309F6089C
:10341F00DFFA8078E309F208DFFA807088828C8304
:10342F00E309F0A3DFFA806489828A83E0A3F608B8
:10343F00DFFA805889828A83E0A3F208DFFA804C92
:10344F0080D280FA80C680D4806980F28033801069
:10345F0080A680EA809A80A880DA80E280CA8033D2
:10346F0089828A83ECFAE493A3C8C582C8CCC5834A
:10347F00CCF0A3C8C582C8CCC583CCDFE9DEE7801A
:10348F000D89828A83E493A3F608DFF9ECFAA9F099
:10349F00EDFB2289828A83ECFAE0A3C8C582C8CCEF
:1034AF00C583CCF0A3C8C582C8CCC583CCDFEADE08
:1034BF00E880DB89828A83E493A3F208DFF980CC6A
:1034CF0088F0EF60010E4E60C388F0ED2402B40463
:1034DF000050B9F582EB2402B4040050AF2323450A
:0634EF00822390344F73AC
:1034F500BB010689828A83E0225002E722BBFE02D5
:09350500E32289828A83E4932207
:10350E00BB010CE58229F582E5833AF583E0225072
:10351E0006E92582F8E622BBFE06E92582F8E222BC
:0D352E00E58229F582E5833AF583E49322D6
:10353B00BB010989828A83F8E028F022500327F720
:10354B0022BBFE05F8E328F3228A838982F8E493F1
:02355B00282224
:10355D00BB010689828A83F0225002F722BBFE014D
:02356D00F32247
:10356F00F8BB010DE58229F582E5833AF583E8F092
:10357F00225006E92582C8F622BBFE05E92582C83E
:02358F00F22226
:10359100EF8DF0A4A8F0CF8CF0A428CE8DF0A42E4E
:0235A100FE2208
:1035A300BC000BBE0029EF8DF084FFADF022E4CC0C
:1035B300F875F008EF2FFFEE33FEEC33FCEE9DECD5
:1035C300984005FCEE9DFE0FD5F0E9E4CEFD22ED1B
:1035D300F8F5F0EE8420D21CFEADF075F008EF2F65
:1035E300FFED33FD4007985006D5F0F222C398FD56
:0535F3000FD5F0EA22F3
:1035F800C2D5EC30E709B2D5E4C39DFDE49CFCEEEE
:1036080030E715B2D5E4C39FFFE49EFE1235A3C38D
:10361800E49DFDE49CFC80031235A330D507C3E488
:063628009FFFE49EFE225C
:10362E00C5F0F8A3E028F0C5F0F8E5821582700227
:06363E001583E038F022C4
:10364400A3F8E0C5F025F0F0E58215827002158339
:06365400E0C838F0E82296
:10365A00BB0110E58229F582E5833AF583E0F5F0AE
:10366A00A3E0225009E92582F886F008E622BBFE8B
:10367A000AE92582F8E2F5F008E222E5832AF583D1
:08368A00E993F5F0A3E9932296
:10369200BB010DC58229C582C5833AC58302362E78
:1036A2005011C58229F808E5F026F618F5F0E582F2
:1036B20036F622BBFE11C58229F808E225F0F5F0A4
:1036C200F218E23582F222F8E58229F582E5832AB0
:0D36D200F58374019325F0F5F0E4933822A0
:1036DF00F8BB0111E58229F582E5833AF583E8F01D
:1036EF00E5F0A3F0225009E92582C8F608A6F022DA
:0D36FF00BBFE09E92582C8F2E5F008F222C1
:10370C00EB9FF5F0EA9E42F0E99D42F0E89C45F013
:01371C00228A
:10371D00A8828583F0D083D08212373412373412C9
:10372D003734123734E473E493A3C583C5F0C583EE
:10373D00C8C582C8F0A3C583C5F0C583C8C582C8F6
:01374D002259
:0C374E00A42582F582E5F03583F5832286
:09375A00E0FBA3E0FAA3E0F92270
:10376300F8E0FBA3A3E0F925F0F0E58215827002EF
:073773001583E0FA38F02293
:09377A00EBF0A3EAF0A3E9F02250
:0C378300E493FB740193FA740293F922A2
:10378F00BB010DE58229F582E5833AF58302375AAD
:10379F005007E92582F80237F1BBFE07E92582F8C9
:1037AF000237FAE58229F582E5833AF583023783FA
:0637BF008A838982E47395
:1050E40090136AEBF0A3EAF0A3E9F090136DE0FBF0
:1050F400A3E0FAA3E0F91234F5FE90136AE0FBA3EF
:10510400E0FAA3E0F91234F5FF6E702AEF600E9016
:10511400137074FFF5F012362E45F070037F0022F1
:1051240090136BE475F00112362E90136EE475F053
:105134000112362E80B590136AE0FBA3E0FAA3E0D7
:10514400F91234F5FDD3EE6480F8ED6480984003E1
:105154007F012290136DE0FBA3E0FAA3E0F912347F
:07516400F5FFC3ED9FFF22E0
:10000E00E4FFFE1234F5600C0FEF70010E09E9707B
:05001E00F20A80EF2250
:1037C500EF4E6012EF60010EEDBB010B89828A831B
:1037D500F0A3DFFCDEFA2289F05007F709DFFCA928
:0C37E500F022BBFEFCF309DFFCA9F0227F
:0937F100E6FB08E6FA08E6F922FD
:0937FA00E2FB08E2FA08E2F92200
:00000001FF
